{
	"TodoList.sol": {
		"TodoList": {
			"abi": [
				{
					"inputs": [
						{
							"internalType": "string",
							"name": "Text",
							"type": "string"
						}
					],
					"name": "createTodo",
					"outputs": [],
					"stateMutability": "nonpayable",
					"type": "function"
				},
				{
					"inputs": [
						{
							"internalType": "uint256",
							"name": "index",
							"type": "uint256"
						}
					],
					"name": "revertCompleted",
					"outputs": [],
					"stateMutability": "nonpayable",
					"type": "function"
				},
				{
					"inputs": [
						{
							"internalType": "uint256",
							"name": "",
							"type": "uint256"
						}
					],
					"name": "todos",
					"outputs": [
						{
							"internalType": "string",
							"name": "text",
							"type": "string"
						},
						{
							"internalType": "bool",
							"name": "completed",
							"type": "bool"
						}
					],
					"stateMutability": "view",
					"type": "function"
				},
				{
					"inputs": [
						{
							"internalType": "uint256",
							"name": "index",
							"type": "uint256"
						},
						{
							"internalType": "string",
							"name": "newText",
							"type": "string"
						}
					],
					"name": "updateText",
					"outputs": [],
					"stateMutability": "nonpayable",
					"type": "function"
				}
			],
			"devdoc": {
				"kind": "dev",
				"methods": {},
				"version": 1
			},
			"evm": {
				"assembly": "    /* \"TodoList.sol\":61:498  contract TodoList{... */\n  mstore(0x40, 0x80)\n  callvalue\n  dup1\n  iszero\n  tag_1\n  jumpi\n  0x00\n  dup1\n  revert\ntag_1:\n  pop\n  dataSize(sub_0)\n  dup1\n  dataOffset(sub_0)\n  0x00\n  codecopy\n  0x00\n  return\nstop\n\nsub_0: assembly {\n        /* \"TodoList.sol\":61:498  contract TodoList{... */\n      mstore(0x40, 0x80)\n      callvalue\n      dup1\n      iszero\n      tag_1\n      jumpi\n      0x00\n      dup1\n      revert\n    tag_1:\n      pop\n      jumpi(tag_2, lt(calldatasize, 0x04))\n      shr(0xe0, calldataload(0x00))\n      dup1\n      0xa22057fb\n      eq\n      tag_3\n      jumpi\n      dup1\n      0xbc8bc2b4\n      eq\n      tag_4\n      jumpi\n      dup1\n      0xcd111614\n      eq\n      tag_5\n      jumpi\n      dup1\n      0xe34f1221\n      eq\n      tag_6\n      jumpi\n    tag_2:\n      0x00\n      dup1\n      revert\n        /* \"TodoList.sol\":376:489  function revertCompleted(uint index) external {... */\n    tag_3:\n      tag_7\n      0x04\n      dup1\n      calldatasize\n      sub\n      dup2\n      add\n      swap1\n      tag_8\n      swap2\n      swap1\n      tag_9\n      jump\t// in\n    tag_8:\n      tag_10\n      jump\t// in\n    tag_7:\n      stop\n        /* \"TodoList.sol\":161:180  Todo[] public todos */\n    tag_4:\n      tag_11\n      0x04\n      dup1\n      calldatasize\n      sub\n      dup2\n      add\n      swap1\n      tag_12\n      swap2\n      swap1\n      tag_9\n      jump\t// in\n    tag_12:\n      tag_13\n      jump\t// in\n    tag_11:\n      mload(0x40)\n      tag_14\n      swap3\n      swap2\n      swap1\n      tag_15\n      jump\t// in\n    tag_14:\n      mload(0x40)\n      dup1\n      swap2\n      sub\n      swap1\n      return\n        /* \"TodoList.sol\":294:368  function updateText(uint index, string memory newText) external {... */\n    tag_5:\n      tag_16\n      0x04\n      dup1\n      calldatasize\n      sub\n      dup2\n      add\n      swap1\n      tag_17\n      swap2\n      swap1\n      tag_18\n      jump\t// in\n    tag_17:\n      tag_19\n      jump\t// in\n    tag_16:\n      stop\n        /* \"TodoList.sol\":189:286  function createTodo(string memory Text) external {... */\n    tag_6:\n      tag_20\n      0x04\n      dup1\n      calldatasize\n      sub\n      dup2\n      add\n      swap1\n      tag_21\n      swap2\n      swap1\n      tag_22\n      jump\t// in\n    tag_21:\n      tag_23\n      jump\t// in\n    tag_20:\n      stop\n        /* \"TodoList.sol\":376:489  function revertCompleted(uint index) external {... */\n    tag_10:\n        /* \"TodoList.sol\":459:464  todos */\n      0x00\n        /* \"TodoList.sol\":465:470  index */\n      dup2\n        /* \"TodoList.sol\":459:471  todos[index] */\n      dup2\n      sload\n      dup2\n      lt\n      tag_25\n      jumpi\n      tag_26\n      tag_27\n      jump\t// in\n    tag_26:\n    tag_25:\n      swap1\n      0x00\n      mstore\n      keccak256(0x00, 0x20)\n      swap1\n      0x02\n      mul\n      add\n        /* \"TodoList.sol\":459:481  todos[index].completed */\n      0x01\n      add\n      0x00\n      swap1\n      sload\n      swap1\n      0x0100\n      exp\n      swap1\n      div\n      0xff\n      and\n        /* \"TodoList.sol\":458:481  !todos[index].completed */\n      iszero\n        /* \"TodoList.sol\":433:438  todos */\n      0x00\n        /* \"TodoList.sol\":439:444  index */\n      dup3\n        /* \"TodoList.sol\":433:445  todos[index] */\n      dup2\n      sload\n      dup2\n      lt\n      tag_29\n      jumpi\n      tag_30\n      tag_27\n      jump\t// in\n    tag_30:\n    tag_29:\n      swap1\n      0x00\n      mstore\n      keccak256(0x00, 0x20)\n      swap1\n      0x02\n      mul\n      add\n        /* \"TodoList.sol\":433:455  todos[index].completed */\n      0x01\n      add\n      0x00\n        /* \"TodoList.sol\":433:481  todos[index].completed = !todos[index].completed */\n      0x0100\n      exp\n      dup2\n      sload\n      dup2\n      0xff\n      mul\n      not\n      and\n      swap1\n      dup4\n      iszero\n      iszero\n      mul\n      or\n      swap1\n      sstore\n      pop\n        /* \"TodoList.sol\":376:489  function revertCompleted(uint index) external {... */\n      pop\n      jump\t// out\n        /* \"TodoList.sol\":161:180  Todo[] public todos */\n    tag_13:\n      0x00\n      dup2\n      dup2\n      sload\n      dup2\n      lt\n      tag_32\n      jumpi\n      0x00\n      dup1\n      revert\n    tag_32:\n      swap1\n      0x00\n      mstore\n      keccak256(0x00, 0x20)\n      swap1\n      0x02\n      mul\n      add\n      0x00\n      swap2\n      pop\n      swap1\n      pop\n      dup1\n      0x00\n      add\n      dup1\n      sload\n      tag_34\n      swap1\n      tag_35\n      jump\t// in\n    tag_34:\n      dup1\n      0x1f\n      add\n      0x20\n      dup1\n      swap2\n      div\n      mul\n      0x20\n      add\n      mload(0x40)\n      swap1\n      dup2\n      add\n      0x40\n      mstore\n      dup1\n      swap3\n      swap2\n      swap1\n      dup2\n      dup2\n      mstore\n      0x20\n      add\n      dup3\n      dup1\n      sload\n      tag_36\n      swap1\n      tag_35\n      jump\t// in\n    tag_36:\n      dup1\n      iszero\n      tag_37\n      jumpi\n      dup1\n      0x1f\n      lt\n      tag_38\n      jumpi\n      0x0100\n      dup1\n      dup4\n      sload\n      div\n      mul\n      dup4\n      mstore\n      swap2\n      0x20\n      add\n      swap2\n      jump(tag_37)\n    tag_38:\n      dup3\n      add\n      swap2\n      swap1\n      0x00\n      mstore\n      keccak256(0x00, 0x20)\n      swap1\n    tag_39:\n      dup2\n      sload\n      dup2\n      mstore\n      swap1\n      0x01\n      add\n      swap1\n      0x20\n      add\n      dup1\n      dup4\n      gt\n      tag_39\n      jumpi\n      dup3\n      swap1\n      sub\n      0x1f\n      and\n      dup3\n      add\n      swap2\n    tag_37:\n      pop\n      pop\n      pop\n      pop\n      pop\n      swap1\n      dup1\n      0x01\n      add\n      0x00\n      swap1\n      sload\n      swap1\n      0x0100\n      exp\n      swap1\n      div\n      0xff\n      and\n      swap1\n      pop\n      dup3\n      jump\t// out\n        /* \"TodoList.sol\":294:368  function updateText(uint index, string memory newText) external {... */\n    tag_19:\n      pop\n      pop\n      jump\t// out\n        /* \"TodoList.sol\":189:286  function createTodo(string memory Text) external {... */\n    tag_23:\n        /* \"TodoList.sol\":249:254  todos */\n      0x00\n        /* \"TodoList.sol\":260:277  Todo(Text, false) */\n      mload(0x40)\n      dup1\n      0x40\n      add\n      0x40\n      mstore\n      dup1\n        /* \"TodoList.sol\":265:269  Text */\n      dup4\n        /* \"TodoList.sol\":260:277  Todo(Text, false) */\n      dup2\n      mstore\n      0x20\n      add\n        /* \"TodoList.sol\":271:276  false */\n      0x00\n        /* \"TodoList.sol\":260:277  Todo(Text, false) */\n      iszero\n      iszero\n      dup2\n      mstore\n      pop\n        /* \"TodoList.sol\":249:278  todos.push(Todo(Text, false)) */\n      swap1\n      dup1\n      0x01\n      dup2\n      sload\n      add\n      dup1\n      dup3\n      sstore\n      dup1\n      swap2\n      pop\n      pop\n      0x01\n      swap1\n      sub\n      swap1\n      0x00\n      mstore\n      keccak256(0x00, 0x20)\n      swap1\n      0x02\n      mul\n      add\n      0x00\n      swap1\n      swap2\n      swap1\n      swap2\n      swap1\n      swap2\n      pop\n      0x00\n      dup3\n      add\n      mload\n      dup2\n      0x00\n      add\n      swap1\n      dup2\n      tag_43\n      swap2\n      swap1\n      tag_44\n      jump\t// in\n    tag_43:\n      pop\n      0x20\n      dup3\n      add\n      mload\n      dup2\n      0x01\n      add\n      exp(0x0100, 0x00)\n      dup2\n      sload\n      dup2\n      0xff\n      mul\n      not\n      and\n      swap1\n      dup4\n      iszero\n      iszero\n      mul\n      or\n      swap1\n      sstore\n      pop\n      pop\n      pop\n        /* \"TodoList.sol\":189:286  function createTodo(string memory Text) external {... */\n      pop\n      jump\t// out\n        /* \"#utility.yul\":7:82   */\n    tag_45:\n        /* \"#utility.yul\":40:46   */\n      0x00\n        /* \"#utility.yul\":73:75   */\n      0x40\n        /* \"#utility.yul\":67:76   */\n      mload\n        /* \"#utility.yul\":57:76   */\n      swap1\n      pop\n        /* \"#utility.yul\":7:82   */\n      swap1\n      jump\t// out\n        /* \"#utility.yul\":88:205   */\n    tag_46:\n        /* \"#utility.yul\":197:198   */\n      0x00\n        /* \"#utility.yul\":194:195   */\n      dup1\n        /* \"#utility.yul\":187:199   */\n      revert\n        /* \"#utility.yul\":211:328   */\n    tag_47:\n        /* \"#utility.yul\":320:321   */\n      0x00\n        /* \"#utility.yul\":317:318   */\n      dup1\n        /* \"#utility.yul\":310:322   */\n      revert\n        /* \"#utility.yul\":334:411   */\n    tag_48:\n        /* \"#utility.yul\":371:378   */\n      0x00\n        /* \"#utility.yul\":400:405   */\n      dup2\n        /* \"#utility.yul\":389:405   */\n      swap1\n      pop\n        /* \"#utility.yul\":334:411   */\n      swap2\n      swap1\n      pop\n      jump\t// out\n        /* \"#utility.yul\":417:539   */\n    tag_49:\n        /* \"#utility.yul\":490:514   */\n      tag_89\n        /* \"#utility.yul\":508:513   */\n      dup2\n        /* \"#utility.yul\":490:514   */\n      tag_48\n      jump\t// in\n    tag_89:\n        /* \"#utility.yul\":483:488   */\n      dup2\n        /* \"#utility.yul\":480:515   */\n      eq\n        /* \"#utility.yul\":470:533   */\n      tag_90\n      jumpi\n        /* \"#utility.yul\":529:530   */\n      0x00\n        /* \"#utility.yul\":526:527   */\n      dup1\n        /* \"#utility.yul\":519:531   */\n      revert\n        /* \"#utility.yul\":470:533   */\n    tag_90:\n        /* \"#utility.yul\":417:539   */\n      pop\n      jump\t// out\n        /* \"#utility.yul\":545:684   */\n    tag_50:\n        /* \"#utility.yul\":591:596   */\n      0x00\n        /* \"#utility.yul\":629:635   */\n      dup2\n        /* \"#utility.yul\":616:636   */\n      calldataload\n        /* \"#utility.yul\":607:636   */\n      swap1\n      pop\n        /* \"#utility.yul\":645:678   */\n      tag_92\n        /* \"#utility.yul\":672:677   */\n      dup2\n        /* \"#utility.yul\":645:678   */\n      tag_49\n      jump\t// in\n    tag_92:\n        /* \"#utility.yul\":545:684   */\n      swap3\n      swap2\n      pop\n      pop\n      jump\t// out\n        /* \"#utility.yul\":690:1019   */\n    tag_9:\n        /* \"#utility.yul\":749:755   */\n      0x00\n        /* \"#utility.yul\":798:800   */\n      0x20\n        /* \"#utility.yul\":786:795   */\n      dup3\n        /* \"#utility.yul\":777:784   */\n      dup5\n        /* \"#utility.yul\":773:796   */\n      sub\n        /* \"#utility.yul\":769:801   */\n      slt\n        /* \"#utility.yul\":766:885   */\n      iszero\n      tag_94\n      jumpi\n        /* \"#utility.yul\":804:883   */\n      tag_95\n      tag_46\n      jump\t// in\n    tag_95:\n        /* \"#utility.yul\":766:885   */\n    tag_94:\n        /* \"#utility.yul\":924:925   */\n      0x00\n        /* \"#utility.yul\":949:1002   */\n      tag_96\n        /* \"#utility.yul\":994:1001   */\n      dup5\n        /* \"#utility.yul\":985:991   */\n      dup3\n        /* \"#utility.yul\":974:983   */\n      dup6\n        /* \"#utility.yul\":970:992   */\n      add\n        /* \"#utility.yul\":949:1002   */\n      tag_50\n      jump\t// in\n    tag_96:\n        /* \"#utility.yul\":939:1002   */\n      swap2\n      pop\n        /* \"#utility.yul\":895:1012   */\n      pop\n        /* \"#utility.yul\":690:1019   */\n      swap3\n      swap2\n      pop\n      pop\n      jump\t// out\n        /* \"#utility.yul\":1025:1124   */\n    tag_51:\n        /* \"#utility.yul\":1077:1083   */\n      0x00\n        /* \"#utility.yul\":1111:1116   */\n      dup2\n        /* \"#utility.yul\":1105:1117   */\n      mload\n        /* \"#utility.yul\":1095:1117   */\n      swap1\n      pop\n        /* \"#utility.yul\":1025:1124   */\n      swap2\n      swap1\n      pop\n      jump\t// out\n        /* \"#utility.yul\":1130:1299   */\n    tag_52:\n        /* \"#utility.yul\":1214:1225   */\n      0x00\n        /* \"#utility.yul\":1248:1254   */\n      dup3\n        /* \"#utility.yul\":1243:1246   */\n      dup3\n        /* \"#utility.yul\":1236:1255   */\n      mstore\n        /* \"#utility.yul\":1288:1292   */\n      0x20\n        /* \"#utility.yul\":1283:1286   */\n      dup3\n        /* \"#utility.yul\":1279:1293   */\n      add\n        /* \"#utility.yul\":1264:1293   */\n      swap1\n      pop\n        /* \"#utility.yul\":1130:1299   */\n      swap3\n      swap2\n      pop\n      pop\n      jump\t// out\n        /* \"#utility.yul\":1305:1551   */\n    tag_53:\n        /* \"#utility.yul\":1386:1387   */\n      0x00\n        /* \"#utility.yul\":1396:1509   */\n    tag_100:\n        /* \"#utility.yul\":1410:1416   */\n      dup4\n        /* \"#utility.yul\":1407:1408   */\n      dup2\n        /* \"#utility.yul\":1404:1417   */\n      lt\n        /* \"#utility.yul\":1396:1509   */\n      iszero\n      tag_102\n      jumpi\n        /* \"#utility.yul\":1495:1496   */\n      dup1\n        /* \"#utility.yul\":1490:1493   */\n      dup3\n        /* \"#utility.yul\":1486:1497   */\n      add\n        /* \"#utility.yul\":1480:1498   */\n      mload\n        /* \"#utility.yul\":1476:1477   */\n      dup2\n        /* \"#utility.yul\":1471:1474   */\n      dup5\n        /* \"#utility.yul\":1467:1478   */\n      add\n        /* \"#utility.yul\":1460:1499   */\n      mstore\n        /* \"#utility.yul\":1432:1434   */\n      0x20\n        /* \"#utility.yul\":1429:1430   */\n      dup2\n        /* \"#utility.yul\":1425:1435   */\n      add\n        /* \"#utility.yul\":1420:1435   */\n      swap1\n      pop\n        /* \"#utility.yul\":1396:1509   */\n      jump(tag_100)\n    tag_102:\n        /* \"#utility.yul\":1543:1544   */\n      0x00\n        /* \"#utility.yul\":1534:1540   */\n      dup5\n        /* \"#utility.yul\":1529:1532   */\n      dup5\n        /* \"#utility.yul\":1525:1541   */\n      add\n        /* \"#utility.yul\":1518:1545   */\n      mstore\n        /* \"#utility.yul\":1367:1551   */\n      pop\n        /* \"#utility.yul\":1305:1551   */\n      pop\n      pop\n      pop\n      jump\t// out\n        /* \"#utility.yul\":1557:1659   */\n    tag_54:\n        /* \"#utility.yul\":1598:1604   */\n      0x00\n        /* \"#utility.yul\":1649:1651   */\n      0x1f\n        /* \"#utility.yul\":1645:1652   */\n      not\n        /* \"#utility.yul\":1640:1642   */\n      0x1f\n        /* \"#utility.yul\":1633:1638   */\n      dup4\n        /* \"#utility.yul\":1629:1643   */\n      add\n        /* \"#utility.yul\":1625:1653   */\n      and\n        /* \"#utility.yul\":1615:1653   */\n      swap1\n      pop\n        /* \"#utility.yul\":1557:1659   */\n      swap2\n      swap1\n      pop\n      jump\t// out\n        /* \"#utility.yul\":1665:2042   */\n    tag_55:\n        /* \"#utility.yul\":1753:1756   */\n      0x00\n        /* \"#utility.yul\":1781:1820   */\n      tag_105\n        /* \"#utility.yul\":1814:1819   */\n      dup3\n        /* \"#utility.yul\":1781:1820   */\n      tag_51\n      jump\t// in\n    tag_105:\n        /* \"#utility.yul\":1836:1907   */\n      tag_106\n        /* \"#utility.yul\":1900:1906   */\n      dup2\n        /* \"#utility.yul\":1895:1898   */\n      dup6\n        /* \"#utility.yul\":1836:1907   */\n      tag_52\n      jump\t// in\n    tag_106:\n        /* \"#utility.yul\":1829:1907   */\n      swap4\n      pop\n        /* \"#utility.yul\":1916:1981   */\n      tag_107\n        /* \"#utility.yul\":1974:1980   */\n      dup2\n        /* \"#utility.yul\":1969:1972   */\n      dup6\n        /* \"#utility.yul\":1962:1966   */\n      0x20\n        /* \"#utility.yul\":1955:1960   */\n      dup7\n        /* \"#utility.yul\":1951:1967   */\n      add\n        /* \"#utility.yul\":1916:1981   */\n      tag_53\n      jump\t// in\n    tag_107:\n        /* \"#utility.yul\":2006:2035   */\n      tag_108\n        /* \"#utility.yul\":2028:2034   */\n      dup2\n        /* \"#utility.yul\":2006:2035   */\n      tag_54\n      jump\t// in\n    tag_108:\n        /* \"#utility.yul\":2001:2004   */\n      dup5\n        /* \"#utility.yul\":1997:2036   */\n      add\n        /* \"#utility.yul\":1990:2036   */\n      swap2\n      pop\n        /* \"#utility.yul\":1757:2042   */\n      pop\n        /* \"#utility.yul\":1665:2042   */\n      swap3\n      swap2\n      pop\n      pop\n      jump\t// out\n        /* \"#utility.yul\":2048:2138   */\n    tag_56:\n        /* \"#utility.yul\":2082:2089   */\n      0x00\n        /* \"#utility.yul\":2125:2130   */\n      dup2\n        /* \"#utility.yul\":2118:2131   */\n      iszero\n        /* \"#utility.yul\":2111:2132   */\n      iszero\n        /* \"#utility.yul\":2100:2132   */\n      swap1\n      pop\n        /* \"#utility.yul\":2048:2138   */\n      swap2\n      swap1\n      pop\n      jump\t// out\n        /* \"#utility.yul\":2144:2253   */\n    tag_57:\n        /* \"#utility.yul\":2225:2246   */\n      tag_111\n        /* \"#utility.yul\":2240:2245   */\n      dup2\n        /* \"#utility.yul\":2225:2246   */\n      tag_56\n      jump\t// in\n    tag_111:\n        /* \"#utility.yul\":2220:2223   */\n      dup3\n        /* \"#utility.yul\":2213:2247   */\n      mstore\n        /* \"#utility.yul\":2144:2253   */\n      pop\n      pop\n      jump\t// out\n        /* \"#utility.yul\":2259:2670   */\n    tag_15:\n        /* \"#utility.yul\":2394:2398   */\n      0x00\n        /* \"#utility.yul\":2432:2434   */\n      0x40\n        /* \"#utility.yul\":2421:2430   */\n      dup3\n        /* \"#utility.yul\":2417:2435   */\n      add\n        /* \"#utility.yul\":2409:2435   */\n      swap1\n      pop\n        /* \"#utility.yul\":2481:2490   */\n      dup2\n        /* \"#utility.yul\":2475:2479   */\n      dup2\n        /* \"#utility.yul\":2471:2491   */\n      sub\n        /* \"#utility.yul\":2467:2468   */\n      0x00\n        /* \"#utility.yul\":2456:2465   */\n      dup4\n        /* \"#utility.yul\":2452:2469   */\n      add\n        /* \"#utility.yul\":2445:2492   */\n      mstore\n        /* \"#utility.yul\":2509:2587   */\n      tag_113\n        /* \"#utility.yul\":2582:2586   */\n      dup2\n        /* \"#utility.yul\":2573:2579   */\n      dup6\n        /* \"#utility.yul\":2509:2587   */\n      tag_55\n      jump\t// in\n    tag_113:\n        /* \"#utility.yul\":2501:2587   */\n      swap1\n      pop\n        /* \"#utility.yul\":2597:2663   */\n      tag_114\n        /* \"#utility.yul\":2659:2661   */\n      0x20\n        /* \"#utility.yul\":2648:2657   */\n      dup4\n        /* \"#utility.yul\":2644:2662   */\n      add\n        /* \"#utility.yul\":2635:2641   */\n      dup5\n        /* \"#utility.yul\":2597:2663   */\n      tag_57\n      jump\t// in\n    tag_114:\n        /* \"#utility.yul\":2259:2670   */\n      swap4\n      swap3\n      pop\n      pop\n      pop\n      jump\t// out\n        /* \"#utility.yul\":2676:2793   */\n    tag_58:\n        /* \"#utility.yul\":2785:2786   */\n      0x00\n        /* \"#utility.yul\":2782:2783   */\n      dup1\n        /* \"#utility.yul\":2775:2787   */\n      revert\n        /* \"#utility.yul\":2799:2916   */\n    tag_59:\n        /* \"#utility.yul\":2908:2909   */\n      0x00\n        /* \"#utility.yul\":2905:2906   */\n      dup1\n        /* \"#utility.yul\":2898:2910   */\n      revert\n        /* \"#utility.yul\":2922:3102   */\n    tag_60:\n        /* \"#utility.yul\":2970:3047   */\n      0x4e487b7100000000000000000000000000000000000000000000000000000000\n        /* \"#utility.yul\":2967:2968   */\n      0x00\n        /* \"#utility.yul\":2960:3048   */\n      mstore\n        /* \"#utility.yul\":3067:3071   */\n      0x41\n        /* \"#utility.yul\":3064:3065   */\n      0x04\n        /* \"#utility.yul\":3057:3072   */\n      mstore\n        /* \"#utility.yul\":3091:3095   */\n      0x24\n        /* \"#utility.yul\":3088:3089   */\n      0x00\n        /* \"#utility.yul\":3081:3096   */\n      revert\n        /* \"#utility.yul\":3108:3389   */\n    tag_61:\n        /* \"#utility.yul\":3191:3218   */\n      tag_119\n        /* \"#utility.yul\":3213:3217   */\n      dup3\n        /* \"#utility.yul\":3191:3218   */\n      tag_54\n      jump\t// in\n    tag_119:\n        /* \"#utility.yul\":3183:3189   */\n      dup2\n        /* \"#utility.yul\":3179:3219   */\n      add\n        /* \"#utility.yul\":3321:3327   */\n      dup2\n        /* \"#utility.yul\":3309:3319   */\n      dup2\n        /* \"#utility.yul\":3306:3328   */\n      lt\n        /* \"#utility.yul\":3285:3303   */\n      0xffffffffffffffff\n        /* \"#utility.yul\":3273:3283   */\n      dup3\n        /* \"#utility.yul\":3270:3304   */\n      gt\n        /* \"#utility.yul\":3267:3329   */\n      or\n        /* \"#utility.yul\":3264:3352   */\n      iszero\n      tag_120\n      jumpi\n        /* \"#utility.yul\":3332:3350   */\n      tag_121\n      tag_60\n      jump\t// in\n    tag_121:\n        /* \"#utility.yul\":3264:3352   */\n    tag_120:\n        /* \"#utility.yul\":3372:3382   */\n      dup1\n        /* \"#utility.yul\":3368:3370   */\n      0x40\n        /* \"#utility.yul\":3361:3383   */\n      mstore\n        /* \"#utility.yul\":3151:3389   */\n      pop\n        /* \"#utility.yul\":3108:3389   */\n      pop\n      pop\n      jump\t// out\n        /* \"#utility.yul\":3395:3524   */\n    tag_62:\n        /* \"#utility.yul\":3429:3435   */\n      0x00\n        /* \"#utility.yul\":3456:3476   */\n      tag_123\n      tag_45\n      jump\t// in\n    tag_123:\n        /* \"#utility.yul\":3446:3476   */\n      swap1\n      pop\n        /* \"#utility.yul\":3485:3518   */\n      tag_124\n        /* \"#utility.yul\":3513:3517   */\n      dup3\n        /* \"#utility.yul\":3505:3511   */\n      dup3\n        /* \"#utility.yul\":3485:3518   */\n      tag_61\n      jump\t// in\n    tag_124:\n        /* \"#utility.yul\":3395:3524   */\n      swap2\n      swap1\n      pop\n      jump\t// out\n        /* \"#utility.yul\":3530:3838   */\n    tag_63:\n        /* \"#utility.yul\":3592:3596   */\n      0x00\n        /* \"#utility.yul\":3682:3700   */\n      0xffffffffffffffff\n        /* \"#utility.yul\":3674:3680   */\n      dup3\n        /* \"#utility.yul\":3671:3701   */\n      gt\n        /* \"#utility.yul\":3668:3724   */\n      iszero\n      tag_126\n      jumpi\n        /* \"#utility.yul\":3704:3722   */\n      tag_127\n      tag_60\n      jump\t// in\n    tag_127:\n        /* \"#utility.yul\":3668:3724   */\n    tag_126:\n        /* \"#utility.yul\":3742:3771   */\n      tag_128\n        /* \"#utility.yul\":3764:3770   */\n      dup3\n        /* \"#utility.yul\":3742:3771   */\n      tag_54\n      jump\t// in\n    tag_128:\n        /* \"#utility.yul\":3734:3771   */\n      swap1\n      pop\n        /* \"#utility.yul\":3826:3830   */\n      0x20\n        /* \"#utility.yul\":3820:3824   */\n      dup2\n        /* \"#utility.yul\":3816:3831   */\n      add\n        /* \"#utility.yul\":3808:3831   */\n      swap1\n      pop\n        /* \"#utility.yul\":3530:3838   */\n      swap2\n      swap1\n      pop\n      jump\t// out\n        /* \"#utility.yul\":3844:3990   */\n    tag_64:\n        /* \"#utility.yul\":3941:3947   */\n      dup3\n        /* \"#utility.yul\":3936:3939   */\n      dup2\n        /* \"#utility.yul\":3931:3934   */\n      dup4\n        /* \"#utility.yul\":3918:3948   */\n      calldatacopy\n        /* \"#utility.yul\":3982:3983   */\n      0x00\n        /* \"#utility.yul\":3973:3979   */\n      dup4\n        /* \"#utility.yul\":3968:3971   */\n      dup4\n        /* \"#utility.yul\":3964:3980   */\n      add\n        /* \"#utility.yul\":3957:3984   */\n      mstore\n        /* \"#utility.yul\":3844:3990   */\n      pop\n      pop\n      pop\n      jump\t// out\n        /* \"#utility.yul\":3996:4421   */\n    tag_65:\n        /* \"#utility.yul\":4074:4079   */\n      0x00\n        /* \"#utility.yul\":4099:4165   */\n      tag_131\n        /* \"#utility.yul\":4115:4164   */\n      tag_132\n        /* \"#utility.yul\":4157:4163   */\n      dup5\n        /* \"#utility.yul\":4115:4164   */\n      tag_63\n      jump\t// in\n    tag_132:\n        /* \"#utility.yul\":4099:4165   */\n      tag_62\n      jump\t// in\n    tag_131:\n        /* \"#utility.yul\":4090:4165   */\n      swap1\n      pop\n        /* \"#utility.yul\":4188:4194   */\n      dup3\n        /* \"#utility.yul\":4181:4186   */\n      dup2\n        /* \"#utility.yul\":4174:4195   */\n      mstore\n        /* \"#utility.yul\":4226:4230   */\n      0x20\n        /* \"#utility.yul\":4219:4224   */\n      dup2\n        /* \"#utility.yul\":4215:4231   */\n      add\n        /* \"#utility.yul\":4264:4267   */\n      dup5\n        /* \"#utility.yul\":4255:4261   */\n      dup5\n        /* \"#utility.yul\":4250:4253   */\n      dup5\n        /* \"#utility.yul\":4246:4262   */\n      add\n        /* \"#utility.yul\":4243:4268   */\n      gt\n        /* \"#utility.yul\":4240:4352   */\n      iszero\n      tag_133\n      jumpi\n        /* \"#utility.yul\":4271:4350   */\n      tag_134\n      tag_59\n      jump\t// in\n    tag_134:\n        /* \"#utility.yul\":4240:4352   */\n    tag_133:\n        /* \"#utility.yul\":4361:4415   */\n      tag_135\n        /* \"#utility.yul\":4408:4414   */\n      dup5\n        /* \"#utility.yul\":4403:4406   */\n      dup3\n        /* \"#utility.yul\":4398:4401   */\n      dup6\n        /* \"#utility.yul\":4361:4415   */\n      tag_64\n      jump\t// in\n    tag_135:\n        /* \"#utility.yul\":4080:4421   */\n      pop\n        /* \"#utility.yul\":3996:4421   */\n      swap4\n      swap3\n      pop\n      pop\n      pop\n      jump\t// out\n        /* \"#utility.yul\":4441:4781   */\n    tag_66:\n        /* \"#utility.yul\":4497:4502   */\n      0x00\n        /* \"#utility.yul\":4546:4549   */\n      dup3\n        /* \"#utility.yul\":4539:4543   */\n      0x1f\n        /* \"#utility.yul\":4531:4537   */\n      dup4\n        /* \"#utility.yul\":4527:4544   */\n      add\n        /* \"#utility.yul\":4523:4550   */\n      slt\n        /* \"#utility.yul\":4513:4635   */\n      tag_137\n      jumpi\n        /* \"#utility.yul\":4554:4633   */\n      tag_138\n      tag_58\n      jump\t// in\n    tag_138:\n        /* \"#utility.yul\":4513:4635   */\n    tag_137:\n        /* \"#utility.yul\":4671:4677   */\n      dup2\n        /* \"#utility.yul\":4658:4678   */\n      calldataload\n        /* \"#utility.yul\":4696:4775   */\n      tag_139\n        /* \"#utility.yul\":4771:4774   */\n      dup5\n        /* \"#utility.yul\":4763:4769   */\n      dup3\n        /* \"#utility.yul\":4756:4760   */\n      0x20\n        /* \"#utility.yul\":4748:4754   */\n      dup7\n        /* \"#utility.yul\":4744:4761   */\n      add\n        /* \"#utility.yul\":4696:4775   */\n      tag_65\n      jump\t// in\n    tag_139:\n        /* \"#utility.yul\":4687:4775   */\n      swap2\n      pop\n        /* \"#utility.yul\":4503:4781   */\n      pop\n        /* \"#utility.yul\":4441:4781   */\n      swap3\n      swap2\n      pop\n      pop\n      jump\t// out\n        /* \"#utility.yul\":4787:5441   */\n    tag_18:\n        /* \"#utility.yul\":4865:4871   */\n      0x00\n        /* \"#utility.yul\":4873:4879   */\n      dup1\n        /* \"#utility.yul\":4922:4924   */\n      0x40\n        /* \"#utility.yul\":4910:4919   */\n      dup4\n        /* \"#utility.yul\":4901:4908   */\n      dup6\n        /* \"#utility.yul\":4897:4920   */\n      sub\n        /* \"#utility.yul\":4893:4925   */\n      slt\n        /* \"#utility.yul\":4890:5009   */\n      iszero\n      tag_141\n      jumpi\n        /* \"#utility.yul\":4928:5007   */\n      tag_142\n      tag_46\n      jump\t// in\n    tag_142:\n        /* \"#utility.yul\":4890:5009   */\n    tag_141:\n        /* \"#utility.yul\":5048:5049   */\n      0x00\n        /* \"#utility.yul\":5073:5126   */\n      tag_143\n        /* \"#utility.yul\":5118:5125   */\n      dup6\n        /* \"#utility.yul\":5109:5115   */\n      dup3\n        /* \"#utility.yul\":5098:5107   */\n      dup7\n        /* \"#utility.yul\":5094:5116   */\n      add\n        /* \"#utility.yul\":5073:5126   */\n      tag_50\n      jump\t// in\n    tag_143:\n        /* \"#utility.yul\":5063:5126   */\n      swap3\n      pop\n        /* \"#utility.yul\":5019:5136   */\n      pop\n        /* \"#utility.yul\":5203:5205   */\n      0x20\n        /* \"#utility.yul\":5192:5201   */\n      dup4\n        /* \"#utility.yul\":5188:5206   */\n      add\n        /* \"#utility.yul\":5175:5207   */\n      calldataload\n        /* \"#utility.yul\":5234:5252   */\n      0xffffffffffffffff\n        /* \"#utility.yul\":5226:5232   */\n      dup2\n        /* \"#utility.yul\":5223:5253   */\n      gt\n        /* \"#utility.yul\":5220:5337   */\n      iszero\n      tag_144\n      jumpi\n        /* \"#utility.yul\":5256:5335   */\n      tag_145\n      tag_47\n      jump\t// in\n    tag_145:\n        /* \"#utility.yul\":5220:5337   */\n    tag_144:\n        /* \"#utility.yul\":5361:5424   */\n      tag_146\n        /* \"#utility.yul\":5416:5423   */\n      dup6\n        /* \"#utility.yul\":5407:5413   */\n      dup3\n        /* \"#utility.yul\":5396:5405   */\n      dup7\n        /* \"#utility.yul\":5392:5414   */\n      add\n        /* \"#utility.yul\":5361:5424   */\n      tag_66\n      jump\t// in\n    tag_146:\n        /* \"#utility.yul\":5351:5424   */\n      swap2\n      pop\n        /* \"#utility.yul\":5146:5434   */\n      pop\n        /* \"#utility.yul\":4787:5441   */\n      swap3\n      pop\n      swap3\n      swap1\n      pop\n      jump\t// out\n        /* \"#utility.yul\":5447:5956   */\n    tag_22:\n        /* \"#utility.yul\":5516:5522   */\n      0x00\n        /* \"#utility.yul\":5565:5567   */\n      0x20\n        /* \"#utility.yul\":5553:5562   */\n      dup3\n        /* \"#utility.yul\":5544:5551   */\n      dup5\n        /* \"#utility.yul\":5540:5563   */\n      sub\n        /* \"#utility.yul\":5536:5568   */\n      slt\n        /* \"#utility.yul\":5533:5652   */\n      iszero\n      tag_148\n      jumpi\n        /* \"#utility.yul\":5571:5650   */\n      tag_149\n      tag_46\n      jump\t// in\n    tag_149:\n        /* \"#utility.yul\":5533:5652   */\n    tag_148:\n        /* \"#utility.yul\":5719:5720   */\n      0x00\n        /* \"#utility.yul\":5708:5717   */\n      dup3\n        /* \"#utility.yul\":5704:5721   */\n      add\n        /* \"#utility.yul\":5691:5722   */\n      calldataload\n        /* \"#utility.yul\":5749:5767   */\n      0xffffffffffffffff\n        /* \"#utility.yul\":5741:5747   */\n      dup2\n        /* \"#utility.yul\":5738:5768   */\n      gt\n        /* \"#utility.yul\":5735:5852   */\n      iszero\n      tag_150\n      jumpi\n        /* \"#utility.yul\":5771:5850   */\n      tag_151\n      tag_47\n      jump\t// in\n    tag_151:\n        /* \"#utility.yul\":5735:5852   */\n    tag_150:\n        /* \"#utility.yul\":5876:5939   */\n      tag_152\n        /* \"#utility.yul\":5931:5938   */\n      dup5\n        /* \"#utility.yul\":5922:5928   */\n      dup3\n        /* \"#utility.yul\":5911:5920   */\n      dup6\n        /* \"#utility.yul\":5907:5929   */\n      add\n        /* \"#utility.yul\":5876:5939   */\n      tag_66\n      jump\t// in\n    tag_152:\n        /* \"#utility.yul\":5866:5939   */\n      swap2\n      pop\n        /* \"#utility.yul\":5662:5949   */\n      pop\n        /* \"#utility.yul\":5447:5956   */\n      swap3\n      swap2\n      pop\n      pop\n      jump\t// out\n        /* \"#utility.yul\":5962:6142   */\n    tag_27:\n        /* \"#utility.yul\":6010:6087   */\n      0x4e487b7100000000000000000000000000000000000000000000000000000000\n        /* \"#utility.yul\":6007:6008   */\n      0x00\n        /* \"#utility.yul\":6000:6088   */\n      mstore\n        /* \"#utility.yul\":6107:6111   */\n      0x32\n        /* \"#utility.yul\":6104:6105   */\n      0x04\n        /* \"#utility.yul\":6097:6112   */\n      mstore\n        /* \"#utility.yul\":6131:6135   */\n      0x24\n        /* \"#utility.yul\":6128:6129   */\n      0x00\n        /* \"#utility.yul\":6121:6136   */\n      revert\n        /* \"#utility.yul\":6148:6328   */\n    tag_67:\n        /* \"#utility.yul\":6196:6273   */\n      0x4e487b7100000000000000000000000000000000000000000000000000000000\n        /* \"#utility.yul\":6193:6194   */\n      0x00\n        /* \"#utility.yul\":6186:6274   */\n      mstore\n        /* \"#utility.yul\":6293:6297   */\n      0x22\n        /* \"#utility.yul\":6290:6291   */\n      0x04\n        /* \"#utility.yul\":6283:6298   */\n      mstore\n        /* \"#utility.yul\":6317:6321   */\n      0x24\n        /* \"#utility.yul\":6314:6315   */\n      0x00\n        /* \"#utility.yul\":6307:6322   */\n      revert\n        /* \"#utility.yul\":6334:6654   */\n    tag_35:\n        /* \"#utility.yul\":6378:6384   */\n      0x00\n        /* \"#utility.yul\":6415:6416   */\n      0x02\n        /* \"#utility.yul\":6409:6413   */\n      dup3\n        /* \"#utility.yul\":6405:6417   */\n      div\n        /* \"#utility.yul\":6395:6417   */\n      swap1\n      pop\n        /* \"#utility.yul\":6462:6463   */\n      0x01\n        /* \"#utility.yul\":6456:6460   */\n      dup3\n        /* \"#utility.yul\":6452:6464   */\n      and\n        /* \"#utility.yul\":6483:6501   */\n      dup1\n        /* \"#utility.yul\":6473:6554   */\n      tag_156\n      jumpi\n        /* \"#utility.yul\":6539:6543   */\n      0x7f\n        /* \"#utility.yul\":6531:6537   */\n      dup3\n        /* \"#utility.yul\":6527:6544   */\n      and\n        /* \"#utility.yul\":6517:6544   */\n      swap2\n      pop\n        /* \"#utility.yul\":6473:6554   */\n    tag_156:\n        /* \"#utility.yul\":6601:6603   */\n      0x20\n        /* \"#utility.yul\":6593:6599   */\n      dup3\n        /* \"#utility.yul\":6590:6604   */\n      lt\n        /* \"#utility.yul\":6570:6588   */\n      dup2\n        /* \"#utility.yul\":6567:6605   */\n      sub\n        /* \"#utility.yul\":6564:6648   */\n      tag_157\n      jumpi\n        /* \"#utility.yul\":6620:6638   */\n      tag_158\n      tag_67\n      jump\t// in\n    tag_158:\n        /* \"#utility.yul\":6564:6648   */\n    tag_157:\n        /* \"#utility.yul\":6385:6654   */\n      pop\n        /* \"#utility.yul\":6334:6654   */\n      swap2\n      swap1\n      pop\n      jump\t// out\n        /* \"#utility.yul\":6660:6801   */\n    tag_68:\n        /* \"#utility.yul\":6709:6713   */\n      0x00\n        /* \"#utility.yul\":6732:6735   */\n      dup2\n        /* \"#utility.yul\":6724:6735   */\n      swap1\n      pop\n        /* \"#utility.yul\":6755:6758   */\n      dup2\n        /* \"#utility.yul\":6752:6753   */\n      0x00\n        /* \"#utility.yul\":6745:6759   */\n      mstore\n        /* \"#utility.yul\":6789:6793   */\n      0x20\n        /* \"#utility.yul\":6786:6787   */\n      0x00\n        /* \"#utility.yul\":6776:6794   */\n      keccak256\n        /* \"#utility.yul\":6768:6794   */\n      swap1\n      pop\n        /* \"#utility.yul\":6660:6801   */\n      swap2\n      swap1\n      pop\n      jump\t// out\n        /* \"#utility.yul\":6807:6900   */\n    tag_69:\n        /* \"#utility.yul\":6844:6850   */\n      0x00\n        /* \"#utility.yul\":6891:6893   */\n      0x20\n        /* \"#utility.yul\":6886:6888   */\n      0x1f\n        /* \"#utility.yul\":6879:6884   */\n      dup4\n        /* \"#utility.yul\":6875:6889   */\n      add\n        /* \"#utility.yul\":6871:6894   */\n      div\n        /* \"#utility.yul\":6861:6894   */\n      swap1\n      pop\n        /* \"#utility.yul\":6807:6900   */\n      swap2\n      swap1\n      pop\n      jump\t// out\n        /* \"#utility.yul\":6906:7013   */\n    tag_70:\n        /* \"#utility.yul\":6950:6958   */\n      0x00\n        /* \"#utility.yul\":7000:7005   */\n      dup3\n        /* \"#utility.yul\":6994:6998   */\n      dup3\n        /* \"#utility.yul\":6990:7006   */\n      shl\n        /* \"#utility.yul\":6969:7006   */\n      swap1\n      pop\n        /* \"#utility.yul\":6906:7013   */\n      swap3\n      swap2\n      pop\n      pop\n      jump\t// out\n        /* \"#utility.yul\":7019:7412   */\n    tag_71:\n        /* \"#utility.yul\":7088:7094   */\n      0x00\n        /* \"#utility.yul\":7138:7139   */\n      0x08\n        /* \"#utility.yul\":7126:7136   */\n      dup4\n        /* \"#utility.yul\":7122:7140   */\n      mul\n        /* \"#utility.yul\":7161:7258   */\n      tag_163\n        /* \"#utility.yul\":7191:7257   */\n      0xffffffffffffffffffffffffffffffffffffffffffffffffffffffffffffffff\n        /* \"#utility.yul\":7180:7189   */\n      dup3\n        /* \"#utility.yul\":7161:7258   */\n      tag_70\n      jump\t// in\n    tag_163:\n        /* \"#utility.yul\":7279:7318   */\n      tag_164\n        /* \"#utility.yul\":7309:7317   */\n      dup7\n        /* \"#utility.yul\":7298:7307   */\n      dup4\n        /* \"#utility.yul\":7279:7318   */\n      tag_70\n      jump\t// in\n    tag_164:\n        /* \"#utility.yul\":7267:7318   */\n      swap6\n      pop\n        /* \"#utility.yul\":7351:7355   */\n      dup1\n        /* \"#utility.yul\":7347:7356   */\n      not\n        /* \"#utility.yul\":7340:7345   */\n      dup5\n        /* \"#utility.yul\":7336:7357   */\n      and\n        /* \"#utility.yul\":7327:7357   */\n      swap4\n      pop\n        /* \"#utility.yul\":7400:7404   */\n      dup1\n        /* \"#utility.yul\":7390:7398   */\n      dup7\n        /* \"#utility.yul\":7386:7405   */\n      and\n        /* \"#utility.yul\":7379:7384   */\n      dup5\n        /* \"#utility.yul\":7376:7406   */\n      or\n        /* \"#utility.yul\":7366:7406   */\n      swap3\n      pop\n        /* \"#utility.yul\":7095:7412   */\n      pop\n      pop\n        /* \"#utility.yul\":7019:7412   */\n      swap4\n      swap3\n      pop\n      pop\n      pop\n      jump\t// out\n        /* \"#utility.yul\":7418:7478   */\n    tag_72:\n        /* \"#utility.yul\":7446:7449   */\n      0x00\n        /* \"#utility.yul\":7467:7472   */\n      dup2\n        /* \"#utility.yul\":7460:7472   */\n      swap1\n      pop\n        /* \"#utility.yul\":7418:7478   */\n      swap2\n      swap1\n      pop\n      jump\t// out\n        /* \"#utility.yul\":7484:7626   */\n    tag_73:\n        /* \"#utility.yul\":7534:7543   */\n      0x00\n        /* \"#utility.yul\":7567:7620   */\n      tag_167\n        /* \"#utility.yul\":7585:7619   */\n      tag_168\n        /* \"#utility.yul\":7594:7618   */\n      tag_169\n        /* \"#utility.yul\":7612:7617   */\n      dup5\n        /* \"#utility.yul\":7594:7618   */\n      tag_48\n      jump\t// in\n    tag_169:\n        /* \"#utility.yul\":7585:7619   */\n      tag_72\n      jump\t// in\n    tag_168:\n        /* \"#utility.yul\":7567:7620   */\n      tag_48\n      jump\t// in\n    tag_167:\n        /* \"#utility.yul\":7554:7620   */\n      swap1\n      pop\n        /* \"#utility.yul\":7484:7626   */\n      swap2\n      swap1\n      pop\n      jump\t// out\n        /* \"#utility.yul\":7632:7707   */\n    tag_74:\n        /* \"#utility.yul\":7675:7678   */\n      0x00\n        /* \"#utility.yul\":7696:7701   */\n      dup2\n        /* \"#utility.yul\":7689:7701   */\n      swap1\n      pop\n        /* \"#utility.yul\":7632:7707   */\n      swap2\n      swap1\n      pop\n      jump\t// out\n        /* \"#utility.yul\":7713:7982   */\n    tag_75:\n        /* \"#utility.yul\":7823:7862   */\n      tag_172\n        /* \"#utility.yul\":7854:7861   */\n      dup4\n        /* \"#utility.yul\":7823:7862   */\n      tag_73\n      jump\t// in\n    tag_172:\n        /* \"#utility.yul\":7884:7975   */\n      tag_173\n        /* \"#utility.yul\":7933:7974   */\n      tag_174\n        /* \"#utility.yul\":7957:7973   */\n      dup3\n        /* \"#utility.yul\":7933:7974   */\n      tag_74\n      jump\t// in\n    tag_174:\n        /* \"#utility.yul\":7925:7931   */\n      dup5\n        /* \"#utility.yul\":7918:7922   */\n      dup5\n        /* \"#utility.yul\":7912:7923   */\n      sload\n        /* \"#utility.yul\":7884:7975   */\n      tag_71\n      jump\t// in\n    tag_173:\n        /* \"#utility.yul\":7878:7882   */\n      dup3\n        /* \"#utility.yul\":7871:7976   */\n      sstore\n        /* \"#utility.yul\":7789:7982   */\n      pop\n        /* \"#utility.yul\":7713:7982   */\n      pop\n      pop\n      pop\n      jump\t// out\n        /* \"#utility.yul\":7988:8061   */\n    tag_76:\n        /* \"#utility.yul\":8033:8036   */\n      0x00\n        /* \"#utility.yul\":7988:8061   */\n      swap1\n      jump\t// out\n        /* \"#utility.yul\":8067:8256   */\n    tag_77:\n        /* \"#utility.yul\":8144:8176   */\n      tag_177\n      tag_76\n      jump\t// in\n    tag_177:\n        /* \"#utility.yul\":8185:8250   */\n      tag_178\n        /* \"#utility.yul\":8243:8249   */\n      dup2\n        /* \"#utility.yul\":8235:8241   */\n      dup5\n        /* \"#utility.yul\":8229:8233   */\n      dup5\n        /* \"#utility.yul\":8185:8250   */\n      tag_75\n      jump\t// in\n    tag_178:\n        /* \"#utility.yul\":8120:8256   */\n      pop\n        /* \"#utility.yul\":8067:8256   */\n      pop\n      pop\n      jump\t// out\n        /* \"#utility.yul\":8262:8448   */\n    tag_78:\n        /* \"#utility.yul\":8322:8442   */\n    tag_180:\n        /* \"#utility.yul\":8339:8342   */\n      dup2\n        /* \"#utility.yul\":8332:8337   */\n      dup2\n        /* \"#utility.yul\":8329:8343   */\n      lt\n        /* \"#utility.yul\":8322:8442   */\n      iszero\n      tag_182\n      jumpi\n        /* \"#utility.yul\":8393:8432   */\n      tag_183\n        /* \"#utility.yul\":8430:8431   */\n      0x00\n        /* \"#utility.yul\":8423:8428   */\n      dup3\n        /* \"#utility.yul\":8393:8432   */\n      tag_77\n      jump\t// in\n    tag_183:\n        /* \"#utility.yul\":8366:8367   */\n      0x01\n        /* \"#utility.yul\":8359:8364   */\n      dup2\n        /* \"#utility.yul\":8355:8368   */\n      add\n        /* \"#utility.yul\":8346:8368   */\n      swap1\n      pop\n        /* \"#utility.yul\":8322:8442   */\n      jump(tag_180)\n    tag_182:\n        /* \"#utility.yul\":8262:8448   */\n      pop\n      pop\n      jump\t// out\n        /* \"#utility.yul\":8454:8997   */\n    tag_79:\n        /* \"#utility.yul\":8555:8557   */\n      0x1f\n        /* \"#utility.yul\":8550:8553   */\n      dup3\n        /* \"#utility.yul\":8547:8558   */\n      gt\n        /* \"#utility.yul\":8544:8990   */\n      iszero\n      tag_185\n      jumpi\n        /* \"#utility.yul\":8589:8627   */\n      tag_186\n        /* \"#utility.yul\":8621:8626   */\n      dup2\n        /* \"#utility.yul\":8589:8627   */\n      tag_68\n      jump\t// in\n    tag_186:\n        /* \"#utility.yul\":8673:8702   */\n      tag_187\n        /* \"#utility.yul\":8691:8701   */\n      dup5\n        /* \"#utility.yul\":8673:8702   */\n      tag_69\n      jump\t// in\n    tag_187:\n        /* \"#utility.yul\":8663:8671   */\n      dup2\n        /* \"#utility.yul\":8659:8703   */\n      add\n        /* \"#utility.yul\":8856:8858   */\n      0x20\n        /* \"#utility.yul\":8844:8854   */\n      dup6\n        /* \"#utility.yul\":8841:8859   */\n      lt\n        /* \"#utility.yul\":8838:8887   */\n      iszero\n      tag_188\n      jumpi\n        /* \"#utility.yul\":8877:8885   */\n      dup2\n        /* \"#utility.yul\":8862:8885   */\n      swap1\n      pop\n        /* \"#utility.yul\":8838:8887   */\n    tag_188:\n        /* \"#utility.yul\":8900:8980   */\n      tag_189\n        /* \"#utility.yul\":8956:8978   */\n      tag_190\n        /* \"#utility.yul\":8974:8977   */\n      dup6\n        /* \"#utility.yul\":8956:8978   */\n      tag_69\n      jump\t// in\n    tag_190:\n        /* \"#utility.yul\":8946:8954   */\n      dup4\n        /* \"#utility.yul\":8942:8979   */\n      add\n        /* \"#utility.yul\":8929:8940   */\n      dup3\n        /* \"#utility.yul\":8900:8980   */\n      tag_78\n      jump\t// in\n    tag_189:\n        /* \"#utility.yul\":8559:8990   */\n      pop\n      pop\n        /* \"#utility.yul\":8544:8990   */\n    tag_185:\n        /* \"#utility.yul\":8454:8997   */\n      pop\n      pop\n      pop\n      jump\t// out\n        /* \"#utility.yul\":9003:9120   */\n    tag_80:\n        /* \"#utility.yul\":9057:9065   */\n      0x00\n        /* \"#utility.yul\":9107:9112   */\n      dup3\n        /* \"#utility.yul\":9101:9105   */\n      dup3\n        /* \"#utility.yul\":9097:9113   */\n      shr\n        /* \"#utility.yul\":9076:9113   */\n      swap1\n      pop\n        /* \"#utility.yul\":9003:9120   */\n      swap3\n      swap2\n      pop\n      pop\n      jump\t// out\n        /* \"#utility.yul\":9126:9295   */\n    tag_81:\n        /* \"#utility.yul\":9170:9176   */\n      0x00\n        /* \"#utility.yul\":9203:9254   */\n      tag_193\n        /* \"#utility.yul\":9251:9252   */\n      0x00\n        /* \"#utility.yul\":9247:9253   */\n      not\n        /* \"#utility.yul\":9239:9244   */\n      dup5\n        /* \"#utility.yul\":9236:9237   */\n      0x08\n        /* \"#utility.yul\":9232:9245   */\n      mul\n        /* \"#utility.yul\":9203:9254   */\n      tag_80\n      jump\t// in\n    tag_193:\n        /* \"#utility.yul\":9199:9255   */\n      not\n        /* \"#utility.yul\":9284:9288   */\n      dup1\n        /* \"#utility.yul\":9278:9282   */\n      dup4\n        /* \"#utility.yul\":9274:9289   */\n      and\n        /* \"#utility.yul\":9264:9289   */\n      swap2\n      pop\n        /* \"#utility.yul\":9177:9295   */\n      pop\n        /* \"#utility.yul\":9126:9295   */\n      swap3\n      swap2\n      pop\n      pop\n      jump\t// out\n        /* \"#utility.yul\":9300:9595   */\n    tag_82:\n        /* \"#utility.yul\":9376:9380   */\n      0x00\n        /* \"#utility.yul\":9522:9551   */\n      tag_195\n        /* \"#utility.yul\":9547:9550   */\n      dup4\n        /* \"#utility.yul\":9541:9545   */\n      dup4\n        /* \"#utility.yul\":9522:9551   */\n      tag_81\n      jump\t// in\n    tag_195:\n        /* \"#utility.yul\":9514:9551   */\n      swap2\n      pop\n        /* \"#utility.yul\":9584:9587   */\n      dup3\n        /* \"#utility.yul\":9581:9582   */\n      0x02\n        /* \"#utility.yul\":9577:9588   */\n      mul\n        /* \"#utility.yul\":9571:9575   */\n      dup3\n        /* \"#utility.yul\":9568:9589   */\n      or\n        /* \"#utility.yul\":9560:9589   */\n      swap1\n      pop\n        /* \"#utility.yul\":9300:9595   */\n      swap3\n      swap2\n      pop\n      pop\n      jump\t// out\n        /* \"#utility.yul\":9600:10995   */\n    tag_44:\n        /* \"#utility.yul\":9717:9754   */\n      tag_197\n        /* \"#utility.yul\":9750:9753   */\n      dup3\n        /* \"#utility.yul\":9717:9754   */\n      tag_51\n      jump\t// in\n    tag_197:\n        /* \"#utility.yul\":9819:9837   */\n      0xffffffffffffffff\n        /* \"#utility.yul\":9811:9817   */\n      dup2\n        /* \"#utility.yul\":9808:9838   */\n      gt\n        /* \"#utility.yul\":9805:9861   */\n      iszero\n      tag_198\n      jumpi\n        /* \"#utility.yul\":9841:9859   */\n      tag_199\n      tag_60\n      jump\t// in\n    tag_199:\n        /* \"#utility.yul\":9805:9861   */\n    tag_198:\n        /* \"#utility.yul\":9885:9923   */\n      tag_200\n        /* \"#utility.yul\":9917:9921   */\n      dup3\n        /* \"#utility.yul\":9911:9922   */\n      sload\n        /* \"#utility.yul\":9885:9923   */\n      tag_35\n      jump\t// in\n    tag_200:\n        /* \"#utility.yul\":9970:10037   */\n      tag_201\n        /* \"#utility.yul\":10030:10036   */\n      dup3\n        /* \"#utility.yul\":10022:10028   */\n      dup3\n        /* \"#utility.yul\":10016:10020   */\n      dup6\n        /* \"#utility.yul\":9970:10037   */\n      tag_79\n      jump\t// in\n    tag_201:\n        /* \"#utility.yul\":10064:10065   */\n      0x00\n        /* \"#utility.yul\":10088:10092   */\n      0x20\n        /* \"#utility.yul\":10075:10092   */\n      swap1\n      pop\n        /* \"#utility.yul\":10120:10122   */\n      0x1f\n        /* \"#utility.yul\":10112:10118   */\n      dup4\n        /* \"#utility.yul\":10109:10123   */\n      gt\n        /* \"#utility.yul\":10137:10138   */\n      0x01\n        /* \"#utility.yul\":10132:10750   */\n      dup2\n      eq\n      tag_203\n      jumpi\n        /* \"#utility.yul\":10794:10795   */\n      0x00\n        /* \"#utility.yul\":10811:10817   */\n      dup5\n        /* \"#utility.yul\":10808:10885   */\n      iszero\n      tag_204\n      jumpi\n        /* \"#utility.yul\":10860:10869   */\n      dup3\n        /* \"#utility.yul\":10855:10858   */\n      dup8\n        /* \"#utility.yul\":10851:10870   */\n      add\n        /* \"#utility.yul\":10845:10871   */\n      mload\n        /* \"#utility.yul\":10836:10871   */\n      swap1\n      pop\n        /* \"#utility.yul\":10808:10885   */\n    tag_204:\n        /* \"#utility.yul\":10911:10978   */\n      tag_205\n        /* \"#utility.yul\":10971:10977   */\n      dup6\n        /* \"#utility.yul\":10964:10969   */\n      dup3\n        /* \"#utility.yul\":10911:10978   */\n      tag_82\n      jump\t// in\n    tag_205:\n        /* \"#utility.yul\":10905:10909   */\n      dup7\n        /* \"#utility.yul\":10898:10979   */\n      sstore\n        /* \"#utility.yul\":10767:10989   */\n      pop\n        /* \"#utility.yul\":10102:10989   */\n      jump(tag_202)\n        /* \"#utility.yul\":10132:10750   */\n    tag_203:\n        /* \"#utility.yul\":10184:10188   */\n      0x1f\n        /* \"#utility.yul\":10180:10189   */\n      not\n        /* \"#utility.yul\":10172:10178   */\n      dup5\n        /* \"#utility.yul\":10168:10190   */\n      and\n        /* \"#utility.yul\":10218:10255   */\n      tag_206\n        /* \"#utility.yul\":10250:10254   */\n      dup7\n        /* \"#utility.yul\":10218:10255   */\n      tag_68\n      jump\t// in\n    tag_206:\n        /* \"#utility.yul\":10277:10278   */\n      0x00\n        /* \"#utility.yul\":10291:10499   */\n    tag_207:\n        /* \"#utility.yul\":10305:10312   */\n      dup3\n        /* \"#utility.yul\":10302:10303   */\n      dup2\n        /* \"#utility.yul\":10299:10313   */\n      lt\n        /* \"#utility.yul\":10291:10499   */\n      iszero\n      tag_209\n      jumpi\n        /* \"#utility.yul\":10384:10393   */\n      dup5\n        /* \"#utility.yul\":10379:10382   */\n      dup10\n        /* \"#utility.yul\":10375:10394   */\n      add\n        /* \"#utility.yul\":10369:10395   */\n      mload\n        /* \"#utility.yul\":10361:10367   */\n      dup3\n        /* \"#utility.yul\":10354:10396   */\n      sstore\n        /* \"#utility.yul\":10435:10436   */\n      0x01\n        /* \"#utility.yul\":10427:10433   */\n      dup3\n        /* \"#utility.yul\":10423:10437   */\n      add\n        /* \"#utility.yul\":10413:10437   */\n      swap2\n      pop\n        /* \"#utility.yul\":10482:10484   */\n      0x20\n        /* \"#utility.yul\":10471:10480   */\n      dup6\n        /* \"#utility.yul\":10467:10485   */\n      add\n        /* \"#utility.yul\":10454:10485   */\n      swap5\n      pop\n        /* \"#utility.yul\":10328:10332   */\n      0x20\n        /* \"#utility.yul\":10325:10326   */\n      dup2\n        /* \"#utility.yul\":10321:10333   */\n      add\n        /* \"#utility.yul\":10316:10333   */\n      swap1\n      pop\n        /* \"#utility.yul\":10291:10499   */\n      jump(tag_207)\n    tag_209:\n        /* \"#utility.yul\":10527:10533   */\n      dup7\n        /* \"#utility.yul\":10518:10525   */\n      dup4\n        /* \"#utility.yul\":10515:10534   */\n      lt\n        /* \"#utility.yul\":10512:10691   */\n      iszero\n      tag_210\n      jumpi\n        /* \"#utility.yul\":10585:10594   */\n      dup5\n        /* \"#utility.yul\":10580:10583   */\n      dup10\n        /* \"#utility.yul\":10576:10595   */\n      add\n        /* \"#utility.yul\":10570:10596   */\n      mload\n        /* \"#utility.yul\":10628:10676   */\n      tag_211\n        /* \"#utility.yul\":10670:10674   */\n      0x1f\n        /* \"#utility.yul\":10662:10668   */\n      dup10\n        /* \"#utility.yul\":10658:10675   */\n      and\n        /* \"#utility.yul\":10647:10656   */\n      dup3\n        /* \"#utility.yul\":10628:10676   */\n      tag_81\n      jump\t// in\n    tag_211:\n        /* \"#utility.yul\":10620:10626   */\n      dup4\n        /* \"#utility.yul\":10613:10677   */\n      sstore\n        /* \"#utility.yul\":10535:10691   */\n      pop\n        /* \"#utility.yul\":10512:10691   */\n    tag_210:\n        /* \"#utility.yul\":10737:10738   */\n      0x01\n        /* \"#utility.yul\":10733:10734   */\n      0x02\n        /* \"#utility.yul\":10725:10731   */\n      dup9\n        /* \"#utility.yul\":10721:10735   */\n      mul\n        /* \"#utility.yul\":10717:10739   */\n      add\n        /* \"#utility.yul\":10711:10715   */\n      dup9\n        /* \"#utility.yul\":10704:10740   */\n      sstore\n        /* \"#utility.yul\":10139:10750   */\n      pop\n      pop\n      pop\n        /* \"#utility.yul\":10102:10989   */\n    tag_202:\n      pop\n        /* \"#utility.yul\":9692:10995   */\n      pop\n      pop\n      pop\n        /* \"#utility.yul\":9600:10995   */\n      pop\n      pop\n      jump\t// out\n\n    auxdata: 0xa26469706673582212209e739e2ab2ca23949e72427912f2bf413f3bf93264ac677a780f5b0712f1a91364736f6c63430008110033\n}\n",
				"bytecode": {
					"linkReferences": {},
					"object": "608060405234801561001057600080fd5b50610903806100206000396000f3fe608060405234801561001057600080fd5b506004361061004c5760003560e01c8063a22057fb14610051578063bc8bc2b41461006d578063cd1116141461009e578063e34f1221146100ba575b600080fd5b61006b600480360381019061006691906102de565b6100d6565b005b610087600480360381019061008291906102de565b610149565b6040516100959291906103b6565b60405180910390f35b6100b860048036038101906100b3919061051b565b610212565b005b6100d460048036038101906100cf9190610577565b610216565b005b600081815481106100ea576100e96105c0565b5b906000526020600020906002020160010160009054906101000a900460ff16156000828154811061011e5761011d6105c0565b5b906000526020600020906002020160010160006101000a81548160ff02191690831515021790555050565b6000818154811061015957600080fd5b906000526020600020906002020160009150905080600001805461017c9061061e565b80601f01602080910402602001604051908101604052809291908181526020018280546101a89061061e565b80156101f55780601f106101ca576101008083540402835291602001916101f5565b820191906000526020600020905b8154815290600101906020018083116101d857829003601f168201915b5050505050908060010160009054906101000a900460ff16905082565b5050565b60006040518060400160405280838152602001600015158152509080600181540180825580915050600190039060005260206000209060020201600090919091909150600082015181600001908161026e91906107fb565b5060208201518160010160006101000a81548160ff021916908315150217905550505050565b6000604051905090565b600080fd5b600080fd5b6000819050919050565b6102bb816102a8565b81146102c657600080fd5b50565b6000813590506102d8816102b2565b92915050565b6000602082840312156102f4576102f361029e565b5b6000610302848285016102c9565b91505092915050565b600081519050919050565b600082825260208201905092915050565b60005b8381101561034557808201518184015260208101905061032a565b60008484015250505050565b6000601f19601f8301169050919050565b600061036d8261030b565b6103778185610316565b9350610387818560208601610327565b61039081610351565b840191505092915050565b60008115159050919050565b6103b08161039b565b82525050565b600060408201905081810360008301526103d08185610362565b90506103df60208301846103a7565b9392505050565b600080fd5b600080fd5b7f4e487b7100000000000000000000000000000000000000000000000000000000600052604160045260246000fd5b61042882610351565b810181811067ffffffffffffffff82111715610447576104466103f0565b5b80604052505050565b600061045a610294565b9050610466828261041f565b919050565b600067ffffffffffffffff821115610486576104856103f0565b5b61048f82610351565b9050602081019050919050565b82818337600083830152505050565b60006104be6104b98461046b565b610450565b9050828152602081018484840111156104da576104d96103eb565b5b6104e584828561049c565b509392505050565b600082601f830112610502576105016103e6565b5b81356105128482602086016104ab565b91505092915050565b600080604083850312156105325761053161029e565b5b6000610540858286016102c9565b925050602083013567ffffffffffffffff811115610561576105606102a3565b5b61056d858286016104ed565b9150509250929050565b60006020828403121561058d5761058c61029e565b5b600082013567ffffffffffffffff8111156105ab576105aa6102a3565b5b6105b7848285016104ed565b91505092915050565b7f4e487b7100000000000000000000000000000000000000000000000000000000600052603260045260246000fd5b7f4e487b7100000000000000000000000000000000000000000000000000000000600052602260045260246000fd5b6000600282049050600182168061063657607f821691505b602082108103610649576106486105ef565b5b50919050565b60008190508160005260206000209050919050565b60006020601f8301049050919050565b600082821b905092915050565b6000600883026106b17fffffffffffffffffffffffffffffffffffffffffffffffffffffffffffffffff82610674565b6106bb8683610674565b95508019841693508086168417925050509392505050565b6000819050919050565b60006106f86106f36106ee846102a8565b6106d3565b6102a8565b9050919050565b6000819050919050565b610712836106dd565b61072661071e826106ff565b848454610681565b825550505050565b600090565b61073b61072e565b610746818484610709565b505050565b5b8181101561076a5761075f600082610733565b60018101905061074c565b5050565b601f8211156107af576107808161064f565b61078984610664565b81016020851015610798578190505b6107ac6107a485610664565b83018261074b565b50505b505050565b600082821c905092915050565b60006107d2600019846008026107b4565b1980831691505092915050565b60006107eb83836107c1565b9150826002028217905092915050565b6108048261030b565b67ffffffffffffffff81111561081d5761081c6103f0565b5b610827825461061e565b61083282828561076e565b600060209050601f8311600181146108655760008415610853578287015190505b61085d85826107df565b8655506108c5565b601f1984166108738661064f565b60005b8281101561089b57848901518255600182019150602085019450602081019050610876565b868310156108b857848901516108b4601f8916826107c1565b8355505b6001600288020188555050505b50505050505056fea26469706673582212209e739e2ab2ca23949e72427912f2bf413f3bf93264ac677a780f5b0712f1a91364736f6c63430008110033",
					"opcodes": "PUSH1 0x80 PUSH1 0x40 MSTORE CALLVALUE DUP1 ISZERO PUSH2 0x10 JUMPI PUSH1 0x0 DUP1 REVERT JUMPDEST POP PUSH2 0x903 DUP1 PUSH2 0x20 PUSH1 0x0 CODECOPY PUSH1 0x0 RETURN INVALID PUSH1 0x80 PUSH1 0x40 MSTORE CALLVALUE DUP1 ISZERO PUSH2 0x10 JUMPI PUSH1 0x0 DUP1 REVERT JUMPDEST POP PUSH1 0x4 CALLDATASIZE LT PUSH2 0x4C JUMPI PUSH1 0x0 CALLDATALOAD PUSH1 0xE0 SHR DUP1 PUSH4 0xA22057FB EQ PUSH2 0x51 JUMPI DUP1 PUSH4 0xBC8BC2B4 EQ PUSH2 0x6D JUMPI DUP1 PUSH4 0xCD111614 EQ PUSH2 0x9E JUMPI DUP1 PUSH4 0xE34F1221 EQ PUSH2 0xBA JUMPI JUMPDEST PUSH1 0x0 DUP1 REVERT JUMPDEST PUSH2 0x6B PUSH1 0x4 DUP1 CALLDATASIZE SUB DUP2 ADD SWAP1 PUSH2 0x66 SWAP2 SWAP1 PUSH2 0x2DE JUMP JUMPDEST PUSH2 0xD6 JUMP JUMPDEST STOP JUMPDEST PUSH2 0x87 PUSH1 0x4 DUP1 CALLDATASIZE SUB DUP2 ADD SWAP1 PUSH2 0x82 SWAP2 SWAP1 PUSH2 0x2DE JUMP JUMPDEST PUSH2 0x149 JUMP JUMPDEST PUSH1 0x40 MLOAD PUSH2 0x95 SWAP3 SWAP2 SWAP1 PUSH2 0x3B6 JUMP JUMPDEST PUSH1 0x40 MLOAD DUP1 SWAP2 SUB SWAP1 RETURN JUMPDEST PUSH2 0xB8 PUSH1 0x4 DUP1 CALLDATASIZE SUB DUP2 ADD SWAP1 PUSH2 0xB3 SWAP2 SWAP1 PUSH2 0x51B JUMP JUMPDEST PUSH2 0x212 JUMP JUMPDEST STOP JUMPDEST PUSH2 0xD4 PUSH1 0x4 DUP1 CALLDATASIZE SUB DUP2 ADD SWAP1 PUSH2 0xCF SWAP2 SWAP1 PUSH2 0x577 JUMP JUMPDEST PUSH2 0x216 JUMP JUMPDEST STOP JUMPDEST PUSH1 0x0 DUP2 DUP2 SLOAD DUP2 LT PUSH2 0xEA JUMPI PUSH2 0xE9 PUSH2 0x5C0 JUMP JUMPDEST JUMPDEST SWAP1 PUSH1 0x0 MSTORE PUSH1 0x20 PUSH1 0x0 KECCAK256 SWAP1 PUSH1 0x2 MUL ADD PUSH1 0x1 ADD PUSH1 0x0 SWAP1 SLOAD SWAP1 PUSH2 0x100 EXP SWAP1 DIV PUSH1 0xFF AND ISZERO PUSH1 0x0 DUP3 DUP2 SLOAD DUP2 LT PUSH2 0x11E JUMPI PUSH2 0x11D PUSH2 0x5C0 JUMP JUMPDEST JUMPDEST SWAP1 PUSH1 0x0 MSTORE PUSH1 0x20 PUSH1 0x0 KECCAK256 SWAP1 PUSH1 0x2 MUL ADD PUSH1 0x1 ADD PUSH1 0x0 PUSH2 0x100 EXP DUP2 SLOAD DUP2 PUSH1 0xFF MUL NOT AND SWAP1 DUP4 ISZERO ISZERO MUL OR SWAP1 SSTORE POP POP JUMP JUMPDEST PUSH1 0x0 DUP2 DUP2 SLOAD DUP2 LT PUSH2 0x159 JUMPI PUSH1 0x0 DUP1 REVERT JUMPDEST SWAP1 PUSH1 0x0 MSTORE PUSH1 0x20 PUSH1 0x0 KECCAK256 SWAP1 PUSH1 0x2 MUL ADD PUSH1 0x0 SWAP2 POP SWAP1 POP DUP1 PUSH1 0x0 ADD DUP1 SLOAD PUSH2 0x17C SWAP1 PUSH2 0x61E JUMP JUMPDEST DUP1 PUSH1 0x1F ADD PUSH1 0x20 DUP1 SWAP2 DIV MUL PUSH1 0x20 ADD PUSH1 0x40 MLOAD SWAP1 DUP2 ADD PUSH1 0x40 MSTORE DUP1 SWAP3 SWAP2 SWAP1 DUP2 DUP2 MSTORE PUSH1 0x20 ADD DUP3 DUP1 SLOAD PUSH2 0x1A8 SWAP1 PUSH2 0x61E JUMP JUMPDEST DUP1 ISZERO PUSH2 0x1F5 JUMPI DUP1 PUSH1 0x1F LT PUSH2 0x1CA JUMPI PUSH2 0x100 DUP1 DUP4 SLOAD DIV MUL DUP4 MSTORE SWAP2 PUSH1 0x20 ADD SWAP2 PUSH2 0x1F5 JUMP JUMPDEST DUP3 ADD SWAP2 SWAP1 PUSH1 0x0 MSTORE PUSH1 0x20 PUSH1 0x0 KECCAK256 SWAP1 JUMPDEST DUP2 SLOAD DUP2 MSTORE SWAP1 PUSH1 0x1 ADD SWAP1 PUSH1 0x20 ADD DUP1 DUP4 GT PUSH2 0x1D8 JUMPI DUP3 SWAP1 SUB PUSH1 0x1F AND DUP3 ADD SWAP2 JUMPDEST POP POP POP POP POP SWAP1 DUP1 PUSH1 0x1 ADD PUSH1 0x0 SWAP1 SLOAD SWAP1 PUSH2 0x100 EXP SWAP1 DIV PUSH1 0xFF AND SWAP1 POP DUP3 JUMP JUMPDEST POP POP JUMP JUMPDEST PUSH1 0x0 PUSH1 0x40 MLOAD DUP1 PUSH1 0x40 ADD PUSH1 0x40 MSTORE DUP1 DUP4 DUP2 MSTORE PUSH1 0x20 ADD PUSH1 0x0 ISZERO ISZERO DUP2 MSTORE POP SWAP1 DUP1 PUSH1 0x1 DUP2 SLOAD ADD DUP1 DUP3 SSTORE DUP1 SWAP2 POP POP PUSH1 0x1 SWAP1 SUB SWAP1 PUSH1 0x0 MSTORE PUSH1 0x20 PUSH1 0x0 KECCAK256 SWAP1 PUSH1 0x2 MUL ADD PUSH1 0x0 SWAP1 SWAP2 SWAP1 SWAP2 SWAP1 SWAP2 POP PUSH1 0x0 DUP3 ADD MLOAD DUP2 PUSH1 0x0 ADD SWAP1 DUP2 PUSH2 0x26E SWAP2 SWAP1 PUSH2 0x7FB JUMP JUMPDEST POP PUSH1 0x20 DUP3 ADD MLOAD DUP2 PUSH1 0x1 ADD PUSH1 0x0 PUSH2 0x100 EXP DUP2 SLOAD DUP2 PUSH1 0xFF MUL NOT AND SWAP1 DUP4 ISZERO ISZERO MUL OR SWAP1 SSTORE POP POP POP POP JUMP JUMPDEST PUSH1 0x0 PUSH1 0x40 MLOAD SWAP1 POP SWAP1 JUMP JUMPDEST PUSH1 0x0 DUP1 REVERT JUMPDEST PUSH1 0x0 DUP1 REVERT JUMPDEST PUSH1 0x0 DUP2 SWAP1 POP SWAP2 SWAP1 POP JUMP JUMPDEST PUSH2 0x2BB DUP2 PUSH2 0x2A8 JUMP JUMPDEST DUP2 EQ PUSH2 0x2C6 JUMPI PUSH1 0x0 DUP1 REVERT JUMPDEST POP JUMP JUMPDEST PUSH1 0x0 DUP2 CALLDATALOAD SWAP1 POP PUSH2 0x2D8 DUP2 PUSH2 0x2B2 JUMP JUMPDEST SWAP3 SWAP2 POP POP JUMP JUMPDEST PUSH1 0x0 PUSH1 0x20 DUP3 DUP5 SUB SLT ISZERO PUSH2 0x2F4 JUMPI PUSH2 0x2F3 PUSH2 0x29E JUMP JUMPDEST JUMPDEST PUSH1 0x0 PUSH2 0x302 DUP5 DUP3 DUP6 ADD PUSH2 0x2C9 JUMP JUMPDEST SWAP2 POP POP SWAP3 SWAP2 POP POP JUMP JUMPDEST PUSH1 0x0 DUP2 MLOAD SWAP1 POP SWAP2 SWAP1 POP JUMP JUMPDEST PUSH1 0x0 DUP3 DUP3 MSTORE PUSH1 0x20 DUP3 ADD SWAP1 POP SWAP3 SWAP2 POP POP JUMP JUMPDEST PUSH1 0x0 JUMPDEST DUP4 DUP2 LT ISZERO PUSH2 0x345 JUMPI DUP1 DUP3 ADD MLOAD DUP2 DUP5 ADD MSTORE PUSH1 0x20 DUP2 ADD SWAP1 POP PUSH2 0x32A JUMP JUMPDEST PUSH1 0x0 DUP5 DUP5 ADD MSTORE POP POP POP POP JUMP JUMPDEST PUSH1 0x0 PUSH1 0x1F NOT PUSH1 0x1F DUP4 ADD AND SWAP1 POP SWAP2 SWAP1 POP JUMP JUMPDEST PUSH1 0x0 PUSH2 0x36D DUP3 PUSH2 0x30B JUMP JUMPDEST PUSH2 0x377 DUP2 DUP6 PUSH2 0x316 JUMP JUMPDEST SWAP4 POP PUSH2 0x387 DUP2 DUP6 PUSH1 0x20 DUP7 ADD PUSH2 0x327 JUMP JUMPDEST PUSH2 0x390 DUP2 PUSH2 0x351 JUMP JUMPDEST DUP5 ADD SWAP2 POP POP SWAP3 SWAP2 POP POP JUMP JUMPDEST PUSH1 0x0 DUP2 ISZERO ISZERO SWAP1 POP SWAP2 SWAP1 POP JUMP JUMPDEST PUSH2 0x3B0 DUP2 PUSH2 0x39B JUMP JUMPDEST DUP3 MSTORE POP POP JUMP JUMPDEST PUSH1 0x0 PUSH1 0x40 DUP3 ADD SWAP1 POP DUP2 DUP2 SUB PUSH1 0x0 DUP4 ADD MSTORE PUSH2 0x3D0 DUP2 DUP6 PUSH2 0x362 JUMP JUMPDEST SWAP1 POP PUSH2 0x3DF PUSH1 0x20 DUP4 ADD DUP5 PUSH2 0x3A7 JUMP JUMPDEST SWAP4 SWAP3 POP POP POP JUMP JUMPDEST PUSH1 0x0 DUP1 REVERT JUMPDEST PUSH1 0x0 DUP1 REVERT JUMPDEST PUSH32 0x4E487B7100000000000000000000000000000000000000000000000000000000 PUSH1 0x0 MSTORE PUSH1 0x41 PUSH1 0x4 MSTORE PUSH1 0x24 PUSH1 0x0 REVERT JUMPDEST PUSH2 0x428 DUP3 PUSH2 0x351 JUMP JUMPDEST DUP2 ADD DUP2 DUP2 LT PUSH8 0xFFFFFFFFFFFFFFFF DUP3 GT OR ISZERO PUSH2 0x447 JUMPI PUSH2 0x446 PUSH2 0x3F0 JUMP JUMPDEST JUMPDEST DUP1 PUSH1 0x40 MSTORE POP POP POP JUMP JUMPDEST PUSH1 0x0 PUSH2 0x45A PUSH2 0x294 JUMP JUMPDEST SWAP1 POP PUSH2 0x466 DUP3 DUP3 PUSH2 0x41F JUMP JUMPDEST SWAP2 SWAP1 POP JUMP JUMPDEST PUSH1 0x0 PUSH8 0xFFFFFFFFFFFFFFFF DUP3 GT ISZERO PUSH2 0x486 JUMPI PUSH2 0x485 PUSH2 0x3F0 JUMP JUMPDEST JUMPDEST PUSH2 0x48F DUP3 PUSH2 0x351 JUMP JUMPDEST SWAP1 POP PUSH1 0x20 DUP2 ADD SWAP1 POP SWAP2 SWAP1 POP JUMP JUMPDEST DUP3 DUP2 DUP4 CALLDATACOPY PUSH1 0x0 DUP4 DUP4 ADD MSTORE POP POP POP JUMP JUMPDEST PUSH1 0x0 PUSH2 0x4BE PUSH2 0x4B9 DUP5 PUSH2 0x46B JUMP JUMPDEST PUSH2 0x450 JUMP JUMPDEST SWAP1 POP DUP3 DUP2 MSTORE PUSH1 0x20 DUP2 ADD DUP5 DUP5 DUP5 ADD GT ISZERO PUSH2 0x4DA JUMPI PUSH2 0x4D9 PUSH2 0x3EB JUMP JUMPDEST JUMPDEST PUSH2 0x4E5 DUP5 DUP3 DUP6 PUSH2 0x49C JUMP JUMPDEST POP SWAP4 SWAP3 POP POP POP JUMP JUMPDEST PUSH1 0x0 DUP3 PUSH1 0x1F DUP4 ADD SLT PUSH2 0x502 JUMPI PUSH2 0x501 PUSH2 0x3E6 JUMP JUMPDEST JUMPDEST DUP2 CALLDATALOAD PUSH2 0x512 DUP5 DUP3 PUSH1 0x20 DUP7 ADD PUSH2 0x4AB JUMP JUMPDEST SWAP2 POP POP SWAP3 SWAP2 POP POP JUMP JUMPDEST PUSH1 0x0 DUP1 PUSH1 0x40 DUP4 DUP6 SUB SLT ISZERO PUSH2 0x532 JUMPI PUSH2 0x531 PUSH2 0x29E JUMP JUMPDEST JUMPDEST PUSH1 0x0 PUSH2 0x540 DUP6 DUP3 DUP7 ADD PUSH2 0x2C9 JUMP JUMPDEST SWAP3 POP POP PUSH1 0x20 DUP4 ADD CALLDATALOAD PUSH8 0xFFFFFFFFFFFFFFFF DUP2 GT ISZERO PUSH2 0x561 JUMPI PUSH2 0x560 PUSH2 0x2A3 JUMP JUMPDEST JUMPDEST PUSH2 0x56D DUP6 DUP3 DUP7 ADD PUSH2 0x4ED JUMP JUMPDEST SWAP2 POP POP SWAP3 POP SWAP3 SWAP1 POP JUMP JUMPDEST PUSH1 0x0 PUSH1 0x20 DUP3 DUP5 SUB SLT ISZERO PUSH2 0x58D JUMPI PUSH2 0x58C PUSH2 0x29E JUMP JUMPDEST JUMPDEST PUSH1 0x0 DUP3 ADD CALLDATALOAD PUSH8 0xFFFFFFFFFFFFFFFF DUP2 GT ISZERO PUSH2 0x5AB JUMPI PUSH2 0x5AA PUSH2 0x2A3 JUMP JUMPDEST JUMPDEST PUSH2 0x5B7 DUP5 DUP3 DUP6 ADD PUSH2 0x4ED JUMP JUMPDEST SWAP2 POP POP SWAP3 SWAP2 POP POP JUMP JUMPDEST PUSH32 0x4E487B7100000000000000000000000000000000000000000000000000000000 PUSH1 0x0 MSTORE PUSH1 0x32 PUSH1 0x4 MSTORE PUSH1 0x24 PUSH1 0x0 REVERT JUMPDEST PUSH32 0x4E487B7100000000000000000000000000000000000000000000000000000000 PUSH1 0x0 MSTORE PUSH1 0x22 PUSH1 0x4 MSTORE PUSH1 0x24 PUSH1 0x0 REVERT JUMPDEST PUSH1 0x0 PUSH1 0x2 DUP3 DIV SWAP1 POP PUSH1 0x1 DUP3 AND DUP1 PUSH2 0x636 JUMPI PUSH1 0x7F DUP3 AND SWAP2 POP JUMPDEST PUSH1 0x20 DUP3 LT DUP2 SUB PUSH2 0x649 JUMPI PUSH2 0x648 PUSH2 0x5EF JUMP JUMPDEST JUMPDEST POP SWAP2 SWAP1 POP JUMP JUMPDEST PUSH1 0x0 DUP2 SWAP1 POP DUP2 PUSH1 0x0 MSTORE PUSH1 0x20 PUSH1 0x0 KECCAK256 SWAP1 POP SWAP2 SWAP1 POP JUMP JUMPDEST PUSH1 0x0 PUSH1 0x20 PUSH1 0x1F DUP4 ADD DIV SWAP1 POP SWAP2 SWAP1 POP JUMP JUMPDEST PUSH1 0x0 DUP3 DUP3 SHL SWAP1 POP SWAP3 SWAP2 POP POP JUMP JUMPDEST PUSH1 0x0 PUSH1 0x8 DUP4 MUL PUSH2 0x6B1 PUSH32 0xFFFFFFFFFFFFFFFFFFFFFFFFFFFFFFFFFFFFFFFFFFFFFFFFFFFFFFFFFFFFFFFF DUP3 PUSH2 0x674 JUMP JUMPDEST PUSH2 0x6BB DUP7 DUP4 PUSH2 0x674 JUMP JUMPDEST SWAP6 POP DUP1 NOT DUP5 AND SWAP4 POP DUP1 DUP7 AND DUP5 OR SWAP3 POP POP POP SWAP4 SWAP3 POP POP POP JUMP JUMPDEST PUSH1 0x0 DUP2 SWAP1 POP SWAP2 SWAP1 POP JUMP JUMPDEST PUSH1 0x0 PUSH2 0x6F8 PUSH2 0x6F3 PUSH2 0x6EE DUP5 PUSH2 0x2A8 JUMP JUMPDEST PUSH2 0x6D3 JUMP JUMPDEST PUSH2 0x2A8 JUMP JUMPDEST SWAP1 POP SWAP2 SWAP1 POP JUMP JUMPDEST PUSH1 0x0 DUP2 SWAP1 POP SWAP2 SWAP1 POP JUMP JUMPDEST PUSH2 0x712 DUP4 PUSH2 0x6DD JUMP JUMPDEST PUSH2 0x726 PUSH2 0x71E DUP3 PUSH2 0x6FF JUMP JUMPDEST DUP5 DUP5 SLOAD PUSH2 0x681 JUMP JUMPDEST DUP3 SSTORE POP POP POP POP JUMP JUMPDEST PUSH1 0x0 SWAP1 JUMP JUMPDEST PUSH2 0x73B PUSH2 0x72E JUMP JUMPDEST PUSH2 0x746 DUP2 DUP5 DUP5 PUSH2 0x709 JUMP JUMPDEST POP POP POP JUMP JUMPDEST JUMPDEST DUP2 DUP2 LT ISZERO PUSH2 0x76A JUMPI PUSH2 0x75F PUSH1 0x0 DUP3 PUSH2 0x733 JUMP JUMPDEST PUSH1 0x1 DUP2 ADD SWAP1 POP PUSH2 0x74C JUMP JUMPDEST POP POP JUMP JUMPDEST PUSH1 0x1F DUP3 GT ISZERO PUSH2 0x7AF JUMPI PUSH2 0x780 DUP2 PUSH2 0x64F JUMP JUMPDEST PUSH2 0x789 DUP5 PUSH2 0x664 JUMP JUMPDEST DUP2 ADD PUSH1 0x20 DUP6 LT ISZERO PUSH2 0x798 JUMPI DUP2 SWAP1 POP JUMPDEST PUSH2 0x7AC PUSH2 0x7A4 DUP6 PUSH2 0x664 JUMP JUMPDEST DUP4 ADD DUP3 PUSH2 0x74B JUMP JUMPDEST POP POP JUMPDEST POP POP POP JUMP JUMPDEST PUSH1 0x0 DUP3 DUP3 SHR SWAP1 POP SWAP3 SWAP2 POP POP JUMP JUMPDEST PUSH1 0x0 PUSH2 0x7D2 PUSH1 0x0 NOT DUP5 PUSH1 0x8 MUL PUSH2 0x7B4 JUMP JUMPDEST NOT DUP1 DUP4 AND SWAP2 POP POP SWAP3 SWAP2 POP POP JUMP JUMPDEST PUSH1 0x0 PUSH2 0x7EB DUP4 DUP4 PUSH2 0x7C1 JUMP JUMPDEST SWAP2 POP DUP3 PUSH1 0x2 MUL DUP3 OR SWAP1 POP SWAP3 SWAP2 POP POP JUMP JUMPDEST PUSH2 0x804 DUP3 PUSH2 0x30B JUMP JUMPDEST PUSH8 0xFFFFFFFFFFFFFFFF DUP2 GT ISZERO PUSH2 0x81D JUMPI PUSH2 0x81C PUSH2 0x3F0 JUMP JUMPDEST JUMPDEST PUSH2 0x827 DUP3 SLOAD PUSH2 0x61E JUMP JUMPDEST PUSH2 0x832 DUP3 DUP3 DUP6 PUSH2 0x76E JUMP JUMPDEST PUSH1 0x0 PUSH1 0x20 SWAP1 POP PUSH1 0x1F DUP4 GT PUSH1 0x1 DUP2 EQ PUSH2 0x865 JUMPI PUSH1 0x0 DUP5 ISZERO PUSH2 0x853 JUMPI DUP3 DUP8 ADD MLOAD SWAP1 POP JUMPDEST PUSH2 0x85D DUP6 DUP3 PUSH2 0x7DF JUMP JUMPDEST DUP7 SSTORE POP PUSH2 0x8C5 JUMP JUMPDEST PUSH1 0x1F NOT DUP5 AND PUSH2 0x873 DUP7 PUSH2 0x64F JUMP JUMPDEST PUSH1 0x0 JUMPDEST DUP3 DUP2 LT ISZERO PUSH2 0x89B JUMPI DUP5 DUP10 ADD MLOAD DUP3 SSTORE PUSH1 0x1 DUP3 ADD SWAP2 POP PUSH1 0x20 DUP6 ADD SWAP5 POP PUSH1 0x20 DUP2 ADD SWAP1 POP PUSH2 0x876 JUMP JUMPDEST DUP7 DUP4 LT ISZERO PUSH2 0x8B8 JUMPI DUP5 DUP10 ADD MLOAD PUSH2 0x8B4 PUSH1 0x1F DUP10 AND DUP3 PUSH2 0x7C1 JUMP JUMPDEST DUP4 SSTORE POP JUMPDEST PUSH1 0x1 PUSH1 0x2 DUP9 MUL ADD DUP9 SSTORE POP POP POP JUMPDEST POP POP POP POP POP POP JUMP INVALID LOG2 PUSH5 0x6970667358 0x22 SLT KECCAK256 SWAP15 PUSH20 0x9E2AB2CA23949E72427912F2BF413F3BF93264AC PUSH8 0x7A780F5B0712F1A9 SGT PUSH5 0x736F6C6343 STOP ADDMOD GT STOP CALLER "
				},
				"gasEstimates": {
					"creation": {
						"codeDepositCost": "461400",
						"executionCost": "499",
						"totalCost": "461899"
					},
					"external": {
						"createTodo(string)": "infinite",
						"revertCompleted(uint256)": "31184",
						"todos(uint256)": "infinite",
						"updateText(uint256,string)": "infinite"
					}
				},
				"methodIdentifiers": {
					"createTodo(string)": "e34f1221",
					"revertCompleted(uint256)": "a22057fb",
					"todos(uint256)": "bc8bc2b4",
					"updateText(uint256,string)": "cd111614"
				}
			},
			"storageLayout": {
				"storage": [
					{
						"astId": 10,
						"contract": "TodoList.sol:TodoList",
						"label": "todos",
						"offset": 0,
						"slot": "0",
						"type": "t_array(t_struct(Todo)6_storage)dyn_storage"
					}
				],
				"types": {
					"t_array(t_struct(Todo)6_storage)dyn_storage": {
						"base": "t_struct(Todo)6_storage",
						"encoding": "dynamic_array",
						"label": "struct TodoList.Todo[]",
						"numberOfBytes": "32"
					},
					"t_bool": {
						"encoding": "inplace",
						"label": "bool",
						"numberOfBytes": "1"
					},
					"t_string_storage": {
						"encoding": "bytes",
						"label": "string",
						"numberOfBytes": "32"
					},
					"t_struct(Todo)6_storage": {
						"encoding": "inplace",
						"label": "struct TodoList.Todo",
						"members": [
							{
								"astId": 3,
								"contract": "TodoList.sol:TodoList",
								"label": "text",
								"offset": 0,
								"slot": "0",
								"type": "t_string_storage"
							},
							{
								"astId": 5,
								"contract": "TodoList.sol:TodoList",
								"label": "completed",
								"offset": 0,
								"slot": "1",
								"type": "t_bool"
							}
						],
						"numberOfBytes": "64"
					}
				}
			},
			"userdoc": {
				"kind": "user",
				"methods": {},
				"version": 1
			}
		}
	}
}