{
	"TodoList.sol": {
		"TodoList": {
			"abi": [
				{
					"inputs": [
						{
							"internalType": "string",
							"name": "Text",
							"type": "string"
						}
					],
					"name": "createTodo",
					"outputs": [],
					"stateMutability": "nonpayable",
					"type": "function"
				},
				{
					"inputs": [
						{
							"internalType": "uint256",
							"name": "",
							"type": "uint256"
						}
					],
					"name": "todos",
					"outputs": [
						{
							"internalType": "string",
							"name": "text",
							"type": "string"
						},
						{
							"internalType": "bool",
							"name": "completed",
							"type": "bool"
						}
					],
					"stateMutability": "view",
					"type": "function"
				}
			],
			"devdoc": {
				"kind": "dev",
				"methods": {},
				"version": 1
			},
			"evm": {
				"assembly": "    /* \"TodoList.sol\":61:297  contract TodoList{... */\n  mstore(0x40, 0x80)\n  callvalue\n  dup1\n  iszero\n  tag_1\n  jumpi\n  0x00\n  dup1\n  revert\ntag_1:\n  pop\n  dataSize(sub_0)\n  dup1\n  dataOffset(sub_0)\n  0x00\n  codecopy\n  0x00\n  return\nstop\n\nsub_0: assembly {\n        /* \"TodoList.sol\":61:297  contract TodoList{... */\n      mstore(0x40, 0x80)\n      callvalue\n      dup1\n      iszero\n      tag_1\n      jumpi\n      0x00\n      dup1\n      revert\n    tag_1:\n      pop\n      jumpi(tag_2, lt(calldatasize, 0x04))\n      shr(0xe0, calldataload(0x00))\n      dup1\n      0xbc8bc2b4\n      eq\n      tag_3\n      jumpi\n      dup1\n      0xe34f1221\n      eq\n      tag_4\n      jumpi\n    tag_2:\n      0x00\n      dup1\n      revert\n        /* \"TodoList.sol\":161:180  Todo[] public todos */\n    tag_3:\n      tag_5\n      0x04\n      dup1\n      calldatasize\n      sub\n      dup2\n      add\n      swap1\n      tag_6\n      swap2\n      swap1\n      tag_7\n      jump\t// in\n    tag_6:\n      tag_8\n      jump\t// in\n    tag_5:\n      mload(0x40)\n      tag_9\n      swap3\n      swap2\n      swap1\n      tag_10\n      jump\t// in\n    tag_9:\n      mload(0x40)\n      dup1\n      swap2\n      sub\n      swap1\n      return\n        /* \"TodoList.sol\":189:286  function createTodo(string memory Text) external {... */\n    tag_4:\n      tag_11\n      0x04\n      dup1\n      calldatasize\n      sub\n      dup2\n      add\n      swap1\n      tag_12\n      swap2\n      swap1\n      tag_13\n      jump\t// in\n    tag_12:\n      tag_14\n      jump\t// in\n    tag_11:\n      stop\n        /* \"TodoList.sol\":161:180  Todo[] public todos */\n    tag_8:\n      0x00\n      dup2\n      dup2\n      sload\n      dup2\n      lt\n      tag_15\n      jumpi\n      0x00\n      dup1\n      revert\n    tag_15:\n      swap1\n      0x00\n      mstore\n      keccak256(0x00, 0x20)\n      swap1\n      0x02\n      mul\n      add\n      0x00\n      swap2\n      pop\n      swap1\n      pop\n      dup1\n      0x00\n      add\n      dup1\n      sload\n      tag_17\n      swap1\n      tag_18\n      jump\t// in\n    tag_17:\n      dup1\n      0x1f\n      add\n      0x20\n      dup1\n      swap2\n      div\n      mul\n      0x20\n      add\n      mload(0x40)\n      swap1\n      dup2\n      add\n      0x40\n      mstore\n      dup1\n      swap3\n      swap2\n      swap1\n      dup2\n      dup2\n      mstore\n      0x20\n      add\n      dup3\n      dup1\n      sload\n      tag_19\n      swap1\n      tag_18\n      jump\t// in\n    tag_19:\n      dup1\n      iszero\n      tag_20\n      jumpi\n      dup1\n      0x1f\n      lt\n      tag_21\n      jumpi\n      0x0100\n      dup1\n      dup4\n      sload\n      div\n      mul\n      dup4\n      mstore\n      swap2\n      0x20\n      add\n      swap2\n      jump(tag_20)\n    tag_21:\n      dup3\n      add\n      swap2\n      swap1\n      0x00\n      mstore\n      keccak256(0x00, 0x20)\n      swap1\n    tag_22:\n      dup2\n      sload\n      dup2\n      mstore\n      swap1\n      0x01\n      add\n      swap1\n      0x20\n      add\n      dup1\n      dup4\n      gt\n      tag_22\n      jumpi\n      dup3\n      swap1\n      sub\n      0x1f\n      and\n      dup3\n      add\n      swap2\n    tag_20:\n      pop\n      pop\n      pop\n      pop\n      pop\n      swap1\n      dup1\n      0x01\n      add\n      0x00\n      swap1\n      sload\n      swap1\n      0x0100\n      exp\n      swap1\n      div\n      0xff\n      and\n      swap1\n      pop\n      dup3\n      jump\t// out\n        /* \"TodoList.sol\":189:286  function createTodo(string memory Text) external {... */\n    tag_14:\n        /* \"TodoList.sol\":249:254  todos */\n      0x00\n        /* \"TodoList.sol\":260:277  Todo(Text, false) */\n      mload(0x40)\n      dup1\n      0x40\n      add\n      0x40\n      mstore\n      dup1\n        /* \"TodoList.sol\":265:269  Text */\n      dup4\n        /* \"TodoList.sol\":260:277  Todo(Text, false) */\n      dup2\n      mstore\n      0x20\n      add\n        /* \"TodoList.sol\":271:276  false */\n      0x00\n        /* \"TodoList.sol\":260:277  Todo(Text, false) */\n      iszero\n      iszero\n      dup2\n      mstore\n      pop\n        /* \"TodoList.sol\":249:278  todos.push(Todo(Text, false)) */\n      swap1\n      dup1\n      0x01\n      dup2\n      sload\n      add\n      dup1\n      dup3\n      sstore\n      dup1\n      swap2\n      pop\n      pop\n      0x01\n      swap1\n      sub\n      swap1\n      0x00\n      mstore\n      keccak256(0x00, 0x20)\n      swap1\n      0x02\n      mul\n      add\n      0x00\n      swap1\n      swap2\n      swap1\n      swap2\n      swap1\n      swap2\n      pop\n      0x00\n      dup3\n      add\n      mload\n      dup2\n      0x00\n      add\n      swap1\n      dup2\n      tag_25\n      swap2\n      swap1\n      tag_26\n      jump\t// in\n    tag_25:\n      pop\n      0x20\n      dup3\n      add\n      mload\n      dup2\n      0x01\n      add\n      exp(0x0100, 0x00)\n      dup2\n      sload\n      dup2\n      0xff\n      mul\n      not\n      and\n      swap1\n      dup4\n      iszero\n      iszero\n      mul\n      or\n      swap1\n      sstore\n      pop\n      pop\n      pop\n        /* \"TodoList.sol\":189:286  function createTodo(string memory Text) external {... */\n      pop\n      jump\t// out\n        /* \"#utility.yul\":7:82   */\n    tag_27:\n        /* \"#utility.yul\":40:46   */\n      0x00\n        /* \"#utility.yul\":73:75   */\n      0x40\n        /* \"#utility.yul\":67:76   */\n      mload\n        /* \"#utility.yul\":57:76   */\n      swap1\n      pop\n        /* \"#utility.yul\":7:82   */\n      swap1\n      jump\t// out\n        /* \"#utility.yul\":88:205   */\n    tag_28:\n        /* \"#utility.yul\":197:198   */\n      0x00\n        /* \"#utility.yul\":194:195   */\n      dup1\n        /* \"#utility.yul\":187:199   */\n      revert\n        /* \"#utility.yul\":211:328   */\n    tag_29:\n        /* \"#utility.yul\":320:321   */\n      0x00\n        /* \"#utility.yul\":317:318   */\n      dup1\n        /* \"#utility.yul\":310:322   */\n      revert\n        /* \"#utility.yul\":334:411   */\n    tag_30:\n        /* \"#utility.yul\":371:378   */\n      0x00\n        /* \"#utility.yul\":400:405   */\n      dup2\n        /* \"#utility.yul\":389:405   */\n      swap1\n      pop\n        /* \"#utility.yul\":334:411   */\n      swap2\n      swap1\n      pop\n      jump\t// out\n        /* \"#utility.yul\":417:539   */\n    tag_31:\n        /* \"#utility.yul\":490:514   */\n      tag_71\n        /* \"#utility.yul\":508:513   */\n      dup2\n        /* \"#utility.yul\":490:514   */\n      tag_30\n      jump\t// in\n    tag_71:\n        /* \"#utility.yul\":483:488   */\n      dup2\n        /* \"#utility.yul\":480:515   */\n      eq\n        /* \"#utility.yul\":470:533   */\n      tag_72\n      jumpi\n        /* \"#utility.yul\":529:530   */\n      0x00\n        /* \"#utility.yul\":526:527   */\n      dup1\n        /* \"#utility.yul\":519:531   */\n      revert\n        /* \"#utility.yul\":470:533   */\n    tag_72:\n        /* \"#utility.yul\":417:539   */\n      pop\n      jump\t// out\n        /* \"#utility.yul\":545:684   */\n    tag_32:\n        /* \"#utility.yul\":591:596   */\n      0x00\n        /* \"#utility.yul\":629:635   */\n      dup2\n        /* \"#utility.yul\":616:636   */\n      calldataload\n        /* \"#utility.yul\":607:636   */\n      swap1\n      pop\n        /* \"#utility.yul\":645:678   */\n      tag_74\n        /* \"#utility.yul\":672:677   */\n      dup2\n        /* \"#utility.yul\":645:678   */\n      tag_31\n      jump\t// in\n    tag_74:\n        /* \"#utility.yul\":545:684   */\n      swap3\n      swap2\n      pop\n      pop\n      jump\t// out\n        /* \"#utility.yul\":690:1019   */\n    tag_7:\n        /* \"#utility.yul\":749:755   */\n      0x00\n        /* \"#utility.yul\":798:800   */\n      0x20\n        /* \"#utility.yul\":786:795   */\n      dup3\n        /* \"#utility.yul\":777:784   */\n      dup5\n        /* \"#utility.yul\":773:796   */\n      sub\n        /* \"#utility.yul\":769:801   */\n      slt\n        /* \"#utility.yul\":766:885   */\n      iszero\n      tag_76\n      jumpi\n        /* \"#utility.yul\":804:883   */\n      tag_77\n      tag_28\n      jump\t// in\n    tag_77:\n        /* \"#utility.yul\":766:885   */\n    tag_76:\n        /* \"#utility.yul\":924:925   */\n      0x00\n        /* \"#utility.yul\":949:1002   */\n      tag_78\n        /* \"#utility.yul\":994:1001   */\n      dup5\n        /* \"#utility.yul\":985:991   */\n      dup3\n        /* \"#utility.yul\":974:983   */\n      dup6\n        /* \"#utility.yul\":970:992   */\n      add\n        /* \"#utility.yul\":949:1002   */\n      tag_32\n      jump\t// in\n    tag_78:\n        /* \"#utility.yul\":939:1002   */\n      swap2\n      pop\n        /* \"#utility.yul\":895:1012   */\n      pop\n        /* \"#utility.yul\":690:1019   */\n      swap3\n      swap2\n      pop\n      pop\n      jump\t// out\n        /* \"#utility.yul\":1025:1124   */\n    tag_33:\n        /* \"#utility.yul\":1077:1083   */\n      0x00\n        /* \"#utility.yul\":1111:1116   */\n      dup2\n        /* \"#utility.yul\":1105:1117   */\n      mload\n        /* \"#utility.yul\":1095:1117   */\n      swap1\n      pop\n        /* \"#utility.yul\":1025:1124   */\n      swap2\n      swap1\n      pop\n      jump\t// out\n        /* \"#utility.yul\":1130:1299   */\n    tag_34:\n        /* \"#utility.yul\":1214:1225   */\n      0x00\n        /* \"#utility.yul\":1248:1254   */\n      dup3\n        /* \"#utility.yul\":1243:1246   */\n      dup3\n        /* \"#utility.yul\":1236:1255   */\n      mstore\n        /* \"#utility.yul\":1288:1292   */\n      0x20\n        /* \"#utility.yul\":1283:1286   */\n      dup3\n        /* \"#utility.yul\":1279:1293   */\n      add\n        /* \"#utility.yul\":1264:1293   */\n      swap1\n      pop\n        /* \"#utility.yul\":1130:1299   */\n      swap3\n      swap2\n      pop\n      pop\n      jump\t// out\n        /* \"#utility.yul\":1305:1551   */\n    tag_35:\n        /* \"#utility.yul\":1386:1387   */\n      0x00\n        /* \"#utility.yul\":1396:1509   */\n    tag_82:\n        /* \"#utility.yul\":1410:1416   */\n      dup4\n        /* \"#utility.yul\":1407:1408   */\n      dup2\n        /* \"#utility.yul\":1404:1417   */\n      lt\n        /* \"#utility.yul\":1396:1509   */\n      iszero\n      tag_84\n      jumpi\n        /* \"#utility.yul\":1495:1496   */\n      dup1\n        /* \"#utility.yul\":1490:1493   */\n      dup3\n        /* \"#utility.yul\":1486:1497   */\n      add\n        /* \"#utility.yul\":1480:1498   */\n      mload\n        /* \"#utility.yul\":1476:1477   */\n      dup2\n        /* \"#utility.yul\":1471:1474   */\n      dup5\n        /* \"#utility.yul\":1467:1478   */\n      add\n        /* \"#utility.yul\":1460:1499   */\n      mstore\n        /* \"#utility.yul\":1432:1434   */\n      0x20\n        /* \"#utility.yul\":1429:1430   */\n      dup2\n        /* \"#utility.yul\":1425:1435   */\n      add\n        /* \"#utility.yul\":1420:1435   */\n      swap1\n      pop\n        /* \"#utility.yul\":1396:1509   */\n      jump(tag_82)\n    tag_84:\n        /* \"#utility.yul\":1543:1544   */\n      0x00\n        /* \"#utility.yul\":1534:1540   */\n      dup5\n        /* \"#utility.yul\":1529:1532   */\n      dup5\n        /* \"#utility.yul\":1525:1541   */\n      add\n        /* \"#utility.yul\":1518:1545   */\n      mstore\n        /* \"#utility.yul\":1367:1551   */\n      pop\n        /* \"#utility.yul\":1305:1551   */\n      pop\n      pop\n      pop\n      jump\t// out\n        /* \"#utility.yul\":1557:1659   */\n    tag_36:\n        /* \"#utility.yul\":1598:1604   */\n      0x00\n        /* \"#utility.yul\":1649:1651   */\n      0x1f\n        /* \"#utility.yul\":1645:1652   */\n      not\n        /* \"#utility.yul\":1640:1642   */\n      0x1f\n        /* \"#utility.yul\":1633:1638   */\n      dup4\n        /* \"#utility.yul\":1629:1643   */\n      add\n        /* \"#utility.yul\":1625:1653   */\n      and\n        /* \"#utility.yul\":1615:1653   */\n      swap1\n      pop\n        /* \"#utility.yul\":1557:1659   */\n      swap2\n      swap1\n      pop\n      jump\t// out\n        /* \"#utility.yul\":1665:2042   */\n    tag_37:\n        /* \"#utility.yul\":1753:1756   */\n      0x00\n        /* \"#utility.yul\":1781:1820   */\n      tag_87\n        /* \"#utility.yul\":1814:1819   */\n      dup3\n        /* \"#utility.yul\":1781:1820   */\n      tag_33\n      jump\t// in\n    tag_87:\n        /* \"#utility.yul\":1836:1907   */\n      tag_88\n        /* \"#utility.yul\":1900:1906   */\n      dup2\n        /* \"#utility.yul\":1895:1898   */\n      dup6\n        /* \"#utility.yul\":1836:1907   */\n      tag_34\n      jump\t// in\n    tag_88:\n        /* \"#utility.yul\":1829:1907   */\n      swap4\n      pop\n        /* \"#utility.yul\":1916:1981   */\n      tag_89\n        /* \"#utility.yul\":1974:1980   */\n      dup2\n        /* \"#utility.yul\":1969:1972   */\n      dup6\n        /* \"#utility.yul\":1962:1966   */\n      0x20\n        /* \"#utility.yul\":1955:1960   */\n      dup7\n        /* \"#utility.yul\":1951:1967   */\n      add\n        /* \"#utility.yul\":1916:1981   */\n      tag_35\n      jump\t// in\n    tag_89:\n        /* \"#utility.yul\":2006:2035   */\n      tag_90\n        /* \"#utility.yul\":2028:2034   */\n      dup2\n        /* \"#utility.yul\":2006:2035   */\n      tag_36\n      jump\t// in\n    tag_90:\n        /* \"#utility.yul\":2001:2004   */\n      dup5\n        /* \"#utility.yul\":1997:2036   */\n      add\n        /* \"#utility.yul\":1990:2036   */\n      swap2\n      pop\n        /* \"#utility.yul\":1757:2042   */\n      pop\n        /* \"#utility.yul\":1665:2042   */\n      swap3\n      swap2\n      pop\n      pop\n      jump\t// out\n        /* \"#utility.yul\":2048:2138   */\n    tag_38:\n        /* \"#utility.yul\":2082:2089   */\n      0x00\n        /* \"#utility.yul\":2125:2130   */\n      dup2\n        /* \"#utility.yul\":2118:2131   */\n      iszero\n        /* \"#utility.yul\":2111:2132   */\n      iszero\n        /* \"#utility.yul\":2100:2132   */\n      swap1\n      pop\n        /* \"#utility.yul\":2048:2138   */\n      swap2\n      swap1\n      pop\n      jump\t// out\n        /* \"#utility.yul\":2144:2253   */\n    tag_39:\n        /* \"#utility.yul\":2225:2246   */\n      tag_93\n        /* \"#utility.yul\":2240:2245   */\n      dup2\n        /* \"#utility.yul\":2225:2246   */\n      tag_38\n      jump\t// in\n    tag_93:\n        /* \"#utility.yul\":2220:2223   */\n      dup3\n        /* \"#utility.yul\":2213:2247   */\n      mstore\n        /* \"#utility.yul\":2144:2253   */\n      pop\n      pop\n      jump\t// out\n        /* \"#utility.yul\":2259:2670   */\n    tag_10:\n        /* \"#utility.yul\":2394:2398   */\n      0x00\n        /* \"#utility.yul\":2432:2434   */\n      0x40\n        /* \"#utility.yul\":2421:2430   */\n      dup3\n        /* \"#utility.yul\":2417:2435   */\n      add\n        /* \"#utility.yul\":2409:2435   */\n      swap1\n      pop\n        /* \"#utility.yul\":2481:2490   */\n      dup2\n        /* \"#utility.yul\":2475:2479   */\n      dup2\n        /* \"#utility.yul\":2471:2491   */\n      sub\n        /* \"#utility.yul\":2467:2468   */\n      0x00\n        /* \"#utility.yul\":2456:2465   */\n      dup4\n        /* \"#utility.yul\":2452:2469   */\n      add\n        /* \"#utility.yul\":2445:2492   */\n      mstore\n        /* \"#utility.yul\":2509:2587   */\n      tag_95\n        /* \"#utility.yul\":2582:2586   */\n      dup2\n        /* \"#utility.yul\":2573:2579   */\n      dup6\n        /* \"#utility.yul\":2509:2587   */\n      tag_37\n      jump\t// in\n    tag_95:\n        /* \"#utility.yul\":2501:2587   */\n      swap1\n      pop\n        /* \"#utility.yul\":2597:2663   */\n      tag_96\n        /* \"#utility.yul\":2659:2661   */\n      0x20\n        /* \"#utility.yul\":2648:2657   */\n      dup4\n        /* \"#utility.yul\":2644:2662   */\n      add\n        /* \"#utility.yul\":2635:2641   */\n      dup5\n        /* \"#utility.yul\":2597:2663   */\n      tag_39\n      jump\t// in\n    tag_96:\n        /* \"#utility.yul\":2259:2670   */\n      swap4\n      swap3\n      pop\n      pop\n      pop\n      jump\t// out\n        /* \"#utility.yul\":2676:2793   */\n    tag_40:\n        /* \"#utility.yul\":2785:2786   */\n      0x00\n        /* \"#utility.yul\":2782:2783   */\n      dup1\n        /* \"#utility.yul\":2775:2787   */\n      revert\n        /* \"#utility.yul\":2799:2916   */\n    tag_41:\n        /* \"#utility.yul\":2908:2909   */\n      0x00\n        /* \"#utility.yul\":2905:2906   */\n      dup1\n        /* \"#utility.yul\":2898:2910   */\n      revert\n        /* \"#utility.yul\":2922:3102   */\n    tag_42:\n        /* \"#utility.yul\":2970:3047   */\n      0x4e487b7100000000000000000000000000000000000000000000000000000000\n        /* \"#utility.yul\":2967:2968   */\n      0x00\n        /* \"#utility.yul\":2960:3048   */\n      mstore\n        /* \"#utility.yul\":3067:3071   */\n      0x41\n        /* \"#utility.yul\":3064:3065   */\n      0x04\n        /* \"#utility.yul\":3057:3072   */\n      mstore\n        /* \"#utility.yul\":3091:3095   */\n      0x24\n        /* \"#utility.yul\":3088:3089   */\n      0x00\n        /* \"#utility.yul\":3081:3096   */\n      revert\n        /* \"#utility.yul\":3108:3389   */\n    tag_43:\n        /* \"#utility.yul\":3191:3218   */\n      tag_101\n        /* \"#utility.yul\":3213:3217   */\n      dup3\n        /* \"#utility.yul\":3191:3218   */\n      tag_36\n      jump\t// in\n    tag_101:\n        /* \"#utility.yul\":3183:3189   */\n      dup2\n        /* \"#utility.yul\":3179:3219   */\n      add\n        /* \"#utility.yul\":3321:3327   */\n      dup2\n        /* \"#utility.yul\":3309:3319   */\n      dup2\n        /* \"#utility.yul\":3306:3328   */\n      lt\n        /* \"#utility.yul\":3285:3303   */\n      0xffffffffffffffff\n        /* \"#utility.yul\":3273:3283   */\n      dup3\n        /* \"#utility.yul\":3270:3304   */\n      gt\n        /* \"#utility.yul\":3267:3329   */\n      or\n        /* \"#utility.yul\":3264:3352   */\n      iszero\n      tag_102\n      jumpi\n        /* \"#utility.yul\":3332:3350   */\n      tag_103\n      tag_42\n      jump\t// in\n    tag_103:\n        /* \"#utility.yul\":3264:3352   */\n    tag_102:\n        /* \"#utility.yul\":3372:3382   */\n      dup1\n        /* \"#utility.yul\":3368:3370   */\n      0x40\n        /* \"#utility.yul\":3361:3383   */\n      mstore\n        /* \"#utility.yul\":3151:3389   */\n      pop\n        /* \"#utility.yul\":3108:3389   */\n      pop\n      pop\n      jump\t// out\n        /* \"#utility.yul\":3395:3524   */\n    tag_44:\n        /* \"#utility.yul\":3429:3435   */\n      0x00\n        /* \"#utility.yul\":3456:3476   */\n      tag_105\n      tag_27\n      jump\t// in\n    tag_105:\n        /* \"#utility.yul\":3446:3476   */\n      swap1\n      pop\n        /* \"#utility.yul\":3485:3518   */\n      tag_106\n        /* \"#utility.yul\":3513:3517   */\n      dup3\n        /* \"#utility.yul\":3505:3511   */\n      dup3\n        /* \"#utility.yul\":3485:3518   */\n      tag_43\n      jump\t// in\n    tag_106:\n        /* \"#utility.yul\":3395:3524   */\n      swap2\n      swap1\n      pop\n      jump\t// out\n        /* \"#utility.yul\":3530:3838   */\n    tag_45:\n        /* \"#utility.yul\":3592:3596   */\n      0x00\n        /* \"#utility.yul\":3682:3700   */\n      0xffffffffffffffff\n        /* \"#utility.yul\":3674:3680   */\n      dup3\n        /* \"#utility.yul\":3671:3701   */\n      gt\n        /* \"#utility.yul\":3668:3724   */\n      iszero\n      tag_108\n      jumpi\n        /* \"#utility.yul\":3704:3722   */\n      tag_109\n      tag_42\n      jump\t// in\n    tag_109:\n        /* \"#utility.yul\":3668:3724   */\n    tag_108:\n        /* \"#utility.yul\":3742:3771   */\n      tag_110\n        /* \"#utility.yul\":3764:3770   */\n      dup3\n        /* \"#utility.yul\":3742:3771   */\n      tag_36\n      jump\t// in\n    tag_110:\n        /* \"#utility.yul\":3734:3771   */\n      swap1\n      pop\n        /* \"#utility.yul\":3826:3830   */\n      0x20\n        /* \"#utility.yul\":3820:3824   */\n      dup2\n        /* \"#utility.yul\":3816:3831   */\n      add\n        /* \"#utility.yul\":3808:3831   */\n      swap1\n      pop\n        /* \"#utility.yul\":3530:3838   */\n      swap2\n      swap1\n      pop\n      jump\t// out\n        /* \"#utility.yul\":3844:3990   */\n    tag_46:\n        /* \"#utility.yul\":3941:3947   */\n      dup3\n        /* \"#utility.yul\":3936:3939   */\n      dup2\n        /* \"#utility.yul\":3931:3934   */\n      dup4\n        /* \"#utility.yul\":3918:3948   */\n      calldatacopy\n        /* \"#utility.yul\":3982:3983   */\n      0x00\n        /* \"#utility.yul\":3973:3979   */\n      dup4\n        /* \"#utility.yul\":3968:3971   */\n      dup4\n        /* \"#utility.yul\":3964:3980   */\n      add\n        /* \"#utility.yul\":3957:3984   */\n      mstore\n        /* \"#utility.yul\":3844:3990   */\n      pop\n      pop\n      pop\n      jump\t// out\n        /* \"#utility.yul\":3996:4421   */\n    tag_47:\n        /* \"#utility.yul\":4074:4079   */\n      0x00\n        /* \"#utility.yul\":4099:4165   */\n      tag_113\n        /* \"#utility.yul\":4115:4164   */\n      tag_114\n        /* \"#utility.yul\":4157:4163   */\n      dup5\n        /* \"#utility.yul\":4115:4164   */\n      tag_45\n      jump\t// in\n    tag_114:\n        /* \"#utility.yul\":4099:4165   */\n      tag_44\n      jump\t// in\n    tag_113:\n        /* \"#utility.yul\":4090:4165   */\n      swap1\n      pop\n        /* \"#utility.yul\":4188:4194   */\n      dup3\n        /* \"#utility.yul\":4181:4186   */\n      dup2\n        /* \"#utility.yul\":4174:4195   */\n      mstore\n        /* \"#utility.yul\":4226:4230   */\n      0x20\n        /* \"#utility.yul\":4219:4224   */\n      dup2\n        /* \"#utility.yul\":4215:4231   */\n      add\n        /* \"#utility.yul\":4264:4267   */\n      dup5\n        /* \"#utility.yul\":4255:4261   */\n      dup5\n        /* \"#utility.yul\":4250:4253   */\n      dup5\n        /* \"#utility.yul\":4246:4262   */\n      add\n        /* \"#utility.yul\":4243:4268   */\n      gt\n        /* \"#utility.yul\":4240:4352   */\n      iszero\n      tag_115\n      jumpi\n        /* \"#utility.yul\":4271:4350   */\n      tag_116\n      tag_41\n      jump\t// in\n    tag_116:\n        /* \"#utility.yul\":4240:4352   */\n    tag_115:\n        /* \"#utility.yul\":4361:4415   */\n      tag_117\n        /* \"#utility.yul\":4408:4414   */\n      dup5\n        /* \"#utility.yul\":4403:4406   */\n      dup3\n        /* \"#utility.yul\":4398:4401   */\n      dup6\n        /* \"#utility.yul\":4361:4415   */\n      tag_46\n      jump\t// in\n    tag_117:\n        /* \"#utility.yul\":4080:4421   */\n      pop\n        /* \"#utility.yul\":3996:4421   */\n      swap4\n      swap3\n      pop\n      pop\n      pop\n      jump\t// out\n        /* \"#utility.yul\":4441:4781   */\n    tag_48:\n        /* \"#utility.yul\":4497:4502   */\n      0x00\n        /* \"#utility.yul\":4546:4549   */\n      dup3\n        /* \"#utility.yul\":4539:4543   */\n      0x1f\n        /* \"#utility.yul\":4531:4537   */\n      dup4\n        /* \"#utility.yul\":4527:4544   */\n      add\n        /* \"#utility.yul\":4523:4550   */\n      slt\n        /* \"#utility.yul\":4513:4635   */\n      tag_119\n      jumpi\n        /* \"#utility.yul\":4554:4633   */\n      tag_120\n      tag_40\n      jump\t// in\n    tag_120:\n        /* \"#utility.yul\":4513:4635   */\n    tag_119:\n        /* \"#utility.yul\":4671:4677   */\n      dup2\n        /* \"#utility.yul\":4658:4678   */\n      calldataload\n        /* \"#utility.yul\":4696:4775   */\n      tag_121\n        /* \"#utility.yul\":4771:4774   */\n      dup5\n        /* \"#utility.yul\":4763:4769   */\n      dup3\n        /* \"#utility.yul\":4756:4760   */\n      0x20\n        /* \"#utility.yul\":4748:4754   */\n      dup7\n        /* \"#utility.yul\":4744:4761   */\n      add\n        /* \"#utility.yul\":4696:4775   */\n      tag_47\n      jump\t// in\n    tag_121:\n        /* \"#utility.yul\":4687:4775   */\n      swap2\n      pop\n        /* \"#utility.yul\":4503:4781   */\n      pop\n        /* \"#utility.yul\":4441:4781   */\n      swap3\n      swap2\n      pop\n      pop\n      jump\t// out\n        /* \"#utility.yul\":4787:5296   */\n    tag_13:\n        /* \"#utility.yul\":4856:4862   */\n      0x00\n        /* \"#utility.yul\":4905:4907   */\n      0x20\n        /* \"#utility.yul\":4893:4902   */\n      dup3\n        /* \"#utility.yul\":4884:4891   */\n      dup5\n        /* \"#utility.yul\":4880:4903   */\n      sub\n        /* \"#utility.yul\":4876:4908   */\n      slt\n        /* \"#utility.yul\":4873:4992   */\n      iszero\n      tag_123\n      jumpi\n        /* \"#utility.yul\":4911:4990   */\n      tag_124\n      tag_28\n      jump\t// in\n    tag_124:\n        /* \"#utility.yul\":4873:4992   */\n    tag_123:\n        /* \"#utility.yul\":5059:5060   */\n      0x00\n        /* \"#utility.yul\":5048:5057   */\n      dup3\n        /* \"#utility.yul\":5044:5061   */\n      add\n        /* \"#utility.yul\":5031:5062   */\n      calldataload\n        /* \"#utility.yul\":5089:5107   */\n      0xffffffffffffffff\n        /* \"#utility.yul\":5081:5087   */\n      dup2\n        /* \"#utility.yul\":5078:5108   */\n      gt\n        /* \"#utility.yul\":5075:5192   */\n      iszero\n      tag_125\n      jumpi\n        /* \"#utility.yul\":5111:5190   */\n      tag_126\n      tag_29\n      jump\t// in\n    tag_126:\n        /* \"#utility.yul\":5075:5192   */\n    tag_125:\n        /* \"#utility.yul\":5216:5279   */\n      tag_127\n        /* \"#utility.yul\":5271:5278   */\n      dup5\n        /* \"#utility.yul\":5262:5268   */\n      dup3\n        /* \"#utility.yul\":5251:5260   */\n      dup6\n        /* \"#utility.yul\":5247:5269   */\n      add\n        /* \"#utility.yul\":5216:5279   */\n      tag_48\n      jump\t// in\n    tag_127:\n        /* \"#utility.yul\":5206:5279   */\n      swap2\n      pop\n        /* \"#utility.yul\":5002:5289   */\n      pop\n        /* \"#utility.yul\":4787:5296   */\n      swap3\n      swap2\n      pop\n      pop\n      jump\t// out\n        /* \"#utility.yul\":5302:5482   */\n    tag_49:\n        /* \"#utility.yul\":5350:5427   */\n      0x4e487b7100000000000000000000000000000000000000000000000000000000\n        /* \"#utility.yul\":5347:5348   */\n      0x00\n        /* \"#utility.yul\":5340:5428   */\n      mstore\n        /* \"#utility.yul\":5447:5451   */\n      0x22\n        /* \"#utility.yul\":5444:5445   */\n      0x04\n        /* \"#utility.yul\":5437:5452   */\n      mstore\n        /* \"#utility.yul\":5471:5475   */\n      0x24\n        /* \"#utility.yul\":5468:5469   */\n      0x00\n        /* \"#utility.yul\":5461:5476   */\n      revert\n        /* \"#utility.yul\":5488:5808   */\n    tag_18:\n        /* \"#utility.yul\":5532:5538   */\n      0x00\n        /* \"#utility.yul\":5569:5570   */\n      0x02\n        /* \"#utility.yul\":5563:5567   */\n      dup3\n        /* \"#utility.yul\":5559:5571   */\n      div\n        /* \"#utility.yul\":5549:5571   */\n      swap1\n      pop\n        /* \"#utility.yul\":5616:5617   */\n      0x01\n        /* \"#utility.yul\":5610:5614   */\n      dup3\n        /* \"#utility.yul\":5606:5618   */\n      and\n        /* \"#utility.yul\":5637:5655   */\n      dup1\n        /* \"#utility.yul\":5627:5708   */\n      tag_130\n      jumpi\n        /* \"#utility.yul\":5693:5697   */\n      0x7f\n        /* \"#utility.yul\":5685:5691   */\n      dup3\n        /* \"#utility.yul\":5681:5698   */\n      and\n        /* \"#utility.yul\":5671:5698   */\n      swap2\n      pop\n        /* \"#utility.yul\":5627:5708   */\n    tag_130:\n        /* \"#utility.yul\":5755:5757   */\n      0x20\n        /* \"#utility.yul\":5747:5753   */\n      dup3\n        /* \"#utility.yul\":5744:5758   */\n      lt\n        /* \"#utility.yul\":5724:5742   */\n      dup2\n        /* \"#utility.yul\":5721:5759   */\n      sub\n        /* \"#utility.yul\":5718:5802   */\n      tag_131\n      jumpi\n        /* \"#utility.yul\":5774:5792   */\n      tag_132\n      tag_49\n      jump\t// in\n    tag_132:\n        /* \"#utility.yul\":5718:5802   */\n    tag_131:\n        /* \"#utility.yul\":5539:5808   */\n      pop\n        /* \"#utility.yul\":5488:5808   */\n      swap2\n      swap1\n      pop\n      jump\t// out\n        /* \"#utility.yul\":5814:5955   */\n    tag_50:\n        /* \"#utility.yul\":5863:5867   */\n      0x00\n        /* \"#utility.yul\":5886:5889   */\n      dup2\n        /* \"#utility.yul\":5878:5889   */\n      swap1\n      pop\n        /* \"#utility.yul\":5909:5912   */\n      dup2\n        /* \"#utility.yul\":5906:5907   */\n      0x00\n        /* \"#utility.yul\":5899:5913   */\n      mstore\n        /* \"#utility.yul\":5943:5947   */\n      0x20\n        /* \"#utility.yul\":5940:5941   */\n      0x00\n        /* \"#utility.yul\":5930:5948   */\n      keccak256\n        /* \"#utility.yul\":5922:5948   */\n      swap1\n      pop\n        /* \"#utility.yul\":5814:5955   */\n      swap2\n      swap1\n      pop\n      jump\t// out\n        /* \"#utility.yul\":5961:6054   */\n    tag_51:\n        /* \"#utility.yul\":5998:6004   */\n      0x00\n        /* \"#utility.yul\":6045:6047   */\n      0x20\n        /* \"#utility.yul\":6040:6042   */\n      0x1f\n        /* \"#utility.yul\":6033:6038   */\n      dup4\n        /* \"#utility.yul\":6029:6043   */\n      add\n        /* \"#utility.yul\":6025:6048   */\n      div\n        /* \"#utility.yul\":6015:6048   */\n      swap1\n      pop\n        /* \"#utility.yul\":5961:6054   */\n      swap2\n      swap1\n      pop\n      jump\t// out\n        /* \"#utility.yul\":6060:6167   */\n    tag_52:\n        /* \"#utility.yul\":6104:6112   */\n      0x00\n        /* \"#utility.yul\":6154:6159   */\n      dup3\n        /* \"#utility.yul\":6148:6152   */\n      dup3\n        /* \"#utility.yul\":6144:6160   */\n      shl\n        /* \"#utility.yul\":6123:6160   */\n      swap1\n      pop\n        /* \"#utility.yul\":6060:6167   */\n      swap3\n      swap2\n      pop\n      pop\n      jump\t// out\n        /* \"#utility.yul\":6173:6566   */\n    tag_53:\n        /* \"#utility.yul\":6242:6248   */\n      0x00\n        /* \"#utility.yul\":6292:6293   */\n      0x08\n        /* \"#utility.yul\":6280:6290   */\n      dup4\n        /* \"#utility.yul\":6276:6294   */\n      mul\n        /* \"#utility.yul\":6315:6412   */\n      tag_137\n        /* \"#utility.yul\":6345:6411   */\n      0xffffffffffffffffffffffffffffffffffffffffffffffffffffffffffffffff\n        /* \"#utility.yul\":6334:6343   */\n      dup3\n        /* \"#utility.yul\":6315:6412   */\n      tag_52\n      jump\t// in\n    tag_137:\n        /* \"#utility.yul\":6433:6472   */\n      tag_138\n        /* \"#utility.yul\":6463:6471   */\n      dup7\n        /* \"#utility.yul\":6452:6461   */\n      dup4\n        /* \"#utility.yul\":6433:6472   */\n      tag_52\n      jump\t// in\n    tag_138:\n        /* \"#utility.yul\":6421:6472   */\n      swap6\n      pop\n        /* \"#utility.yul\":6505:6509   */\n      dup1\n        /* \"#utility.yul\":6501:6510   */\n      not\n        /* \"#utility.yul\":6494:6499   */\n      dup5\n        /* \"#utility.yul\":6490:6511   */\n      and\n        /* \"#utility.yul\":6481:6511   */\n      swap4\n      pop\n        /* \"#utility.yul\":6554:6558   */\n      dup1\n        /* \"#utility.yul\":6544:6552   */\n      dup7\n        /* \"#utility.yul\":6540:6559   */\n      and\n        /* \"#utility.yul\":6533:6538   */\n      dup5\n        /* \"#utility.yul\":6530:6560   */\n      or\n        /* \"#utility.yul\":6520:6560   */\n      swap3\n      pop\n        /* \"#utility.yul\":6249:6566   */\n      pop\n      pop\n        /* \"#utility.yul\":6173:6566   */\n      swap4\n      swap3\n      pop\n      pop\n      pop\n      jump\t// out\n        /* \"#utility.yul\":6572:6632   */\n    tag_54:\n        /* \"#utility.yul\":6600:6603   */\n      0x00\n        /* \"#utility.yul\":6621:6626   */\n      dup2\n        /* \"#utility.yul\":6614:6626   */\n      swap1\n      pop\n        /* \"#utility.yul\":6572:6632   */\n      swap2\n      swap1\n      pop\n      jump\t// out\n        /* \"#utility.yul\":6638:6780   */\n    tag_55:\n        /* \"#utility.yul\":6688:6697   */\n      0x00\n        /* \"#utility.yul\":6721:6774   */\n      tag_141\n        /* \"#utility.yul\":6739:6773   */\n      tag_142\n        /* \"#utility.yul\":6748:6772   */\n      tag_143\n        /* \"#utility.yul\":6766:6771   */\n      dup5\n        /* \"#utility.yul\":6748:6772   */\n      tag_30\n      jump\t// in\n    tag_143:\n        /* \"#utility.yul\":6739:6773   */\n      tag_54\n      jump\t// in\n    tag_142:\n        /* \"#utility.yul\":6721:6774   */\n      tag_30\n      jump\t// in\n    tag_141:\n        /* \"#utility.yul\":6708:6774   */\n      swap1\n      pop\n        /* \"#utility.yul\":6638:6780   */\n      swap2\n      swap1\n      pop\n      jump\t// out\n        /* \"#utility.yul\":6786:6861   */\n    tag_56:\n        /* \"#utility.yul\":6829:6832   */\n      0x00\n        /* \"#utility.yul\":6850:6855   */\n      dup2\n        /* \"#utility.yul\":6843:6855   */\n      swap1\n      pop\n        /* \"#utility.yul\":6786:6861   */\n      swap2\n      swap1\n      pop\n      jump\t// out\n        /* \"#utility.yul\":6867:7136   */\n    tag_57:\n        /* \"#utility.yul\":6977:7016   */\n      tag_146\n        /* \"#utility.yul\":7008:7015   */\n      dup4\n        /* \"#utility.yul\":6977:7016   */\n      tag_55\n      jump\t// in\n    tag_146:\n        /* \"#utility.yul\":7038:7129   */\n      tag_147\n        /* \"#utility.yul\":7087:7128   */\n      tag_148\n        /* \"#utility.yul\":7111:7127   */\n      dup3\n        /* \"#utility.yul\":7087:7128   */\n      tag_56\n      jump\t// in\n    tag_148:\n        /* \"#utility.yul\":7079:7085   */\n      dup5\n        /* \"#utility.yul\":7072:7076   */\n      dup5\n        /* \"#utility.yul\":7066:7077   */\n      sload\n        /* \"#utility.yul\":7038:7129   */\n      tag_53\n      jump\t// in\n    tag_147:\n        /* \"#utility.yul\":7032:7036   */\n      dup3\n        /* \"#utility.yul\":7025:7130   */\n      sstore\n        /* \"#utility.yul\":6943:7136   */\n      pop\n        /* \"#utility.yul\":6867:7136   */\n      pop\n      pop\n      pop\n      jump\t// out\n        /* \"#utility.yul\":7142:7215   */\n    tag_58:\n        /* \"#utility.yul\":7187:7190   */\n      0x00\n        /* \"#utility.yul\":7142:7215   */\n      swap1\n      jump\t// out\n        /* \"#utility.yul\":7221:7410   */\n    tag_59:\n        /* \"#utility.yul\":7298:7330   */\n      tag_151\n      tag_58\n      jump\t// in\n    tag_151:\n        /* \"#utility.yul\":7339:7404   */\n      tag_152\n        /* \"#utility.yul\":7397:7403   */\n      dup2\n        /* \"#utility.yul\":7389:7395   */\n      dup5\n        /* \"#utility.yul\":7383:7387   */\n      dup5\n        /* \"#utility.yul\":7339:7404   */\n      tag_57\n      jump\t// in\n    tag_152:\n        /* \"#utility.yul\":7274:7410   */\n      pop\n        /* \"#utility.yul\":7221:7410   */\n      pop\n      pop\n      jump\t// out\n        /* \"#utility.yul\":7416:7602   */\n    tag_60:\n        /* \"#utility.yul\":7476:7596   */\n    tag_154:\n        /* \"#utility.yul\":7493:7496   */\n      dup2\n        /* \"#utility.yul\":7486:7491   */\n      dup2\n        /* \"#utility.yul\":7483:7497   */\n      lt\n        /* \"#utility.yul\":7476:7596   */\n      iszero\n      tag_156\n      jumpi\n        /* \"#utility.yul\":7547:7586   */\n      tag_157\n        /* \"#utility.yul\":7584:7585   */\n      0x00\n        /* \"#utility.yul\":7577:7582   */\n      dup3\n        /* \"#utility.yul\":7547:7586   */\n      tag_59\n      jump\t// in\n    tag_157:\n        /* \"#utility.yul\":7520:7521   */\n      0x01\n        /* \"#utility.yul\":7513:7518   */\n      dup2\n        /* \"#utility.yul\":7509:7522   */\n      add\n        /* \"#utility.yul\":7500:7522   */\n      swap1\n      pop\n        /* \"#utility.yul\":7476:7596   */\n      jump(tag_154)\n    tag_156:\n        /* \"#utility.yul\":7416:7602   */\n      pop\n      pop\n      jump\t// out\n        /* \"#utility.yul\":7608:8151   */\n    tag_61:\n        /* \"#utility.yul\":7709:7711   */\n      0x1f\n        /* \"#utility.yul\":7704:7707   */\n      dup3\n        /* \"#utility.yul\":7701:7712   */\n      gt\n        /* \"#utility.yul\":7698:8144   */\n      iszero\n      tag_159\n      jumpi\n        /* \"#utility.yul\":7743:7781   */\n      tag_160\n        /* \"#utility.yul\":7775:7780   */\n      dup2\n        /* \"#utility.yul\":7743:7781   */\n      tag_50\n      jump\t// in\n    tag_160:\n        /* \"#utility.yul\":7827:7856   */\n      tag_161\n        /* \"#utility.yul\":7845:7855   */\n      dup5\n        /* \"#utility.yul\":7827:7856   */\n      tag_51\n      jump\t// in\n    tag_161:\n        /* \"#utility.yul\":7817:7825   */\n      dup2\n        /* \"#utility.yul\":7813:7857   */\n      add\n        /* \"#utility.yul\":8010:8012   */\n      0x20\n        /* \"#utility.yul\":7998:8008   */\n      dup6\n        /* \"#utility.yul\":7995:8013   */\n      lt\n        /* \"#utility.yul\":7992:8041   */\n      iszero\n      tag_162\n      jumpi\n        /* \"#utility.yul\":8031:8039   */\n      dup2\n        /* \"#utility.yul\":8016:8039   */\n      swap1\n      pop\n        /* \"#utility.yul\":7992:8041   */\n    tag_162:\n        /* \"#utility.yul\":8054:8134   */\n      tag_163\n        /* \"#utility.yul\":8110:8132   */\n      tag_164\n        /* \"#utility.yul\":8128:8131   */\n      dup6\n        /* \"#utility.yul\":8110:8132   */\n      tag_51\n      jump\t// in\n    tag_164:\n        /* \"#utility.yul\":8100:8108   */\n      dup4\n        /* \"#utility.yul\":8096:8133   */\n      add\n        /* \"#utility.yul\":8083:8094   */\n      dup3\n        /* \"#utility.yul\":8054:8134   */\n      tag_60\n      jump\t// in\n    tag_163:\n        /* \"#utility.yul\":7713:8144   */\n      pop\n      pop\n        /* \"#utility.yul\":7698:8144   */\n    tag_159:\n        /* \"#utility.yul\":7608:8151   */\n      pop\n      pop\n      pop\n      jump\t// out\n        /* \"#utility.yul\":8157:8274   */\n    tag_62:\n        /* \"#utility.yul\":8211:8219   */\n      0x00\n        /* \"#utility.yul\":8261:8266   */\n      dup3\n        /* \"#utility.yul\":8255:8259   */\n      dup3\n        /* \"#utility.yul\":8251:8267   */\n      shr\n        /* \"#utility.yul\":8230:8267   */\n      swap1\n      pop\n        /* \"#utility.yul\":8157:8274   */\n      swap3\n      swap2\n      pop\n      pop\n      jump\t// out\n        /* \"#utility.yul\":8280:8449   */\n    tag_63:\n        /* \"#utility.yul\":8324:8330   */\n      0x00\n        /* \"#utility.yul\":8357:8408   */\n      tag_167\n        /* \"#utility.yul\":8405:8406   */\n      0x00\n        /* \"#utility.yul\":8401:8407   */\n      not\n        /* \"#utility.yul\":8393:8398   */\n      dup5\n        /* \"#utility.yul\":8390:8391   */\n      0x08\n        /* \"#utility.yul\":8386:8399   */\n      mul\n        /* \"#utility.yul\":8357:8408   */\n      tag_62\n      jump\t// in\n    tag_167:\n        /* \"#utility.yul\":8353:8409   */\n      not\n        /* \"#utility.yul\":8438:8442   */\n      dup1\n        /* \"#utility.yul\":8432:8436   */\n      dup4\n        /* \"#utility.yul\":8428:8443   */\n      and\n        /* \"#utility.yul\":8418:8443   */\n      swap2\n      pop\n        /* \"#utility.yul\":8331:8449   */\n      pop\n        /* \"#utility.yul\":8280:8449   */\n      swap3\n      swap2\n      pop\n      pop\n      jump\t// out\n        /* \"#utility.yul\":8454:8749   */\n    tag_64:\n        /* \"#utility.yul\":8530:8534   */\n      0x00\n        /* \"#utility.yul\":8676:8705   */\n      tag_169\n        /* \"#utility.yul\":8701:8704   */\n      dup4\n        /* \"#utility.yul\":8695:8699   */\n      dup4\n        /* \"#utility.yul\":8676:8705   */\n      tag_63\n      jump\t// in\n    tag_169:\n        /* \"#utility.yul\":8668:8705   */\n      swap2\n      pop\n        /* \"#utility.yul\":8738:8741   */\n      dup3\n        /* \"#utility.yul\":8735:8736   */\n      0x02\n        /* \"#utility.yul\":8731:8742   */\n      mul\n        /* \"#utility.yul\":8725:8729   */\n      dup3\n        /* \"#utility.yul\":8722:8743   */\n      or\n        /* \"#utility.yul\":8714:8743   */\n      swap1\n      pop\n        /* \"#utility.yul\":8454:8749   */\n      swap3\n      swap2\n      pop\n      pop\n      jump\t// out\n        /* \"#utility.yul\":8754:10149   */\n    tag_26:\n        /* \"#utility.yul\":8871:8908   */\n      tag_171\n        /* \"#utility.yul\":8904:8907   */\n      dup3\n        /* \"#utility.yul\":8871:8908   */\n      tag_33\n      jump\t// in\n    tag_171:\n        /* \"#utility.yul\":8973:8991   */\n      0xffffffffffffffff\n        /* \"#utility.yul\":8965:8971   */\n      dup2\n        /* \"#utility.yul\":8962:8992   */\n      gt\n        /* \"#utility.yul\":8959:9015   */\n      iszero\n      tag_172\n      jumpi\n        /* \"#utility.yul\":8995:9013   */\n      tag_173\n      tag_42\n      jump\t// in\n    tag_173:\n        /* \"#utility.yul\":8959:9015   */\n    tag_172:\n        /* \"#utility.yul\":9039:9077   */\n      tag_174\n        /* \"#utility.yul\":9071:9075   */\n      dup3\n        /* \"#utility.yul\":9065:9076   */\n      sload\n        /* \"#utility.yul\":9039:9077   */\n      tag_18\n      jump\t// in\n    tag_174:\n        /* \"#utility.yul\":9124:9191   */\n      tag_175\n        /* \"#utility.yul\":9184:9190   */\n      dup3\n        /* \"#utility.yul\":9176:9182   */\n      dup3\n        /* \"#utility.yul\":9170:9174   */\n      dup6\n        /* \"#utility.yul\":9124:9191   */\n      tag_61\n      jump\t// in\n    tag_175:\n        /* \"#utility.yul\":9218:9219   */\n      0x00\n        /* \"#utility.yul\":9242:9246   */\n      0x20\n        /* \"#utility.yul\":9229:9246   */\n      swap1\n      pop\n        /* \"#utility.yul\":9274:9276   */\n      0x1f\n        /* \"#utility.yul\":9266:9272   */\n      dup4\n        /* \"#utility.yul\":9263:9277   */\n      gt\n        /* \"#utility.yul\":9291:9292   */\n      0x01\n        /* \"#utility.yul\":9286:9904   */\n      dup2\n      eq\n      tag_177\n      jumpi\n        /* \"#utility.yul\":9948:9949   */\n      0x00\n        /* \"#utility.yul\":9965:9971   */\n      dup5\n        /* \"#utility.yul\":9962:10039   */\n      iszero\n      tag_178\n      jumpi\n        /* \"#utility.yul\":10014:10023   */\n      dup3\n        /* \"#utility.yul\":10009:10012   */\n      dup8\n        /* \"#utility.yul\":10005:10024   */\n      add\n        /* \"#utility.yul\":9999:10025   */\n      mload\n        /* \"#utility.yul\":9990:10025   */\n      swap1\n      pop\n        /* \"#utility.yul\":9962:10039   */\n    tag_178:\n        /* \"#utility.yul\":10065:10132   */\n      tag_179\n        /* \"#utility.yul\":10125:10131   */\n      dup6\n        /* \"#utility.yul\":10118:10123   */\n      dup3\n        /* \"#utility.yul\":10065:10132   */\n      tag_64\n      jump\t// in\n    tag_179:\n        /* \"#utility.yul\":10059:10063   */\n      dup7\n        /* \"#utility.yul\":10052:10133   */\n      sstore\n        /* \"#utility.yul\":9921:10143   */\n      pop\n        /* \"#utility.yul\":9256:10143   */\n      jump(tag_176)\n        /* \"#utility.yul\":9286:9904   */\n    tag_177:\n        /* \"#utility.yul\":9338:9342   */\n      0x1f\n        /* \"#utility.yul\":9334:9343   */\n      not\n        /* \"#utility.yul\":9326:9332   */\n      dup5\n        /* \"#utility.yul\":9322:9344   */\n      and\n        /* \"#utility.yul\":9372:9409   */\n      tag_180\n        /* \"#utility.yul\":9404:9408   */\n      dup7\n        /* \"#utility.yul\":9372:9409   */\n      tag_50\n      jump\t// in\n    tag_180:\n        /* \"#utility.yul\":9431:9432   */\n      0x00\n        /* \"#utility.yul\":9445:9653   */\n    tag_181:\n        /* \"#utility.yul\":9459:9466   */\n      dup3\n        /* \"#utility.yul\":9456:9457   */\n      dup2\n        /* \"#utility.yul\":9453:9467   */\n      lt\n        /* \"#utility.yul\":9445:9653   */\n      iszero\n      tag_183\n      jumpi\n        /* \"#utility.yul\":9538:9547   */\n      dup5\n        /* \"#utility.yul\":9533:9536   */\n      dup10\n        /* \"#utility.yul\":9529:9548   */\n      add\n        /* \"#utility.yul\":9523:9549   */\n      mload\n        /* \"#utility.yul\":9515:9521   */\n      dup3\n        /* \"#utility.yul\":9508:9550   */\n      sstore\n        /* \"#utility.yul\":9589:9590   */\n      0x01\n        /* \"#utility.yul\":9581:9587   */\n      dup3\n        /* \"#utility.yul\":9577:9591   */\n      add\n        /* \"#utility.yul\":9567:9591   */\n      swap2\n      pop\n        /* \"#utility.yul\":9636:9638   */\n      0x20\n        /* \"#utility.yul\":9625:9634   */\n      dup6\n        /* \"#utility.yul\":9621:9639   */\n      add\n        /* \"#utility.yul\":9608:9639   */\n      swap5\n      pop\n        /* \"#utility.yul\":9482:9486   */\n      0x20\n        /* \"#utility.yul\":9479:9480   */\n      dup2\n        /* \"#utility.yul\":9475:9487   */\n      add\n        /* \"#utility.yul\":9470:9487   */\n      swap1\n      pop\n        /* \"#utility.yul\":9445:9653   */\n      jump(tag_181)\n    tag_183:\n        /* \"#utility.yul\":9681:9687   */\n      dup7\n        /* \"#utility.yul\":9672:9679   */\n      dup4\n        /* \"#utility.yul\":9669:9688   */\n      lt\n        /* \"#utility.yul\":9666:9845   */\n      iszero\n      tag_184\n      jumpi\n        /* \"#utility.yul\":9739:9748   */\n      dup5\n        /* \"#utility.yul\":9734:9737   */\n      dup10\n        /* \"#utility.yul\":9730:9749   */\n      add\n        /* \"#utility.yul\":9724:9750   */\n      mload\n        /* \"#utility.yul\":9782:9830   */\n      tag_185\n        /* \"#utility.yul\":9824:9828   */\n      0x1f\n        /* \"#utility.yul\":9816:9822   */\n      dup10\n        /* \"#utility.yul\":9812:9829   */\n      and\n        /* \"#utility.yul\":9801:9810   */\n      dup3\n        /* \"#utility.yul\":9782:9830   */\n      tag_63\n      jump\t// in\n    tag_185:\n        /* \"#utility.yul\":9774:9780   */\n      dup4\n        /* \"#utility.yul\":9767:9831   */\n      sstore\n        /* \"#utility.yul\":9689:9845   */\n      pop\n        /* \"#utility.yul\":9666:9845   */\n    tag_184:\n        /* \"#utility.yul\":9891:9892   */\n      0x01\n        /* \"#utility.yul\":9887:9888   */\n      0x02\n        /* \"#utility.yul\":9879:9885   */\n      dup9\n        /* \"#utility.yul\":9875:9889   */\n      mul\n        /* \"#utility.yul\":9871:9893   */\n      add\n        /* \"#utility.yul\":9865:9869   */\n      dup9\n        /* \"#utility.yul\":9858:9894   */\n      sstore\n        /* \"#utility.yul\":9293:9904   */\n      pop\n      pop\n      pop\n        /* \"#utility.yul\":9256:10143   */\n    tag_176:\n      pop\n        /* \"#utility.yul\":8846:10149   */\n      pop\n      pop\n      pop\n        /* \"#utility.yul\":8754:10149   */\n      pop\n      pop\n      jump\t// out\n\n    auxdata: 0xa2646970667358221220218403db28df7cbf7fce4b418fa67866351224f2405606af50b1442ea477680664736f6c63430008110033\n}\n",
				"bytecode": {
					"linkReferences": {},
					"object": "608060405234801561001057600080fd5b506107b3806100206000396000f3fe608060405234801561001057600080fd5b50600436106100365760003560e01c8063bc8bc2b41461003b578063e34f12211461006c575b600080fd5b61005560048036038101906100509190610219565b610088565b6040516100639291906102f1565b60405180910390f35b61008660048036038101906100819190610456565b610151565b005b6000818154811061009857600080fd5b90600052602060002090600202016000915090508060000180546100bb906104ce565b80601f01602080910402602001604051908101604052809291908181526020018280546100e7906104ce565b80156101345780601f1061010957610100808354040283529160200191610134565b820191906000526020600020905b81548152906001019060200180831161011757829003601f168201915b5050505050908060010160009054906101000a900460ff16905082565b6000604051806040016040528083815260200160001515815250908060018154018082558091505060019003906000526020600020906002020160009091909190915060008201518160000190816101a991906106ab565b5060208201518160010160006101000a81548160ff021916908315150217905550505050565b6000604051905090565b600080fd5b600080fd5b6000819050919050565b6101f6816101e3565b811461020157600080fd5b50565b600081359050610213816101ed565b92915050565b60006020828403121561022f5761022e6101d9565b5b600061023d84828501610204565b91505092915050565b600081519050919050565b600082825260208201905092915050565b60005b83811015610280578082015181840152602081019050610265565b60008484015250505050565b6000601f19601f8301169050919050565b60006102a882610246565b6102b28185610251565b93506102c2818560208601610262565b6102cb8161028c565b840191505092915050565b60008115159050919050565b6102eb816102d6565b82525050565b6000604082019050818103600083015261030b818561029d565b905061031a60208301846102e2565b9392505050565b600080fd5b600080fd5b7f4e487b7100000000000000000000000000000000000000000000000000000000600052604160045260246000fd5b6103638261028c565b810181811067ffffffffffffffff821117156103825761038161032b565b5b80604052505050565b60006103956101cf565b90506103a1828261035a565b919050565b600067ffffffffffffffff8211156103c1576103c061032b565b5b6103ca8261028c565b9050602081019050919050565b82818337600083830152505050565b60006103f96103f4846103a6565b61038b565b90508281526020810184848401111561041557610414610326565b5b6104208482856103d7565b509392505050565b600082601f83011261043d5761043c610321565b5b813561044d8482602086016103e6565b91505092915050565b60006020828403121561046c5761046b6101d9565b5b600082013567ffffffffffffffff81111561048a576104896101de565b5b61049684828501610428565b91505092915050565b7f4e487b7100000000000000000000000000000000000000000000000000000000600052602260045260246000fd5b600060028204905060018216806104e657607f821691505b6020821081036104f9576104f861049f565b5b50919050565b60008190508160005260206000209050919050565b60006020601f8301049050919050565b600082821b905092915050565b6000600883026105617fffffffffffffffffffffffffffffffffffffffffffffffffffffffffffffffff82610524565b61056b8683610524565b95508019841693508086168417925050509392505050565b6000819050919050565b60006105a86105a361059e846101e3565b610583565b6101e3565b9050919050565b6000819050919050565b6105c28361058d565b6105d66105ce826105af565b848454610531565b825550505050565b600090565b6105eb6105de565b6105f68184846105b9565b505050565b5b8181101561061a5761060f6000826105e3565b6001810190506105fc565b5050565b601f82111561065f57610630816104ff565b61063984610514565b81016020851015610648578190505b61065c61065485610514565b8301826105fb565b50505b505050565b600082821c905092915050565b600061068260001984600802610664565b1980831691505092915050565b600061069b8383610671565b9150826002028217905092915050565b6106b482610246565b67ffffffffffffffff8111156106cd576106cc61032b565b5b6106d782546104ce565b6106e282828561061e565b600060209050601f8311600181146107155760008415610703578287015190505b61070d858261068f565b865550610775565b601f198416610723866104ff565b60005b8281101561074b57848901518255600182019150602085019450602081019050610726565b868310156107685784890151610764601f891682610671565b8355505b6001600288020188555050505b50505050505056fea2646970667358221220218403db28df7cbf7fce4b418fa67866351224f2405606af50b1442ea477680664736f6c63430008110033",
					"opcodes": "PUSH1 0x80 PUSH1 0x40 MSTORE CALLVALUE DUP1 ISZERO PUSH2 0x10 JUMPI PUSH1 0x0 DUP1 REVERT JUMPDEST POP PUSH2 0x7B3 DUP1 PUSH2 0x20 PUSH1 0x0 CODECOPY PUSH1 0x0 RETURN INVALID PUSH1 0x80 PUSH1 0x40 MSTORE CALLVALUE DUP1 ISZERO PUSH2 0x10 JUMPI PUSH1 0x0 DUP1 REVERT JUMPDEST POP PUSH1 0x4 CALLDATASIZE LT PUSH2 0x36 JUMPI PUSH1 0x0 CALLDATALOAD PUSH1 0xE0 SHR DUP1 PUSH4 0xBC8BC2B4 EQ PUSH2 0x3B JUMPI DUP1 PUSH4 0xE34F1221 EQ PUSH2 0x6C JUMPI JUMPDEST PUSH1 0x0 DUP1 REVERT JUMPDEST PUSH2 0x55 PUSH1 0x4 DUP1 CALLDATASIZE SUB DUP2 ADD SWAP1 PUSH2 0x50 SWAP2 SWAP1 PUSH2 0x219 JUMP JUMPDEST PUSH2 0x88 JUMP JUMPDEST PUSH1 0x40 MLOAD PUSH2 0x63 SWAP3 SWAP2 SWAP1 PUSH2 0x2F1 JUMP JUMPDEST PUSH1 0x40 MLOAD DUP1 SWAP2 SUB SWAP1 RETURN JUMPDEST PUSH2 0x86 PUSH1 0x4 DUP1 CALLDATASIZE SUB DUP2 ADD SWAP1 PUSH2 0x81 SWAP2 SWAP1 PUSH2 0x456 JUMP JUMPDEST PUSH2 0x151 JUMP JUMPDEST STOP JUMPDEST PUSH1 0x0 DUP2 DUP2 SLOAD DUP2 LT PUSH2 0x98 JUMPI PUSH1 0x0 DUP1 REVERT JUMPDEST SWAP1 PUSH1 0x0 MSTORE PUSH1 0x20 PUSH1 0x0 KECCAK256 SWAP1 PUSH1 0x2 MUL ADD PUSH1 0x0 SWAP2 POP SWAP1 POP DUP1 PUSH1 0x0 ADD DUP1 SLOAD PUSH2 0xBB SWAP1 PUSH2 0x4CE JUMP JUMPDEST DUP1 PUSH1 0x1F ADD PUSH1 0x20 DUP1 SWAP2 DIV MUL PUSH1 0x20 ADD PUSH1 0x40 MLOAD SWAP1 DUP2 ADD PUSH1 0x40 MSTORE DUP1 SWAP3 SWAP2 SWAP1 DUP2 DUP2 MSTORE PUSH1 0x20 ADD DUP3 DUP1 SLOAD PUSH2 0xE7 SWAP1 PUSH2 0x4CE JUMP JUMPDEST DUP1 ISZERO PUSH2 0x134 JUMPI DUP1 PUSH1 0x1F LT PUSH2 0x109 JUMPI PUSH2 0x100 DUP1 DUP4 SLOAD DIV MUL DUP4 MSTORE SWAP2 PUSH1 0x20 ADD SWAP2 PUSH2 0x134 JUMP JUMPDEST DUP3 ADD SWAP2 SWAP1 PUSH1 0x0 MSTORE PUSH1 0x20 PUSH1 0x0 KECCAK256 SWAP1 JUMPDEST DUP2 SLOAD DUP2 MSTORE SWAP1 PUSH1 0x1 ADD SWAP1 PUSH1 0x20 ADD DUP1 DUP4 GT PUSH2 0x117 JUMPI DUP3 SWAP1 SUB PUSH1 0x1F AND DUP3 ADD SWAP2 JUMPDEST POP POP POP POP POP SWAP1 DUP1 PUSH1 0x1 ADD PUSH1 0x0 SWAP1 SLOAD SWAP1 PUSH2 0x100 EXP SWAP1 DIV PUSH1 0xFF AND SWAP1 POP DUP3 JUMP JUMPDEST PUSH1 0x0 PUSH1 0x40 MLOAD DUP1 PUSH1 0x40 ADD PUSH1 0x40 MSTORE DUP1 DUP4 DUP2 MSTORE PUSH1 0x20 ADD PUSH1 0x0 ISZERO ISZERO DUP2 MSTORE POP SWAP1 DUP1 PUSH1 0x1 DUP2 SLOAD ADD DUP1 DUP3 SSTORE DUP1 SWAP2 POP POP PUSH1 0x1 SWAP1 SUB SWAP1 PUSH1 0x0 MSTORE PUSH1 0x20 PUSH1 0x0 KECCAK256 SWAP1 PUSH1 0x2 MUL ADD PUSH1 0x0 SWAP1 SWAP2 SWAP1 SWAP2 SWAP1 SWAP2 POP PUSH1 0x0 DUP3 ADD MLOAD DUP2 PUSH1 0x0 ADD SWAP1 DUP2 PUSH2 0x1A9 SWAP2 SWAP1 PUSH2 0x6AB JUMP JUMPDEST POP PUSH1 0x20 DUP3 ADD MLOAD DUP2 PUSH1 0x1 ADD PUSH1 0x0 PUSH2 0x100 EXP DUP2 SLOAD DUP2 PUSH1 0xFF MUL NOT AND SWAP1 DUP4 ISZERO ISZERO MUL OR SWAP1 SSTORE POP POP POP POP JUMP JUMPDEST PUSH1 0x0 PUSH1 0x40 MLOAD SWAP1 POP SWAP1 JUMP JUMPDEST PUSH1 0x0 DUP1 REVERT JUMPDEST PUSH1 0x0 DUP1 REVERT JUMPDEST PUSH1 0x0 DUP2 SWAP1 POP SWAP2 SWAP1 POP JUMP JUMPDEST PUSH2 0x1F6 DUP2 PUSH2 0x1E3 JUMP JUMPDEST DUP2 EQ PUSH2 0x201 JUMPI PUSH1 0x0 DUP1 REVERT JUMPDEST POP JUMP JUMPDEST PUSH1 0x0 DUP2 CALLDATALOAD SWAP1 POP PUSH2 0x213 DUP2 PUSH2 0x1ED JUMP JUMPDEST SWAP3 SWAP2 POP POP JUMP JUMPDEST PUSH1 0x0 PUSH1 0x20 DUP3 DUP5 SUB SLT ISZERO PUSH2 0x22F JUMPI PUSH2 0x22E PUSH2 0x1D9 JUMP JUMPDEST JUMPDEST PUSH1 0x0 PUSH2 0x23D DUP5 DUP3 DUP6 ADD PUSH2 0x204 JUMP JUMPDEST SWAP2 POP POP SWAP3 SWAP2 POP POP JUMP JUMPDEST PUSH1 0x0 DUP2 MLOAD SWAP1 POP SWAP2 SWAP1 POP JUMP JUMPDEST PUSH1 0x0 DUP3 DUP3 MSTORE PUSH1 0x20 DUP3 ADD SWAP1 POP SWAP3 SWAP2 POP POP JUMP JUMPDEST PUSH1 0x0 JUMPDEST DUP4 DUP2 LT ISZERO PUSH2 0x280 JUMPI DUP1 DUP3 ADD MLOAD DUP2 DUP5 ADD MSTORE PUSH1 0x20 DUP2 ADD SWAP1 POP PUSH2 0x265 JUMP JUMPDEST PUSH1 0x0 DUP5 DUP5 ADD MSTORE POP POP POP POP JUMP JUMPDEST PUSH1 0x0 PUSH1 0x1F NOT PUSH1 0x1F DUP4 ADD AND SWAP1 POP SWAP2 SWAP1 POP JUMP JUMPDEST PUSH1 0x0 PUSH2 0x2A8 DUP3 PUSH2 0x246 JUMP JUMPDEST PUSH2 0x2B2 DUP2 DUP6 PUSH2 0x251 JUMP JUMPDEST SWAP4 POP PUSH2 0x2C2 DUP2 DUP6 PUSH1 0x20 DUP7 ADD PUSH2 0x262 JUMP JUMPDEST PUSH2 0x2CB DUP2 PUSH2 0x28C JUMP JUMPDEST DUP5 ADD SWAP2 POP POP SWAP3 SWAP2 POP POP JUMP JUMPDEST PUSH1 0x0 DUP2 ISZERO ISZERO SWAP1 POP SWAP2 SWAP1 POP JUMP JUMPDEST PUSH2 0x2EB DUP2 PUSH2 0x2D6 JUMP JUMPDEST DUP3 MSTORE POP POP JUMP JUMPDEST PUSH1 0x0 PUSH1 0x40 DUP3 ADD SWAP1 POP DUP2 DUP2 SUB PUSH1 0x0 DUP4 ADD MSTORE PUSH2 0x30B DUP2 DUP6 PUSH2 0x29D JUMP JUMPDEST SWAP1 POP PUSH2 0x31A PUSH1 0x20 DUP4 ADD DUP5 PUSH2 0x2E2 JUMP JUMPDEST SWAP4 SWAP3 POP POP POP JUMP JUMPDEST PUSH1 0x0 DUP1 REVERT JUMPDEST PUSH1 0x0 DUP1 REVERT JUMPDEST PUSH32 0x4E487B7100000000000000000000000000000000000000000000000000000000 PUSH1 0x0 MSTORE PUSH1 0x41 PUSH1 0x4 MSTORE PUSH1 0x24 PUSH1 0x0 REVERT JUMPDEST PUSH2 0x363 DUP3 PUSH2 0x28C JUMP JUMPDEST DUP2 ADD DUP2 DUP2 LT PUSH8 0xFFFFFFFFFFFFFFFF DUP3 GT OR ISZERO PUSH2 0x382 JUMPI PUSH2 0x381 PUSH2 0x32B JUMP JUMPDEST JUMPDEST DUP1 PUSH1 0x40 MSTORE POP POP POP JUMP JUMPDEST PUSH1 0x0 PUSH2 0x395 PUSH2 0x1CF JUMP JUMPDEST SWAP1 POP PUSH2 0x3A1 DUP3 DUP3 PUSH2 0x35A JUMP JUMPDEST SWAP2 SWAP1 POP JUMP JUMPDEST PUSH1 0x0 PUSH8 0xFFFFFFFFFFFFFFFF DUP3 GT ISZERO PUSH2 0x3C1 JUMPI PUSH2 0x3C0 PUSH2 0x32B JUMP JUMPDEST JUMPDEST PUSH2 0x3CA DUP3 PUSH2 0x28C JUMP JUMPDEST SWAP1 POP PUSH1 0x20 DUP2 ADD SWAP1 POP SWAP2 SWAP1 POP JUMP JUMPDEST DUP3 DUP2 DUP4 CALLDATACOPY PUSH1 0x0 DUP4 DUP4 ADD MSTORE POP POP POP JUMP JUMPDEST PUSH1 0x0 PUSH2 0x3F9 PUSH2 0x3F4 DUP5 PUSH2 0x3A6 JUMP JUMPDEST PUSH2 0x38B JUMP JUMPDEST SWAP1 POP DUP3 DUP2 MSTORE PUSH1 0x20 DUP2 ADD DUP5 DUP5 DUP5 ADD GT ISZERO PUSH2 0x415 JUMPI PUSH2 0x414 PUSH2 0x326 JUMP JUMPDEST JUMPDEST PUSH2 0x420 DUP5 DUP3 DUP6 PUSH2 0x3D7 JUMP JUMPDEST POP SWAP4 SWAP3 POP POP POP JUMP JUMPDEST PUSH1 0x0 DUP3 PUSH1 0x1F DUP4 ADD SLT PUSH2 0x43D JUMPI PUSH2 0x43C PUSH2 0x321 JUMP JUMPDEST JUMPDEST DUP2 CALLDATALOAD PUSH2 0x44D DUP5 DUP3 PUSH1 0x20 DUP7 ADD PUSH2 0x3E6 JUMP JUMPDEST SWAP2 POP POP SWAP3 SWAP2 POP POP JUMP JUMPDEST PUSH1 0x0 PUSH1 0x20 DUP3 DUP5 SUB SLT ISZERO PUSH2 0x46C JUMPI PUSH2 0x46B PUSH2 0x1D9 JUMP JUMPDEST JUMPDEST PUSH1 0x0 DUP3 ADD CALLDATALOAD PUSH8 0xFFFFFFFFFFFFFFFF DUP2 GT ISZERO PUSH2 0x48A JUMPI PUSH2 0x489 PUSH2 0x1DE JUMP JUMPDEST JUMPDEST PUSH2 0x496 DUP5 DUP3 DUP6 ADD PUSH2 0x428 JUMP JUMPDEST SWAP2 POP POP SWAP3 SWAP2 POP POP JUMP JUMPDEST PUSH32 0x4E487B7100000000000000000000000000000000000000000000000000000000 PUSH1 0x0 MSTORE PUSH1 0x22 PUSH1 0x4 MSTORE PUSH1 0x24 PUSH1 0x0 REVERT JUMPDEST PUSH1 0x0 PUSH1 0x2 DUP3 DIV SWAP1 POP PUSH1 0x1 DUP3 AND DUP1 PUSH2 0x4E6 JUMPI PUSH1 0x7F DUP3 AND SWAP2 POP JUMPDEST PUSH1 0x20 DUP3 LT DUP2 SUB PUSH2 0x4F9 JUMPI PUSH2 0x4F8 PUSH2 0x49F JUMP JUMPDEST JUMPDEST POP SWAP2 SWAP1 POP JUMP JUMPDEST PUSH1 0x0 DUP2 SWAP1 POP DUP2 PUSH1 0x0 MSTORE PUSH1 0x20 PUSH1 0x0 KECCAK256 SWAP1 POP SWAP2 SWAP1 POP JUMP JUMPDEST PUSH1 0x0 PUSH1 0x20 PUSH1 0x1F DUP4 ADD DIV SWAP1 POP SWAP2 SWAP1 POP JUMP JUMPDEST PUSH1 0x0 DUP3 DUP3 SHL SWAP1 POP SWAP3 SWAP2 POP POP JUMP JUMPDEST PUSH1 0x0 PUSH1 0x8 DUP4 MUL PUSH2 0x561 PUSH32 0xFFFFFFFFFFFFFFFFFFFFFFFFFFFFFFFFFFFFFFFFFFFFFFFFFFFFFFFFFFFFFFFF DUP3 PUSH2 0x524 JUMP JUMPDEST PUSH2 0x56B DUP7 DUP4 PUSH2 0x524 JUMP JUMPDEST SWAP6 POP DUP1 NOT DUP5 AND SWAP4 POP DUP1 DUP7 AND DUP5 OR SWAP3 POP POP POP SWAP4 SWAP3 POP POP POP JUMP JUMPDEST PUSH1 0x0 DUP2 SWAP1 POP SWAP2 SWAP1 POP JUMP JUMPDEST PUSH1 0x0 PUSH2 0x5A8 PUSH2 0x5A3 PUSH2 0x59E DUP5 PUSH2 0x1E3 JUMP JUMPDEST PUSH2 0x583 JUMP JUMPDEST PUSH2 0x1E3 JUMP JUMPDEST SWAP1 POP SWAP2 SWAP1 POP JUMP JUMPDEST PUSH1 0x0 DUP2 SWAP1 POP SWAP2 SWAP1 POP JUMP JUMPDEST PUSH2 0x5C2 DUP4 PUSH2 0x58D JUMP JUMPDEST PUSH2 0x5D6 PUSH2 0x5CE DUP3 PUSH2 0x5AF JUMP JUMPDEST DUP5 DUP5 SLOAD PUSH2 0x531 JUMP JUMPDEST DUP3 SSTORE POP POP POP POP JUMP JUMPDEST PUSH1 0x0 SWAP1 JUMP JUMPDEST PUSH2 0x5EB PUSH2 0x5DE JUMP JUMPDEST PUSH2 0x5F6 DUP2 DUP5 DUP5 PUSH2 0x5B9 JUMP JUMPDEST POP POP POP JUMP JUMPDEST JUMPDEST DUP2 DUP2 LT ISZERO PUSH2 0x61A JUMPI PUSH2 0x60F PUSH1 0x0 DUP3 PUSH2 0x5E3 JUMP JUMPDEST PUSH1 0x1 DUP2 ADD SWAP1 POP PUSH2 0x5FC JUMP JUMPDEST POP POP JUMP JUMPDEST PUSH1 0x1F DUP3 GT ISZERO PUSH2 0x65F JUMPI PUSH2 0x630 DUP2 PUSH2 0x4FF JUMP JUMPDEST PUSH2 0x639 DUP5 PUSH2 0x514 JUMP JUMPDEST DUP2 ADD PUSH1 0x20 DUP6 LT ISZERO PUSH2 0x648 JUMPI DUP2 SWAP1 POP JUMPDEST PUSH2 0x65C PUSH2 0x654 DUP6 PUSH2 0x514 JUMP JUMPDEST DUP4 ADD DUP3 PUSH2 0x5FB JUMP JUMPDEST POP POP JUMPDEST POP POP POP JUMP JUMPDEST PUSH1 0x0 DUP3 DUP3 SHR SWAP1 POP SWAP3 SWAP2 POP POP JUMP JUMPDEST PUSH1 0x0 PUSH2 0x682 PUSH1 0x0 NOT DUP5 PUSH1 0x8 MUL PUSH2 0x664 JUMP JUMPDEST NOT DUP1 DUP4 AND SWAP2 POP POP SWAP3 SWAP2 POP POP JUMP JUMPDEST PUSH1 0x0 PUSH2 0x69B DUP4 DUP4 PUSH2 0x671 JUMP JUMPDEST SWAP2 POP DUP3 PUSH1 0x2 MUL DUP3 OR SWAP1 POP SWAP3 SWAP2 POP POP JUMP JUMPDEST PUSH2 0x6B4 DUP3 PUSH2 0x246 JUMP JUMPDEST PUSH8 0xFFFFFFFFFFFFFFFF DUP2 GT ISZERO PUSH2 0x6CD JUMPI PUSH2 0x6CC PUSH2 0x32B JUMP JUMPDEST JUMPDEST PUSH2 0x6D7 DUP3 SLOAD PUSH2 0x4CE JUMP JUMPDEST PUSH2 0x6E2 DUP3 DUP3 DUP6 PUSH2 0x61E JUMP JUMPDEST PUSH1 0x0 PUSH1 0x20 SWAP1 POP PUSH1 0x1F DUP4 GT PUSH1 0x1 DUP2 EQ PUSH2 0x715 JUMPI PUSH1 0x0 DUP5 ISZERO PUSH2 0x703 JUMPI DUP3 DUP8 ADD MLOAD SWAP1 POP JUMPDEST PUSH2 0x70D DUP6 DUP3 PUSH2 0x68F JUMP JUMPDEST DUP7 SSTORE POP PUSH2 0x775 JUMP JUMPDEST PUSH1 0x1F NOT DUP5 AND PUSH2 0x723 DUP7 PUSH2 0x4FF JUMP JUMPDEST PUSH1 0x0 JUMPDEST DUP3 DUP2 LT ISZERO PUSH2 0x74B JUMPI DUP5 DUP10 ADD MLOAD DUP3 SSTORE PUSH1 0x1 DUP3 ADD SWAP2 POP PUSH1 0x20 DUP6 ADD SWAP5 POP PUSH1 0x20 DUP2 ADD SWAP1 POP PUSH2 0x726 JUMP JUMPDEST DUP7 DUP4 LT ISZERO PUSH2 0x768 JUMPI DUP5 DUP10 ADD MLOAD PUSH2 0x764 PUSH1 0x1F DUP10 AND DUP3 PUSH2 0x671 JUMP JUMPDEST DUP4 SSTORE POP JUMPDEST PUSH1 0x1 PUSH1 0x2 DUP9 MUL ADD DUP9 SSTORE POP POP POP JUMPDEST POP POP POP POP POP POP JUMP INVALID LOG2 PUSH5 0x6970667358 0x22 SLT KECCAK256 0x21 DUP5 SUB 0xDB 0x28 0xDF PUSH29 0xBF7FCE4B418FA67866351224F2405606AF50B1442EA477680664736F6C PUSH4 0x43000811 STOP CALLER "
				},
				"gasEstimates": {
					"creation": {
						"codeDepositCost": "394200",
						"executionCost": "430",
						"totalCost": "394630"
					},
					"external": {
						"createTodo(string)": "infinite",
						"todos(uint256)": "infinite"
					}
				},
				"methodIdentifiers": {
					"createTodo(string)": "e34f1221",
					"todos(uint256)": "bc8bc2b4"
				}
			},
			"storageLayout": {
				"storage": [
					{
						"astId": 10,
						"contract": "TodoList.sol:TodoList",
						"label": "todos",
						"offset": 0,
						"slot": "0",
						"type": "t_array(t_struct(Todo)6_storage)dyn_storage"
					}
				],
				"types": {
					"t_array(t_struct(Todo)6_storage)dyn_storage": {
						"base": "t_struct(Todo)6_storage",
						"encoding": "dynamic_array",
						"label": "struct TodoList.Todo[]",
						"numberOfBytes": "32"
					},
					"t_bool": {
						"encoding": "inplace",
						"label": "bool",
						"numberOfBytes": "1"
					},
					"t_string_storage": {
						"encoding": "bytes",
						"label": "string",
						"numberOfBytes": "32"
					},
					"t_struct(Todo)6_storage": {
						"encoding": "inplace",
						"label": "struct TodoList.Todo",
						"members": [
							{
								"astId": 3,
								"contract": "TodoList.sol:TodoList",
								"label": "text",
								"offset": 0,
								"slot": "0",
								"type": "t_string_storage"
							},
							{
								"astId": 5,
								"contract": "TodoList.sol:TodoList",
								"label": "completed",
								"offset": 0,
								"slot": "1",
								"type": "t_bool"
							}
						],
						"numberOfBytes": "64"
					}
				}
			},
			"userdoc": {
				"kind": "user",
				"methods": {},
				"version": 1
			}
		}
	}
}