{
	"CrowdFund.sol": {
		"CrowdFund": {
			"abi": [
				{
					"inputs": [
						{
							"internalType": "address",
							"name": "tokenAddress",
							"type": "address"
						}
					],
					"stateMutability": "nonpayable",
					"type": "constructor"
				},
				{
					"anonymous": false,
					"inputs": [
						{
							"indexed": false,
							"internalType": "uint256",
							"name": "id",
							"type": "uint256"
						}
					],
					"name": "Cancel",
					"type": "event"
				},
				{
					"anonymous": false,
					"inputs": [
						{
							"indexed": false,
							"internalType": "uint256",
							"name": "id",
							"type": "uint256"
						}
					],
					"name": "Claim",
					"type": "event"
				},
				{
					"anonymous": false,
					"inputs": [
						{
							"indexed": false,
							"internalType": "uint256",
							"name": "id",
							"type": "uint256"
						},
						{
							"indexed": true,
							"internalType": "address",
							"name": "creator",
							"type": "address"
						},
						{
							"indexed": false,
							"internalType": "uint256",
							"name": "goal",
							"type": "uint256"
						},
						{
							"indexed": false,
							"internalType": "uint256",
							"name": "startAt",
							"type": "uint256"
						},
						{
							"indexed": false,
							"internalType": "uint256",
							"name": "endAt",
							"type": "uint256"
						}
					],
					"name": "Launch",
					"type": "event"
				},
				{
					"anonymous": false,
					"inputs": [
						{
							"indexed": true,
							"internalType": "uint256",
							"name": "id",
							"type": "uint256"
						},
						{
							"indexed": true,
							"internalType": "address",
							"name": "caller",
							"type": "address"
						},
						{
							"indexed": false,
							"internalType": "uint256",
							"name": "amount",
							"type": "uint256"
						}
					],
					"name": "Pledge",
					"type": "event"
				},
				{
					"anonymous": false,
					"inputs": [
						{
							"indexed": false,
							"internalType": "uint256",
							"name": "id",
							"type": "uint256"
						},
						{
							"indexed": true,
							"internalType": "address",
							"name": "caller",
							"type": "address"
						},
						{
							"indexed": false,
							"internalType": "uint256",
							"name": "amount",
							"type": "uint256"
						}
					],
					"name": "Refund",
					"type": "event"
				},
				{
					"anonymous": false,
					"inputs": [
						{
							"indexed": true,
							"internalType": "uint256",
							"name": "id",
							"type": "uint256"
						},
						{
							"indexed": true,
							"internalType": "address",
							"name": "caller",
							"type": "address"
						},
						{
							"indexed": false,
							"internalType": "uint256",
							"name": "amount",
							"type": "uint256"
						}
					],
					"name": "Unpledge",
					"type": "event"
				},
				{
					"inputs": [
						{
							"internalType": "uint256",
							"name": "",
							"type": "uint256"
						}
					],
					"name": "campaigns",
					"outputs": [
						{
							"internalType": "address",
							"name": "creator",
							"type": "address"
						},
						{
							"internalType": "uint256",
							"name": "goal",
							"type": "uint256"
						},
						{
							"internalType": "uint256",
							"name": "pledged",
							"type": "uint256"
						},
						{
							"internalType": "uint256",
							"name": "startTime",
							"type": "uint256"
						},
						{
							"internalType": "uint256",
							"name": "endTime",
							"type": "uint256"
						},
						{
							"internalType": "bool",
							"name": "claimed",
							"type": "bool"
						}
					],
					"stateMutability": "view",
					"type": "function"
				},
				{
					"inputs": [
						{
							"internalType": "uint256",
							"name": "id",
							"type": "uint256"
						}
					],
					"name": "cancel",
					"outputs": [],
					"stateMutability": "nonpayable",
					"type": "function"
				},
				{
					"inputs": [
						{
							"internalType": "uint256",
							"name": "id",
							"type": "uint256"
						}
					],
					"name": "claim",
					"outputs": [],
					"stateMutability": "nonpayable",
					"type": "function"
				},
				{
					"inputs": [],
					"name": "count",
					"outputs": [
						{
							"internalType": "uint256",
							"name": "",
							"type": "uint256"
						}
					],
					"stateMutability": "view",
					"type": "function"
				},
				{
					"inputs": [
						{
							"internalType": "uint256",
							"name": "goal",
							"type": "uint256"
						},
						{
							"internalType": "uint256",
							"name": "startTime",
							"type": "uint256"
						},
						{
							"internalType": "uint256",
							"name": "endTime",
							"type": "uint256"
						}
					],
					"name": "launch",
					"outputs": [],
					"stateMutability": "nonpayable",
					"type": "function"
				},
				{
					"inputs": [
						{
							"internalType": "uint256",
							"name": "id",
							"type": "uint256"
						},
						{
							"internalType": "uint256",
							"name": "amount",
							"type": "uint256"
						}
					],
					"name": "pledge",
					"outputs": [],
					"stateMutability": "nonpayable",
					"type": "function"
				},
				{
					"inputs": [
						{
							"internalType": "uint256",
							"name": "",
							"type": "uint256"
						},
						{
							"internalType": "address",
							"name": "",
							"type": "address"
						}
					],
					"name": "pledgedAmount",
					"outputs": [
						{
							"internalType": "uint256",
							"name": "",
							"type": "uint256"
						}
					],
					"stateMutability": "view",
					"type": "function"
				},
				{
					"inputs": [
						{
							"internalType": "uint256",
							"name": "id",
							"type": "uint256"
						}
					],
					"name": "refund",
					"outputs": [],
					"stateMutability": "nonpayable",
					"type": "function"
				},
				{
					"inputs": [],
					"name": "token",
					"outputs": [
						{
							"internalType": "contract IERC20",
							"name": "",
							"type": "address"
						}
					],
					"stateMutability": "view",
					"type": "function"
				},
				{
					"inputs": [
						{
							"internalType": "uint256",
							"name": "id",
							"type": "uint256"
						},
						{
							"internalType": "uint256",
							"name": "amount",
							"type": "uint256"
						}
					],
					"name": "unpledge",
					"outputs": [],
					"stateMutability": "nonpayable",
					"type": "function"
				}
			],
			"devdoc": {
				"kind": "dev",
				"methods": {},
				"version": 1
			},
			"evm": {
				"assembly": "    /* \"CrowdFund.sol\":85:3487  contract CrowdFund {... */\n  mstore(0x40, 0xa0)\n    /* \"CrowdFund.sol\":823:904  constructor(address tokenAddress) {... */\n  callvalue\n  dup1\n  iszero\n  tag_1\n  jumpi\n  0x00\n  dup1\n  revert\ntag_1:\n  pop\n  mload(0x40)\n  sub(codesize, bytecodeSize)\n  dup1\n  bytecodeSize\n  dup4\n  codecopy\n  dup2\n  dup2\n  add\n  0x40\n  mstore\n  dup2\n  add\n  swap1\n  tag_2\n  swap2\n  swap1\n  tag_3\n  jump\t// in\ntag_2:\n    /* \"CrowdFund.sol\":883:895  tokenAddress */\n  dup1\n    /* \"CrowdFund.sol\":868:896  token = IERC20(tokenAddress) */\n  0xffffffffffffffffffffffffffffffffffffffff\n  and\n  0x80\n  dup2\n  0xffffffffffffffffffffffffffffffffffffffff\n  and\n  dup2\n  mstore\n  pop\n  pop\n    /* \"CrowdFund.sol\":823:904  constructor(address tokenAddress) {... */\n  pop\n    /* \"CrowdFund.sol\":85:3487  contract CrowdFund {... */\n  jump(tag_6)\n    /* \"#utility.yul\":88:205   */\ntag_8:\n    /* \"#utility.yul\":197:198   */\n  0x00\n    /* \"#utility.yul\":194:195   */\n  dup1\n    /* \"#utility.yul\":187:199   */\n  revert\n    /* \"#utility.yul\":334:460   */\ntag_10:\n    /* \"#utility.yul\":371:378   */\n  0x00\n    /* \"#utility.yul\":411:453   */\n  0xffffffffffffffffffffffffffffffffffffffff\n    /* \"#utility.yul\":404:409   */\n  dup3\n    /* \"#utility.yul\":400:454   */\n  and\n    /* \"#utility.yul\":389:454   */\n  swap1\n  pop\n    /* \"#utility.yul\":334:460   */\n  swap2\n  swap1\n  pop\n  jump\t// out\n    /* \"#utility.yul\":466:562   */\ntag_11:\n    /* \"#utility.yul\":503:510   */\n  0x00\n    /* \"#utility.yul\":532:556   */\n  tag_20\n    /* \"#utility.yul\":550:555   */\n  dup3\n    /* \"#utility.yul\":532:556   */\n  tag_10\n  jump\t// in\ntag_20:\n    /* \"#utility.yul\":521:556   */\n  swap1\n  pop\n    /* \"#utility.yul\":466:562   */\n  swap2\n  swap1\n  pop\n  jump\t// out\n    /* \"#utility.yul\":568:690   */\ntag_12:\n    /* \"#utility.yul\":641:665   */\n  tag_22\n    /* \"#utility.yul\":659:664   */\n  dup2\n    /* \"#utility.yul\":641:665   */\n  tag_11\n  jump\t// in\ntag_22:\n    /* \"#utility.yul\":634:639   */\n  dup2\n    /* \"#utility.yul\":631:666   */\n  eq\n    /* \"#utility.yul\":621:684   */\n  tag_23\n  jumpi\n    /* \"#utility.yul\":680:681   */\n  0x00\n    /* \"#utility.yul\":677:678   */\n  dup1\n    /* \"#utility.yul\":670:682   */\n  revert\n    /* \"#utility.yul\":621:684   */\ntag_23:\n    /* \"#utility.yul\":568:690   */\n  pop\n  jump\t// out\n    /* \"#utility.yul\":696:839   */\ntag_13:\n    /* \"#utility.yul\":753:758   */\n  0x00\n    /* \"#utility.yul\":784:790   */\n  dup2\n    /* \"#utility.yul\":778:791   */\n  mload\n    /* \"#utility.yul\":769:791   */\n  swap1\n  pop\n    /* \"#utility.yul\":800:833   */\n  tag_25\n    /* \"#utility.yul\":827:832   */\n  dup2\n    /* \"#utility.yul\":800:833   */\n  tag_12\n  jump\t// in\ntag_25:\n    /* \"#utility.yul\":696:839   */\n  swap3\n  swap2\n  pop\n  pop\n  jump\t// out\n    /* \"#utility.yul\":845:1196   */\ntag_3:\n    /* \"#utility.yul\":915:921   */\n  0x00\n    /* \"#utility.yul\":964:966   */\n  0x20\n    /* \"#utility.yul\":952:961   */\n  dup3\n    /* \"#utility.yul\":943:950   */\n  dup5\n    /* \"#utility.yul\":939:962   */\n  sub\n    /* \"#utility.yul\":935:967   */\n  slt\n    /* \"#utility.yul\":932:1051   */\n  iszero\n  tag_27\n  jumpi\n    /* \"#utility.yul\":970:1049   */\n  tag_28\n  tag_8\n  jump\t// in\ntag_28:\n    /* \"#utility.yul\":932:1051   */\ntag_27:\n    /* \"#utility.yul\":1090:1091   */\n  0x00\n    /* \"#utility.yul\":1115:1179   */\n  tag_29\n    /* \"#utility.yul\":1171:1178   */\n  dup5\n    /* \"#utility.yul\":1162:1168   */\n  dup3\n    /* \"#utility.yul\":1151:1160   */\n  dup6\n    /* \"#utility.yul\":1147:1169   */\n  add\n    /* \"#utility.yul\":1115:1179   */\n  tag_13\n  jump\t// in\ntag_29:\n    /* \"#utility.yul\":1105:1179   */\n  swap2\n  pop\n    /* \"#utility.yul\":1061:1189   */\n  pop\n    /* \"#utility.yul\":845:1196   */\n  swap3\n  swap2\n  pop\n  pop\n  jump\t// out\n    /* \"CrowdFund.sol\":85:3487  contract CrowdFund {... */\ntag_6:\n  mload(0x80)\n  codecopy(0x00, dataOffset(sub_0), dataSize(sub_0))\n  0x00\n  assignImmutable(\"0xd9670a00d025e59e1bd58d53874bea4ab34fea782716e2c168e89a3c8452d3bb\")\n  return(0x00, dataSize(sub_0))\nstop\n\nsub_0: assembly {\n        /* \"CrowdFund.sol\":85:3487  contract CrowdFund {... */\n      mstore(0x40, 0x80)\n      callvalue\n      dup1\n      iszero\n      tag_1\n      jumpi\n      0x00\n      dup1\n      revert\n    tag_1:\n      pop\n      jumpi(tag_2, lt(calldatasize, 0x04))\n      shr(0xe0, calldataload(0x00))\n      dup1\n      0x711853ab\n      gt\n      tag_13\n      jumpi\n      dup1\n      0x711853ab\n      eq\n      tag_8\n      jumpi\n      dup1\n      0x8736c179\n      eq\n      tag_9\n      jumpi\n      dup1\n      0xaa4fb63a\n      eq\n      tag_10\n      jumpi\n      dup1\n      0xfc0c546a\n      eq\n      tag_11\n      jumpi\n      dup1\n      0xfde327be\n      eq\n      tag_12\n      jumpi\n      jump(tag_2)\n    tag_13:\n      dup1\n      0x06661abd\n      eq\n      tag_3\n      jumpi\n      dup1\n      0x141961bc\n      eq\n      tag_4\n      jumpi\n      dup1\n      0x278ecde1\n      eq\n      tag_5\n      jumpi\n      dup1\n      0x379607f5\n      eq\n      tag_6\n      jumpi\n      dup1\n      0x40e58ee5\n      eq\n      tag_7\n      jumpi\n    tag_2:\n      0x00\n      dup1\n      revert\n        /* \"CrowdFund.sol\":679:696  uint public count */\n    tag_3:\n      tag_14\n      tag_15\n      jump\t// in\n    tag_14:\n      mload(0x40)\n      tag_16\n      swap2\n      swap1\n      tag_17\n      jump\t// in\n    tag_16:\n      mload(0x40)\n      dup1\n      swap2\n      sub\n      swap1\n      return\n        /* \"CrowdFund.sol\":703:745  mapping(uint => Campaign) public campaigns */\n    tag_4:\n      tag_18\n      0x04\n      dup1\n      calldatasize\n      sub\n      dup2\n      add\n      swap1\n      tag_19\n      swap2\n      swap1\n      tag_20\n      jump\t// in\n    tag_19:\n      tag_21\n      jump\t// in\n    tag_18:\n      mload(0x40)\n      tag_22\n      swap7\n      swap6\n      swap5\n      swap4\n      swap3\n      swap2\n      swap1\n      tag_23\n      jump\t// in\n    tag_22:\n      mload(0x40)\n      dup1\n      swap2\n      sub\n      swap1\n      return\n        /* \"CrowdFund.sol\":2977:3484  function refund(uint id) external {... */\n    tag_5:\n      tag_24\n      0x04\n      dup1\n      calldatasize\n      sub\n      dup2\n      add\n      swap1\n      tag_25\n      swap2\n      swap1\n      tag_20\n      jump\t// in\n    tag_25:\n      tag_26\n      jump\t// in\n    tag_24:\n      stop\n        /* \"CrowdFund.sol\":2459:2952  function claim(uint id) external {... */\n    tag_6:\n      tag_27\n      0x04\n      dup1\n      calldatasize\n      sub\n      dup2\n      add\n      swap1\n      tag_28\n      swap2\n      swap1\n      tag_20\n      jump\t// in\n    tag_28:\n      tag_29\n      jump\t// in\n    tag_27:\n      stop\n        /* \"CrowdFund.sol\":1322:1602  function cancel(uint id) external {... */\n    tag_7:\n      tag_30\n      0x04\n      dup1\n      calldatasize\n      sub\n      dup2\n      add\n      swap1\n      tag_31\n      swap2\n      swap1\n      tag_20\n      jump\t// in\n    tag_31:\n      tag_32\n      jump\t// in\n    tag_30:\n      stop\n        /* \"CrowdFund.sol\":2062:2451  function unpledge(uint id, uint amount) external {... */\n    tag_8:\n      tag_33\n      0x04\n      dup1\n      calldatasize\n      sub\n      dup2\n      add\n      swap1\n      tag_34\n      swap2\n      swap1\n      tag_35\n      jump\t// in\n    tag_34:\n      tag_36\n      jump\t// in\n    tag_33:\n      stop\n        /* \"CrowdFund.sol\":912:1314  function launch(uint goal,uint startTime,uint endTime) external {... */\n    tag_9:\n      tag_37\n      0x04\n      dup1\n      calldatasize\n      sub\n      dup2\n      add\n      swap1\n      tag_38\n      swap2\n      swap1\n      tag_39\n      jump\t// in\n    tag_38:\n      tag_40\n      jump\t// in\n    tag_37:\n      stop\n        /* \"CrowdFund.sol\":752:814  mapping(uint => mapping(address => uint)) public pledgedAmount */\n    tag_10:\n      tag_41\n      0x04\n      dup1\n      calldatasize\n      sub\n      dup2\n      add\n      swap1\n      tag_42\n      swap2\n      swap1\n      tag_43\n      jump\t// in\n    tag_42:\n      tag_44\n      jump\t// in\n    tag_41:\n      mload(0x40)\n      tag_45\n      swap2\n      swap1\n      tag_17\n      jump\t// in\n    tag_45:\n      mload(0x40)\n      dup1\n      swap2\n      sub\n      swap1\n      return\n        /* \"CrowdFund.sol\":643:672  IERC20 public immutable token */\n    tag_11:\n      tag_46\n      tag_47\n      jump\t// in\n    tag_46:\n      mload(0x40)\n      tag_48\n      swap2\n      swap1\n      tag_49\n      jump\t// in\n    tag_48:\n      mload(0x40)\n      dup1\n      swap2\n      sub\n      swap1\n      return\n        /* \"CrowdFund.sol\":1610:2054  function pledge(uint id, uint amount) external {... */\n    tag_12:\n      tag_50\n      0x04\n      dup1\n      calldatasize\n      sub\n      dup2\n      add\n      swap1\n      tag_51\n      swap2\n      swap1\n      tag_35\n      jump\t// in\n    tag_51:\n      tag_52\n      jump\t// in\n    tag_50:\n      stop\n        /* \"CrowdFund.sol\":679:696  uint public count */\n    tag_15:\n      sload(0x00)\n      dup2\n      jump\t// out\n        /* \"CrowdFund.sol\":703:745  mapping(uint => Campaign) public campaigns */\n    tag_21:\n      mstore(0x20, 0x01)\n      dup1\n      0x00\n      mstore\n      keccak256(0x00, 0x40)\n      0x00\n      swap2\n      pop\n      swap1\n      pop\n      dup1\n      0x00\n      add\n      0x00\n      swap1\n      sload\n      swap1\n      0x0100\n      exp\n      swap1\n      div\n      0xffffffffffffffffffffffffffffffffffffffff\n      and\n      swap1\n      dup1\n      0x01\n      add\n      sload\n      swap1\n      dup1\n      0x02\n      add\n      sload\n      swap1\n      dup1\n      0x03\n      add\n      sload\n      swap1\n      dup1\n      0x04\n      add\n      sload\n      swap1\n      dup1\n      0x05\n      add\n      0x00\n      swap1\n      sload\n      swap1\n      0x0100\n      exp\n      swap1\n      div\n      0xff\n      and\n      swap1\n      pop\n      dup7\n      jump\t// out\n        /* \"CrowdFund.sol\":2977:3484  function refund(uint id) external {... */\n    tag_26:\n        /* \"CrowdFund.sol\":3054:3069  block.timestamp */\n      timestamp\n        /* \"CrowdFund.sol\":3030:3039  campaigns */\n      0x01\n        /* \"CrowdFund.sol\":3030:3043  campaigns[id] */\n      0x00\n        /* \"CrowdFund.sol\":3040:3042  id */\n      dup4\n        /* \"CrowdFund.sol\":3030:3043  campaigns[id] */\n      dup2\n      mstore\n      0x20\n      add\n      swap1\n      dup2\n      mstore\n      0x20\n      add\n      0x00\n      keccak256\n        /* \"CrowdFund.sol\":3030:3051  campaigns[id].endTime */\n      0x04\n      add\n      sload\n        /* \"CrowdFund.sol\":3030:3069  campaigns[id].endTime < block.timestamp */\n      lt\n        /* \"CrowdFund.sol\":3022:3106  require(campaigns[id].endTime < block.timestamp, \"cannot be refunded before ended.\") */\n      tag_54\n      jumpi\n      mload(0x40)\n      0x08c379a000000000000000000000000000000000000000000000000000000000\n      dup2\n      mstore\n      0x04\n      add\n      tag_55\n      swap1\n      tag_56\n      jump\t// in\n    tag_55:\n      mload(0x40)\n      dup1\n      swap2\n      sub\n      swap1\n      revert\n    tag_54:\n        /* \"CrowdFund.sol\":3149:3158  campaigns */\n      0x01\n        /* \"CrowdFund.sol\":3149:3162  campaigns[id] */\n      0x00\n        /* \"CrowdFund.sol\":3159:3161  id */\n      dup3\n        /* \"CrowdFund.sol\":3149:3162  campaigns[id] */\n      dup2\n      mstore\n      0x20\n      add\n      swap1\n      dup2\n      mstore\n      0x20\n      add\n      0x00\n      keccak256\n        /* \"CrowdFund.sol\":3149:3167  campaigns[id].goal */\n      0x01\n      add\n      sload\n        /* \"CrowdFund.sol\":3125:3134  campaigns */\n      0x01\n        /* \"CrowdFund.sol\":3125:3138  campaigns[id] */\n      0x00\n        /* \"CrowdFund.sol\":3135:3137  id */\n      dup4\n        /* \"CrowdFund.sol\":3125:3138  campaigns[id] */\n      dup2\n      mstore\n      0x20\n      add\n      swap1\n      dup2\n      mstore\n      0x20\n      add\n      0x00\n      keccak256\n        /* \"CrowdFund.sol\":3125:3146  campaigns[id].pledged */\n      0x02\n      add\n      sload\n        /* \"CrowdFund.sol\":3125:3167  campaigns[id].pledged < campaigns[id].goal */\n      lt\n        /* \"CrowdFund.sol\":3117:3220  require(campaigns[id].pledged < campaigns[id].goal, \"campaign goal is reached, so cannot be refunded.\") */\n      tag_57\n      jumpi\n      mload(0x40)\n      0x08c379a000000000000000000000000000000000000000000000000000000000\n      dup2\n      mstore\n      0x04\n      add\n      tag_58\n      swap1\n      tag_59\n      jump\t// in\n    tag_58:\n      mload(0x40)\n      dup1\n      swap2\n      sub\n      swap1\n      revert\n    tag_57:\n        /* \"CrowdFund.sol\":3231:3236  token */\n      immutable(\"0xd9670a00d025e59e1bd58d53874bea4ab34fea782716e2c168e89a3c8452d3bb\")\n        /* \"CrowdFund.sol\":3231:3245  token.transfer */\n      0xffffffffffffffffffffffffffffffffffffffff\n      and\n      0xa9059cbb\n        /* \"CrowdFund.sol\":3246:3256  msg.sender */\n      caller\n        /* \"CrowdFund.sol\":3258:3271  pledgedAmount */\n      0x02\n        /* \"CrowdFund.sol\":3258:3275  pledgedAmount[id] */\n      0x00\n        /* \"CrowdFund.sol\":3272:3274  id */\n      dup6\n        /* \"CrowdFund.sol\":3258:3275  pledgedAmount[id] */\n      dup2\n      mstore\n      0x20\n      add\n      swap1\n      dup2\n      mstore\n      0x20\n      add\n      0x00\n      keccak256\n        /* \"CrowdFund.sol\":3258:3287  pledgedAmount[id][msg.sender] */\n      0x00\n        /* \"CrowdFund.sol\":3276:3286  msg.sender */\n      caller\n        /* \"CrowdFund.sol\":3258:3287  pledgedAmount[id][msg.sender] */\n      0xffffffffffffffffffffffffffffffffffffffff\n      and\n      0xffffffffffffffffffffffffffffffffffffffff\n      and\n      dup2\n      mstore\n      0x20\n      add\n      swap1\n      dup2\n      mstore\n      0x20\n      add\n      0x00\n      keccak256\n      sload\n        /* \"CrowdFund.sol\":3231:3288  token.transfer(msg.sender, pledgedAmount[id][msg.sender]) */\n      mload(0x40)\n      dup4\n      0xffffffff\n      and\n      0xe0\n      shl\n      dup2\n      mstore\n      0x04\n      add\n      tag_60\n      swap3\n      swap2\n      swap1\n      tag_61\n      jump\t// in\n    tag_60:\n      0x20\n      mload(0x40)\n      dup1\n      dup4\n      sub\n      dup2\n      0x00\n      dup8\n      gas\n      call\n      iszero\n      dup1\n      iszero\n      tag_63\n      jumpi\n      returndatasize\n      0x00\n      dup1\n      returndatacopy\n      revert(0x00, returndatasize)\n    tag_63:\n      pop\n      pop\n      pop\n      pop\n      mload(0x40)\n      returndatasize\n      not(0x1f)\n      0x1f\n      dup3\n      add\n      and\n      dup3\n      add\n      dup1\n      0x40\n      mstore\n      pop\n      dup2\n      add\n      swap1\n      tag_64\n      swap2\n      swap1\n      tag_65\n      jump\t// in\n    tag_64:\n      pop\n        /* \"CrowdFund.sol\":3299:3312  uint refunded */\n      0x00\n        /* \"CrowdFund.sol\":3313:3326  pledgedAmount */\n      0x02\n        /* \"CrowdFund.sol\":3313:3330  pledgedAmount[id] */\n      0x00\n        /* \"CrowdFund.sol\":3327:3329  id */\n      dup4\n        /* \"CrowdFund.sol\":3313:3330  pledgedAmount[id] */\n      dup2\n      mstore\n      0x20\n      add\n      swap1\n      dup2\n      mstore\n      0x20\n      add\n      0x00\n      keccak256\n        /* \"CrowdFund.sol\":3313:3342  pledgedAmount[id][msg.sender] */\n      0x00\n        /* \"CrowdFund.sol\":3331:3341  msg.sender */\n      caller\n        /* \"CrowdFund.sol\":3313:3342  pledgedAmount[id][msg.sender] */\n      0xffffffffffffffffffffffffffffffffffffffff\n      and\n      0xffffffffffffffffffffffffffffffffffffffff\n      and\n      dup2\n      mstore\n      0x20\n      add\n      swap1\n      dup2\n      mstore\n      0x20\n      add\n      0x00\n      keccak256\n      sload\n        /* \"CrowdFund.sol\":3299:3342  uint refunded=pledgedAmount[id][msg.sender] */\n      swap1\n      pop\n        /* \"CrowdFund.sol\":3385:3386  0 */\n      0x00\n        /* \"CrowdFund.sol\":3353:3366  pledgedAmount */\n      0x02\n        /* \"CrowdFund.sol\":3353:3370  pledgedAmount[id] */\n      0x00\n        /* \"CrowdFund.sol\":3367:3369  id */\n      dup5\n        /* \"CrowdFund.sol\":3353:3370  pledgedAmount[id] */\n      dup2\n      mstore\n      0x20\n      add\n      swap1\n      dup2\n      mstore\n      0x20\n      add\n      0x00\n      keccak256\n        /* \"CrowdFund.sol\":3353:3382  pledgedAmount[id][msg.sender] */\n      0x00\n        /* \"CrowdFund.sol\":3371:3381  msg.sender */\n      caller\n        /* \"CrowdFund.sol\":3353:3382  pledgedAmount[id][msg.sender] */\n      0xffffffffffffffffffffffffffffffffffffffff\n      and\n      0xffffffffffffffffffffffffffffffffffffffff\n      and\n      dup2\n      mstore\n      0x20\n      add\n      swap1\n      dup2\n      mstore\n      0x20\n      add\n      0x00\n      keccak256\n        /* \"CrowdFund.sol\":3353:3386  pledgedAmount[id][msg.sender] = 0 */\n      dup2\n      swap1\n      sstore\n      pop\n        /* \"CrowdFund.sol\":3420:3428  refunded */\n      dup1\n        /* \"CrowdFund.sol\":3397:3406  campaigns */\n      0x01\n        /* \"CrowdFund.sol\":3397:3410  campaigns[id] */\n      0x00\n        /* \"CrowdFund.sol\":3407:3409  id */\n      dup5\n        /* \"CrowdFund.sol\":3397:3410  campaigns[id] */\n      dup2\n      mstore\n      0x20\n      add\n      swap1\n      dup2\n      mstore\n      0x20\n      add\n      0x00\n      keccak256\n        /* \"CrowdFund.sol\":3397:3418  campaigns[id].pledged */\n      0x02\n      add\n      0x00\n        /* \"CrowdFund.sol\":3397:3428  campaigns[id].pledged-=refunded */\n      dup3\n      dup3\n      sload\n      tag_66\n      swap2\n      swap1\n      tag_67\n      jump\t// in\n    tag_66:\n      swap3\n      pop\n      pop\n      dup2\n      swap1\n      sstore\n      pop\n        /* \"CrowdFund.sol\":3455:3465  msg.sender */\n      caller\n        /* \"CrowdFund.sol\":3444:3476  Refund(id, msg.sender, refunded) */\n      0xffffffffffffffffffffffffffffffffffffffff\n      and\n      0x21e12a7cad0da5928167e1084ea4d5fdf8d9af66657a2543a9ac76a0ca081477\n        /* \"CrowdFund.sol\":3451:3453  id */\n      dup4\n        /* \"CrowdFund.sol\":3467:3475  refunded */\n      dup4\n        /* \"CrowdFund.sol\":3444:3476  Refund(id, msg.sender, refunded) */\n      mload(0x40)\n      tag_68\n      swap3\n      swap2\n      swap1\n      tag_69\n      jump\t// in\n    tag_68:\n      mload(0x40)\n      dup1\n      swap2\n      sub\n      swap1\n      log2\n        /* \"CrowdFund.sol\":3011:3484  {... */\n      pop\n        /* \"CrowdFund.sol\":2977:3484  function refund(uint id) external {... */\n      pop\n      jump\t// out\n        /* \"CrowdFund.sol\":2459:2952  function claim(uint id) external {... */\n    tag_29:\n        /* \"CrowdFund.sol\":2503:2528  Campaign storage campaign */\n      0x00\n        /* \"CrowdFund.sol\":2529:2538  campaigns */\n      0x01\n        /* \"CrowdFund.sol\":2529:2542  campaigns[id] */\n      0x00\n        /* \"CrowdFund.sol\":2539:2541  id */\n      dup4\n        /* \"CrowdFund.sol\":2529:2542  campaigns[id] */\n      dup2\n      mstore\n      0x20\n      add\n      swap1\n      dup2\n      mstore\n      0x20\n      add\n      0x00\n      keccak256\n        /* \"CrowdFund.sol\":2503:2542  Campaign storage campaign=campaigns[id] */\n      swap1\n      pop\n        /* \"CrowdFund.sol\":2581:2591  msg.sender */\n      caller\n        /* \"CrowdFund.sol\":2561:2591  campaign.creator == msg.sender */\n      0xffffffffffffffffffffffffffffffffffffffff\n      and\n        /* \"CrowdFund.sol\":2561:2569  campaign */\n      dup2\n        /* \"CrowdFund.sol\":2561:2577  campaign.creator */\n      0x00\n      add\n      0x00\n      swap1\n      sload\n      swap1\n      0x0100\n      exp\n      swap1\n      div\n      0xffffffffffffffffffffffffffffffffffffffff\n      and\n        /* \"CrowdFund.sol\":2561:2591  campaign.creator == msg.sender */\n      0xffffffffffffffffffffffffffffffffffffffff\n      and\n      eq\n        /* \"CrowdFund.sol\":2553:2619  require(campaign.creator == msg.sender, \"only creator can claim.\") */\n      tag_71\n      jumpi\n      mload(0x40)\n      0x08c379a000000000000000000000000000000000000000000000000000000000\n      dup2\n      mstore\n      0x04\n      add\n      tag_72\n      swap1\n      tag_73\n      jump\t// in\n    tag_72:\n      mload(0x40)\n      dup1\n      swap2\n      sub\n      swap1\n      revert\n    tag_71:\n        /* \"CrowdFund.sol\":2658:2666  campaign */\n      dup1\n        /* \"CrowdFund.sol\":2658:2671  campaign.goal */\n      0x01\n      add\n      sload\n        /* \"CrowdFund.sol\":2638:2646  campaign */\n      dup2\n        /* \"CrowdFund.sol\":2638:2654  campaign.pledged */\n      0x02\n      add\n      sload\n        /* \"CrowdFund.sol\":2638:2671  campaign.pledged >= campaign.goal */\n      lt\n      iszero\n        /* \"CrowdFund.sol\":2630:2695  require(campaign.pledged >= campaign.goal, \"goal is not reached\") */\n      tag_74\n      jumpi\n      mload(0x40)\n      0x08c379a000000000000000000000000000000000000000000000000000000000\n      dup2\n      mstore\n      0x04\n      add\n      tag_75\n      swap1\n      tag_76\n      jump\t// in\n    tag_75:\n      mload(0x40)\n      dup1\n      swap2\n      sub\n      swap1\n      revert\n    tag_74:\n        /* \"CrowdFund.sol\":2733:2748  block.timestamp */\n      timestamp\n        /* \"CrowdFund.sol\":2714:2722  campaign */\n      dup2\n        /* \"CrowdFund.sol\":2714:2730  campaign.endTime */\n      0x04\n      add\n      sload\n        /* \"CrowdFund.sol\":2714:2748  campaign.endTime < block.timestamp */\n      lt\n        /* \"CrowdFund.sol\":2706:2784  require(campaign.endTime < block.timestamp, \"cannot be claimed before ended.\") */\n      tag_77\n      jumpi\n      mload(0x40)\n      0x08c379a000000000000000000000000000000000000000000000000000000000\n      dup2\n      mstore\n      0x04\n      add\n      tag_78\n      swap1\n      tag_79\n      jump\t// in\n    tag_78:\n      mload(0x40)\n      dup1\n      swap2\n      sub\n      swap1\n      revert\n    tag_77:\n        /* \"CrowdFund.sol\":2823:2828  false */\n      0x00\n        /* \"CrowdFund.sol\":2803:2828  campaign.claimed == false */\n      iszero\n      iszero\n        /* \"CrowdFund.sol\":2803:2811  campaign */\n      dup2\n        /* \"CrowdFund.sol\":2803:2819  campaign.claimed */\n      0x05\n      add\n      0x00\n      swap1\n      sload\n      swap1\n      0x0100\n      exp\n      swap1\n      div\n      0xff\n      and\n        /* \"CrowdFund.sol\":2803:2828  campaign.claimed == false */\n      iszero\n      iszero\n      eq\n        /* \"CrowdFund.sol\":2795:2849  require(campaign.claimed == false, \"already claimed.\") */\n      tag_80\n      jumpi\n      mload(0x40)\n      0x08c379a000000000000000000000000000000000000000000000000000000000\n      dup2\n      mstore\n      0x04\n      add\n      tag_81\n      swap1\n      tag_82\n      jump\t// in\n    tag_81:\n      mload(0x40)\n      dup1\n      swap2\n      sub\n      swap1\n      revert\n    tag_80:\n        /* \"CrowdFund.sol\":2862:2867  token */\n      immutable(\"0xd9670a00d025e59e1bd58d53874bea4ab34fea782716e2c168e89a3c8452d3bb\")\n        /* \"CrowdFund.sol\":2862:2876  token.transfer */\n      0xffffffffffffffffffffffffffffffffffffffff\n      and\n      0xa9059cbb\n        /* \"CrowdFund.sol\":2877:2885  campaign */\n      dup3\n        /* \"CrowdFund.sol\":2877:2893  campaign.creator */\n      0x00\n      add\n      0x00\n      swap1\n      sload\n      swap1\n      0x0100\n      exp\n      swap1\n      div\n      0xffffffffffffffffffffffffffffffffffffffff\n      and\n        /* \"CrowdFund.sol\":2895:2903  campaign */\n      dup4\n        /* \"CrowdFund.sol\":2895:2911  campaign.pledged */\n      0x02\n      add\n      sload\n        /* \"CrowdFund.sol\":2862:2912  token.transfer(campaign.creator, campaign.pledged) */\n      mload(0x40)\n      dup4\n      0xffffffff\n      and\n      0xe0\n      shl\n      dup2\n      mstore\n      0x04\n      add\n      tag_83\n      swap3\n      swap2\n      swap1\n      tag_61\n      jump\t// in\n    tag_83:\n      0x20\n      mload(0x40)\n      dup1\n      dup4\n      sub\n      dup2\n      0x00\n      dup8\n      gas\n      call\n      iszero\n      dup1\n      iszero\n      tag_85\n      jumpi\n      returndatasize\n      0x00\n      dup1\n      returndatacopy\n      revert(0x00, returndatasize)\n    tag_85:\n      pop\n      pop\n      pop\n      pop\n      mload(0x40)\n      returndatasize\n      not(0x1f)\n      0x1f\n      dup3\n      add\n      and\n      dup3\n      add\n      dup1\n      0x40\n      mstore\n      pop\n      dup2\n      add\n      swap1\n      tag_86\n      swap2\n      swap1\n      tag_65\n      jump\t// in\n    tag_86:\n      pop\n        /* \"CrowdFund.sol\":2940:2944  true */\n      0x01\n        /* \"CrowdFund.sol\":2923:2931  campaign */\n      dup2\n        /* \"CrowdFund.sol\":2923:2939  campaign.claimed */\n      0x05\n      add\n      0x00\n        /* \"CrowdFund.sol\":2923:2944  campaign.claimed=true */\n      0x0100\n      exp\n      dup2\n      sload\n      dup2\n      0xff\n      mul\n      not\n      and\n      swap1\n      dup4\n      iszero\n      iszero\n      mul\n      or\n      swap1\n      sstore\n      pop\n        /* \"CrowdFund.sol\":2492:2952  {... */\n      pop\n        /* \"CrowdFund.sol\":2459:2952  function claim(uint id) external {... */\n      pop\n      jump\t// out\n        /* \"CrowdFund.sol\":1322:1602  function cancel(uint id) external {... */\n    tag_32:\n        /* \"CrowdFund.sol\":1400:1410  msg.sender */\n      caller\n        /* \"CrowdFund.sol\":1375:1410  campaigns[id].creator == msg.sender */\n      0xffffffffffffffffffffffffffffffffffffffff\n      and\n        /* \"CrowdFund.sol\":1375:1384  campaigns */\n      0x01\n        /* \"CrowdFund.sol\":1375:1388  campaigns[id] */\n      0x00\n        /* \"CrowdFund.sol\":1385:1387  id */\n      dup4\n        /* \"CrowdFund.sol\":1375:1388  campaigns[id] */\n      dup2\n      mstore\n      0x20\n      add\n      swap1\n      dup2\n      mstore\n      0x20\n      add\n      0x00\n      keccak256\n        /* \"CrowdFund.sol\":1375:1396  campaigns[id].creator */\n      0x00\n      add\n      0x00\n      swap1\n      sload\n      swap1\n      0x0100\n      exp\n      swap1\n      div\n      0xffffffffffffffffffffffffffffffffffffffff\n      and\n        /* \"CrowdFund.sol\":1375:1410  campaigns[id].creator == msg.sender */\n      0xffffffffffffffffffffffffffffffffffffffff\n      and\n      eq\n        /* \"CrowdFund.sol\":1367:1439  require(campaigns[id].creator == msg.sender, \"only creator can cancel.\") */\n      tag_88\n      jumpi\n      mload(0x40)\n      0x08c379a000000000000000000000000000000000000000000000000000000000\n      dup2\n      mstore\n      0x04\n      add\n      tag_89\n      swap1\n      tag_90\n      jump\t// in\n    tag_89:\n      mload(0x40)\n      dup1\n      swap2\n      sub\n      swap1\n      revert\n    tag_88:\n        /* \"CrowdFund.sol\":1484:1499  block.timestamp */\n      timestamp\n        /* \"CrowdFund.sol\":1458:1467  campaigns */\n      0x01\n        /* \"CrowdFund.sol\":1458:1471  campaigns[id] */\n      0x00\n        /* \"CrowdFund.sol\":1468:1470  id */\n      dup4\n        /* \"CrowdFund.sol\":1458:1471  campaigns[id] */\n      dup2\n      mstore\n      0x20\n      add\n      swap1\n      dup2\n      mstore\n      0x20\n      add\n      0x00\n      keccak256\n        /* \"CrowdFund.sol\":1458:1481  campaigns[id].startTime */\n      0x03\n      add\n      sload\n        /* \"CrowdFund.sol\":1458:1499  campaigns[id].startTime > block.timestamp */\n      gt\n        /* \"CrowdFund.sol\":1450:1537  require(campaigns[id].startTime > block.timestamp, \"cannot be canceled after started.\") */\n      tag_91\n      jumpi\n      mload(0x40)\n      0x08c379a000000000000000000000000000000000000000000000000000000000\n      dup2\n      mstore\n      0x04\n      add\n      tag_92\n      swap1\n      tag_93\n      jump\t// in\n    tag_92:\n      mload(0x40)\n      dup1\n      swap2\n      sub\n      swap1\n      revert\n    tag_91:\n        /* \"CrowdFund.sol\":1555:1564  campaigns */\n      0x01\n        /* \"CrowdFund.sol\":1555:1568  campaigns[id] */\n      0x00\n        /* \"CrowdFund.sol\":1565:1567  id */\n      dup3\n        /* \"CrowdFund.sol\":1555:1568  campaigns[id] */\n      dup2\n      mstore\n      0x20\n      add\n      swap1\n      dup2\n      mstore\n      0x20\n      add\n      0x00\n      keccak256\n      0x00\n        /* \"CrowdFund.sol\":1548:1568  delete campaigns[id] */\n      dup1\n      dup3\n      add\n      exp(0x0100, 0x00)\n      dup2\n      sload\n      swap1\n      0xffffffffffffffffffffffffffffffffffffffff\n      mul\n      not\n      and\n      swap1\n      sstore\n      0x01\n      dup3\n      add\n      0x00\n      swap1\n      sstore\n      0x02\n      dup3\n      add\n      0x00\n      swap1\n      sstore\n      0x03\n      dup3\n      add\n      0x00\n      swap1\n      sstore\n      0x04\n      dup3\n      add\n      0x00\n      swap1\n      sstore\n      0x05\n      dup3\n      add\n      exp(0x0100, 0x00)\n      dup2\n      sload\n      swap1\n      0xff\n      mul\n      not\n      and\n      swap1\n      sstore\n      pop\n      pop\n        /* \"CrowdFund.sol\":1584:1594  Cancel(id) */\n      0x8bf30e7ff26833413be5f69e1d373744864d600b664204b4a2f9844a8eedb9ed\n        /* \"CrowdFund.sol\":1591:1593  id */\n      dup2\n        /* \"CrowdFund.sol\":1584:1594  Cancel(id) */\n      mload(0x40)\n      tag_94\n      swap2\n      swap1\n      tag_17\n      jump\t// in\n    tag_94:\n      mload(0x40)\n      dup1\n      swap2\n      sub\n      swap1\n      log1\n        /* \"CrowdFund.sol\":1322:1602  function cancel(uint id) external {... */\n      pop\n      jump\t// out\n        /* \"CrowdFund.sol\":2062:2451  function unpledge(uint id, uint amount) external {... */\n    tag_36:\n        /* \"CrowdFund.sol\":2154:2169  block.timestamp */\n      timestamp\n        /* \"CrowdFund.sol\":2130:2139  campaigns */\n      0x01\n        /* \"CrowdFund.sol\":2130:2143  campaigns[id] */\n      0x00\n        /* \"CrowdFund.sol\":2140:2142  id */\n      dup5\n        /* \"CrowdFund.sol\":2130:2143  campaigns[id] */\n      dup2\n      mstore\n      0x20\n      add\n      swap1\n      dup2\n      mstore\n      0x20\n      add\n      0x00\n      keccak256\n        /* \"CrowdFund.sol\":2130:2151  campaigns[id].endTime */\n      0x04\n      add\n      sload\n        /* \"CrowdFund.sol\":2130:2169  campaigns[id].endTime > block.timestamp */\n      gt\n        /* \"CrowdFund.sol\":2122:2206  require(campaigns[id].endTime > block.timestamp, \"cannot be unpledged after ended.\") */\n      tag_96\n      jumpi\n      mload(0x40)\n      0x08c379a000000000000000000000000000000000000000000000000000000000\n      dup2\n      mstore\n      0x04\n      add\n      tag_97\n      swap1\n      tag_98\n      jump\t// in\n    tag_97:\n      mload(0x40)\n      dup1\n      swap2\n      sub\n      swap1\n      revert\n    tag_96:\n        /* \"CrowdFund.sol\":2257:2263  amount */\n      dup1\n        /* \"CrowdFund.sol\":2225:2238  pledgedAmount */\n      0x02\n        /* \"CrowdFund.sol\":2225:2242  pledgedAmount[id] */\n      0x00\n        /* \"CrowdFund.sol\":2239:2241  id */\n      dup5\n        /* \"CrowdFund.sol\":2225:2242  pledgedAmount[id] */\n      dup2\n      mstore\n      0x20\n      add\n      swap1\n      dup2\n      mstore\n      0x20\n      add\n      0x00\n      keccak256\n        /* \"CrowdFund.sol\":2225:2254  pledgedAmount[id][msg.sender] */\n      0x00\n        /* \"CrowdFund.sol\":2243:2253  msg.sender */\n      caller\n        /* \"CrowdFund.sol\":2225:2254  pledgedAmount[id][msg.sender] */\n      0xffffffffffffffffffffffffffffffffffffffff\n      and\n      0xffffffffffffffffffffffffffffffffffffffff\n      and\n      dup2\n      mstore\n      0x20\n      add\n      swap1\n      dup2\n      mstore\n      0x20\n      add\n      0x00\n      keccak256\n      sload\n        /* \"CrowdFund.sol\":2225:2263  pledgedAmount[id][msg.sender] > amount */\n      gt\n        /* \"CrowdFund.sol\":2217:2310  require(pledgedAmount[id][msg.sender] > amount, \"you cannot unpledge more than you pledged.\") */\n      tag_99\n      jumpi\n      mload(0x40)\n      0x08c379a000000000000000000000000000000000000000000000000000000000\n      dup2\n      mstore\n      0x04\n      add\n      tag_100\n      swap1\n      tag_101\n      jump\t// in\n    tag_100:\n      mload(0x40)\n      dup1\n      swap2\n      sub\n      swap1\n      revert\n    tag_99:\n        /* \"CrowdFund.sol\":2321:2326  token */\n      immutable(\"0xd9670a00d025e59e1bd58d53874bea4ab34fea782716e2c168e89a3c8452d3bb\")\n        /* \"CrowdFund.sol\":2321:2335  token.transfer */\n      0xffffffffffffffffffffffffffffffffffffffff\n      and\n      0xa9059cbb\n        /* \"CrowdFund.sol\":2336:2346  msg.sender */\n      caller\n        /* \"CrowdFund.sol\":2348:2354  amount */\n      dup4\n        /* \"CrowdFund.sol\":2321:2355  token.transfer(msg.sender, amount) */\n      mload(0x40)\n      dup4\n      0xffffffff\n      and\n      0xe0\n      shl\n      dup2\n      mstore\n      0x04\n      add\n      tag_102\n      swap3\n      swap2\n      swap1\n      tag_61\n      jump\t// in\n    tag_102:\n      0x20\n      mload(0x40)\n      dup1\n      dup4\n      sub\n      dup2\n      0x00\n      dup8\n      gas\n      call\n      iszero\n      dup1\n      iszero\n      tag_104\n      jumpi\n      returndatasize\n      0x00\n      dup1\n      returndatacopy\n      revert(0x00, returndatasize)\n    tag_104:\n      pop\n      pop\n      pop\n      pop\n      mload(0x40)\n      returndatasize\n      not(0x1f)\n      0x1f\n      dup3\n      add\n      and\n      dup3\n      add\n      dup1\n      0x40\n      mstore\n      pop\n      dup2\n      add\n      swap1\n      tag_105\n      swap2\n      swap1\n      tag_65\n      jump\t// in\n    tag_105:\n      pop\n        /* \"CrowdFund.sol\":2397:2403  amount */\n      dup1\n        /* \"CrowdFund.sol\":2366:2379  pledgedAmount */\n      0x02\n        /* \"CrowdFund.sol\":2366:2383  pledgedAmount[id] */\n      0x00\n        /* \"CrowdFund.sol\":2380:2382  id */\n      dup5\n        /* \"CrowdFund.sol\":2366:2383  pledgedAmount[id] */\n      dup2\n      mstore\n      0x20\n      add\n      swap1\n      dup2\n      mstore\n      0x20\n      add\n      0x00\n      keccak256\n        /* \"CrowdFund.sol\":2366:2395  pledgedAmount[id][msg.sender] */\n      0x00\n        /* \"CrowdFund.sol\":2384:2394  msg.sender */\n      caller\n        /* \"CrowdFund.sol\":2366:2395  pledgedAmount[id][msg.sender] */\n      0xffffffffffffffffffffffffffffffffffffffff\n      and\n      0xffffffffffffffffffffffffffffffffffffffff\n      and\n      dup2\n      mstore\n      0x20\n      add\n      swap1\n      dup2\n      mstore\n      0x20\n      add\n      0x00\n      keccak256\n      0x00\n        /* \"CrowdFund.sol\":2366:2403  pledgedAmount[id][msg.sender]-=amount */\n      dup3\n      dup3\n      sload\n      tag_106\n      swap2\n      swap1\n      tag_67\n      jump\t// in\n    tag_106:\n      swap3\n      pop\n      pop\n      dup2\n      swap1\n      sstore\n      pop\n        /* \"CrowdFund.sol\":2437:2443  amount */\n      dup1\n        /* \"CrowdFund.sol\":2414:2423  campaigns */\n      0x01\n        /* \"CrowdFund.sol\":2414:2427  campaigns[id] */\n      0x00\n        /* \"CrowdFund.sol\":2424:2426  id */\n      dup5\n        /* \"CrowdFund.sol\":2414:2427  campaigns[id] */\n      dup2\n      mstore\n      0x20\n      add\n      swap1\n      dup2\n      mstore\n      0x20\n      add\n      0x00\n      keccak256\n        /* \"CrowdFund.sol\":2414:2435  campaigns[id].pledged */\n      0x02\n      add\n      0x00\n        /* \"CrowdFund.sol\":2414:2443  campaigns[id].pledged-=amount */\n      dup3\n      dup3\n      sload\n      tag_107\n      swap2\n      swap1\n      tag_67\n      jump\t// in\n    tag_107:\n      swap3\n      pop\n      pop\n      dup2\n      swap1\n      sstore\n      pop\n        /* \"CrowdFund.sol\":2062:2451  function unpledge(uint id, uint amount) external {... */\n      pop\n      pop\n      jump\t// out\n        /* \"CrowdFund.sol\":912:1314  function launch(uint goal,uint startTime,uint endTime) external {... */\n    tag_40:\n        /* \"CrowdFund.sol\":1008:1023  block.timestamp */\n      timestamp\n        /* \"CrowdFund.sol\":995:1004  startTime */\n      dup3\n        /* \"CrowdFund.sol\":995:1023  startTime >= block.timestamp */\n      lt\n      iszero\n        /* \"CrowdFund.sol\":987:1057  require(startTime >= block.timestamp, \"Start Time must be in future.\") */\n      tag_109\n      jumpi\n      mload(0x40)\n      0x08c379a000000000000000000000000000000000000000000000000000000000\n      dup2\n      mstore\n      0x04\n      add\n      tag_110\n      swap1\n      tag_111\n      jump\t// in\n    tag_110:\n      mload(0x40)\n      dup1\n      swap2\n      sub\n      swap1\n      revert\n    tag_109:\n        /* \"CrowdFund.sol\":1087:1096  startTime */\n      dup2\n        /* \"CrowdFund.sol\":1076:1083  endTime */\n      dup2\n        /* \"CrowdFund.sol\":1076:1096  endTime >= startTime */\n      lt\n      iszero\n        /* \"CrowdFund.sol\":1068:1135  require(endTime >= startTime, \"End time must be after start time.\") */\n      tag_112\n      jumpi\n      mload(0x40)\n      0x08c379a000000000000000000000000000000000000000000000000000000000\n      dup2\n      mstore\n      0x04\n      add\n      tag_113\n      swap1\n      tag_114\n      jump\t// in\n    tag_113:\n      mload(0x40)\n      dup1\n      swap2\n      sub\n      swap1\n      revert\n    tag_112:\n        /* \"CrowdFund.sol\":1165:1221  Campaign(msg.sender, goal, 0, startTime, endTime, false) */\n      mload(0x40)\n      dup1\n      0xc0\n      add\n      0x40\n      mstore\n      dup1\n        /* \"CrowdFund.sol\":1174:1184  msg.sender */\n      caller\n        /* \"CrowdFund.sol\":1165:1221  Campaign(msg.sender, goal, 0, startTime, endTime, false) */\n      0xffffffffffffffffffffffffffffffffffffffff\n      and\n      dup2\n      mstore\n      0x20\n      add\n        /* \"CrowdFund.sol\":1186:1190  goal */\n      dup5\n        /* \"CrowdFund.sol\":1165:1221  Campaign(msg.sender, goal, 0, startTime, endTime, false) */\n      dup2\n      mstore\n      0x20\n      add\n        /* \"CrowdFund.sol\":1192:1193  0 */\n      0x00\n        /* \"CrowdFund.sol\":1165:1221  Campaign(msg.sender, goal, 0, startTime, endTime, false) */\n      dup2\n      mstore\n      0x20\n      add\n        /* \"CrowdFund.sol\":1195:1204  startTime */\n      dup4\n        /* \"CrowdFund.sol\":1165:1221  Campaign(msg.sender, goal, 0, startTime, endTime, false) */\n      dup2\n      mstore\n      0x20\n      add\n        /* \"CrowdFund.sol\":1206:1213  endTime */\n      dup3\n        /* \"CrowdFund.sol\":1165:1221  Campaign(msg.sender, goal, 0, startTime, endTime, false) */\n      dup2\n      mstore\n      0x20\n      add\n        /* \"CrowdFund.sol\":1215:1220  false */\n      0x00\n        /* \"CrowdFund.sol\":1165:1221  Campaign(msg.sender, goal, 0, startTime, endTime, false) */\n      iszero\n      iszero\n      dup2\n      mstore\n      pop\n        /* \"CrowdFund.sol\":1146:1155  campaigns */\n      0x01\n        /* \"CrowdFund.sol\":1146:1162  campaigns[count] */\n      0x00\n        /* \"CrowdFund.sol\":1156:1161  count */\n      dup1\n      sload\n        /* \"CrowdFund.sol\":1146:1162  campaigns[count] */\n      dup2\n      mstore\n      0x20\n      add\n      swap1\n      dup2\n      mstore\n      0x20\n      add\n      0x00\n      keccak256\n        /* \"CrowdFund.sol\":1146:1221  campaigns[count] = Campaign(msg.sender, goal, 0, startTime, endTime, false) */\n      0x00\n      dup3\n      add\n      mload\n      dup2\n      0x00\n      add\n      exp(0x0100, 0x00)\n      dup2\n      sload\n      dup2\n      0xffffffffffffffffffffffffffffffffffffffff\n      mul\n      not\n      and\n      swap1\n      dup4\n      0xffffffffffffffffffffffffffffffffffffffff\n      and\n      mul\n      or\n      swap1\n      sstore\n      pop\n      0x20\n      dup3\n      add\n      mload\n      dup2\n      0x01\n      add\n      sstore\n      0x40\n      dup3\n      add\n      mload\n      dup2\n      0x02\n      add\n      sstore\n      0x60\n      dup3\n      add\n      mload\n      dup2\n      0x03\n      add\n      sstore\n      0x80\n      dup3\n      add\n      mload\n      dup2\n      0x04\n      add\n      sstore\n      0xa0\n      dup3\n      add\n      mload\n      dup2\n      0x05\n      add\n      exp(0x0100, 0x00)\n      dup2\n      sload\n      dup2\n      0xff\n      mul\n      not\n      and\n      swap1\n      dup4\n      iszero\n      iszero\n      mul\n      or\n      swap1\n      sstore\n      pop\n      swap1\n      pop\n      pop\n        /* \"CrowdFund.sol\":1232:1237  count */\n      0x00\n      dup1\n        /* \"CrowdFund.sol\":1232:1239  count++ */\n      dup2\n      sload\n      dup1\n      swap3\n      swap2\n      swap1\n      tag_115\n      swap1\n      tag_116\n      jump\t// in\n    tag_115:\n      swap2\n      swap1\n      pop\n      sstore\n      pop\n        /* \"CrowdFund.sol\":1269:1279  msg.sender */\n      caller\n        /* \"CrowdFund.sol\":1255:1306  Launch(count, msg.sender, goal, startTime, endTime) */\n      0xffffffffffffffffffffffffffffffffffffffff\n      and\n      0xc9142a9424eb889eb9f9493aeb5b3b9ffffe3e32c9361bd725d709f6b28b91b1\n        /* \"CrowdFund.sol\":1262:1267  count */\n      sload(0x00)\n        /* \"CrowdFund.sol\":1281:1285  goal */\n      dup6\n        /* \"CrowdFund.sol\":1287:1296  startTime */\n      dup6\n        /* \"CrowdFund.sol\":1298:1305  endTime */\n      dup6\n        /* \"CrowdFund.sol\":1255:1306  Launch(count, msg.sender, goal, startTime, endTime) */\n      mload(0x40)\n      tag_117\n      swap5\n      swap4\n      swap3\n      swap2\n      swap1\n      tag_118\n      jump\t// in\n    tag_117:\n      mload(0x40)\n      dup1\n      swap2\n      sub\n      swap1\n      log2\n        /* \"CrowdFund.sol\":912:1314  function launch(uint goal,uint startTime,uint endTime) external {... */\n      pop\n      pop\n      pop\n      jump\t// out\n        /* \"CrowdFund.sol\":752:814  mapping(uint => mapping(address => uint)) public pledgedAmount */\n    tag_44:\n      mstore(0x20, 0x02)\n      dup2\n      0x00\n      mstore\n      mstore(0x20, keccak256(0x00, 0x40))\n      dup1\n      0x00\n      mstore\n      keccak256(0x00, 0x40)\n      0x00\n      swap2\n      pop\n      swap2\n      pop\n      pop\n      sload\n      dup2\n      jump\t// out\n        /* \"CrowdFund.sol\":643:672  IERC20 public immutable token */\n    tag_47:\n      immutable(\"0xd9670a00d025e59e1bd58d53874bea4ab34fea782716e2c168e89a3c8452d3bb\")\n      dup2\n      jump\t// out\n        /* \"CrowdFund.sol\":1610:2054  function pledge(uint id, uint amount) external {... */\n    tag_52:\n        /* \"CrowdFund.sol\":1702:1717  block.timestamp */\n      timestamp\n        /* \"CrowdFund.sol\":1676:1685  campaigns */\n      0x01\n        /* \"CrowdFund.sol\":1676:1689  campaigns[id] */\n      0x00\n        /* \"CrowdFund.sol\":1686:1688  id */\n      dup5\n        /* \"CrowdFund.sol\":1676:1689  campaigns[id] */\n      dup2\n      mstore\n      0x20\n      add\n      swap1\n      dup2\n      mstore\n      0x20\n      add\n      0x00\n      keccak256\n        /* \"CrowdFund.sol\":1676:1699  campaigns[id].startTime */\n      0x03\n      add\n      sload\n        /* \"CrowdFund.sol\":1676:1717  campaigns[id].startTime < block.timestamp */\n      lt\n        /* \"CrowdFund.sol\":1668:1755  require(campaigns[id].startTime < block.timestamp, \"cannot be pledged before started.\") */\n      tag_120\n      jumpi\n      mload(0x40)\n      0x08c379a000000000000000000000000000000000000000000000000000000000\n      dup2\n      mstore\n      0x04\n      add\n      tag_121\n      swap1\n      tag_122\n      jump\t// in\n    tag_121:\n      mload(0x40)\n      dup1\n      swap2\n      sub\n      swap1\n      revert\n    tag_120:\n        /* \"CrowdFund.sol\":1798:1813  block.timestamp */\n      timestamp\n        /* \"CrowdFund.sol\":1774:1783  campaigns */\n      0x01\n        /* \"CrowdFund.sol\":1774:1787  campaigns[id] */\n      0x00\n        /* \"CrowdFund.sol\":1784:1786  id */\n      dup5\n        /* \"CrowdFund.sol\":1774:1787  campaigns[id] */\n      dup2\n      mstore\n      0x20\n      add\n      swap1\n      dup2\n      mstore\n      0x20\n      add\n      0x00\n      keccak256\n        /* \"CrowdFund.sol\":1774:1795  campaigns[id].endTime */\n      0x04\n      add\n      sload\n        /* \"CrowdFund.sol\":1774:1813  campaigns[id].endTime > block.timestamp */\n      gt\n        /* \"CrowdFund.sol\":1766:1848  require(campaigns[id].endTime > block.timestamp, \"cannot be pledged after ended.\") */\n      tag_123\n      jumpi\n      mload(0x40)\n      0x08c379a000000000000000000000000000000000000000000000000000000000\n      dup2\n      mstore\n      0x04\n      add\n      tag_124\n      swap1\n      tag_125\n      jump\t// in\n    tag_124:\n      mload(0x40)\n      dup1\n      swap2\n      sub\n      swap1\n      revert\n    tag_123:\n        /* \"CrowdFund.sol\":1859:1864  token */\n      immutable(\"0xd9670a00d025e59e1bd58d53874bea4ab34fea782716e2c168e89a3c8452d3bb\")\n        /* \"CrowdFund.sol\":1859:1877  token.transferFrom */\n      0xffffffffffffffffffffffffffffffffffffffff\n      and\n      0x23b872dd\n        /* \"CrowdFund.sol\":1878:1888  msg.sender */\n      caller\n        /* \"CrowdFund.sol\":1898:1902  this */\n      address\n        /* \"CrowdFund.sol\":1905:1911  amount */\n      dup5\n        /* \"CrowdFund.sol\":1859:1912  token.transferFrom(msg.sender, address(this), amount) */\n      mload(0x40)\n      dup5\n      0xffffffff\n      and\n      0xe0\n      shl\n      dup2\n      mstore\n      0x04\n      add\n      tag_126\n      swap4\n      swap3\n      swap2\n      swap1\n      tag_127\n      jump\t// in\n    tag_126:\n      0x20\n      mload(0x40)\n      dup1\n      dup4\n      sub\n      dup2\n      0x00\n      dup8\n      gas\n      call\n      iszero\n      dup1\n      iszero\n      tag_129\n      jumpi\n      returndatasize\n      0x00\n      dup1\n      returndatacopy\n      revert(0x00, returndatasize)\n    tag_129:\n      pop\n      pop\n      pop\n      pop\n      mload(0x40)\n      returndatasize\n      not(0x1f)\n      0x1f\n      dup3\n      add\n      and\n      dup3\n      add\n      dup1\n      0x40\n      mstore\n      pop\n      dup2\n      add\n      swap1\n      tag_130\n      swap2\n      swap1\n      tag_65\n      jump\t// in\n    tag_130:\n      pop\n        /* \"CrowdFund.sol\":1946:1952  amount */\n      dup1\n        /* \"CrowdFund.sol\":1923:1932  campaigns */\n      0x01\n        /* \"CrowdFund.sol\":1923:1936  campaigns[id] */\n      0x00\n        /* \"CrowdFund.sol\":1933:1935  id */\n      dup5\n        /* \"CrowdFund.sol\":1923:1936  campaigns[id] */\n      dup2\n      mstore\n      0x20\n      add\n      swap1\n      dup2\n      mstore\n      0x20\n      add\n      0x00\n      keccak256\n        /* \"CrowdFund.sol\":1923:1944  campaigns[id].pledged */\n      0x02\n      add\n      0x00\n        /* \"CrowdFund.sol\":1923:1952  campaigns[id].pledged+=amount */\n      dup3\n      dup3\n      sload\n      tag_131\n      swap2\n      swap1\n      tag_132\n      jump\t// in\n    tag_131:\n      swap3\n      pop\n      pop\n      dup2\n      swap1\n      sstore\n      pop\n        /* \"CrowdFund.sol\":1994:2000  amount */\n      dup1\n        /* \"CrowdFund.sol\":1963:1976  pledgedAmount */\n      0x02\n        /* \"CrowdFund.sol\":1963:1980  pledgedAmount[id] */\n      0x00\n        /* \"CrowdFund.sol\":1977:1979  id */\n      dup5\n        /* \"CrowdFund.sol\":1963:1980  pledgedAmount[id] */\n      dup2\n      mstore\n      0x20\n      add\n      swap1\n      dup2\n      mstore\n      0x20\n      add\n      0x00\n      keccak256\n        /* \"CrowdFund.sol\":1963:1992  pledgedAmount[id][msg.sender] */\n      0x00\n        /* \"CrowdFund.sol\":1981:1991  msg.sender */\n      caller\n        /* \"CrowdFund.sol\":1963:1992  pledgedAmount[id][msg.sender] */\n      0xffffffffffffffffffffffffffffffffffffffff\n      and\n      0xffffffffffffffffffffffffffffffffffffffff\n      and\n      dup2\n      mstore\n      0x20\n      add\n      swap1\n      dup2\n      mstore\n      0x20\n      add\n      0x00\n      keccak256\n      0x00\n        /* \"CrowdFund.sol\":1963:2000  pledgedAmount[id][msg.sender]+=amount */\n      dup3\n      dup3\n      sload\n      tag_133\n      swap2\n      swap1\n      tag_132\n      jump\t// in\n    tag_133:\n      swap3\n      pop\n      pop\n      dup2\n      swap1\n      sstore\n      pop\n        /* \"CrowdFund.sol\":2027:2037  msg.sender */\n      caller\n        /* \"CrowdFund.sol\":2016:2046  Pledge(id, msg.sender, amount) */\n      0xffffffffffffffffffffffffffffffffffffffff\n      and\n        /* \"CrowdFund.sol\":2023:2025  id */\n      dup3\n        /* \"CrowdFund.sol\":2016:2046  Pledge(id, msg.sender, amount) */\n      0x06bdb975df800a73232998e71ed585d536222f1dfeaa622d7f62a23ada686c82\n        /* \"CrowdFund.sol\":2039:2045  amount */\n      dup4\n        /* \"CrowdFund.sol\":2016:2046  Pledge(id, msg.sender, amount) */\n      mload(0x40)\n      tag_134\n      swap2\n      swap1\n      tag_17\n      jump\t// in\n    tag_134:\n      mload(0x40)\n      dup1\n      swap2\n      sub\n      swap1\n      log3\n        /* \"CrowdFund.sol\":1610:2054  function pledge(uint id, uint amount) external {... */\n      pop\n      pop\n      jump\t// out\n        /* \"#utility.yul\":7:84   */\n    tag_135:\n        /* \"#utility.yul\":44:51   */\n      0x00\n        /* \"#utility.yul\":73:78   */\n      dup2\n        /* \"#utility.yul\":62:78   */\n      swap1\n      pop\n        /* \"#utility.yul\":7:84   */\n      swap2\n      swap1\n      pop\n      jump\t// out\n        /* \"#utility.yul\":90:208   */\n    tag_136:\n        /* \"#utility.yul\":177:201   */\n      tag_189\n        /* \"#utility.yul\":195:200   */\n      dup2\n        /* \"#utility.yul\":177:201   */\n      tag_135\n      jump\t// in\n    tag_189:\n        /* \"#utility.yul\":172:175   */\n      dup3\n        /* \"#utility.yul\":165:202   */\n      mstore\n        /* \"#utility.yul\":90:208   */\n      pop\n      pop\n      jump\t// out\n        /* \"#utility.yul\":214:436   */\n    tag_17:\n        /* \"#utility.yul\":307:311   */\n      0x00\n        /* \"#utility.yul\":345:347   */\n      0x20\n        /* \"#utility.yul\":334:343   */\n      dup3\n        /* \"#utility.yul\":330:348   */\n      add\n        /* \"#utility.yul\":322:348   */\n      swap1\n      pop\n        /* \"#utility.yul\":358:429   */\n      tag_191\n        /* \"#utility.yul\":426:427   */\n      0x00\n        /* \"#utility.yul\":415:424   */\n      dup4\n        /* \"#utility.yul\":411:428   */\n      add\n        /* \"#utility.yul\":402:408   */\n      dup5\n        /* \"#utility.yul\":358:429   */\n      tag_136\n      jump\t// in\n    tag_191:\n        /* \"#utility.yul\":214:436   */\n      swap3\n      swap2\n      pop\n      pop\n      jump\t// out\n        /* \"#utility.yul\":523:640   */\n    tag_138:\n        /* \"#utility.yul\":632:633   */\n      0x00\n        /* \"#utility.yul\":629:630   */\n      dup1\n        /* \"#utility.yul\":622:634   */\n      revert\n        /* \"#utility.yul\":769:891   */\n    tag_140:\n        /* \"#utility.yul\":842:866   */\n      tag_196\n        /* \"#utility.yul\":860:865   */\n      dup2\n        /* \"#utility.yul\":842:866   */\n      tag_135\n      jump\t// in\n    tag_196:\n        /* \"#utility.yul\":835:840   */\n      dup2\n        /* \"#utility.yul\":832:867   */\n      eq\n        /* \"#utility.yul\":822:885   */\n      tag_197\n      jumpi\n        /* \"#utility.yul\":881:882   */\n      0x00\n        /* \"#utility.yul\":878:879   */\n      dup1\n        /* \"#utility.yul\":871:883   */\n      revert\n        /* \"#utility.yul\":822:885   */\n    tag_197:\n        /* \"#utility.yul\":769:891   */\n      pop\n      jump\t// out\n        /* \"#utility.yul\":897:1036   */\n    tag_141:\n        /* \"#utility.yul\":943:948   */\n      0x00\n        /* \"#utility.yul\":981:987   */\n      dup2\n        /* \"#utility.yul\":968:988   */\n      calldataload\n        /* \"#utility.yul\":959:988   */\n      swap1\n      pop\n        /* \"#utility.yul\":997:1030   */\n      tag_199\n        /* \"#utility.yul\":1024:1029   */\n      dup2\n        /* \"#utility.yul\":997:1030   */\n      tag_140\n      jump\t// in\n    tag_199:\n        /* \"#utility.yul\":897:1036   */\n      swap3\n      swap2\n      pop\n      pop\n      jump\t// out\n        /* \"#utility.yul\":1042:1371   */\n    tag_20:\n        /* \"#utility.yul\":1101:1107   */\n      0x00\n        /* \"#utility.yul\":1150:1152   */\n      0x20\n        /* \"#utility.yul\":1138:1147   */\n      dup3\n        /* \"#utility.yul\":1129:1136   */\n      dup5\n        /* \"#utility.yul\":1125:1148   */\n      sub\n        /* \"#utility.yul\":1121:1153   */\n      slt\n        /* \"#utility.yul\":1118:1237   */\n      iszero\n      tag_201\n      jumpi\n        /* \"#utility.yul\":1156:1235   */\n      tag_202\n      tag_138\n      jump\t// in\n    tag_202:\n        /* \"#utility.yul\":1118:1237   */\n    tag_201:\n        /* \"#utility.yul\":1276:1277   */\n      0x00\n        /* \"#utility.yul\":1301:1354   */\n      tag_203\n        /* \"#utility.yul\":1346:1353   */\n      dup5\n        /* \"#utility.yul\":1337:1343   */\n      dup3\n        /* \"#utility.yul\":1326:1335   */\n      dup6\n        /* \"#utility.yul\":1322:1344   */\n      add\n        /* \"#utility.yul\":1301:1354   */\n      tag_141\n      jump\t// in\n    tag_203:\n        /* \"#utility.yul\":1291:1354   */\n      swap2\n      pop\n        /* \"#utility.yul\":1247:1364   */\n      pop\n        /* \"#utility.yul\":1042:1371   */\n      swap3\n      swap2\n      pop\n      pop\n      jump\t// out\n        /* \"#utility.yul\":1377:1503   */\n    tag_142:\n        /* \"#utility.yul\":1414:1421   */\n      0x00\n        /* \"#utility.yul\":1454:1496   */\n      0xffffffffffffffffffffffffffffffffffffffff\n        /* \"#utility.yul\":1447:1452   */\n      dup3\n        /* \"#utility.yul\":1443:1497   */\n      and\n        /* \"#utility.yul\":1432:1497   */\n      swap1\n      pop\n        /* \"#utility.yul\":1377:1503   */\n      swap2\n      swap1\n      pop\n      jump\t// out\n        /* \"#utility.yul\":1509:1605   */\n    tag_143:\n        /* \"#utility.yul\":1546:1553   */\n      0x00\n        /* \"#utility.yul\":1575:1599   */\n      tag_206\n        /* \"#utility.yul\":1593:1598   */\n      dup3\n        /* \"#utility.yul\":1575:1599   */\n      tag_142\n      jump\t// in\n    tag_206:\n        /* \"#utility.yul\":1564:1599   */\n      swap1\n      pop\n        /* \"#utility.yul\":1509:1605   */\n      swap2\n      swap1\n      pop\n      jump\t// out\n        /* \"#utility.yul\":1611:1729   */\n    tag_144:\n        /* \"#utility.yul\":1698:1722   */\n      tag_208\n        /* \"#utility.yul\":1716:1721   */\n      dup2\n        /* \"#utility.yul\":1698:1722   */\n      tag_143\n      jump\t// in\n    tag_208:\n        /* \"#utility.yul\":1693:1696   */\n      dup3\n        /* \"#utility.yul\":1686:1723   */\n      mstore\n        /* \"#utility.yul\":1611:1729   */\n      pop\n      pop\n      jump\t// out\n        /* \"#utility.yul\":1735:1825   */\n    tag_145:\n        /* \"#utility.yul\":1769:1776   */\n      0x00\n        /* \"#utility.yul\":1812:1817   */\n      dup2\n        /* \"#utility.yul\":1805:1818   */\n      iszero\n        /* \"#utility.yul\":1798:1819   */\n      iszero\n        /* \"#utility.yul\":1787:1819   */\n      swap1\n      pop\n        /* \"#utility.yul\":1735:1825   */\n      swap2\n      swap1\n      pop\n      jump\t// out\n        /* \"#utility.yul\":1831:1940   */\n    tag_146:\n        /* \"#utility.yul\":1912:1933   */\n      tag_211\n        /* \"#utility.yul\":1927:1932   */\n      dup2\n        /* \"#utility.yul\":1912:1933   */\n      tag_145\n      jump\t// in\n    tag_211:\n        /* \"#utility.yul\":1907:1910   */\n      dup3\n        /* \"#utility.yul\":1900:1934   */\n      mstore\n        /* \"#utility.yul\":1831:1940   */\n      pop\n      pop\n      jump\t// out\n        /* \"#utility.yul\":1946:2709   */\n    tag_23:\n        /* \"#utility.yul\":2173:2177   */\n      0x00\n        /* \"#utility.yul\":2211:2214   */\n      0xc0\n        /* \"#utility.yul\":2200:2209   */\n      dup3\n        /* \"#utility.yul\":2196:2215   */\n      add\n        /* \"#utility.yul\":2188:2215   */\n      swap1\n      pop\n        /* \"#utility.yul\":2225:2296   */\n      tag_213\n        /* \"#utility.yul\":2293:2294   */\n      0x00\n        /* \"#utility.yul\":2282:2291   */\n      dup4\n        /* \"#utility.yul\":2278:2295   */\n      add\n        /* \"#utility.yul\":2269:2275   */\n      dup10\n        /* \"#utility.yul\":2225:2296   */\n      tag_144\n      jump\t// in\n    tag_213:\n        /* \"#utility.yul\":2306:2378   */\n      tag_214\n        /* \"#utility.yul\":2374:2376   */\n      0x20\n        /* \"#utility.yul\":2363:2372   */\n      dup4\n        /* \"#utility.yul\":2359:2377   */\n      add\n        /* \"#utility.yul\":2350:2356   */\n      dup9\n        /* \"#utility.yul\":2306:2378   */\n      tag_136\n      jump\t// in\n    tag_214:\n        /* \"#utility.yul\":2388:2460   */\n      tag_215\n        /* \"#utility.yul\":2456:2458   */\n      0x40\n        /* \"#utility.yul\":2445:2454   */\n      dup4\n        /* \"#utility.yul\":2441:2459   */\n      add\n        /* \"#utility.yul\":2432:2438   */\n      dup8\n        /* \"#utility.yul\":2388:2460   */\n      tag_136\n      jump\t// in\n    tag_215:\n        /* \"#utility.yul\":2470:2542   */\n      tag_216\n        /* \"#utility.yul\":2538:2540   */\n      0x60\n        /* \"#utility.yul\":2527:2536   */\n      dup4\n        /* \"#utility.yul\":2523:2541   */\n      add\n        /* \"#utility.yul\":2514:2520   */\n      dup7\n        /* \"#utility.yul\":2470:2542   */\n      tag_136\n      jump\t// in\n    tag_216:\n        /* \"#utility.yul\":2552:2625   */\n      tag_217\n        /* \"#utility.yul\":2620:2623   */\n      0x80\n        /* \"#utility.yul\":2609:2618   */\n      dup4\n        /* \"#utility.yul\":2605:2624   */\n      add\n        /* \"#utility.yul\":2596:2602   */\n      dup6\n        /* \"#utility.yul\":2552:2625   */\n      tag_136\n      jump\t// in\n    tag_217:\n        /* \"#utility.yul\":2635:2702   */\n      tag_218\n        /* \"#utility.yul\":2697:2700   */\n      0xa0\n        /* \"#utility.yul\":2686:2695   */\n      dup4\n        /* \"#utility.yul\":2682:2701   */\n      add\n        /* \"#utility.yul\":2673:2679   */\n      dup5\n        /* \"#utility.yul\":2635:2702   */\n      tag_146\n      jump\t// in\n    tag_218:\n        /* \"#utility.yul\":1946:2709   */\n      swap8\n      swap7\n      pop\n      pop\n      pop\n      pop\n      pop\n      pop\n      pop\n      jump\t// out\n        /* \"#utility.yul\":2715:3189   */\n    tag_35:\n        /* \"#utility.yul\":2783:2789   */\n      0x00\n        /* \"#utility.yul\":2791:2797   */\n      dup1\n        /* \"#utility.yul\":2840:2842   */\n      0x40\n        /* \"#utility.yul\":2828:2837   */\n      dup4\n        /* \"#utility.yul\":2819:2826   */\n      dup6\n        /* \"#utility.yul\":2815:2838   */\n      sub\n        /* \"#utility.yul\":2811:2843   */\n      slt\n        /* \"#utility.yul\":2808:2927   */\n      iszero\n      tag_220\n      jumpi\n        /* \"#utility.yul\":2846:2925   */\n      tag_221\n      tag_138\n      jump\t// in\n    tag_221:\n        /* \"#utility.yul\":2808:2927   */\n    tag_220:\n        /* \"#utility.yul\":2966:2967   */\n      0x00\n        /* \"#utility.yul\":2991:3044   */\n      tag_222\n        /* \"#utility.yul\":3036:3043   */\n      dup6\n        /* \"#utility.yul\":3027:3033   */\n      dup3\n        /* \"#utility.yul\":3016:3025   */\n      dup7\n        /* \"#utility.yul\":3012:3034   */\n      add\n        /* \"#utility.yul\":2991:3044   */\n      tag_141\n      jump\t// in\n    tag_222:\n        /* \"#utility.yul\":2981:3044   */\n      swap3\n      pop\n        /* \"#utility.yul\":2937:3054   */\n      pop\n        /* \"#utility.yul\":3093:3095   */\n      0x20\n        /* \"#utility.yul\":3119:3172   */\n      tag_223\n        /* \"#utility.yul\":3164:3171   */\n      dup6\n        /* \"#utility.yul\":3155:3161   */\n      dup3\n        /* \"#utility.yul\":3144:3153   */\n      dup7\n        /* \"#utility.yul\":3140:3162   */\n      add\n        /* \"#utility.yul\":3119:3172   */\n      tag_141\n      jump\t// in\n    tag_223:\n        /* \"#utility.yul\":3109:3172   */\n      swap2\n      pop\n        /* \"#utility.yul\":3064:3182   */\n      pop\n        /* \"#utility.yul\":2715:3189   */\n      swap3\n      pop\n      swap3\n      swap1\n      pop\n      jump\t// out\n        /* \"#utility.yul\":3195:3814   */\n    tag_39:\n        /* \"#utility.yul\":3272:3278   */\n      0x00\n        /* \"#utility.yul\":3280:3286   */\n      dup1\n        /* \"#utility.yul\":3288:3294   */\n      0x00\n        /* \"#utility.yul\":3337:3339   */\n      0x60\n        /* \"#utility.yul\":3325:3334   */\n      dup5\n        /* \"#utility.yul\":3316:3323   */\n      dup7\n        /* \"#utility.yul\":3312:3335   */\n      sub\n        /* \"#utility.yul\":3308:3340   */\n      slt\n        /* \"#utility.yul\":3305:3424   */\n      iszero\n      tag_225\n      jumpi\n        /* \"#utility.yul\":3343:3422   */\n      tag_226\n      tag_138\n      jump\t// in\n    tag_226:\n        /* \"#utility.yul\":3305:3424   */\n    tag_225:\n        /* \"#utility.yul\":3463:3464   */\n      0x00\n        /* \"#utility.yul\":3488:3541   */\n      tag_227\n        /* \"#utility.yul\":3533:3540   */\n      dup7\n        /* \"#utility.yul\":3524:3530   */\n      dup3\n        /* \"#utility.yul\":3513:3522   */\n      dup8\n        /* \"#utility.yul\":3509:3531   */\n      add\n        /* \"#utility.yul\":3488:3541   */\n      tag_141\n      jump\t// in\n    tag_227:\n        /* \"#utility.yul\":3478:3541   */\n      swap4\n      pop\n        /* \"#utility.yul\":3434:3551   */\n      pop\n        /* \"#utility.yul\":3590:3592   */\n      0x20\n        /* \"#utility.yul\":3616:3669   */\n      tag_228\n        /* \"#utility.yul\":3661:3668   */\n      dup7\n        /* \"#utility.yul\":3652:3658   */\n      dup3\n        /* \"#utility.yul\":3641:3650   */\n      dup8\n        /* \"#utility.yul\":3637:3659   */\n      add\n        /* \"#utility.yul\":3616:3669   */\n      tag_141\n      jump\t// in\n    tag_228:\n        /* \"#utility.yul\":3606:3669   */\n      swap3\n      pop\n        /* \"#utility.yul\":3561:3679   */\n      pop\n        /* \"#utility.yul\":3718:3720   */\n      0x40\n        /* \"#utility.yul\":3744:3797   */\n      tag_229\n        /* \"#utility.yul\":3789:3796   */\n      dup7\n        /* \"#utility.yul\":3780:3786   */\n      dup3\n        /* \"#utility.yul\":3769:3778   */\n      dup8\n        /* \"#utility.yul\":3765:3787   */\n      add\n        /* \"#utility.yul\":3744:3797   */\n      tag_141\n      jump\t// in\n    tag_229:\n        /* \"#utility.yul\":3734:3797   */\n      swap2\n      pop\n        /* \"#utility.yul\":3689:3807   */\n      pop\n        /* \"#utility.yul\":3195:3814   */\n      swap3\n      pop\n      swap3\n      pop\n      swap3\n      jump\t// out\n        /* \"#utility.yul\":3820:3942   */\n    tag_147:\n        /* \"#utility.yul\":3893:3917   */\n      tag_231\n        /* \"#utility.yul\":3911:3916   */\n      dup2\n        /* \"#utility.yul\":3893:3917   */\n      tag_143\n      jump\t// in\n    tag_231:\n        /* \"#utility.yul\":3886:3891   */\n      dup2\n        /* \"#utility.yul\":3883:3918   */\n      eq\n        /* \"#utility.yul\":3873:3936   */\n      tag_232\n      jumpi\n        /* \"#utility.yul\":3932:3933   */\n      0x00\n        /* \"#utility.yul\":3929:3930   */\n      dup1\n        /* \"#utility.yul\":3922:3934   */\n      revert\n        /* \"#utility.yul\":3873:3936   */\n    tag_232:\n        /* \"#utility.yul\":3820:3942   */\n      pop\n      jump\t// out\n        /* \"#utility.yul\":3948:4087   */\n    tag_148:\n        /* \"#utility.yul\":3994:3999   */\n      0x00\n        /* \"#utility.yul\":4032:4038   */\n      dup2\n        /* \"#utility.yul\":4019:4039   */\n      calldataload\n        /* \"#utility.yul\":4010:4039   */\n      swap1\n      pop\n        /* \"#utility.yul\":4048:4081   */\n      tag_234\n        /* \"#utility.yul\":4075:4080   */\n      dup2\n        /* \"#utility.yul\":4048:4081   */\n      tag_147\n      jump\t// in\n    tag_234:\n        /* \"#utility.yul\":3948:4087   */\n      swap3\n      swap2\n      pop\n      pop\n      jump\t// out\n        /* \"#utility.yul\":4093:4567   */\n    tag_43:\n        /* \"#utility.yul\":4161:4167   */\n      0x00\n        /* \"#utility.yul\":4169:4175   */\n      dup1\n        /* \"#utility.yul\":4218:4220   */\n      0x40\n        /* \"#utility.yul\":4206:4215   */\n      dup4\n        /* \"#utility.yul\":4197:4204   */\n      dup6\n        /* \"#utility.yul\":4193:4216   */\n      sub\n        /* \"#utility.yul\":4189:4221   */\n      slt\n        /* \"#utility.yul\":4186:4305   */\n      iszero\n      tag_236\n      jumpi\n        /* \"#utility.yul\":4224:4303   */\n      tag_237\n      tag_138\n      jump\t// in\n    tag_237:\n        /* \"#utility.yul\":4186:4305   */\n    tag_236:\n        /* \"#utility.yul\":4344:4345   */\n      0x00\n        /* \"#utility.yul\":4369:4422   */\n      tag_238\n        /* \"#utility.yul\":4414:4421   */\n      dup6\n        /* \"#utility.yul\":4405:4411   */\n      dup3\n        /* \"#utility.yul\":4394:4403   */\n      dup7\n        /* \"#utility.yul\":4390:4412   */\n      add\n        /* \"#utility.yul\":4369:4422   */\n      tag_141\n      jump\t// in\n    tag_238:\n        /* \"#utility.yul\":4359:4422   */\n      swap3\n      pop\n        /* \"#utility.yul\":4315:4432   */\n      pop\n        /* \"#utility.yul\":4471:4473   */\n      0x20\n        /* \"#utility.yul\":4497:4550   */\n      tag_239\n        /* \"#utility.yul\":4542:4549   */\n      dup6\n        /* \"#utility.yul\":4533:4539   */\n      dup3\n        /* \"#utility.yul\":4522:4531   */\n      dup7\n        /* \"#utility.yul\":4518:4540   */\n      add\n        /* \"#utility.yul\":4497:4550   */\n      tag_148\n      jump\t// in\n    tag_239:\n        /* \"#utility.yul\":4487:4550   */\n      swap2\n      pop\n        /* \"#utility.yul\":4442:4560   */\n      pop\n        /* \"#utility.yul\":4093:4567   */\n      swap3\n      pop\n      swap3\n      swap1\n      pop\n      jump\t// out\n        /* \"#utility.yul\":4573:4633   */\n    tag_149:\n        /* \"#utility.yul\":4601:4604   */\n      0x00\n        /* \"#utility.yul\":4622:4627   */\n      dup2\n        /* \"#utility.yul\":4615:4627   */\n      swap1\n      pop\n        /* \"#utility.yul\":4573:4633   */\n      swap2\n      swap1\n      pop\n      jump\t// out\n        /* \"#utility.yul\":4639:4781   */\n    tag_150:\n        /* \"#utility.yul\":4689:4698   */\n      0x00\n        /* \"#utility.yul\":4722:4775   */\n      tag_242\n        /* \"#utility.yul\":4740:4774   */\n      tag_243\n        /* \"#utility.yul\":4749:4773   */\n      tag_244\n        /* \"#utility.yul\":4767:4772   */\n      dup5\n        /* \"#utility.yul\":4749:4773   */\n      tag_142\n      jump\t// in\n    tag_244:\n        /* \"#utility.yul\":4740:4774   */\n      tag_149\n      jump\t// in\n    tag_243:\n        /* \"#utility.yul\":4722:4775   */\n      tag_142\n      jump\t// in\n    tag_242:\n        /* \"#utility.yul\":4709:4775   */\n      swap1\n      pop\n        /* \"#utility.yul\":4639:4781   */\n      swap2\n      swap1\n      pop\n      jump\t// out\n        /* \"#utility.yul\":4787:4913   */\n    tag_151:\n        /* \"#utility.yul\":4837:4846   */\n      0x00\n        /* \"#utility.yul\":4870:4907   */\n      tag_246\n        /* \"#utility.yul\":4901:4906   */\n      dup3\n        /* \"#utility.yul\":4870:4907   */\n      tag_150\n      jump\t// in\n    tag_246:\n        /* \"#utility.yul\":4857:4907   */\n      swap1\n      pop\n        /* \"#utility.yul\":4787:4913   */\n      swap2\n      swap1\n      pop\n      jump\t// out\n        /* \"#utility.yul\":4919:5059   */\n    tag_152:\n        /* \"#utility.yul\":4983:4992   */\n      0x00\n        /* \"#utility.yul\":5016:5053   */\n      tag_248\n        /* \"#utility.yul\":5047:5052   */\n      dup3\n        /* \"#utility.yul\":5016:5053   */\n      tag_151\n      jump\t// in\n    tag_248:\n        /* \"#utility.yul\":5003:5053   */\n      swap1\n      pop\n        /* \"#utility.yul\":4919:5059   */\n      swap2\n      swap1\n      pop\n      jump\t// out\n        /* \"#utility.yul\":5065:5224   */\n    tag_153:\n        /* \"#utility.yul\":5166:5217   */\n      tag_250\n        /* \"#utility.yul\":5211:5216   */\n      dup2\n        /* \"#utility.yul\":5166:5217   */\n      tag_152\n      jump\t// in\n    tag_250:\n        /* \"#utility.yul\":5161:5164   */\n      dup3\n        /* \"#utility.yul\":5154:5218   */\n      mstore\n        /* \"#utility.yul\":5065:5224   */\n      pop\n      pop\n      jump\t// out\n        /* \"#utility.yul\":5230:5480   */\n    tag_49:\n        /* \"#utility.yul\":5337:5341   */\n      0x00\n        /* \"#utility.yul\":5375:5377   */\n      0x20\n        /* \"#utility.yul\":5364:5373   */\n      dup3\n        /* \"#utility.yul\":5360:5378   */\n      add\n        /* \"#utility.yul\":5352:5378   */\n      swap1\n      pop\n        /* \"#utility.yul\":5388:5473   */\n      tag_252\n        /* \"#utility.yul\":5470:5471   */\n      0x00\n        /* \"#utility.yul\":5459:5468   */\n      dup4\n        /* \"#utility.yul\":5455:5472   */\n      add\n        /* \"#utility.yul\":5446:5452   */\n      dup5\n        /* \"#utility.yul\":5388:5473   */\n      tag_153\n      jump\t// in\n    tag_252:\n        /* \"#utility.yul\":5230:5480   */\n      swap3\n      swap2\n      pop\n      pop\n      jump\t// out\n        /* \"#utility.yul\":5486:5655   */\n    tag_154:\n        /* \"#utility.yul\":5570:5581   */\n      0x00\n        /* \"#utility.yul\":5604:5610   */\n      dup3\n        /* \"#utility.yul\":5599:5602   */\n      dup3\n        /* \"#utility.yul\":5592:5611   */\n      mstore\n        /* \"#utility.yul\":5644:5648   */\n      0x20\n        /* \"#utility.yul\":5639:5642   */\n      dup3\n        /* \"#utility.yul\":5635:5649   */\n      add\n        /* \"#utility.yul\":5620:5649   */\n      swap1\n      pop\n        /* \"#utility.yul\":5486:5655   */\n      swap3\n      swap2\n      pop\n      pop\n      jump\t// out\n        /* \"#utility.yul\":5661:5843   */\n    tag_155:\n        /* \"#utility.yul\":5801:5835   */\n      0x63616e6e6f7420626520726566756e646564206265666f726520656e6465642e\n        /* \"#utility.yul\":5797:5798   */\n      0x00\n        /* \"#utility.yul\":5789:5795   */\n      dup3\n        /* \"#utility.yul\":5785:5799   */\n      add\n        /* \"#utility.yul\":5778:5836   */\n      mstore\n        /* \"#utility.yul\":5661:5843   */\n      pop\n      jump\t// out\n        /* \"#utility.yul\":5849:6215   */\n    tag_156:\n        /* \"#utility.yul\":5991:5994   */\n      0x00\n        /* \"#utility.yul\":6012:6079   */\n      tag_256\n        /* \"#utility.yul\":6076:6078   */\n      0x20\n        /* \"#utility.yul\":6071:6074   */\n      dup4\n        /* \"#utility.yul\":6012:6079   */\n      tag_154\n      jump\t// in\n    tag_256:\n        /* \"#utility.yul\":6005:6079   */\n      swap2\n      pop\n        /* \"#utility.yul\":6088:6181   */\n      tag_257\n        /* \"#utility.yul\":6177:6180   */\n      dup3\n        /* \"#utility.yul\":6088:6181   */\n      tag_155\n      jump\t// in\n    tag_257:\n        /* \"#utility.yul\":6206:6208   */\n      0x20\n        /* \"#utility.yul\":6201:6204   */\n      dup3\n        /* \"#utility.yul\":6197:6209   */\n      add\n        /* \"#utility.yul\":6190:6209   */\n      swap1\n      pop\n        /* \"#utility.yul\":5849:6215   */\n      swap2\n      swap1\n      pop\n      jump\t// out\n        /* \"#utility.yul\":6221:6640   */\n    tag_56:\n        /* \"#utility.yul\":6387:6391   */\n      0x00\n        /* \"#utility.yul\":6425:6427   */\n      0x20\n        /* \"#utility.yul\":6414:6423   */\n      dup3\n        /* \"#utility.yul\":6410:6428   */\n      add\n        /* \"#utility.yul\":6402:6428   */\n      swap1\n      pop\n        /* \"#utility.yul\":6474:6483   */\n      dup2\n        /* \"#utility.yul\":6468:6472   */\n      dup2\n        /* \"#utility.yul\":6464:6484   */\n      sub\n        /* \"#utility.yul\":6460:6461   */\n      0x00\n        /* \"#utility.yul\":6449:6458   */\n      dup4\n        /* \"#utility.yul\":6445:6462   */\n      add\n        /* \"#utility.yul\":6438:6485   */\n      mstore\n        /* \"#utility.yul\":6502:6633   */\n      tag_259\n        /* \"#utility.yul\":6628:6632   */\n      dup2\n        /* \"#utility.yul\":6502:6633   */\n      tag_156\n      jump\t// in\n    tag_259:\n        /* \"#utility.yul\":6494:6633   */\n      swap1\n      pop\n        /* \"#utility.yul\":6221:6640   */\n      swap2\n      swap1\n      pop\n      jump\t// out\n        /* \"#utility.yul\":6646:6881   */\n    tag_157:\n        /* \"#utility.yul\":6786:6820   */\n      0x63616d706169676e20676f616c20697320726561636865642c20736f2063616e\n        /* \"#utility.yul\":6782:6783   */\n      0x00\n        /* \"#utility.yul\":6774:6780   */\n      dup3\n        /* \"#utility.yul\":6770:6784   */\n      add\n        /* \"#utility.yul\":6763:6821   */\n      mstore\n        /* \"#utility.yul\":6855:6873   */\n      0x6e6f7420626520726566756e6465642e00000000000000000000000000000000\n        /* \"#utility.yul\":6850:6852   */\n      0x20\n        /* \"#utility.yul\":6842:6848   */\n      dup3\n        /* \"#utility.yul\":6838:6853   */\n      add\n        /* \"#utility.yul\":6831:6874   */\n      mstore\n        /* \"#utility.yul\":6646:6881   */\n      pop\n      jump\t// out\n        /* \"#utility.yul\":6887:7253   */\n    tag_158:\n        /* \"#utility.yul\":7029:7032   */\n      0x00\n        /* \"#utility.yul\":7050:7117   */\n      tag_262\n        /* \"#utility.yul\":7114:7116   */\n      0x30\n        /* \"#utility.yul\":7109:7112   */\n      dup4\n        /* \"#utility.yul\":7050:7117   */\n      tag_154\n      jump\t// in\n    tag_262:\n        /* \"#utility.yul\":7043:7117   */\n      swap2\n      pop\n        /* \"#utility.yul\":7126:7219   */\n      tag_263\n        /* \"#utility.yul\":7215:7218   */\n      dup3\n        /* \"#utility.yul\":7126:7219   */\n      tag_157\n      jump\t// in\n    tag_263:\n        /* \"#utility.yul\":7244:7246   */\n      0x40\n        /* \"#utility.yul\":7239:7242   */\n      dup3\n        /* \"#utility.yul\":7235:7247   */\n      add\n        /* \"#utility.yul\":7228:7247   */\n      swap1\n      pop\n        /* \"#utility.yul\":6887:7253   */\n      swap2\n      swap1\n      pop\n      jump\t// out\n        /* \"#utility.yul\":7259:7678   */\n    tag_59:\n        /* \"#utility.yul\":7425:7429   */\n      0x00\n        /* \"#utility.yul\":7463:7465   */\n      0x20\n        /* \"#utility.yul\":7452:7461   */\n      dup3\n        /* \"#utility.yul\":7448:7466   */\n      add\n        /* \"#utility.yul\":7440:7466   */\n      swap1\n      pop\n        /* \"#utility.yul\":7512:7521   */\n      dup2\n        /* \"#utility.yul\":7506:7510   */\n      dup2\n        /* \"#utility.yul\":7502:7522   */\n      sub\n        /* \"#utility.yul\":7498:7499   */\n      0x00\n        /* \"#utility.yul\":7487:7496   */\n      dup4\n        /* \"#utility.yul\":7483:7500   */\n      add\n        /* \"#utility.yul\":7476:7523   */\n      mstore\n        /* \"#utility.yul\":7540:7671   */\n      tag_265\n        /* \"#utility.yul\":7666:7670   */\n      dup2\n        /* \"#utility.yul\":7540:7671   */\n      tag_158\n      jump\t// in\n    tag_265:\n        /* \"#utility.yul\":7532:7671   */\n      swap1\n      pop\n        /* \"#utility.yul\":7259:7678   */\n      swap2\n      swap1\n      pop\n      jump\t// out\n        /* \"#utility.yul\":7684:8016   */\n    tag_61:\n        /* \"#utility.yul\":7805:7809   */\n      0x00\n        /* \"#utility.yul\":7843:7845   */\n      0x40\n        /* \"#utility.yul\":7832:7841   */\n      dup3\n        /* \"#utility.yul\":7828:7846   */\n      add\n        /* \"#utility.yul\":7820:7846   */\n      swap1\n      pop\n        /* \"#utility.yul\":7856:7927   */\n      tag_267\n        /* \"#utility.yul\":7924:7925   */\n      0x00\n        /* \"#utility.yul\":7913:7922   */\n      dup4\n        /* \"#utility.yul\":7909:7926   */\n      add\n        /* \"#utility.yul\":7900:7906   */\n      dup6\n        /* \"#utility.yul\":7856:7927   */\n      tag_144\n      jump\t// in\n    tag_267:\n        /* \"#utility.yul\":7937:8009   */\n      tag_268\n        /* \"#utility.yul\":8005:8007   */\n      0x20\n        /* \"#utility.yul\":7994:8003   */\n      dup4\n        /* \"#utility.yul\":7990:8008   */\n      add\n        /* \"#utility.yul\":7981:7987   */\n      dup5\n        /* \"#utility.yul\":7937:8009   */\n      tag_136\n      jump\t// in\n    tag_268:\n        /* \"#utility.yul\":7684:8016   */\n      swap4\n      swap3\n      pop\n      pop\n      pop\n      jump\t// out\n        /* \"#utility.yul\":8022:8138   */\n    tag_159:\n        /* \"#utility.yul\":8092:8113   */\n      tag_270\n        /* \"#utility.yul\":8107:8112   */\n      dup2\n        /* \"#utility.yul\":8092:8113   */\n      tag_145\n      jump\t// in\n    tag_270:\n        /* \"#utility.yul\":8085:8090   */\n      dup2\n        /* \"#utility.yul\":8082:8114   */\n      eq\n        /* \"#utility.yul\":8072:8132   */\n      tag_271\n      jumpi\n        /* \"#utility.yul\":8128:8129   */\n      0x00\n        /* \"#utility.yul\":8125:8126   */\n      dup1\n        /* \"#utility.yul\":8118:8130   */\n      revert\n        /* \"#utility.yul\":8072:8132   */\n    tag_271:\n        /* \"#utility.yul\":8022:8138   */\n      pop\n      jump\t// out\n        /* \"#utility.yul\":8144:8281   */\n    tag_160:\n        /* \"#utility.yul\":8198:8203   */\n      0x00\n        /* \"#utility.yul\":8229:8235   */\n      dup2\n        /* \"#utility.yul\":8223:8236   */\n      mload\n        /* \"#utility.yul\":8214:8236   */\n      swap1\n      pop\n        /* \"#utility.yul\":8245:8275   */\n      tag_273\n        /* \"#utility.yul\":8269:8274   */\n      dup2\n        /* \"#utility.yul\":8245:8275   */\n      tag_159\n      jump\t// in\n    tag_273:\n        /* \"#utility.yul\":8144:8281   */\n      swap3\n      swap2\n      pop\n      pop\n      jump\t// out\n        /* \"#utility.yul\":8287:8632   */\n    tag_65:\n        /* \"#utility.yul\":8354:8360   */\n      0x00\n        /* \"#utility.yul\":8403:8405   */\n      0x20\n        /* \"#utility.yul\":8391:8400   */\n      dup3\n        /* \"#utility.yul\":8382:8389   */\n      dup5\n        /* \"#utility.yul\":8378:8401   */\n      sub\n        /* \"#utility.yul\":8374:8406   */\n      slt\n        /* \"#utility.yul\":8371:8490   */\n      iszero\n      tag_275\n      jumpi\n        /* \"#utility.yul\":8409:8488   */\n      tag_276\n      tag_138\n      jump\t// in\n    tag_276:\n        /* \"#utility.yul\":8371:8490   */\n    tag_275:\n        /* \"#utility.yul\":8529:8530   */\n      0x00\n        /* \"#utility.yul\":8554:8615   */\n      tag_277\n        /* \"#utility.yul\":8607:8614   */\n      dup5\n        /* \"#utility.yul\":8598:8604   */\n      dup3\n        /* \"#utility.yul\":8587:8596   */\n      dup6\n        /* \"#utility.yul\":8583:8605   */\n      add\n        /* \"#utility.yul\":8554:8615   */\n      tag_160\n      jump\t// in\n    tag_277:\n        /* \"#utility.yul\":8544:8615   */\n      swap2\n      pop\n        /* \"#utility.yul\":8500:8625   */\n      pop\n        /* \"#utility.yul\":8287:8632   */\n      swap3\n      swap2\n      pop\n      pop\n      jump\t// out\n        /* \"#utility.yul\":8638:8818   */\n    tag_161:\n        /* \"#utility.yul\":8686:8763   */\n      0x4e487b7100000000000000000000000000000000000000000000000000000000\n        /* \"#utility.yul\":8683:8684   */\n      0x00\n        /* \"#utility.yul\":8676:8764   */\n      mstore\n        /* \"#utility.yul\":8783:8787   */\n      0x11\n        /* \"#utility.yul\":8780:8781   */\n      0x04\n        /* \"#utility.yul\":8773:8788   */\n      mstore\n        /* \"#utility.yul\":8807:8811   */\n      0x24\n        /* \"#utility.yul\":8804:8805   */\n      0x00\n        /* \"#utility.yul\":8797:8812   */\n      revert\n        /* \"#utility.yul\":8824:9015   */\n    tag_67:\n        /* \"#utility.yul\":8864:8868   */\n      0x00\n        /* \"#utility.yul\":8884:8904   */\n      tag_280\n        /* \"#utility.yul\":8902:8903   */\n      dup3\n        /* \"#utility.yul\":8884:8904   */\n      tag_135\n      jump\t// in\n    tag_280:\n        /* \"#utility.yul\":8879:8904   */\n      swap2\n      pop\n        /* \"#utility.yul\":8918:8938   */\n      tag_281\n        /* \"#utility.yul\":8936:8937   */\n      dup4\n        /* \"#utility.yul\":8918:8938   */\n      tag_135\n      jump\t// in\n    tag_281:\n        /* \"#utility.yul\":8913:8938   */\n      swap3\n      pop\n        /* \"#utility.yul\":8957:8958   */\n      dup3\n        /* \"#utility.yul\":8954:8955   */\n      dup3\n        /* \"#utility.yul\":8951:8959   */\n      lt\n        /* \"#utility.yul\":8948:8982   */\n      iszero\n      tag_282\n      jumpi\n        /* \"#utility.yul\":8962:8980   */\n      tag_283\n      tag_161\n      jump\t// in\n    tag_283:\n        /* \"#utility.yul\":8948:8982   */\n    tag_282:\n        /* \"#utility.yul\":9007:9008   */\n      dup3\n        /* \"#utility.yul\":9004:9005   */\n      dup3\n        /* \"#utility.yul\":9000:9009   */\n      sub\n        /* \"#utility.yul\":8992:9009   */\n      swap1\n      pop\n        /* \"#utility.yul\":8824:9015   */\n      swap3\n      swap2\n      pop\n      pop\n      jump\t// out\n        /* \"#utility.yul\":9021:9353   */\n    tag_69:\n        /* \"#utility.yul\":9142:9146   */\n      0x00\n        /* \"#utility.yul\":9180:9182   */\n      0x40\n        /* \"#utility.yul\":9169:9178   */\n      dup3\n        /* \"#utility.yul\":9165:9183   */\n      add\n        /* \"#utility.yul\":9157:9183   */\n      swap1\n      pop\n        /* \"#utility.yul\":9193:9264   */\n      tag_285\n        /* \"#utility.yul\":9261:9262   */\n      0x00\n        /* \"#utility.yul\":9250:9259   */\n      dup4\n        /* \"#utility.yul\":9246:9263   */\n      add\n        /* \"#utility.yul\":9237:9243   */\n      dup6\n        /* \"#utility.yul\":9193:9264   */\n      tag_136\n      jump\t// in\n    tag_285:\n        /* \"#utility.yul\":9274:9346   */\n      tag_286\n        /* \"#utility.yul\":9342:9344   */\n      0x20\n        /* \"#utility.yul\":9331:9340   */\n      dup4\n        /* \"#utility.yul\":9327:9345   */\n      add\n        /* \"#utility.yul\":9318:9324   */\n      dup5\n        /* \"#utility.yul\":9274:9346   */\n      tag_136\n      jump\t// in\n    tag_286:\n        /* \"#utility.yul\":9021:9353   */\n      swap4\n      swap3\n      pop\n      pop\n      pop\n      jump\t// out\n        /* \"#utility.yul\":9359:9532   */\n    tag_162:\n        /* \"#utility.yul\":9499:9524   */\n      0x6f6e6c792063726561746f722063616e20636c61696d2e000000000000000000\n        /* \"#utility.yul\":9495:9496   */\n      0x00\n        /* \"#utility.yul\":9487:9493   */\n      dup3\n        /* \"#utility.yul\":9483:9497   */\n      add\n        /* \"#utility.yul\":9476:9525   */\n      mstore\n        /* \"#utility.yul\":9359:9532   */\n      pop\n      jump\t// out\n        /* \"#utility.yul\":9538:9904   */\n    tag_163:\n        /* \"#utility.yul\":9680:9683   */\n      0x00\n        /* \"#utility.yul\":9701:9768   */\n      tag_289\n        /* \"#utility.yul\":9765:9767   */\n      0x17\n        /* \"#utility.yul\":9760:9763   */\n      dup4\n        /* \"#utility.yul\":9701:9768   */\n      tag_154\n      jump\t// in\n    tag_289:\n        /* \"#utility.yul\":9694:9768   */\n      swap2\n      pop\n        /* \"#utility.yul\":9777:9870   */\n      tag_290\n        /* \"#utility.yul\":9866:9869   */\n      dup3\n        /* \"#utility.yul\":9777:9870   */\n      tag_162\n      jump\t// in\n    tag_290:\n        /* \"#utility.yul\":9895:9897   */\n      0x20\n        /* \"#utility.yul\":9890:9893   */\n      dup3\n        /* \"#utility.yul\":9886:9898   */\n      add\n        /* \"#utility.yul\":9879:9898   */\n      swap1\n      pop\n        /* \"#utility.yul\":9538:9904   */\n      swap2\n      swap1\n      pop\n      jump\t// out\n        /* \"#utility.yul\":9910:10329   */\n    tag_73:\n        /* \"#utility.yul\":10076:10080   */\n      0x00\n        /* \"#utility.yul\":10114:10116   */\n      0x20\n        /* \"#utility.yul\":10103:10112   */\n      dup3\n        /* \"#utility.yul\":10099:10117   */\n      add\n        /* \"#utility.yul\":10091:10117   */\n      swap1\n      pop\n        /* \"#utility.yul\":10163:10172   */\n      dup2\n        /* \"#utility.yul\":10157:10161   */\n      dup2\n        /* \"#utility.yul\":10153:10173   */\n      sub\n        /* \"#utility.yul\":10149:10150   */\n      0x00\n        /* \"#utility.yul\":10138:10147   */\n      dup4\n        /* \"#utility.yul\":10134:10151   */\n      add\n        /* \"#utility.yul\":10127:10174   */\n      mstore\n        /* \"#utility.yul\":10191:10322   */\n      tag_292\n        /* \"#utility.yul\":10317:10321   */\n      dup2\n        /* \"#utility.yul\":10191:10322   */\n      tag_163\n      jump\t// in\n    tag_292:\n        /* \"#utility.yul\":10183:10322   */\n      swap1\n      pop\n        /* \"#utility.yul\":9910:10329   */\n      swap2\n      swap1\n      pop\n      jump\t// out\n        /* \"#utility.yul\":10335:10504   */\n    tag_164:\n        /* \"#utility.yul\":10475:10496   */\n      0x676f616c206973206e6f74207265616368656400000000000000000000000000\n        /* \"#utility.yul\":10471:10472   */\n      0x00\n        /* \"#utility.yul\":10463:10469   */\n      dup3\n        /* \"#utility.yul\":10459:10473   */\n      add\n        /* \"#utility.yul\":10452:10497   */\n      mstore\n        /* \"#utility.yul\":10335:10504   */\n      pop\n      jump\t// out\n        /* \"#utility.yul\":10510:10876   */\n    tag_165:\n        /* \"#utility.yul\":10652:10655   */\n      0x00\n        /* \"#utility.yul\":10673:10740   */\n      tag_295\n        /* \"#utility.yul\":10737:10739   */\n      0x13\n        /* \"#utility.yul\":10732:10735   */\n      dup4\n        /* \"#utility.yul\":10673:10740   */\n      tag_154\n      jump\t// in\n    tag_295:\n        /* \"#utility.yul\":10666:10740   */\n      swap2\n      pop\n        /* \"#utility.yul\":10749:10842   */\n      tag_296\n        /* \"#utility.yul\":10838:10841   */\n      dup3\n        /* \"#utility.yul\":10749:10842   */\n      tag_164\n      jump\t// in\n    tag_296:\n        /* \"#utility.yul\":10867:10869   */\n      0x20\n        /* \"#utility.yul\":10862:10865   */\n      dup3\n        /* \"#utility.yul\":10858:10870   */\n      add\n        /* \"#utility.yul\":10851:10870   */\n      swap1\n      pop\n        /* \"#utility.yul\":10510:10876   */\n      swap2\n      swap1\n      pop\n      jump\t// out\n        /* \"#utility.yul\":10882:11301   */\n    tag_76:\n        /* \"#utility.yul\":11048:11052   */\n      0x00\n        /* \"#utility.yul\":11086:11088   */\n      0x20\n        /* \"#utility.yul\":11075:11084   */\n      dup3\n        /* \"#utility.yul\":11071:11089   */\n      add\n        /* \"#utility.yul\":11063:11089   */\n      swap1\n      pop\n        /* \"#utility.yul\":11135:11144   */\n      dup2\n        /* \"#utility.yul\":11129:11133   */\n      dup2\n        /* \"#utility.yul\":11125:11145   */\n      sub\n        /* \"#utility.yul\":11121:11122   */\n      0x00\n        /* \"#utility.yul\":11110:11119   */\n      dup4\n        /* \"#utility.yul\":11106:11123   */\n      add\n        /* \"#utility.yul\":11099:11146   */\n      mstore\n        /* \"#utility.yul\":11163:11294   */\n      tag_298\n        /* \"#utility.yul\":11289:11293   */\n      dup2\n        /* \"#utility.yul\":11163:11294   */\n      tag_165\n      jump\t// in\n    tag_298:\n        /* \"#utility.yul\":11155:11294   */\n      swap1\n      pop\n        /* \"#utility.yul\":10882:11301   */\n      swap2\n      swap1\n      pop\n      jump\t// out\n        /* \"#utility.yul\":11307:11488   */\n    tag_166:\n        /* \"#utility.yul\":11447:11480   */\n      0x63616e6e6f7420626520636c61696d6564206265666f726520656e6465642e00\n        /* \"#utility.yul\":11443:11444   */\n      0x00\n        /* \"#utility.yul\":11435:11441   */\n      dup3\n        /* \"#utility.yul\":11431:11445   */\n      add\n        /* \"#utility.yul\":11424:11481   */\n      mstore\n        /* \"#utility.yul\":11307:11488   */\n      pop\n      jump\t// out\n        /* \"#utility.yul\":11494:11860   */\n    tag_167:\n        /* \"#utility.yul\":11636:11639   */\n      0x00\n        /* \"#utility.yul\":11657:11724   */\n      tag_301\n        /* \"#utility.yul\":11721:11723   */\n      0x1f\n        /* \"#utility.yul\":11716:11719   */\n      dup4\n        /* \"#utility.yul\":11657:11724   */\n      tag_154\n      jump\t// in\n    tag_301:\n        /* \"#utility.yul\":11650:11724   */\n      swap2\n      pop\n        /* \"#utility.yul\":11733:11826   */\n      tag_302\n        /* \"#utility.yul\":11822:11825   */\n      dup3\n        /* \"#utility.yul\":11733:11826   */\n      tag_166\n      jump\t// in\n    tag_302:\n        /* \"#utility.yul\":11851:11853   */\n      0x20\n        /* \"#utility.yul\":11846:11849   */\n      dup3\n        /* \"#utility.yul\":11842:11854   */\n      add\n        /* \"#utility.yul\":11835:11854   */\n      swap1\n      pop\n        /* \"#utility.yul\":11494:11860   */\n      swap2\n      swap1\n      pop\n      jump\t// out\n        /* \"#utility.yul\":11866:12285   */\n    tag_79:\n        /* \"#utility.yul\":12032:12036   */\n      0x00\n        /* \"#utility.yul\":12070:12072   */\n      0x20\n        /* \"#utility.yul\":12059:12068   */\n      dup3\n        /* \"#utility.yul\":12055:12073   */\n      add\n        /* \"#utility.yul\":12047:12073   */\n      swap1\n      pop\n        /* \"#utility.yul\":12119:12128   */\n      dup2\n        /* \"#utility.yul\":12113:12117   */\n      dup2\n        /* \"#utility.yul\":12109:12129   */\n      sub\n        /* \"#utility.yul\":12105:12106   */\n      0x00\n        /* \"#utility.yul\":12094:12103   */\n      dup4\n        /* \"#utility.yul\":12090:12107   */\n      add\n        /* \"#utility.yul\":12083:12130   */\n      mstore\n        /* \"#utility.yul\":12147:12278   */\n      tag_304\n        /* \"#utility.yul\":12273:12277   */\n      dup2\n        /* \"#utility.yul\":12147:12278   */\n      tag_167\n      jump\t// in\n    tag_304:\n        /* \"#utility.yul\":12139:12278   */\n      swap1\n      pop\n        /* \"#utility.yul\":11866:12285   */\n      swap2\n      swap1\n      pop\n      jump\t// out\n        /* \"#utility.yul\":12291:12457   */\n    tag_168:\n        /* \"#utility.yul\":12431:12449   */\n      0x616c726561647920636c61696d65642e00000000000000000000000000000000\n        /* \"#utility.yul\":12427:12428   */\n      0x00\n        /* \"#utility.yul\":12419:12425   */\n      dup3\n        /* \"#utility.yul\":12415:12429   */\n      add\n        /* \"#utility.yul\":12408:12450   */\n      mstore\n        /* \"#utility.yul\":12291:12457   */\n      pop\n      jump\t// out\n        /* \"#utility.yul\":12463:12829   */\n    tag_169:\n        /* \"#utility.yul\":12605:12608   */\n      0x00\n        /* \"#utility.yul\":12626:12693   */\n      tag_307\n        /* \"#utility.yul\":12690:12692   */\n      0x10\n        /* \"#utility.yul\":12685:12688   */\n      dup4\n        /* \"#utility.yul\":12626:12693   */\n      tag_154\n      jump\t// in\n    tag_307:\n        /* \"#utility.yul\":12619:12693   */\n      swap2\n      pop\n        /* \"#utility.yul\":12702:12795   */\n      tag_308\n        /* \"#utility.yul\":12791:12794   */\n      dup3\n        /* \"#utility.yul\":12702:12795   */\n      tag_168\n      jump\t// in\n    tag_308:\n        /* \"#utility.yul\":12820:12822   */\n      0x20\n        /* \"#utility.yul\":12815:12818   */\n      dup3\n        /* \"#utility.yul\":12811:12823   */\n      add\n        /* \"#utility.yul\":12804:12823   */\n      swap1\n      pop\n        /* \"#utility.yul\":12463:12829   */\n      swap2\n      swap1\n      pop\n      jump\t// out\n        /* \"#utility.yul\":12835:13254   */\n    tag_82:\n        /* \"#utility.yul\":13001:13005   */\n      0x00\n        /* \"#utility.yul\":13039:13041   */\n      0x20\n        /* \"#utility.yul\":13028:13037   */\n      dup3\n        /* \"#utility.yul\":13024:13042   */\n      add\n        /* \"#utility.yul\":13016:13042   */\n      swap1\n      pop\n        /* \"#utility.yul\":13088:13097   */\n      dup2\n        /* \"#utility.yul\":13082:13086   */\n      dup2\n        /* \"#utility.yul\":13078:13098   */\n      sub\n        /* \"#utility.yul\":13074:13075   */\n      0x00\n        /* \"#utility.yul\":13063:13072   */\n      dup4\n        /* \"#utility.yul\":13059:13076   */\n      add\n        /* \"#utility.yul\":13052:13099   */\n      mstore\n        /* \"#utility.yul\":13116:13247   */\n      tag_310\n        /* \"#utility.yul\":13242:13246   */\n      dup2\n        /* \"#utility.yul\":13116:13247   */\n      tag_169\n      jump\t// in\n    tag_310:\n        /* \"#utility.yul\":13108:13247   */\n      swap1\n      pop\n        /* \"#utility.yul\":12835:13254   */\n      swap2\n      swap1\n      pop\n      jump\t// out\n        /* \"#utility.yul\":13260:13434   */\n    tag_170:\n        /* \"#utility.yul\":13400:13426   */\n      0x6f6e6c792063726561746f722063616e2063616e63656c2e0000000000000000\n        /* \"#utility.yul\":13396:13397   */\n      0x00\n        /* \"#utility.yul\":13388:13394   */\n      dup3\n        /* \"#utility.yul\":13384:13398   */\n      add\n        /* \"#utility.yul\":13377:13427   */\n      mstore\n        /* \"#utility.yul\":13260:13434   */\n      pop\n      jump\t// out\n        /* \"#utility.yul\":13440:13806   */\n    tag_171:\n        /* \"#utility.yul\":13582:13585   */\n      0x00\n        /* \"#utility.yul\":13603:13670   */\n      tag_313\n        /* \"#utility.yul\":13667:13669   */\n      0x18\n        /* \"#utility.yul\":13662:13665   */\n      dup4\n        /* \"#utility.yul\":13603:13670   */\n      tag_154\n      jump\t// in\n    tag_313:\n        /* \"#utility.yul\":13596:13670   */\n      swap2\n      pop\n        /* \"#utility.yul\":13679:13772   */\n      tag_314\n        /* \"#utility.yul\":13768:13771   */\n      dup3\n        /* \"#utility.yul\":13679:13772   */\n      tag_170\n      jump\t// in\n    tag_314:\n        /* \"#utility.yul\":13797:13799   */\n      0x20\n        /* \"#utility.yul\":13792:13795   */\n      dup3\n        /* \"#utility.yul\":13788:13800   */\n      add\n        /* \"#utility.yul\":13781:13800   */\n      swap1\n      pop\n        /* \"#utility.yul\":13440:13806   */\n      swap2\n      swap1\n      pop\n      jump\t// out\n        /* \"#utility.yul\":13812:14231   */\n    tag_90:\n        /* \"#utility.yul\":13978:13982   */\n      0x00\n        /* \"#utility.yul\":14016:14018   */\n      0x20\n        /* \"#utility.yul\":14005:14014   */\n      dup3\n        /* \"#utility.yul\":14001:14019   */\n      add\n        /* \"#utility.yul\":13993:14019   */\n      swap1\n      pop\n        /* \"#utility.yul\":14065:14074   */\n      dup2\n        /* \"#utility.yul\":14059:14063   */\n      dup2\n        /* \"#utility.yul\":14055:14075   */\n      sub\n        /* \"#utility.yul\":14051:14052   */\n      0x00\n        /* \"#utility.yul\":14040:14049   */\n      dup4\n        /* \"#utility.yul\":14036:14053   */\n      add\n        /* \"#utility.yul\":14029:14076   */\n      mstore\n        /* \"#utility.yul\":14093:14224   */\n      tag_316\n        /* \"#utility.yul\":14219:14223   */\n      dup2\n        /* \"#utility.yul\":14093:14224   */\n      tag_171\n      jump\t// in\n    tag_316:\n        /* \"#utility.yul\":14085:14224   */\n      swap1\n      pop\n        /* \"#utility.yul\":13812:14231   */\n      swap2\n      swap1\n      pop\n      jump\t// out\n        /* \"#utility.yul\":14237:14457   */\n    tag_172:\n        /* \"#utility.yul\":14377:14411   */\n      0x63616e6e6f742062652063616e63656c65642061667465722073746172746564\n        /* \"#utility.yul\":14373:14374   */\n      0x00\n        /* \"#utility.yul\":14365:14371   */\n      dup3\n        /* \"#utility.yul\":14361:14375   */\n      add\n        /* \"#utility.yul\":14354:14412   */\n      mstore\n        /* \"#utility.yul\":14446:14449   */\n      0x2e00000000000000000000000000000000000000000000000000000000000000\n        /* \"#utility.yul\":14441:14443   */\n      0x20\n        /* \"#utility.yul\":14433:14439   */\n      dup3\n        /* \"#utility.yul\":14429:14444   */\n      add\n        /* \"#utility.yul\":14422:14450   */\n      mstore\n        /* \"#utility.yul\":14237:14457   */\n      pop\n      jump\t// out\n        /* \"#utility.yul\":14463:14829   */\n    tag_173:\n        /* \"#utility.yul\":14605:14608   */\n      0x00\n        /* \"#utility.yul\":14626:14693   */\n      tag_319\n        /* \"#utility.yul\":14690:14692   */\n      0x21\n        /* \"#utility.yul\":14685:14688   */\n      dup4\n        /* \"#utility.yul\":14626:14693   */\n      tag_154\n      jump\t// in\n    tag_319:\n        /* \"#utility.yul\":14619:14693   */\n      swap2\n      pop\n        /* \"#utility.yul\":14702:14795   */\n      tag_320\n        /* \"#utility.yul\":14791:14794   */\n      dup3\n        /* \"#utility.yul\":14702:14795   */\n      tag_172\n      jump\t// in\n    tag_320:\n        /* \"#utility.yul\":14820:14822   */\n      0x40\n        /* \"#utility.yul\":14815:14818   */\n      dup3\n        /* \"#utility.yul\":14811:14823   */\n      add\n        /* \"#utility.yul\":14804:14823   */\n      swap1\n      pop\n        /* \"#utility.yul\":14463:14829   */\n      swap2\n      swap1\n      pop\n      jump\t// out\n        /* \"#utility.yul\":14835:15254   */\n    tag_93:\n        /* \"#utility.yul\":15001:15005   */\n      0x00\n        /* \"#utility.yul\":15039:15041   */\n      0x20\n        /* \"#utility.yul\":15028:15037   */\n      dup3\n        /* \"#utility.yul\":15024:15042   */\n      add\n        /* \"#utility.yul\":15016:15042   */\n      swap1\n      pop\n        /* \"#utility.yul\":15088:15097   */\n      dup2\n        /* \"#utility.yul\":15082:15086   */\n      dup2\n        /* \"#utility.yul\":15078:15098   */\n      sub\n        /* \"#utility.yul\":15074:15075   */\n      0x00\n        /* \"#utility.yul\":15063:15072   */\n      dup4\n        /* \"#utility.yul\":15059:15076   */\n      add\n        /* \"#utility.yul\":15052:15099   */\n      mstore\n        /* \"#utility.yul\":15116:15247   */\n      tag_322\n        /* \"#utility.yul\":15242:15246   */\n      dup2\n        /* \"#utility.yul\":15116:15247   */\n      tag_173\n      jump\t// in\n    tag_322:\n        /* \"#utility.yul\":15108:15247   */\n      swap1\n      pop\n        /* \"#utility.yul\":14835:15254   */\n      swap2\n      swap1\n      pop\n      jump\t// out\n        /* \"#utility.yul\":15260:15442   */\n    tag_174:\n        /* \"#utility.yul\":15400:15434   */\n      0x63616e6e6f7420626520756e706c656467656420616674657220656e6465642e\n        /* \"#utility.yul\":15396:15397   */\n      0x00\n        /* \"#utility.yul\":15388:15394   */\n      dup3\n        /* \"#utility.yul\":15384:15398   */\n      add\n        /* \"#utility.yul\":15377:15435   */\n      mstore\n        /* \"#utility.yul\":15260:15442   */\n      pop\n      jump\t// out\n        /* \"#utility.yul\":15448:15814   */\n    tag_175:\n        /* \"#utility.yul\":15590:15593   */\n      0x00\n        /* \"#utility.yul\":15611:15678   */\n      tag_325\n        /* \"#utility.yul\":15675:15677   */\n      0x20\n        /* \"#utility.yul\":15670:15673   */\n      dup4\n        /* \"#utility.yul\":15611:15678   */\n      tag_154\n      jump\t// in\n    tag_325:\n        /* \"#utility.yul\":15604:15678   */\n      swap2\n      pop\n        /* \"#utility.yul\":15687:15780   */\n      tag_326\n        /* \"#utility.yul\":15776:15779   */\n      dup3\n        /* \"#utility.yul\":15687:15780   */\n      tag_174\n      jump\t// in\n    tag_326:\n        /* \"#utility.yul\":15805:15807   */\n      0x20\n        /* \"#utility.yul\":15800:15803   */\n      dup3\n        /* \"#utility.yul\":15796:15808   */\n      add\n        /* \"#utility.yul\":15789:15808   */\n      swap1\n      pop\n        /* \"#utility.yul\":15448:15814   */\n      swap2\n      swap1\n      pop\n      jump\t// out\n        /* \"#utility.yul\":15820:16239   */\n    tag_98:\n        /* \"#utility.yul\":15986:15990   */\n      0x00\n        /* \"#utility.yul\":16024:16026   */\n      0x20\n        /* \"#utility.yul\":16013:16022   */\n      dup3\n        /* \"#utility.yul\":16009:16027   */\n      add\n        /* \"#utility.yul\":16001:16027   */\n      swap1\n      pop\n        /* \"#utility.yul\":16073:16082   */\n      dup2\n        /* \"#utility.yul\":16067:16071   */\n      dup2\n        /* \"#utility.yul\":16063:16083   */\n      sub\n        /* \"#utility.yul\":16059:16060   */\n      0x00\n        /* \"#utility.yul\":16048:16057   */\n      dup4\n        /* \"#utility.yul\":16044:16061   */\n      add\n        /* \"#utility.yul\":16037:16084   */\n      mstore\n        /* \"#utility.yul\":16101:16232   */\n      tag_328\n        /* \"#utility.yul\":16227:16231   */\n      dup2\n        /* \"#utility.yul\":16101:16232   */\n      tag_175\n      jump\t// in\n    tag_328:\n        /* \"#utility.yul\":16093:16232   */\n      swap1\n      pop\n        /* \"#utility.yul\":15820:16239   */\n      swap2\n      swap1\n      pop\n      jump\t// out\n        /* \"#utility.yul\":16245:16474   */\n    tag_176:\n        /* \"#utility.yul\":16385:16419   */\n      0x796f752063616e6e6f7420756e706c65646765206d6f7265207468616e20796f\n        /* \"#utility.yul\":16381:16382   */\n      0x00\n        /* \"#utility.yul\":16373:16379   */\n      dup3\n        /* \"#utility.yul\":16369:16383   */\n      add\n        /* \"#utility.yul\":16362:16420   */\n      mstore\n        /* \"#utility.yul\":16454:16466   */\n      0x7520706c65646765642e00000000000000000000000000000000000000000000\n        /* \"#utility.yul\":16449:16451   */\n      0x20\n        /* \"#utility.yul\":16441:16447   */\n      dup3\n        /* \"#utility.yul\":16437:16452   */\n      add\n        /* \"#utility.yul\":16430:16467   */\n      mstore\n        /* \"#utility.yul\":16245:16474   */\n      pop\n      jump\t// out\n        /* \"#utility.yul\":16480:16846   */\n    tag_177:\n        /* \"#utility.yul\":16622:16625   */\n      0x00\n        /* \"#utility.yul\":16643:16710   */\n      tag_331\n        /* \"#utility.yul\":16707:16709   */\n      0x2a\n        /* \"#utility.yul\":16702:16705   */\n      dup4\n        /* \"#utility.yul\":16643:16710   */\n      tag_154\n      jump\t// in\n    tag_331:\n        /* \"#utility.yul\":16636:16710   */\n      swap2\n      pop\n        /* \"#utility.yul\":16719:16812   */\n      tag_332\n        /* \"#utility.yul\":16808:16811   */\n      dup3\n        /* \"#utility.yul\":16719:16812   */\n      tag_176\n      jump\t// in\n    tag_332:\n        /* \"#utility.yul\":16837:16839   */\n      0x40\n        /* \"#utility.yul\":16832:16835   */\n      dup3\n        /* \"#utility.yul\":16828:16840   */\n      add\n        /* \"#utility.yul\":16821:16840   */\n      swap1\n      pop\n        /* \"#utility.yul\":16480:16846   */\n      swap2\n      swap1\n      pop\n      jump\t// out\n        /* \"#utility.yul\":16852:17271   */\n    tag_101:\n        /* \"#utility.yul\":17018:17022   */\n      0x00\n        /* \"#utility.yul\":17056:17058   */\n      0x20\n        /* \"#utility.yul\":17045:17054   */\n      dup3\n        /* \"#utility.yul\":17041:17059   */\n      add\n        /* \"#utility.yul\":17033:17059   */\n      swap1\n      pop\n        /* \"#utility.yul\":17105:17114   */\n      dup2\n        /* \"#utility.yul\":17099:17103   */\n      dup2\n        /* \"#utility.yul\":17095:17115   */\n      sub\n        /* \"#utility.yul\":17091:17092   */\n      0x00\n        /* \"#utility.yul\":17080:17089   */\n      dup4\n        /* \"#utility.yul\":17076:17093   */\n      add\n        /* \"#utility.yul\":17069:17116   */\n      mstore\n        /* \"#utility.yul\":17133:17264   */\n      tag_334\n        /* \"#utility.yul\":17259:17263   */\n      dup2\n        /* \"#utility.yul\":17133:17264   */\n      tag_177\n      jump\t// in\n    tag_334:\n        /* \"#utility.yul\":17125:17264   */\n      swap1\n      pop\n        /* \"#utility.yul\":16852:17271   */\n      swap2\n      swap1\n      pop\n      jump\t// out\n        /* \"#utility.yul\":17277:17456   */\n    tag_178:\n        /* \"#utility.yul\":17417:17448   */\n      0x53746172742054696d65206d75737420626520696e206675747572652e000000\n        /* \"#utility.yul\":17413:17414   */\n      0x00\n        /* \"#utility.yul\":17405:17411   */\n      dup3\n        /* \"#utility.yul\":17401:17415   */\n      add\n        /* \"#utility.yul\":17394:17449   */\n      mstore\n        /* \"#utility.yul\":17277:17456   */\n      pop\n      jump\t// out\n        /* \"#utility.yul\":17462:17828   */\n    tag_179:\n        /* \"#utility.yul\":17604:17607   */\n      0x00\n        /* \"#utility.yul\":17625:17692   */\n      tag_337\n        /* \"#utility.yul\":17689:17691   */\n      0x1d\n        /* \"#utility.yul\":17684:17687   */\n      dup4\n        /* \"#utility.yul\":17625:17692   */\n      tag_154\n      jump\t// in\n    tag_337:\n        /* \"#utility.yul\":17618:17692   */\n      swap2\n      pop\n        /* \"#utility.yul\":17701:17794   */\n      tag_338\n        /* \"#utility.yul\":17790:17793   */\n      dup3\n        /* \"#utility.yul\":17701:17794   */\n      tag_178\n      jump\t// in\n    tag_338:\n        /* \"#utility.yul\":17819:17821   */\n      0x20\n        /* \"#utility.yul\":17814:17817   */\n      dup3\n        /* \"#utility.yul\":17810:17822   */\n      add\n        /* \"#utility.yul\":17803:17822   */\n      swap1\n      pop\n        /* \"#utility.yul\":17462:17828   */\n      swap2\n      swap1\n      pop\n      jump\t// out\n        /* \"#utility.yul\":17834:18253   */\n    tag_111:\n        /* \"#utility.yul\":18000:18004   */\n      0x00\n        /* \"#utility.yul\":18038:18040   */\n      0x20\n        /* \"#utility.yul\":18027:18036   */\n      dup3\n        /* \"#utility.yul\":18023:18041   */\n      add\n        /* \"#utility.yul\":18015:18041   */\n      swap1\n      pop\n        /* \"#utility.yul\":18087:18096   */\n      dup2\n        /* \"#utility.yul\":18081:18085   */\n      dup2\n        /* \"#utility.yul\":18077:18097   */\n      sub\n        /* \"#utility.yul\":18073:18074   */\n      0x00\n        /* \"#utility.yul\":18062:18071   */\n      dup4\n        /* \"#utility.yul\":18058:18075   */\n      add\n        /* \"#utility.yul\":18051:18098   */\n      mstore\n        /* \"#utility.yul\":18115:18246   */\n      tag_340\n        /* \"#utility.yul\":18241:18245   */\n      dup2\n        /* \"#utility.yul\":18115:18246   */\n      tag_179\n      jump\t// in\n    tag_340:\n        /* \"#utility.yul\":18107:18246   */\n      swap1\n      pop\n        /* \"#utility.yul\":17834:18253   */\n      swap2\n      swap1\n      pop\n      jump\t// out\n        /* \"#utility.yul\":18259:18480   */\n    tag_180:\n        /* \"#utility.yul\":18399:18433   */\n      0x456e642074696d65206d7573742062652061667465722073746172742074696d\n        /* \"#utility.yul\":18395:18396   */\n      0x00\n        /* \"#utility.yul\":18387:18393   */\n      dup3\n        /* \"#utility.yul\":18383:18397   */\n      add\n        /* \"#utility.yul\":18376:18434   */\n      mstore\n        /* \"#utility.yul\":18468:18472   */\n      0x652e000000000000000000000000000000000000000000000000000000000000\n        /* \"#utility.yul\":18463:18465   */\n      0x20\n        /* \"#utility.yul\":18455:18461   */\n      dup3\n        /* \"#utility.yul\":18451:18466   */\n      add\n        /* \"#utility.yul\":18444:18473   */\n      mstore\n        /* \"#utility.yul\":18259:18480   */\n      pop\n      jump\t// out\n        /* \"#utility.yul\":18486:18852   */\n    tag_181:\n        /* \"#utility.yul\":18628:18631   */\n      0x00\n        /* \"#utility.yul\":18649:18716   */\n      tag_343\n        /* \"#utility.yul\":18713:18715   */\n      0x22\n        /* \"#utility.yul\":18708:18711   */\n      dup4\n        /* \"#utility.yul\":18649:18716   */\n      tag_154\n      jump\t// in\n    tag_343:\n        /* \"#utility.yul\":18642:18716   */\n      swap2\n      pop\n        /* \"#utility.yul\":18725:18818   */\n      tag_344\n        /* \"#utility.yul\":18814:18817   */\n      dup3\n        /* \"#utility.yul\":18725:18818   */\n      tag_180\n      jump\t// in\n    tag_344:\n        /* \"#utility.yul\":18843:18845   */\n      0x40\n        /* \"#utility.yul\":18838:18841   */\n      dup3\n        /* \"#utility.yul\":18834:18846   */\n      add\n        /* \"#utility.yul\":18827:18846   */\n      swap1\n      pop\n        /* \"#utility.yul\":18486:18852   */\n      swap2\n      swap1\n      pop\n      jump\t// out\n        /* \"#utility.yul\":18858:19277   */\n    tag_114:\n        /* \"#utility.yul\":19024:19028   */\n      0x00\n        /* \"#utility.yul\":19062:19064   */\n      0x20\n        /* \"#utility.yul\":19051:19060   */\n      dup3\n        /* \"#utility.yul\":19047:19065   */\n      add\n        /* \"#utility.yul\":19039:19065   */\n      swap1\n      pop\n        /* \"#utility.yul\":19111:19120   */\n      dup2\n        /* \"#utility.yul\":19105:19109   */\n      dup2\n        /* \"#utility.yul\":19101:19121   */\n      sub\n        /* \"#utility.yul\":19097:19098   */\n      0x00\n        /* \"#utility.yul\":19086:19095   */\n      dup4\n        /* \"#utility.yul\":19082:19099   */\n      add\n        /* \"#utility.yul\":19075:19122   */\n      mstore\n        /* \"#utility.yul\":19139:19270   */\n      tag_346\n        /* \"#utility.yul\":19265:19269   */\n      dup2\n        /* \"#utility.yul\":19139:19270   */\n      tag_181\n      jump\t// in\n    tag_346:\n        /* \"#utility.yul\":19131:19270   */\n      swap1\n      pop\n        /* \"#utility.yul\":18858:19277   */\n      swap2\n      swap1\n      pop\n      jump\t// out\n        /* \"#utility.yul\":19283:19516   */\n    tag_116:\n        /* \"#utility.yul\":19322:19325   */\n      0x00\n        /* \"#utility.yul\":19345:19369   */\n      tag_348\n        /* \"#utility.yul\":19363:19368   */\n      dup3\n        /* \"#utility.yul\":19345:19369   */\n      tag_135\n      jump\t// in\n    tag_348:\n        /* \"#utility.yul\":19336:19369   */\n      swap2\n      pop\n        /* \"#utility.yul\":19391:19457   */\n      0xffffffffffffffffffffffffffffffffffffffffffffffffffffffffffffffff\n        /* \"#utility.yul\":19384:19389   */\n      dup3\n        /* \"#utility.yul\":19381:19458   */\n      sub\n        /* \"#utility.yul\":19378:19481   */\n      tag_349\n      jumpi\n        /* \"#utility.yul\":19461:19479   */\n      tag_350\n      tag_161\n      jump\t// in\n    tag_350:\n        /* \"#utility.yul\":19378:19481   */\n    tag_349:\n        /* \"#utility.yul\":19508:19509   */\n      0x01\n        /* \"#utility.yul\":19501:19506   */\n      dup3\n        /* \"#utility.yul\":19497:19510   */\n      add\n        /* \"#utility.yul\":19490:19510   */\n      swap1\n      pop\n        /* \"#utility.yul\":19283:19516   */\n      swap2\n      swap1\n      pop\n      jump\t// out\n        /* \"#utility.yul\":19522:20075   */\n    tag_118:\n        /* \"#utility.yul\":19699:19703   */\n      0x00\n        /* \"#utility.yul\":19737:19740   */\n      0x80\n        /* \"#utility.yul\":19726:19735   */\n      dup3\n        /* \"#utility.yul\":19722:19741   */\n      add\n        /* \"#utility.yul\":19714:19741   */\n      swap1\n      pop\n        /* \"#utility.yul\":19751:19822   */\n      tag_352\n        /* \"#utility.yul\":19819:19820   */\n      0x00\n        /* \"#utility.yul\":19808:19817   */\n      dup4\n        /* \"#utility.yul\":19804:19821   */\n      add\n        /* \"#utility.yul\":19795:19801   */\n      dup8\n        /* \"#utility.yul\":19751:19822   */\n      tag_136\n      jump\t// in\n    tag_352:\n        /* \"#utility.yul\":19832:19904   */\n      tag_353\n        /* \"#utility.yul\":19900:19902   */\n      0x20\n        /* \"#utility.yul\":19889:19898   */\n      dup4\n        /* \"#utility.yul\":19885:19903   */\n      add\n        /* \"#utility.yul\":19876:19882   */\n      dup7\n        /* \"#utility.yul\":19832:19904   */\n      tag_136\n      jump\t// in\n    tag_353:\n        /* \"#utility.yul\":19914:19986   */\n      tag_354\n        /* \"#utility.yul\":19982:19984   */\n      0x40\n        /* \"#utility.yul\":19971:19980   */\n      dup4\n        /* \"#utility.yul\":19967:19985   */\n      add\n        /* \"#utility.yul\":19958:19964   */\n      dup6\n        /* \"#utility.yul\":19914:19986   */\n      tag_136\n      jump\t// in\n    tag_354:\n        /* \"#utility.yul\":19996:20068   */\n      tag_355\n        /* \"#utility.yul\":20064:20066   */\n      0x60\n        /* \"#utility.yul\":20053:20062   */\n      dup4\n        /* \"#utility.yul\":20049:20067   */\n      add\n        /* \"#utility.yul\":20040:20046   */\n      dup5\n        /* \"#utility.yul\":19996:20068   */\n      tag_136\n      jump\t// in\n    tag_355:\n        /* \"#utility.yul\":19522:20075   */\n      swap6\n      swap5\n      pop\n      pop\n      pop\n      pop\n      pop\n      jump\t// out\n        /* \"#utility.yul\":20081:20301   */\n    tag_182:\n        /* \"#utility.yul\":20221:20255   */\n      0x63616e6e6f7420626520706c6564676564206265666f72652073746172746564\n        /* \"#utility.yul\":20217:20218   */\n      0x00\n        /* \"#utility.yul\":20209:20215   */\n      dup3\n        /* \"#utility.yul\":20205:20219   */\n      add\n        /* \"#utility.yul\":20198:20256   */\n      mstore\n        /* \"#utility.yul\":20290:20293   */\n      0x2e00000000000000000000000000000000000000000000000000000000000000\n        /* \"#utility.yul\":20285:20287   */\n      0x20\n        /* \"#utility.yul\":20277:20283   */\n      dup3\n        /* \"#utility.yul\":20273:20288   */\n      add\n        /* \"#utility.yul\":20266:20294   */\n      mstore\n        /* \"#utility.yul\":20081:20301   */\n      pop\n      jump\t// out\n        /* \"#utility.yul\":20307:20673   */\n    tag_183:\n        /* \"#utility.yul\":20449:20452   */\n      0x00\n        /* \"#utility.yul\":20470:20537   */\n      tag_358\n        /* \"#utility.yul\":20534:20536   */\n      0x21\n        /* \"#utility.yul\":20529:20532   */\n      dup4\n        /* \"#utility.yul\":20470:20537   */\n      tag_154\n      jump\t// in\n    tag_358:\n        /* \"#utility.yul\":20463:20537   */\n      swap2\n      pop\n        /* \"#utility.yul\":20546:20639   */\n      tag_359\n        /* \"#utility.yul\":20635:20638   */\n      dup3\n        /* \"#utility.yul\":20546:20639   */\n      tag_182\n      jump\t// in\n    tag_359:\n        /* \"#utility.yul\":20664:20666   */\n      0x40\n        /* \"#utility.yul\":20659:20662   */\n      dup3\n        /* \"#utility.yul\":20655:20667   */\n      add\n        /* \"#utility.yul\":20648:20667   */\n      swap1\n      pop\n        /* \"#utility.yul\":20307:20673   */\n      swap2\n      swap1\n      pop\n      jump\t// out\n        /* \"#utility.yul\":20679:21098   */\n    tag_122:\n        /* \"#utility.yul\":20845:20849   */\n      0x00\n        /* \"#utility.yul\":20883:20885   */\n      0x20\n        /* \"#utility.yul\":20872:20881   */\n      dup3\n        /* \"#utility.yul\":20868:20886   */\n      add\n        /* \"#utility.yul\":20860:20886   */\n      swap1\n      pop\n        /* \"#utility.yul\":20932:20941   */\n      dup2\n        /* \"#utility.yul\":20926:20930   */\n      dup2\n        /* \"#utility.yul\":20922:20942   */\n      sub\n        /* \"#utility.yul\":20918:20919   */\n      0x00\n        /* \"#utility.yul\":20907:20916   */\n      dup4\n        /* \"#utility.yul\":20903:20920   */\n      add\n        /* \"#utility.yul\":20896:20943   */\n      mstore\n        /* \"#utility.yul\":20960:21091   */\n      tag_361\n        /* \"#utility.yul\":21086:21090   */\n      dup2\n        /* \"#utility.yul\":20960:21091   */\n      tag_183\n      jump\t// in\n    tag_361:\n        /* \"#utility.yul\":20952:21091   */\n      swap1\n      pop\n        /* \"#utility.yul\":20679:21098   */\n      swap2\n      swap1\n      pop\n      jump\t// out\n        /* \"#utility.yul\":21104:21284   */\n    tag_184:\n        /* \"#utility.yul\":21244:21276   */\n      0x63616e6e6f7420626520706c656467656420616674657220656e6465642e0000\n        /* \"#utility.yul\":21240:21241   */\n      0x00\n        /* \"#utility.yul\":21232:21238   */\n      dup3\n        /* \"#utility.yul\":21228:21242   */\n      add\n        /* \"#utility.yul\":21221:21277   */\n      mstore\n        /* \"#utility.yul\":21104:21284   */\n      pop\n      jump\t// out\n        /* \"#utility.yul\":21290:21656   */\n    tag_185:\n        /* \"#utility.yul\":21432:21435   */\n      0x00\n        /* \"#utility.yul\":21453:21520   */\n      tag_364\n        /* \"#utility.yul\":21517:21519   */\n      0x1e\n        /* \"#utility.yul\":21512:21515   */\n      dup4\n        /* \"#utility.yul\":21453:21520   */\n      tag_154\n      jump\t// in\n    tag_364:\n        /* \"#utility.yul\":21446:21520   */\n      swap2\n      pop\n        /* \"#utility.yul\":21529:21622   */\n      tag_365\n        /* \"#utility.yul\":21618:21621   */\n      dup3\n        /* \"#utility.yul\":21529:21622   */\n      tag_184\n      jump\t// in\n    tag_365:\n        /* \"#utility.yul\":21647:21649   */\n      0x20\n        /* \"#utility.yul\":21642:21645   */\n      dup3\n        /* \"#utility.yul\":21638:21650   */\n      add\n        /* \"#utility.yul\":21631:21650   */\n      swap1\n      pop\n        /* \"#utility.yul\":21290:21656   */\n      swap2\n      swap1\n      pop\n      jump\t// out\n        /* \"#utility.yul\":21662:22081   */\n    tag_125:\n        /* \"#utility.yul\":21828:21832   */\n      0x00\n        /* \"#utility.yul\":21866:21868   */\n      0x20\n        /* \"#utility.yul\":21855:21864   */\n      dup3\n        /* \"#utility.yul\":21851:21869   */\n      add\n        /* \"#utility.yul\":21843:21869   */\n      swap1\n      pop\n        /* \"#utility.yul\":21915:21924   */\n      dup2\n        /* \"#utility.yul\":21909:21913   */\n      dup2\n        /* \"#utility.yul\":21905:21925   */\n      sub\n        /* \"#utility.yul\":21901:21902   */\n      0x00\n        /* \"#utility.yul\":21890:21899   */\n      dup4\n        /* \"#utility.yul\":21886:21903   */\n      add\n        /* \"#utility.yul\":21879:21926   */\n      mstore\n        /* \"#utility.yul\":21943:22074   */\n      tag_367\n        /* \"#utility.yul\":22069:22073   */\n      dup2\n        /* \"#utility.yul\":21943:22074   */\n      tag_185\n      jump\t// in\n    tag_367:\n        /* \"#utility.yul\":21935:22074   */\n      swap1\n      pop\n        /* \"#utility.yul\":21662:22081   */\n      swap2\n      swap1\n      pop\n      jump\t// out\n        /* \"#utility.yul\":22087:22529   */\n    tag_127:\n        /* \"#utility.yul\":22236:22240   */\n      0x00\n        /* \"#utility.yul\":22274:22276   */\n      0x60\n        /* \"#utility.yul\":22263:22272   */\n      dup3\n        /* \"#utility.yul\":22259:22277   */\n      add\n        /* \"#utility.yul\":22251:22277   */\n      swap1\n      pop\n        /* \"#utility.yul\":22287:22358   */\n      tag_369\n        /* \"#utility.yul\":22355:22356   */\n      0x00\n        /* \"#utility.yul\":22344:22353   */\n      dup4\n        /* \"#utility.yul\":22340:22357   */\n      add\n        /* \"#utility.yul\":22331:22337   */\n      dup7\n        /* \"#utility.yul\":22287:22358   */\n      tag_144\n      jump\t// in\n    tag_369:\n        /* \"#utility.yul\":22368:22440   */\n      tag_370\n        /* \"#utility.yul\":22436:22438   */\n      0x20\n        /* \"#utility.yul\":22425:22434   */\n      dup4\n        /* \"#utility.yul\":22421:22439   */\n      add\n        /* \"#utility.yul\":22412:22418   */\n      dup6\n        /* \"#utility.yul\":22368:22440   */\n      tag_144\n      jump\t// in\n    tag_370:\n        /* \"#utility.yul\":22450:22522   */\n      tag_371\n        /* \"#utility.yul\":22518:22520   */\n      0x40\n        /* \"#utility.yul\":22507:22516   */\n      dup4\n        /* \"#utility.yul\":22503:22521   */\n      add\n        /* \"#utility.yul\":22494:22500   */\n      dup5\n        /* \"#utility.yul\":22450:22522   */\n      tag_136\n      jump\t// in\n    tag_371:\n        /* \"#utility.yul\":22087:22529   */\n      swap5\n      swap4\n      pop\n      pop\n      pop\n      pop\n      jump\t// out\n        /* \"#utility.yul\":22535:22840   */\n    tag_132:\n        /* \"#utility.yul\":22575:22578   */\n      0x00\n        /* \"#utility.yul\":22594:22614   */\n      tag_373\n        /* \"#utility.yul\":22612:22613   */\n      dup3\n        /* \"#utility.yul\":22594:22614   */\n      tag_135\n      jump\t// in\n    tag_373:\n        /* \"#utility.yul\":22589:22614   */\n      swap2\n      pop\n        /* \"#utility.yul\":22628:22648   */\n      tag_374\n        /* \"#utility.yul\":22646:22647   */\n      dup4\n        /* \"#utility.yul\":22628:22648   */\n      tag_135\n      jump\t// in\n    tag_374:\n        /* \"#utility.yul\":22623:22648   */\n      swap3\n      pop\n        /* \"#utility.yul\":22782:22783   */\n      dup3\n        /* \"#utility.yul\":22714:22780   */\n      0xffffffffffffffffffffffffffffffffffffffffffffffffffffffffffffffff\n        /* \"#utility.yul\":22710:22784   */\n      sub\n        /* \"#utility.yul\":22707:22708   */\n      dup3\n        /* \"#utility.yul\":22704:22785   */\n      gt\n        /* \"#utility.yul\":22701:22808   */\n      iszero\n      tag_375\n      jumpi\n        /* \"#utility.yul\":22788:22806   */\n      tag_376\n      tag_161\n      jump\t// in\n    tag_376:\n        /* \"#utility.yul\":22701:22808   */\n    tag_375:\n        /* \"#utility.yul\":22832:22833   */\n      dup3\n        /* \"#utility.yul\":22829:22830   */\n      dup3\n        /* \"#utility.yul\":22825:22834   */\n      add\n        /* \"#utility.yul\":22818:22834   */\n      swap1\n      pop\n        /* \"#utility.yul\":22535:22840   */\n      swap3\n      swap2\n      pop\n      pop\n      jump\t// out\n\n    auxdata: 0xa26469706673582212209f6d9ed031d28105e8cf4f6ecae7d43eb1a322e5134acdfb6654106ebea7f76464736f6c634300080d0033\n}\n",
				"bytecode": {
					"linkReferences": {},
					"object": "60a06040523480156200001157600080fd5b5060405162001d0738038062001d078339818101604052810190620000379190620000dc565b8073ffffffffffffffffffffffffffffffffffffffff1660808173ffffffffffffffffffffffffffffffffffffffff1681525050506200010e565b600080fd5b600073ffffffffffffffffffffffffffffffffffffffff82169050919050565b6000620000a48262000077565b9050919050565b620000b68162000097565b8114620000c257600080fd5b50565b600081519050620000d681620000ab565b92915050565b600060208284031215620000f557620000f462000072565b5b60006200010584828501620000c5565b91505092915050565b608051611bc16200014660003960008181610323015281816106d001528181610a4901528181610d8a0152610e5e0152611bc16000f3fe608060405234801561001057600080fd5b506004361061009e5760003560e01c8063711853ab11610066578063711853ab1461014a5780638736c17914610166578063aa4fb63a14610182578063fc0c546a146101b2578063fde327be146101d05761009e565b806306661abd146100a3578063141961bc146100c1578063278ecde1146100f6578063379607f51461011257806340e58ee51461012e575b600080fd5b6100ab6101ec565b6040516100b89190610ffd565b60405180910390f35b6100db60048036038101906100d69190611049565b6101f2565b6040516100ed969594939291906110d2565b60405180910390f35b610110600480360381019061010b9190611049565b61025b565b005b61012c60048036038101906101279190611049565b61053c565b005b61014860048036038101906101439190611049565b6107b6565b005b610164600480360381019061015f9190611133565b61095d565b005b610180600480360381019061017b9190611173565b610b7e565b005b61019c600480360381019061019791906111f2565b610d63565b6040516101a99190610ffd565b60405180910390f35b6101ba610d88565b6040516101c79190611291565b60405180910390f35b6101ea60048036038101906101e59190611133565b610dac565b005b60005481565b60016020528060005260406000206000915090508060000160009054906101000a900473ffffffffffffffffffffffffffffffffffffffff16908060010154908060020154908060030154908060040154908060050160009054906101000a900460ff16905086565b426001600083815260200190815260200160002060040154106102b3576040517f08c379a00000000000000000000000000000000000000000000000000000000081526004016102aa90611309565b60405180910390fd5b6001600082815260200190815260200160002060010154600160008381526020019081526020016000206002015410610321576040517f08c379a00000000000000000000000000000000000000000000000000000000081526004016103189061139b565b60405180910390fd5b7f000000000000000000000000000000000000000000000000000000000000000073ffffffffffffffffffffffffffffffffffffffff1663a9059cbb336002600085815260200190815260200160002060003373ffffffffffffffffffffffffffffffffffffffff1673ffffffffffffffffffffffffffffffffffffffff168152602001908152602001600020546040518363ffffffff1660e01b81526004016103cc9291906113bb565b6020604051808303816000875af11580156103eb573d6000803e3d6000fd5b505050506040513d601f19601f8201168201806040525081019061040f9190611410565b5060006002600083815260200190815260200160002060003373ffffffffffffffffffffffffffffffffffffffff1673ffffffffffffffffffffffffffffffffffffffff16815260200190815260200160002054905060006002600084815260200190815260200160002060003373ffffffffffffffffffffffffffffffffffffffff1673ffffffffffffffffffffffffffffffffffffffff16815260200190815260200160002081905550806001600084815260200190815260200160002060020160008282546104e1919061146c565b925050819055503373ffffffffffffffffffffffffffffffffffffffff167f21e12a7cad0da5928167e1084ea4d5fdf8d9af66657a2543a9ac76a0ca08147783836040516105309291906114a0565b60405180910390a25050565b60006001600083815260200190815260200160002090503373ffffffffffffffffffffffffffffffffffffffff168160000160009054906101000a900473ffffffffffffffffffffffffffffffffffffffff1673ffffffffffffffffffffffffffffffffffffffff16146105e5576040517f08c379a00000000000000000000000000000000000000000000000000000000081526004016105dc90611515565b60405180910390fd5b806001015481600201541015610630576040517f08c379a000000000000000000000000000000000000000000000000000000000815260040161062790611581565b60405180910390fd5b42816004015410610676576040517f08c379a000000000000000000000000000000000000000000000000000000000815260040161066d906115ed565b60405180910390fd5b600015158160050160009054906101000a900460ff161515146106ce576040517f08c379a00000000000000000000000000000000000000000000000000000000081526004016106c590611659565b60405180910390fd5b7f000000000000000000000000000000000000000000000000000000000000000073ffffffffffffffffffffffffffffffffffffffff1663a9059cbb8260000160009054906101000a900473ffffffffffffffffffffffffffffffffffffffff1683600201546040518363ffffffff1660e01b81526004016107519291906113bb565b6020604051808303816000875af1158015610770573d6000803e3d6000fd5b505050506040513d601f19601f820116820180604052508101906107949190611410565b5060018160050160006101000a81548160ff0219169083151502179055505050565b3373ffffffffffffffffffffffffffffffffffffffff166001600083815260200190815260200160002060000160009054906101000a900473ffffffffffffffffffffffffffffffffffffffff1673ffffffffffffffffffffffffffffffffffffffff161461085a576040517f08c379a0000000000000000000000000000000000000000000000000000000008152600401610851906116c5565b60405180910390fd5b426001600083815260200190815260200160002060030154116108b2576040517f08c379a00000000000000000000000000000000000000000000000000000000081526004016108a990611757565b60405180910390fd5b60016000828152602001908152602001600020600080820160006101000a81549073ffffffffffffffffffffffffffffffffffffffff021916905560018201600090556002820160009055600382016000905560048201600090556005820160006101000a81549060ff021916905550507f8bf30e7ff26833413be5f69e1d373744864d600b664204b4a2f9844a8eedb9ed816040516109529190610ffd565b60405180910390a150565b426001600084815260200190815260200160002060040154116109b5576040517f08c379a00000000000000000000000000000000000000000000000000000000081526004016109ac906117c3565b60405180910390fd5b806002600084815260200190815260200160002060003373ffffffffffffffffffffffffffffffffffffffff1673ffffffffffffffffffffffffffffffffffffffff1681526020019081526020016000205411610a47576040517f08c379a0000000000000000000000000000000000000000000000000000000008152600401610a3e90611855565b60405180910390fd5b7f000000000000000000000000000000000000000000000000000000000000000073ffffffffffffffffffffffffffffffffffffffff1663a9059cbb33836040518363ffffffff1660e01b8152600401610aa29291906113bb565b6020604051808303816000875af1158015610ac1573d6000803e3d6000fd5b505050506040513d601f19601f82011682018060405250810190610ae59190611410565b50806002600084815260200190815260200160002060003373ffffffffffffffffffffffffffffffffffffffff1673ffffffffffffffffffffffffffffffffffffffff1681526020019081526020016000206000828254610b46919061146c565b9250508190555080600160008481526020019081526020016000206002016000828254610b73919061146c565b925050819055505050565b42821015610bc1576040517f08c379a0000000000000000000000000000000000000000000000000000000008152600401610bb8906118c1565b60405180910390fd5b81811015610c04576040517f08c379a0000000000000000000000000000000000000000000000000000000008152600401610bfb90611953565b60405180910390fd5b6040518060c001604052803373ffffffffffffffffffffffffffffffffffffffff1681526020018481526020016000815260200183815260200182815260200160001515815250600160008054815260200190815260200160002060008201518160000160006101000a81548173ffffffffffffffffffffffffffffffffffffffff021916908373ffffffffffffffffffffffffffffffffffffffff1602179055506020820151816001015560408201518160020155606082015181600301556080820151816004015560a08201518160050160006101000a81548160ff021916908315150217905550905050600080815480929190610d0390611973565b91905055503373ffffffffffffffffffffffffffffffffffffffff167fc9142a9424eb889eb9f9493aeb5b3b9ffffe3e32c9361bd725d709f6b28b91b1600054858585604051610d5694939291906119bb565b60405180910390a2505050565b6002602052816000526040600020602052806000526040600020600091509150505481565b7f000000000000000000000000000000000000000000000000000000000000000081565b42600160008481526020019081526020016000206003015410610e04576040517f08c379a0000000000000000000000000000000000000000000000000000000008152600401610dfb90611a72565b60405180910390fd5b42600160008481526020019081526020016000206004015411610e5c576040517f08c379a0000000000000000000000000000000000000000000000000000000008152600401610e5390611ade565b60405180910390fd5b7f000000000000000000000000000000000000000000000000000000000000000073ffffffffffffffffffffffffffffffffffffffff166323b872dd3330846040518463ffffffff1660e01b8152600401610eb993929190611afe565b6020604051808303816000875af1158015610ed8573d6000803e3d6000fd5b505050506040513d601f19601f82011682018060405250810190610efc9190611410565b5080600160008481526020019081526020016000206002016000828254610f239190611b35565b92505081905550806002600084815260200190815260200160002060003373ffffffffffffffffffffffffffffffffffffffff1673ffffffffffffffffffffffffffffffffffffffff1681526020019081526020016000206000828254610f8a9190611b35565b925050819055503373ffffffffffffffffffffffffffffffffffffffff16827f06bdb975df800a73232998e71ed585d536222f1dfeaa622d7f62a23ada686c8283604051610fd89190610ffd565b60405180910390a35050565b6000819050919050565b610ff781610fe4565b82525050565b60006020820190506110126000830184610fee565b92915050565b600080fd5b61102681610fe4565b811461103157600080fd5b50565b6000813590506110438161101d565b92915050565b60006020828403121561105f5761105e611018565b5b600061106d84828501611034565b91505092915050565b600073ffffffffffffffffffffffffffffffffffffffff82169050919050565b60006110a182611076565b9050919050565b6110b181611096565b82525050565b60008115159050919050565b6110cc816110b7565b82525050565b600060c0820190506110e760008301896110a8565b6110f46020830188610fee565b6111016040830187610fee565b61110e6060830186610fee565b61111b6080830185610fee565b61112860a08301846110c3565b979650505050505050565b6000806040838503121561114a57611149611018565b5b600061115885828601611034565b925050602061116985828601611034565b9150509250929050565b60008060006060848603121561118c5761118b611018565b5b600061119a86828701611034565b93505060206111ab86828701611034565b92505060406111bc86828701611034565b9150509250925092565b6111cf81611096565b81146111da57600080fd5b50565b6000813590506111ec816111c6565b92915050565b6000806040838503121561120957611208611018565b5b600061121785828601611034565b9250506020611228858286016111dd565b9150509250929050565b6000819050919050565b600061125761125261124d84611076565b611232565b611076565b9050919050565b60006112698261123c565b9050919050565b600061127b8261125e565b9050919050565b61128b81611270565b82525050565b60006020820190506112a66000830184611282565b92915050565b600082825260208201905092915050565b7f63616e6e6f7420626520726566756e646564206265666f726520656e6465642e600082015250565b60006112f36020836112ac565b91506112fe826112bd565b602082019050919050565b60006020820190508181036000830152611322816112e6565b9050919050565b7f63616d706169676e20676f616c20697320726561636865642c20736f2063616e60008201527f6e6f7420626520726566756e6465642e00000000000000000000000000000000602082015250565b60006113856030836112ac565b915061139082611329565b604082019050919050565b600060208201905081810360008301526113b481611378565b9050919050565b60006040820190506113d060008301856110a8565b6113dd6020830184610fee565b9392505050565b6113ed816110b7565b81146113f857600080fd5b50565b60008151905061140a816113e4565b92915050565b60006020828403121561142657611425611018565b5b6000611434848285016113fb565b91505092915050565b7f4e487b7100000000000000000000000000000000000000000000000000000000600052601160045260246000fd5b600061147782610fe4565b915061148283610fe4565b9250828210156114955761149461143d565b5b828203905092915050565b60006040820190506114b56000830185610fee565b6114c26020830184610fee565b9392505050565b7f6f6e6c792063726561746f722063616e20636c61696d2e000000000000000000600082015250565b60006114ff6017836112ac565b915061150a826114c9565b602082019050919050565b6000602082019050818103600083015261152e816114f2565b9050919050565b7f676f616c206973206e6f74207265616368656400000000000000000000000000600082015250565b600061156b6013836112ac565b915061157682611535565b602082019050919050565b6000602082019050818103600083015261159a8161155e565b9050919050565b7f63616e6e6f7420626520636c61696d6564206265666f726520656e6465642e00600082015250565b60006115d7601f836112ac565b91506115e2826115a1565b602082019050919050565b60006020820190508181036000830152611606816115ca565b9050919050565b7f616c726561647920636c61696d65642e00000000000000000000000000000000600082015250565b60006116436010836112ac565b915061164e8261160d565b602082019050919050565b6000602082019050818103600083015261167281611636565b9050919050565b7f6f6e6c792063726561746f722063616e2063616e63656c2e0000000000000000600082015250565b60006116af6018836112ac565b91506116ba82611679565b602082019050919050565b600060208201905081810360008301526116de816116a2565b9050919050565b7f63616e6e6f742062652063616e63656c6564206166746572207374617274656460008201527f2e00000000000000000000000000000000000000000000000000000000000000602082015250565b60006117416021836112ac565b915061174c826116e5565b604082019050919050565b6000602082019050818103600083015261177081611734565b9050919050565b7f63616e6e6f7420626520756e706c656467656420616674657220656e6465642e600082015250565b60006117ad6020836112ac565b91506117b882611777565b602082019050919050565b600060208201905081810360008301526117dc816117a0565b9050919050565b7f796f752063616e6e6f7420756e706c65646765206d6f7265207468616e20796f60008201527f7520706c65646765642e00000000000000000000000000000000000000000000602082015250565b600061183f602a836112ac565b915061184a826117e3565b604082019050919050565b6000602082019050818103600083015261186e81611832565b9050919050565b7f53746172742054696d65206d75737420626520696e206675747572652e000000600082015250565b60006118ab601d836112ac565b91506118b682611875565b602082019050919050565b600060208201905081810360008301526118da8161189e565b9050919050565b7f456e642074696d65206d7573742062652061667465722073746172742074696d60008201527f652e000000000000000000000000000000000000000000000000000000000000602082015250565b600061193d6022836112ac565b9150611948826118e1565b604082019050919050565b6000602082019050818103600083015261196c81611930565b9050919050565b600061197e82610fe4565b91507fffffffffffffffffffffffffffffffffffffffffffffffffffffffffffffffff82036119b0576119af61143d565b5b600182019050919050565b60006080820190506119d06000830187610fee565b6119dd6020830186610fee565b6119ea6040830185610fee565b6119f76060830184610fee565b95945050505050565b7f63616e6e6f7420626520706c6564676564206265666f7265207374617274656460008201527f2e00000000000000000000000000000000000000000000000000000000000000602082015250565b6000611a5c6021836112ac565b9150611a6782611a00565b604082019050919050565b60006020820190508181036000830152611a8b81611a4f565b9050919050565b7f63616e6e6f7420626520706c656467656420616674657220656e6465642e0000600082015250565b6000611ac8601e836112ac565b9150611ad382611a92565b602082019050919050565b60006020820190508181036000830152611af781611abb565b9050919050565b6000606082019050611b1360008301866110a8565b611b2060208301856110a8565b611b2d6040830184610fee565b949350505050565b6000611b4082610fe4565b9150611b4b83610fe4565b9250827fffffffffffffffffffffffffffffffffffffffffffffffffffffffffffffffff03821115611b8057611b7f61143d565b5b82820190509291505056fea26469706673582212209f6d9ed031d28105e8cf4f6ecae7d43eb1a322e5134acdfb6654106ebea7f76464736f6c634300080d0033",
					"opcodes": "PUSH1 0xA0 PUSH1 0x40 MSTORE CALLVALUE DUP1 ISZERO PUSH3 0x11 JUMPI PUSH1 0x0 DUP1 REVERT JUMPDEST POP PUSH1 0x40 MLOAD PUSH3 0x1D07 CODESIZE SUB DUP1 PUSH3 0x1D07 DUP4 CODECOPY DUP2 DUP2 ADD PUSH1 0x40 MSTORE DUP2 ADD SWAP1 PUSH3 0x37 SWAP2 SWAP1 PUSH3 0xDC JUMP JUMPDEST DUP1 PUSH20 0xFFFFFFFFFFFFFFFFFFFFFFFFFFFFFFFFFFFFFFFF AND PUSH1 0x80 DUP2 PUSH20 0xFFFFFFFFFFFFFFFFFFFFFFFFFFFFFFFFFFFFFFFF AND DUP2 MSTORE POP POP POP PUSH3 0x10E JUMP JUMPDEST PUSH1 0x0 DUP1 REVERT JUMPDEST PUSH1 0x0 PUSH20 0xFFFFFFFFFFFFFFFFFFFFFFFFFFFFFFFFFFFFFFFF DUP3 AND SWAP1 POP SWAP2 SWAP1 POP JUMP JUMPDEST PUSH1 0x0 PUSH3 0xA4 DUP3 PUSH3 0x77 JUMP JUMPDEST SWAP1 POP SWAP2 SWAP1 POP JUMP JUMPDEST PUSH3 0xB6 DUP2 PUSH3 0x97 JUMP JUMPDEST DUP2 EQ PUSH3 0xC2 JUMPI PUSH1 0x0 DUP1 REVERT JUMPDEST POP JUMP JUMPDEST PUSH1 0x0 DUP2 MLOAD SWAP1 POP PUSH3 0xD6 DUP2 PUSH3 0xAB JUMP JUMPDEST SWAP3 SWAP2 POP POP JUMP JUMPDEST PUSH1 0x0 PUSH1 0x20 DUP3 DUP5 SUB SLT ISZERO PUSH3 0xF5 JUMPI PUSH3 0xF4 PUSH3 0x72 JUMP JUMPDEST JUMPDEST PUSH1 0x0 PUSH3 0x105 DUP5 DUP3 DUP6 ADD PUSH3 0xC5 JUMP JUMPDEST SWAP2 POP POP SWAP3 SWAP2 POP POP JUMP JUMPDEST PUSH1 0x80 MLOAD PUSH2 0x1BC1 PUSH3 0x146 PUSH1 0x0 CODECOPY PUSH1 0x0 DUP2 DUP2 PUSH2 0x323 ADD MSTORE DUP2 DUP2 PUSH2 0x6D0 ADD MSTORE DUP2 DUP2 PUSH2 0xA49 ADD MSTORE DUP2 DUP2 PUSH2 0xD8A ADD MSTORE PUSH2 0xE5E ADD MSTORE PUSH2 0x1BC1 PUSH1 0x0 RETURN INVALID PUSH1 0x80 PUSH1 0x40 MSTORE CALLVALUE DUP1 ISZERO PUSH2 0x10 JUMPI PUSH1 0x0 DUP1 REVERT JUMPDEST POP PUSH1 0x4 CALLDATASIZE LT PUSH2 0x9E JUMPI PUSH1 0x0 CALLDATALOAD PUSH1 0xE0 SHR DUP1 PUSH4 0x711853AB GT PUSH2 0x66 JUMPI DUP1 PUSH4 0x711853AB EQ PUSH2 0x14A JUMPI DUP1 PUSH4 0x8736C179 EQ PUSH2 0x166 JUMPI DUP1 PUSH4 0xAA4FB63A EQ PUSH2 0x182 JUMPI DUP1 PUSH4 0xFC0C546A EQ PUSH2 0x1B2 JUMPI DUP1 PUSH4 0xFDE327BE EQ PUSH2 0x1D0 JUMPI PUSH2 0x9E JUMP JUMPDEST DUP1 PUSH4 0x6661ABD EQ PUSH2 0xA3 JUMPI DUP1 PUSH4 0x141961BC EQ PUSH2 0xC1 JUMPI DUP1 PUSH4 0x278ECDE1 EQ PUSH2 0xF6 JUMPI DUP1 PUSH4 0x379607F5 EQ PUSH2 0x112 JUMPI DUP1 PUSH4 0x40E58EE5 EQ PUSH2 0x12E JUMPI JUMPDEST PUSH1 0x0 DUP1 REVERT JUMPDEST PUSH2 0xAB PUSH2 0x1EC JUMP JUMPDEST PUSH1 0x40 MLOAD PUSH2 0xB8 SWAP2 SWAP1 PUSH2 0xFFD JUMP JUMPDEST PUSH1 0x40 MLOAD DUP1 SWAP2 SUB SWAP1 RETURN JUMPDEST PUSH2 0xDB PUSH1 0x4 DUP1 CALLDATASIZE SUB DUP2 ADD SWAP1 PUSH2 0xD6 SWAP2 SWAP1 PUSH2 0x1049 JUMP JUMPDEST PUSH2 0x1F2 JUMP JUMPDEST PUSH1 0x40 MLOAD PUSH2 0xED SWAP7 SWAP6 SWAP5 SWAP4 SWAP3 SWAP2 SWAP1 PUSH2 0x10D2 JUMP JUMPDEST PUSH1 0x40 MLOAD DUP1 SWAP2 SUB SWAP1 RETURN JUMPDEST PUSH2 0x110 PUSH1 0x4 DUP1 CALLDATASIZE SUB DUP2 ADD SWAP1 PUSH2 0x10B SWAP2 SWAP1 PUSH2 0x1049 JUMP JUMPDEST PUSH2 0x25B JUMP JUMPDEST STOP JUMPDEST PUSH2 0x12C PUSH1 0x4 DUP1 CALLDATASIZE SUB DUP2 ADD SWAP1 PUSH2 0x127 SWAP2 SWAP1 PUSH2 0x1049 JUMP JUMPDEST PUSH2 0x53C JUMP JUMPDEST STOP JUMPDEST PUSH2 0x148 PUSH1 0x4 DUP1 CALLDATASIZE SUB DUP2 ADD SWAP1 PUSH2 0x143 SWAP2 SWAP1 PUSH2 0x1049 JUMP JUMPDEST PUSH2 0x7B6 JUMP JUMPDEST STOP JUMPDEST PUSH2 0x164 PUSH1 0x4 DUP1 CALLDATASIZE SUB DUP2 ADD SWAP1 PUSH2 0x15F SWAP2 SWAP1 PUSH2 0x1133 JUMP JUMPDEST PUSH2 0x95D JUMP JUMPDEST STOP JUMPDEST PUSH2 0x180 PUSH1 0x4 DUP1 CALLDATASIZE SUB DUP2 ADD SWAP1 PUSH2 0x17B SWAP2 SWAP1 PUSH2 0x1173 JUMP JUMPDEST PUSH2 0xB7E JUMP JUMPDEST STOP JUMPDEST PUSH2 0x19C PUSH1 0x4 DUP1 CALLDATASIZE SUB DUP2 ADD SWAP1 PUSH2 0x197 SWAP2 SWAP1 PUSH2 0x11F2 JUMP JUMPDEST PUSH2 0xD63 JUMP JUMPDEST PUSH1 0x40 MLOAD PUSH2 0x1A9 SWAP2 SWAP1 PUSH2 0xFFD JUMP JUMPDEST PUSH1 0x40 MLOAD DUP1 SWAP2 SUB SWAP1 RETURN JUMPDEST PUSH2 0x1BA PUSH2 0xD88 JUMP JUMPDEST PUSH1 0x40 MLOAD PUSH2 0x1C7 SWAP2 SWAP1 PUSH2 0x1291 JUMP JUMPDEST PUSH1 0x40 MLOAD DUP1 SWAP2 SUB SWAP1 RETURN JUMPDEST PUSH2 0x1EA PUSH1 0x4 DUP1 CALLDATASIZE SUB DUP2 ADD SWAP1 PUSH2 0x1E5 SWAP2 SWAP1 PUSH2 0x1133 JUMP JUMPDEST PUSH2 0xDAC JUMP JUMPDEST STOP JUMPDEST PUSH1 0x0 SLOAD DUP2 JUMP JUMPDEST PUSH1 0x1 PUSH1 0x20 MSTORE DUP1 PUSH1 0x0 MSTORE PUSH1 0x40 PUSH1 0x0 KECCAK256 PUSH1 0x0 SWAP2 POP SWAP1 POP DUP1 PUSH1 0x0 ADD PUSH1 0x0 SWAP1 SLOAD SWAP1 PUSH2 0x100 EXP SWAP1 DIV PUSH20 0xFFFFFFFFFFFFFFFFFFFFFFFFFFFFFFFFFFFFFFFF AND SWAP1 DUP1 PUSH1 0x1 ADD SLOAD SWAP1 DUP1 PUSH1 0x2 ADD SLOAD SWAP1 DUP1 PUSH1 0x3 ADD SLOAD SWAP1 DUP1 PUSH1 0x4 ADD SLOAD SWAP1 DUP1 PUSH1 0x5 ADD PUSH1 0x0 SWAP1 SLOAD SWAP1 PUSH2 0x100 EXP SWAP1 DIV PUSH1 0xFF AND SWAP1 POP DUP7 JUMP JUMPDEST TIMESTAMP PUSH1 0x1 PUSH1 0x0 DUP4 DUP2 MSTORE PUSH1 0x20 ADD SWAP1 DUP2 MSTORE PUSH1 0x20 ADD PUSH1 0x0 KECCAK256 PUSH1 0x4 ADD SLOAD LT PUSH2 0x2B3 JUMPI PUSH1 0x40 MLOAD PUSH32 0x8C379A000000000000000000000000000000000000000000000000000000000 DUP2 MSTORE PUSH1 0x4 ADD PUSH2 0x2AA SWAP1 PUSH2 0x1309 JUMP JUMPDEST PUSH1 0x40 MLOAD DUP1 SWAP2 SUB SWAP1 REVERT JUMPDEST PUSH1 0x1 PUSH1 0x0 DUP3 DUP2 MSTORE PUSH1 0x20 ADD SWAP1 DUP2 MSTORE PUSH1 0x20 ADD PUSH1 0x0 KECCAK256 PUSH1 0x1 ADD SLOAD PUSH1 0x1 PUSH1 0x0 DUP4 DUP2 MSTORE PUSH1 0x20 ADD SWAP1 DUP2 MSTORE PUSH1 0x20 ADD PUSH1 0x0 KECCAK256 PUSH1 0x2 ADD SLOAD LT PUSH2 0x321 JUMPI PUSH1 0x40 MLOAD PUSH32 0x8C379A000000000000000000000000000000000000000000000000000000000 DUP2 MSTORE PUSH1 0x4 ADD PUSH2 0x318 SWAP1 PUSH2 0x139B JUMP JUMPDEST PUSH1 0x40 MLOAD DUP1 SWAP2 SUB SWAP1 REVERT JUMPDEST PUSH32 0x0 PUSH20 0xFFFFFFFFFFFFFFFFFFFFFFFFFFFFFFFFFFFFFFFF AND PUSH4 0xA9059CBB CALLER PUSH1 0x2 PUSH1 0x0 DUP6 DUP2 MSTORE PUSH1 0x20 ADD SWAP1 DUP2 MSTORE PUSH1 0x20 ADD PUSH1 0x0 KECCAK256 PUSH1 0x0 CALLER PUSH20 0xFFFFFFFFFFFFFFFFFFFFFFFFFFFFFFFFFFFFFFFF AND PUSH20 0xFFFFFFFFFFFFFFFFFFFFFFFFFFFFFFFFFFFFFFFF AND DUP2 MSTORE PUSH1 0x20 ADD SWAP1 DUP2 MSTORE PUSH1 0x20 ADD PUSH1 0x0 KECCAK256 SLOAD PUSH1 0x40 MLOAD DUP4 PUSH4 0xFFFFFFFF AND PUSH1 0xE0 SHL DUP2 MSTORE PUSH1 0x4 ADD PUSH2 0x3CC SWAP3 SWAP2 SWAP1 PUSH2 0x13BB JUMP JUMPDEST PUSH1 0x20 PUSH1 0x40 MLOAD DUP1 DUP4 SUB DUP2 PUSH1 0x0 DUP8 GAS CALL ISZERO DUP1 ISZERO PUSH2 0x3EB JUMPI RETURNDATASIZE PUSH1 0x0 DUP1 RETURNDATACOPY RETURNDATASIZE PUSH1 0x0 REVERT JUMPDEST POP POP POP POP PUSH1 0x40 MLOAD RETURNDATASIZE PUSH1 0x1F NOT PUSH1 0x1F DUP3 ADD AND DUP3 ADD DUP1 PUSH1 0x40 MSTORE POP DUP2 ADD SWAP1 PUSH2 0x40F SWAP2 SWAP1 PUSH2 0x1410 JUMP JUMPDEST POP PUSH1 0x0 PUSH1 0x2 PUSH1 0x0 DUP4 DUP2 MSTORE PUSH1 0x20 ADD SWAP1 DUP2 MSTORE PUSH1 0x20 ADD PUSH1 0x0 KECCAK256 PUSH1 0x0 CALLER PUSH20 0xFFFFFFFFFFFFFFFFFFFFFFFFFFFFFFFFFFFFFFFF AND PUSH20 0xFFFFFFFFFFFFFFFFFFFFFFFFFFFFFFFFFFFFFFFF AND DUP2 MSTORE PUSH1 0x20 ADD SWAP1 DUP2 MSTORE PUSH1 0x20 ADD PUSH1 0x0 KECCAK256 SLOAD SWAP1 POP PUSH1 0x0 PUSH1 0x2 PUSH1 0x0 DUP5 DUP2 MSTORE PUSH1 0x20 ADD SWAP1 DUP2 MSTORE PUSH1 0x20 ADD PUSH1 0x0 KECCAK256 PUSH1 0x0 CALLER PUSH20 0xFFFFFFFFFFFFFFFFFFFFFFFFFFFFFFFFFFFFFFFF AND PUSH20 0xFFFFFFFFFFFFFFFFFFFFFFFFFFFFFFFFFFFFFFFF AND DUP2 MSTORE PUSH1 0x20 ADD SWAP1 DUP2 MSTORE PUSH1 0x20 ADD PUSH1 0x0 KECCAK256 DUP2 SWAP1 SSTORE POP DUP1 PUSH1 0x1 PUSH1 0x0 DUP5 DUP2 MSTORE PUSH1 0x20 ADD SWAP1 DUP2 MSTORE PUSH1 0x20 ADD PUSH1 0x0 KECCAK256 PUSH1 0x2 ADD PUSH1 0x0 DUP3 DUP3 SLOAD PUSH2 0x4E1 SWAP2 SWAP1 PUSH2 0x146C JUMP JUMPDEST SWAP3 POP POP DUP2 SWAP1 SSTORE POP CALLER PUSH20 0xFFFFFFFFFFFFFFFFFFFFFFFFFFFFFFFFFFFFFFFF AND PUSH32 0x21E12A7CAD0DA5928167E1084EA4D5FDF8D9AF66657A2543A9AC76A0CA081477 DUP4 DUP4 PUSH1 0x40 MLOAD PUSH2 0x530 SWAP3 SWAP2 SWAP1 PUSH2 0x14A0 JUMP JUMPDEST PUSH1 0x40 MLOAD DUP1 SWAP2 SUB SWAP1 LOG2 POP POP JUMP JUMPDEST PUSH1 0x0 PUSH1 0x1 PUSH1 0x0 DUP4 DUP2 MSTORE PUSH1 0x20 ADD SWAP1 DUP2 MSTORE PUSH1 0x20 ADD PUSH1 0x0 KECCAK256 SWAP1 POP CALLER PUSH20 0xFFFFFFFFFFFFFFFFFFFFFFFFFFFFFFFFFFFFFFFF AND DUP2 PUSH1 0x0 ADD PUSH1 0x0 SWAP1 SLOAD SWAP1 PUSH2 0x100 EXP SWAP1 DIV PUSH20 0xFFFFFFFFFFFFFFFFFFFFFFFFFFFFFFFFFFFFFFFF AND PUSH20 0xFFFFFFFFFFFFFFFFFFFFFFFFFFFFFFFFFFFFFFFF AND EQ PUSH2 0x5E5 JUMPI PUSH1 0x40 MLOAD PUSH32 0x8C379A000000000000000000000000000000000000000000000000000000000 DUP2 MSTORE PUSH1 0x4 ADD PUSH2 0x5DC SWAP1 PUSH2 0x1515 JUMP JUMPDEST PUSH1 0x40 MLOAD DUP1 SWAP2 SUB SWAP1 REVERT JUMPDEST DUP1 PUSH1 0x1 ADD SLOAD DUP2 PUSH1 0x2 ADD SLOAD LT ISZERO PUSH2 0x630 JUMPI PUSH1 0x40 MLOAD PUSH32 0x8C379A000000000000000000000000000000000000000000000000000000000 DUP2 MSTORE PUSH1 0x4 ADD PUSH2 0x627 SWAP1 PUSH2 0x1581 JUMP JUMPDEST PUSH1 0x40 MLOAD DUP1 SWAP2 SUB SWAP1 REVERT JUMPDEST TIMESTAMP DUP2 PUSH1 0x4 ADD SLOAD LT PUSH2 0x676 JUMPI PUSH1 0x40 MLOAD PUSH32 0x8C379A000000000000000000000000000000000000000000000000000000000 DUP2 MSTORE PUSH1 0x4 ADD PUSH2 0x66D SWAP1 PUSH2 0x15ED JUMP JUMPDEST PUSH1 0x40 MLOAD DUP1 SWAP2 SUB SWAP1 REVERT JUMPDEST PUSH1 0x0 ISZERO ISZERO DUP2 PUSH1 0x5 ADD PUSH1 0x0 SWAP1 SLOAD SWAP1 PUSH2 0x100 EXP SWAP1 DIV PUSH1 0xFF AND ISZERO ISZERO EQ PUSH2 0x6CE JUMPI PUSH1 0x40 MLOAD PUSH32 0x8C379A000000000000000000000000000000000000000000000000000000000 DUP2 MSTORE PUSH1 0x4 ADD PUSH2 0x6C5 SWAP1 PUSH2 0x1659 JUMP JUMPDEST PUSH1 0x40 MLOAD DUP1 SWAP2 SUB SWAP1 REVERT JUMPDEST PUSH32 0x0 PUSH20 0xFFFFFFFFFFFFFFFFFFFFFFFFFFFFFFFFFFFFFFFF AND PUSH4 0xA9059CBB DUP3 PUSH1 0x0 ADD PUSH1 0x0 SWAP1 SLOAD SWAP1 PUSH2 0x100 EXP SWAP1 DIV PUSH20 0xFFFFFFFFFFFFFFFFFFFFFFFFFFFFFFFFFFFFFFFF AND DUP4 PUSH1 0x2 ADD SLOAD PUSH1 0x40 MLOAD DUP4 PUSH4 0xFFFFFFFF AND PUSH1 0xE0 SHL DUP2 MSTORE PUSH1 0x4 ADD PUSH2 0x751 SWAP3 SWAP2 SWAP1 PUSH2 0x13BB JUMP JUMPDEST PUSH1 0x20 PUSH1 0x40 MLOAD DUP1 DUP4 SUB DUP2 PUSH1 0x0 DUP8 GAS CALL ISZERO DUP1 ISZERO PUSH2 0x770 JUMPI RETURNDATASIZE PUSH1 0x0 DUP1 RETURNDATACOPY RETURNDATASIZE PUSH1 0x0 REVERT JUMPDEST POP POP POP POP PUSH1 0x40 MLOAD RETURNDATASIZE PUSH1 0x1F NOT PUSH1 0x1F DUP3 ADD AND DUP3 ADD DUP1 PUSH1 0x40 MSTORE POP DUP2 ADD SWAP1 PUSH2 0x794 SWAP2 SWAP1 PUSH2 0x1410 JUMP JUMPDEST POP PUSH1 0x1 DUP2 PUSH1 0x5 ADD PUSH1 0x0 PUSH2 0x100 EXP DUP2 SLOAD DUP2 PUSH1 0xFF MUL NOT AND SWAP1 DUP4 ISZERO ISZERO MUL OR SWAP1 SSTORE POP POP POP JUMP JUMPDEST CALLER PUSH20 0xFFFFFFFFFFFFFFFFFFFFFFFFFFFFFFFFFFFFFFFF AND PUSH1 0x1 PUSH1 0x0 DUP4 DUP2 MSTORE PUSH1 0x20 ADD SWAP1 DUP2 MSTORE PUSH1 0x20 ADD PUSH1 0x0 KECCAK256 PUSH1 0x0 ADD PUSH1 0x0 SWAP1 SLOAD SWAP1 PUSH2 0x100 EXP SWAP1 DIV PUSH20 0xFFFFFFFFFFFFFFFFFFFFFFFFFFFFFFFFFFFFFFFF AND PUSH20 0xFFFFFFFFFFFFFFFFFFFFFFFFFFFFFFFFFFFFFFFF AND EQ PUSH2 0x85A JUMPI PUSH1 0x40 MLOAD PUSH32 0x8C379A000000000000000000000000000000000000000000000000000000000 DUP2 MSTORE PUSH1 0x4 ADD PUSH2 0x851 SWAP1 PUSH2 0x16C5 JUMP JUMPDEST PUSH1 0x40 MLOAD DUP1 SWAP2 SUB SWAP1 REVERT JUMPDEST TIMESTAMP PUSH1 0x1 PUSH1 0x0 DUP4 DUP2 MSTORE PUSH1 0x20 ADD SWAP1 DUP2 MSTORE PUSH1 0x20 ADD PUSH1 0x0 KECCAK256 PUSH1 0x3 ADD SLOAD GT PUSH2 0x8B2 JUMPI PUSH1 0x40 MLOAD PUSH32 0x8C379A000000000000000000000000000000000000000000000000000000000 DUP2 MSTORE PUSH1 0x4 ADD PUSH2 0x8A9 SWAP1 PUSH2 0x1757 JUMP JUMPDEST PUSH1 0x40 MLOAD DUP1 SWAP2 SUB SWAP1 REVERT JUMPDEST PUSH1 0x1 PUSH1 0x0 DUP3 DUP2 MSTORE PUSH1 0x20 ADD SWAP1 DUP2 MSTORE PUSH1 0x20 ADD PUSH1 0x0 KECCAK256 PUSH1 0x0 DUP1 DUP3 ADD PUSH1 0x0 PUSH2 0x100 EXP DUP2 SLOAD SWAP1 PUSH20 0xFFFFFFFFFFFFFFFFFFFFFFFFFFFFFFFFFFFFFFFF MUL NOT AND SWAP1 SSTORE PUSH1 0x1 DUP3 ADD PUSH1 0x0 SWAP1 SSTORE PUSH1 0x2 DUP3 ADD PUSH1 0x0 SWAP1 SSTORE PUSH1 0x3 DUP3 ADD PUSH1 0x0 SWAP1 SSTORE PUSH1 0x4 DUP3 ADD PUSH1 0x0 SWAP1 SSTORE PUSH1 0x5 DUP3 ADD PUSH1 0x0 PUSH2 0x100 EXP DUP2 SLOAD SWAP1 PUSH1 0xFF MUL NOT AND SWAP1 SSTORE POP POP PUSH32 0x8BF30E7FF26833413BE5F69E1D373744864D600B664204B4A2F9844A8EEDB9ED DUP2 PUSH1 0x40 MLOAD PUSH2 0x952 SWAP2 SWAP1 PUSH2 0xFFD JUMP JUMPDEST PUSH1 0x40 MLOAD DUP1 SWAP2 SUB SWAP1 LOG1 POP JUMP JUMPDEST TIMESTAMP PUSH1 0x1 PUSH1 0x0 DUP5 DUP2 MSTORE PUSH1 0x20 ADD SWAP1 DUP2 MSTORE PUSH1 0x20 ADD PUSH1 0x0 KECCAK256 PUSH1 0x4 ADD SLOAD GT PUSH2 0x9B5 JUMPI PUSH1 0x40 MLOAD PUSH32 0x8C379A000000000000000000000000000000000000000000000000000000000 DUP2 MSTORE PUSH1 0x4 ADD PUSH2 0x9AC SWAP1 PUSH2 0x17C3 JUMP JUMPDEST PUSH1 0x40 MLOAD DUP1 SWAP2 SUB SWAP1 REVERT JUMPDEST DUP1 PUSH1 0x2 PUSH1 0x0 DUP5 DUP2 MSTORE PUSH1 0x20 ADD SWAP1 DUP2 MSTORE PUSH1 0x20 ADD PUSH1 0x0 KECCAK256 PUSH1 0x0 CALLER PUSH20 0xFFFFFFFFFFFFFFFFFFFFFFFFFFFFFFFFFFFFFFFF AND PUSH20 0xFFFFFFFFFFFFFFFFFFFFFFFFFFFFFFFFFFFFFFFF AND DUP2 MSTORE PUSH1 0x20 ADD SWAP1 DUP2 MSTORE PUSH1 0x20 ADD PUSH1 0x0 KECCAK256 SLOAD GT PUSH2 0xA47 JUMPI PUSH1 0x40 MLOAD PUSH32 0x8C379A000000000000000000000000000000000000000000000000000000000 DUP2 MSTORE PUSH1 0x4 ADD PUSH2 0xA3E SWAP1 PUSH2 0x1855 JUMP JUMPDEST PUSH1 0x40 MLOAD DUP1 SWAP2 SUB SWAP1 REVERT JUMPDEST PUSH32 0x0 PUSH20 0xFFFFFFFFFFFFFFFFFFFFFFFFFFFFFFFFFFFFFFFF AND PUSH4 0xA9059CBB CALLER DUP4 PUSH1 0x40 MLOAD DUP4 PUSH4 0xFFFFFFFF AND PUSH1 0xE0 SHL DUP2 MSTORE PUSH1 0x4 ADD PUSH2 0xAA2 SWAP3 SWAP2 SWAP1 PUSH2 0x13BB JUMP JUMPDEST PUSH1 0x20 PUSH1 0x40 MLOAD DUP1 DUP4 SUB DUP2 PUSH1 0x0 DUP8 GAS CALL ISZERO DUP1 ISZERO PUSH2 0xAC1 JUMPI RETURNDATASIZE PUSH1 0x0 DUP1 RETURNDATACOPY RETURNDATASIZE PUSH1 0x0 REVERT JUMPDEST POP POP POP POP PUSH1 0x40 MLOAD RETURNDATASIZE PUSH1 0x1F NOT PUSH1 0x1F DUP3 ADD AND DUP3 ADD DUP1 PUSH1 0x40 MSTORE POP DUP2 ADD SWAP1 PUSH2 0xAE5 SWAP2 SWAP1 PUSH2 0x1410 JUMP JUMPDEST POP DUP1 PUSH1 0x2 PUSH1 0x0 DUP5 DUP2 MSTORE PUSH1 0x20 ADD SWAP1 DUP2 MSTORE PUSH1 0x20 ADD PUSH1 0x0 KECCAK256 PUSH1 0x0 CALLER PUSH20 0xFFFFFFFFFFFFFFFFFFFFFFFFFFFFFFFFFFFFFFFF AND PUSH20 0xFFFFFFFFFFFFFFFFFFFFFFFFFFFFFFFFFFFFFFFF AND DUP2 MSTORE PUSH1 0x20 ADD SWAP1 DUP2 MSTORE PUSH1 0x20 ADD PUSH1 0x0 KECCAK256 PUSH1 0x0 DUP3 DUP3 SLOAD PUSH2 0xB46 SWAP2 SWAP1 PUSH2 0x146C JUMP JUMPDEST SWAP3 POP POP DUP2 SWAP1 SSTORE POP DUP1 PUSH1 0x1 PUSH1 0x0 DUP5 DUP2 MSTORE PUSH1 0x20 ADD SWAP1 DUP2 MSTORE PUSH1 0x20 ADD PUSH1 0x0 KECCAK256 PUSH1 0x2 ADD PUSH1 0x0 DUP3 DUP3 SLOAD PUSH2 0xB73 SWAP2 SWAP1 PUSH2 0x146C JUMP JUMPDEST SWAP3 POP POP DUP2 SWAP1 SSTORE POP POP POP JUMP JUMPDEST TIMESTAMP DUP3 LT ISZERO PUSH2 0xBC1 JUMPI PUSH1 0x40 MLOAD PUSH32 0x8C379A000000000000000000000000000000000000000000000000000000000 DUP2 MSTORE PUSH1 0x4 ADD PUSH2 0xBB8 SWAP1 PUSH2 0x18C1 JUMP JUMPDEST PUSH1 0x40 MLOAD DUP1 SWAP2 SUB SWAP1 REVERT JUMPDEST DUP2 DUP2 LT ISZERO PUSH2 0xC04 JUMPI PUSH1 0x40 MLOAD PUSH32 0x8C379A000000000000000000000000000000000000000000000000000000000 DUP2 MSTORE PUSH1 0x4 ADD PUSH2 0xBFB SWAP1 PUSH2 0x1953 JUMP JUMPDEST PUSH1 0x40 MLOAD DUP1 SWAP2 SUB SWAP1 REVERT JUMPDEST PUSH1 0x40 MLOAD DUP1 PUSH1 0xC0 ADD PUSH1 0x40 MSTORE DUP1 CALLER PUSH20 0xFFFFFFFFFFFFFFFFFFFFFFFFFFFFFFFFFFFFFFFF AND DUP2 MSTORE PUSH1 0x20 ADD DUP5 DUP2 MSTORE PUSH1 0x20 ADD PUSH1 0x0 DUP2 MSTORE PUSH1 0x20 ADD DUP4 DUP2 MSTORE PUSH1 0x20 ADD DUP3 DUP2 MSTORE PUSH1 0x20 ADD PUSH1 0x0 ISZERO ISZERO DUP2 MSTORE POP PUSH1 0x1 PUSH1 0x0 DUP1 SLOAD DUP2 MSTORE PUSH1 0x20 ADD SWAP1 DUP2 MSTORE PUSH1 0x20 ADD PUSH1 0x0 KECCAK256 PUSH1 0x0 DUP3 ADD MLOAD DUP2 PUSH1 0x0 ADD PUSH1 0x0 PUSH2 0x100 EXP DUP2 SLOAD DUP2 PUSH20 0xFFFFFFFFFFFFFFFFFFFFFFFFFFFFFFFFFFFFFFFF MUL NOT AND SWAP1 DUP4 PUSH20 0xFFFFFFFFFFFFFFFFFFFFFFFFFFFFFFFFFFFFFFFF AND MUL OR SWAP1 SSTORE POP PUSH1 0x20 DUP3 ADD MLOAD DUP2 PUSH1 0x1 ADD SSTORE PUSH1 0x40 DUP3 ADD MLOAD DUP2 PUSH1 0x2 ADD SSTORE PUSH1 0x60 DUP3 ADD MLOAD DUP2 PUSH1 0x3 ADD SSTORE PUSH1 0x80 DUP3 ADD MLOAD DUP2 PUSH1 0x4 ADD SSTORE PUSH1 0xA0 DUP3 ADD MLOAD DUP2 PUSH1 0x5 ADD PUSH1 0x0 PUSH2 0x100 EXP DUP2 SLOAD DUP2 PUSH1 0xFF MUL NOT AND SWAP1 DUP4 ISZERO ISZERO MUL OR SWAP1 SSTORE POP SWAP1 POP POP PUSH1 0x0 DUP1 DUP2 SLOAD DUP1 SWAP3 SWAP2 SWAP1 PUSH2 0xD03 SWAP1 PUSH2 0x1973 JUMP JUMPDEST SWAP2 SWAP1 POP SSTORE POP CALLER PUSH20 0xFFFFFFFFFFFFFFFFFFFFFFFFFFFFFFFFFFFFFFFF AND PUSH32 0xC9142A9424EB889EB9F9493AEB5B3B9FFFFE3E32C9361BD725D709F6B28B91B1 PUSH1 0x0 SLOAD DUP6 DUP6 DUP6 PUSH1 0x40 MLOAD PUSH2 0xD56 SWAP5 SWAP4 SWAP3 SWAP2 SWAP1 PUSH2 0x19BB JUMP JUMPDEST PUSH1 0x40 MLOAD DUP1 SWAP2 SUB SWAP1 LOG2 POP POP POP JUMP JUMPDEST PUSH1 0x2 PUSH1 0x20 MSTORE DUP2 PUSH1 0x0 MSTORE PUSH1 0x40 PUSH1 0x0 KECCAK256 PUSH1 0x20 MSTORE DUP1 PUSH1 0x0 MSTORE PUSH1 0x40 PUSH1 0x0 KECCAK256 PUSH1 0x0 SWAP2 POP SWAP2 POP POP SLOAD DUP2 JUMP JUMPDEST PUSH32 0x0 DUP2 JUMP JUMPDEST TIMESTAMP PUSH1 0x1 PUSH1 0x0 DUP5 DUP2 MSTORE PUSH1 0x20 ADD SWAP1 DUP2 MSTORE PUSH1 0x20 ADD PUSH1 0x0 KECCAK256 PUSH1 0x3 ADD SLOAD LT PUSH2 0xE04 JUMPI PUSH1 0x40 MLOAD PUSH32 0x8C379A000000000000000000000000000000000000000000000000000000000 DUP2 MSTORE PUSH1 0x4 ADD PUSH2 0xDFB SWAP1 PUSH2 0x1A72 JUMP JUMPDEST PUSH1 0x40 MLOAD DUP1 SWAP2 SUB SWAP1 REVERT JUMPDEST TIMESTAMP PUSH1 0x1 PUSH1 0x0 DUP5 DUP2 MSTORE PUSH1 0x20 ADD SWAP1 DUP2 MSTORE PUSH1 0x20 ADD PUSH1 0x0 KECCAK256 PUSH1 0x4 ADD SLOAD GT PUSH2 0xE5C JUMPI PUSH1 0x40 MLOAD PUSH32 0x8C379A000000000000000000000000000000000000000000000000000000000 DUP2 MSTORE PUSH1 0x4 ADD PUSH2 0xE53 SWAP1 PUSH2 0x1ADE JUMP JUMPDEST PUSH1 0x40 MLOAD DUP1 SWAP2 SUB SWAP1 REVERT JUMPDEST PUSH32 0x0 PUSH20 0xFFFFFFFFFFFFFFFFFFFFFFFFFFFFFFFFFFFFFFFF AND PUSH4 0x23B872DD CALLER ADDRESS DUP5 PUSH1 0x40 MLOAD DUP5 PUSH4 0xFFFFFFFF AND PUSH1 0xE0 SHL DUP2 MSTORE PUSH1 0x4 ADD PUSH2 0xEB9 SWAP4 SWAP3 SWAP2 SWAP1 PUSH2 0x1AFE JUMP JUMPDEST PUSH1 0x20 PUSH1 0x40 MLOAD DUP1 DUP4 SUB DUP2 PUSH1 0x0 DUP8 GAS CALL ISZERO DUP1 ISZERO PUSH2 0xED8 JUMPI RETURNDATASIZE PUSH1 0x0 DUP1 RETURNDATACOPY RETURNDATASIZE PUSH1 0x0 REVERT JUMPDEST POP POP POP POP PUSH1 0x40 MLOAD RETURNDATASIZE PUSH1 0x1F NOT PUSH1 0x1F DUP3 ADD AND DUP3 ADD DUP1 PUSH1 0x40 MSTORE POP DUP2 ADD SWAP1 PUSH2 0xEFC SWAP2 SWAP1 PUSH2 0x1410 JUMP JUMPDEST POP DUP1 PUSH1 0x1 PUSH1 0x0 DUP5 DUP2 MSTORE PUSH1 0x20 ADD SWAP1 DUP2 MSTORE PUSH1 0x20 ADD PUSH1 0x0 KECCAK256 PUSH1 0x2 ADD PUSH1 0x0 DUP3 DUP3 SLOAD PUSH2 0xF23 SWAP2 SWAP1 PUSH2 0x1B35 JUMP JUMPDEST SWAP3 POP POP DUP2 SWAP1 SSTORE POP DUP1 PUSH1 0x2 PUSH1 0x0 DUP5 DUP2 MSTORE PUSH1 0x20 ADD SWAP1 DUP2 MSTORE PUSH1 0x20 ADD PUSH1 0x0 KECCAK256 PUSH1 0x0 CALLER PUSH20 0xFFFFFFFFFFFFFFFFFFFFFFFFFFFFFFFFFFFFFFFF AND PUSH20 0xFFFFFFFFFFFFFFFFFFFFFFFFFFFFFFFFFFFFFFFF AND DUP2 MSTORE PUSH1 0x20 ADD SWAP1 DUP2 MSTORE PUSH1 0x20 ADD PUSH1 0x0 KECCAK256 PUSH1 0x0 DUP3 DUP3 SLOAD PUSH2 0xF8A SWAP2 SWAP1 PUSH2 0x1B35 JUMP JUMPDEST SWAP3 POP POP DUP2 SWAP1 SSTORE POP CALLER PUSH20 0xFFFFFFFFFFFFFFFFFFFFFFFFFFFFFFFFFFFFFFFF AND DUP3 PUSH32 0x6BDB975DF800A73232998E71ED585D536222F1DFEAA622D7F62A23ADA686C82 DUP4 PUSH1 0x40 MLOAD PUSH2 0xFD8 SWAP2 SWAP1 PUSH2 0xFFD JUMP JUMPDEST PUSH1 0x40 MLOAD DUP1 SWAP2 SUB SWAP1 LOG3 POP POP JUMP JUMPDEST PUSH1 0x0 DUP2 SWAP1 POP SWAP2 SWAP1 POP JUMP JUMPDEST PUSH2 0xFF7 DUP2 PUSH2 0xFE4 JUMP JUMPDEST DUP3 MSTORE POP POP JUMP JUMPDEST PUSH1 0x0 PUSH1 0x20 DUP3 ADD SWAP1 POP PUSH2 0x1012 PUSH1 0x0 DUP4 ADD DUP5 PUSH2 0xFEE JUMP JUMPDEST SWAP3 SWAP2 POP POP JUMP JUMPDEST PUSH1 0x0 DUP1 REVERT JUMPDEST PUSH2 0x1026 DUP2 PUSH2 0xFE4 JUMP JUMPDEST DUP2 EQ PUSH2 0x1031 JUMPI PUSH1 0x0 DUP1 REVERT JUMPDEST POP JUMP JUMPDEST PUSH1 0x0 DUP2 CALLDATALOAD SWAP1 POP PUSH2 0x1043 DUP2 PUSH2 0x101D JUMP JUMPDEST SWAP3 SWAP2 POP POP JUMP JUMPDEST PUSH1 0x0 PUSH1 0x20 DUP3 DUP5 SUB SLT ISZERO PUSH2 0x105F JUMPI PUSH2 0x105E PUSH2 0x1018 JUMP JUMPDEST JUMPDEST PUSH1 0x0 PUSH2 0x106D DUP5 DUP3 DUP6 ADD PUSH2 0x1034 JUMP JUMPDEST SWAP2 POP POP SWAP3 SWAP2 POP POP JUMP JUMPDEST PUSH1 0x0 PUSH20 0xFFFFFFFFFFFFFFFFFFFFFFFFFFFFFFFFFFFFFFFF DUP3 AND SWAP1 POP SWAP2 SWAP1 POP JUMP JUMPDEST PUSH1 0x0 PUSH2 0x10A1 DUP3 PUSH2 0x1076 JUMP JUMPDEST SWAP1 POP SWAP2 SWAP1 POP JUMP JUMPDEST PUSH2 0x10B1 DUP2 PUSH2 0x1096 JUMP JUMPDEST DUP3 MSTORE POP POP JUMP JUMPDEST PUSH1 0x0 DUP2 ISZERO ISZERO SWAP1 POP SWAP2 SWAP1 POP JUMP JUMPDEST PUSH2 0x10CC DUP2 PUSH2 0x10B7 JUMP JUMPDEST DUP3 MSTORE POP POP JUMP JUMPDEST PUSH1 0x0 PUSH1 0xC0 DUP3 ADD SWAP1 POP PUSH2 0x10E7 PUSH1 0x0 DUP4 ADD DUP10 PUSH2 0x10A8 JUMP JUMPDEST PUSH2 0x10F4 PUSH1 0x20 DUP4 ADD DUP9 PUSH2 0xFEE JUMP JUMPDEST PUSH2 0x1101 PUSH1 0x40 DUP4 ADD DUP8 PUSH2 0xFEE JUMP JUMPDEST PUSH2 0x110E PUSH1 0x60 DUP4 ADD DUP7 PUSH2 0xFEE JUMP JUMPDEST PUSH2 0x111B PUSH1 0x80 DUP4 ADD DUP6 PUSH2 0xFEE JUMP JUMPDEST PUSH2 0x1128 PUSH1 0xA0 DUP4 ADD DUP5 PUSH2 0x10C3 JUMP JUMPDEST SWAP8 SWAP7 POP POP POP POP POP POP POP JUMP JUMPDEST PUSH1 0x0 DUP1 PUSH1 0x40 DUP4 DUP6 SUB SLT ISZERO PUSH2 0x114A JUMPI PUSH2 0x1149 PUSH2 0x1018 JUMP JUMPDEST JUMPDEST PUSH1 0x0 PUSH2 0x1158 DUP6 DUP3 DUP7 ADD PUSH2 0x1034 JUMP JUMPDEST SWAP3 POP POP PUSH1 0x20 PUSH2 0x1169 DUP6 DUP3 DUP7 ADD PUSH2 0x1034 JUMP JUMPDEST SWAP2 POP POP SWAP3 POP SWAP3 SWAP1 POP JUMP JUMPDEST PUSH1 0x0 DUP1 PUSH1 0x0 PUSH1 0x60 DUP5 DUP7 SUB SLT ISZERO PUSH2 0x118C JUMPI PUSH2 0x118B PUSH2 0x1018 JUMP JUMPDEST JUMPDEST PUSH1 0x0 PUSH2 0x119A DUP7 DUP3 DUP8 ADD PUSH2 0x1034 JUMP JUMPDEST SWAP4 POP POP PUSH1 0x20 PUSH2 0x11AB DUP7 DUP3 DUP8 ADD PUSH2 0x1034 JUMP JUMPDEST SWAP3 POP POP PUSH1 0x40 PUSH2 0x11BC DUP7 DUP3 DUP8 ADD PUSH2 0x1034 JUMP JUMPDEST SWAP2 POP POP SWAP3 POP SWAP3 POP SWAP3 JUMP JUMPDEST PUSH2 0x11CF DUP2 PUSH2 0x1096 JUMP JUMPDEST DUP2 EQ PUSH2 0x11DA JUMPI PUSH1 0x0 DUP1 REVERT JUMPDEST POP JUMP JUMPDEST PUSH1 0x0 DUP2 CALLDATALOAD SWAP1 POP PUSH2 0x11EC DUP2 PUSH2 0x11C6 JUMP JUMPDEST SWAP3 SWAP2 POP POP JUMP JUMPDEST PUSH1 0x0 DUP1 PUSH1 0x40 DUP4 DUP6 SUB SLT ISZERO PUSH2 0x1209 JUMPI PUSH2 0x1208 PUSH2 0x1018 JUMP JUMPDEST JUMPDEST PUSH1 0x0 PUSH2 0x1217 DUP6 DUP3 DUP7 ADD PUSH2 0x1034 JUMP JUMPDEST SWAP3 POP POP PUSH1 0x20 PUSH2 0x1228 DUP6 DUP3 DUP7 ADD PUSH2 0x11DD JUMP JUMPDEST SWAP2 POP POP SWAP3 POP SWAP3 SWAP1 POP JUMP JUMPDEST PUSH1 0x0 DUP2 SWAP1 POP SWAP2 SWAP1 POP JUMP JUMPDEST PUSH1 0x0 PUSH2 0x1257 PUSH2 0x1252 PUSH2 0x124D DUP5 PUSH2 0x1076 JUMP JUMPDEST PUSH2 0x1232 JUMP JUMPDEST PUSH2 0x1076 JUMP JUMPDEST SWAP1 POP SWAP2 SWAP1 POP JUMP JUMPDEST PUSH1 0x0 PUSH2 0x1269 DUP3 PUSH2 0x123C JUMP JUMPDEST SWAP1 POP SWAP2 SWAP1 POP JUMP JUMPDEST PUSH1 0x0 PUSH2 0x127B DUP3 PUSH2 0x125E JUMP JUMPDEST SWAP1 POP SWAP2 SWAP1 POP JUMP JUMPDEST PUSH2 0x128B DUP2 PUSH2 0x1270 JUMP JUMPDEST DUP3 MSTORE POP POP JUMP JUMPDEST PUSH1 0x0 PUSH1 0x20 DUP3 ADD SWAP1 POP PUSH2 0x12A6 PUSH1 0x0 DUP4 ADD DUP5 PUSH2 0x1282 JUMP JUMPDEST SWAP3 SWAP2 POP POP JUMP JUMPDEST PUSH1 0x0 DUP3 DUP3 MSTORE PUSH1 0x20 DUP3 ADD SWAP1 POP SWAP3 SWAP2 POP POP JUMP JUMPDEST PUSH32 0x63616E6E6F7420626520726566756E646564206265666F726520656E6465642E PUSH1 0x0 DUP3 ADD MSTORE POP JUMP JUMPDEST PUSH1 0x0 PUSH2 0x12F3 PUSH1 0x20 DUP4 PUSH2 0x12AC JUMP JUMPDEST SWAP2 POP PUSH2 0x12FE DUP3 PUSH2 0x12BD JUMP JUMPDEST PUSH1 0x20 DUP3 ADD SWAP1 POP SWAP2 SWAP1 POP JUMP JUMPDEST PUSH1 0x0 PUSH1 0x20 DUP3 ADD SWAP1 POP DUP2 DUP2 SUB PUSH1 0x0 DUP4 ADD MSTORE PUSH2 0x1322 DUP2 PUSH2 0x12E6 JUMP JUMPDEST SWAP1 POP SWAP2 SWAP1 POP JUMP JUMPDEST PUSH32 0x63616D706169676E20676F616C20697320726561636865642C20736F2063616E PUSH1 0x0 DUP3 ADD MSTORE PUSH32 0x6E6F7420626520726566756E6465642E00000000000000000000000000000000 PUSH1 0x20 DUP3 ADD MSTORE POP JUMP JUMPDEST PUSH1 0x0 PUSH2 0x1385 PUSH1 0x30 DUP4 PUSH2 0x12AC JUMP JUMPDEST SWAP2 POP PUSH2 0x1390 DUP3 PUSH2 0x1329 JUMP JUMPDEST PUSH1 0x40 DUP3 ADD SWAP1 POP SWAP2 SWAP1 POP JUMP JUMPDEST PUSH1 0x0 PUSH1 0x20 DUP3 ADD SWAP1 POP DUP2 DUP2 SUB PUSH1 0x0 DUP4 ADD MSTORE PUSH2 0x13B4 DUP2 PUSH2 0x1378 JUMP JUMPDEST SWAP1 POP SWAP2 SWAP1 POP JUMP JUMPDEST PUSH1 0x0 PUSH1 0x40 DUP3 ADD SWAP1 POP PUSH2 0x13D0 PUSH1 0x0 DUP4 ADD DUP6 PUSH2 0x10A8 JUMP JUMPDEST PUSH2 0x13DD PUSH1 0x20 DUP4 ADD DUP5 PUSH2 0xFEE JUMP JUMPDEST SWAP4 SWAP3 POP POP POP JUMP JUMPDEST PUSH2 0x13ED DUP2 PUSH2 0x10B7 JUMP JUMPDEST DUP2 EQ PUSH2 0x13F8 JUMPI PUSH1 0x0 DUP1 REVERT JUMPDEST POP JUMP JUMPDEST PUSH1 0x0 DUP2 MLOAD SWAP1 POP PUSH2 0x140A DUP2 PUSH2 0x13E4 JUMP JUMPDEST SWAP3 SWAP2 POP POP JUMP JUMPDEST PUSH1 0x0 PUSH1 0x20 DUP3 DUP5 SUB SLT ISZERO PUSH2 0x1426 JUMPI PUSH2 0x1425 PUSH2 0x1018 JUMP JUMPDEST JUMPDEST PUSH1 0x0 PUSH2 0x1434 DUP5 DUP3 DUP6 ADD PUSH2 0x13FB JUMP JUMPDEST SWAP2 POP POP SWAP3 SWAP2 POP POP JUMP JUMPDEST PUSH32 0x4E487B7100000000000000000000000000000000000000000000000000000000 PUSH1 0x0 MSTORE PUSH1 0x11 PUSH1 0x4 MSTORE PUSH1 0x24 PUSH1 0x0 REVERT JUMPDEST PUSH1 0x0 PUSH2 0x1477 DUP3 PUSH2 0xFE4 JUMP JUMPDEST SWAP2 POP PUSH2 0x1482 DUP4 PUSH2 0xFE4 JUMP JUMPDEST SWAP3 POP DUP3 DUP3 LT ISZERO PUSH2 0x1495 JUMPI PUSH2 0x1494 PUSH2 0x143D JUMP JUMPDEST JUMPDEST DUP3 DUP3 SUB SWAP1 POP SWAP3 SWAP2 POP POP JUMP JUMPDEST PUSH1 0x0 PUSH1 0x40 DUP3 ADD SWAP1 POP PUSH2 0x14B5 PUSH1 0x0 DUP4 ADD DUP6 PUSH2 0xFEE JUMP JUMPDEST PUSH2 0x14C2 PUSH1 0x20 DUP4 ADD DUP5 PUSH2 0xFEE JUMP JUMPDEST SWAP4 SWAP3 POP POP POP JUMP JUMPDEST PUSH32 0x6F6E6C792063726561746F722063616E20636C61696D2E000000000000000000 PUSH1 0x0 DUP3 ADD MSTORE POP JUMP JUMPDEST PUSH1 0x0 PUSH2 0x14FF PUSH1 0x17 DUP4 PUSH2 0x12AC JUMP JUMPDEST SWAP2 POP PUSH2 0x150A DUP3 PUSH2 0x14C9 JUMP JUMPDEST PUSH1 0x20 DUP3 ADD SWAP1 POP SWAP2 SWAP1 POP JUMP JUMPDEST PUSH1 0x0 PUSH1 0x20 DUP3 ADD SWAP1 POP DUP2 DUP2 SUB PUSH1 0x0 DUP4 ADD MSTORE PUSH2 0x152E DUP2 PUSH2 0x14F2 JUMP JUMPDEST SWAP1 POP SWAP2 SWAP1 POP JUMP JUMPDEST PUSH32 0x676F616C206973206E6F74207265616368656400000000000000000000000000 PUSH1 0x0 DUP3 ADD MSTORE POP JUMP JUMPDEST PUSH1 0x0 PUSH2 0x156B PUSH1 0x13 DUP4 PUSH2 0x12AC JUMP JUMPDEST SWAP2 POP PUSH2 0x1576 DUP3 PUSH2 0x1535 JUMP JUMPDEST PUSH1 0x20 DUP3 ADD SWAP1 POP SWAP2 SWAP1 POP JUMP JUMPDEST PUSH1 0x0 PUSH1 0x20 DUP3 ADD SWAP1 POP DUP2 DUP2 SUB PUSH1 0x0 DUP4 ADD MSTORE PUSH2 0x159A DUP2 PUSH2 0x155E JUMP JUMPDEST SWAP1 POP SWAP2 SWAP1 POP JUMP JUMPDEST PUSH32 0x63616E6E6F7420626520636C61696D6564206265666F726520656E6465642E00 PUSH1 0x0 DUP3 ADD MSTORE POP JUMP JUMPDEST PUSH1 0x0 PUSH2 0x15D7 PUSH1 0x1F DUP4 PUSH2 0x12AC JUMP JUMPDEST SWAP2 POP PUSH2 0x15E2 DUP3 PUSH2 0x15A1 JUMP JUMPDEST PUSH1 0x20 DUP3 ADD SWAP1 POP SWAP2 SWAP1 POP JUMP JUMPDEST PUSH1 0x0 PUSH1 0x20 DUP3 ADD SWAP1 POP DUP2 DUP2 SUB PUSH1 0x0 DUP4 ADD MSTORE PUSH2 0x1606 DUP2 PUSH2 0x15CA JUMP JUMPDEST SWAP1 POP SWAP2 SWAP1 POP JUMP JUMPDEST PUSH32 0x616C726561647920636C61696D65642E00000000000000000000000000000000 PUSH1 0x0 DUP3 ADD MSTORE POP JUMP JUMPDEST PUSH1 0x0 PUSH2 0x1643 PUSH1 0x10 DUP4 PUSH2 0x12AC JUMP JUMPDEST SWAP2 POP PUSH2 0x164E DUP3 PUSH2 0x160D JUMP JUMPDEST PUSH1 0x20 DUP3 ADD SWAP1 POP SWAP2 SWAP1 POP JUMP JUMPDEST PUSH1 0x0 PUSH1 0x20 DUP3 ADD SWAP1 POP DUP2 DUP2 SUB PUSH1 0x0 DUP4 ADD MSTORE PUSH2 0x1672 DUP2 PUSH2 0x1636 JUMP JUMPDEST SWAP1 POP SWAP2 SWAP1 POP JUMP JUMPDEST PUSH32 0x6F6E6C792063726561746F722063616E2063616E63656C2E0000000000000000 PUSH1 0x0 DUP3 ADD MSTORE POP JUMP JUMPDEST PUSH1 0x0 PUSH2 0x16AF PUSH1 0x18 DUP4 PUSH2 0x12AC JUMP JUMPDEST SWAP2 POP PUSH2 0x16BA DUP3 PUSH2 0x1679 JUMP JUMPDEST PUSH1 0x20 DUP3 ADD SWAP1 POP SWAP2 SWAP1 POP JUMP JUMPDEST PUSH1 0x0 PUSH1 0x20 DUP3 ADD SWAP1 POP DUP2 DUP2 SUB PUSH1 0x0 DUP4 ADD MSTORE PUSH2 0x16DE DUP2 PUSH2 0x16A2 JUMP JUMPDEST SWAP1 POP SWAP2 SWAP1 POP JUMP JUMPDEST PUSH32 0x63616E6E6F742062652063616E63656C65642061667465722073746172746564 PUSH1 0x0 DUP3 ADD MSTORE PUSH32 0x2E00000000000000000000000000000000000000000000000000000000000000 PUSH1 0x20 DUP3 ADD MSTORE POP JUMP JUMPDEST PUSH1 0x0 PUSH2 0x1741 PUSH1 0x21 DUP4 PUSH2 0x12AC JUMP JUMPDEST SWAP2 POP PUSH2 0x174C DUP3 PUSH2 0x16E5 JUMP JUMPDEST PUSH1 0x40 DUP3 ADD SWAP1 POP SWAP2 SWAP1 POP JUMP JUMPDEST PUSH1 0x0 PUSH1 0x20 DUP3 ADD SWAP1 POP DUP2 DUP2 SUB PUSH1 0x0 DUP4 ADD MSTORE PUSH2 0x1770 DUP2 PUSH2 0x1734 JUMP JUMPDEST SWAP1 POP SWAP2 SWAP1 POP JUMP JUMPDEST PUSH32 0x63616E6E6F7420626520756E706C656467656420616674657220656E6465642E PUSH1 0x0 DUP3 ADD MSTORE POP JUMP JUMPDEST PUSH1 0x0 PUSH2 0x17AD PUSH1 0x20 DUP4 PUSH2 0x12AC JUMP JUMPDEST SWAP2 POP PUSH2 0x17B8 DUP3 PUSH2 0x1777 JUMP JUMPDEST PUSH1 0x20 DUP3 ADD SWAP1 POP SWAP2 SWAP1 POP JUMP JUMPDEST PUSH1 0x0 PUSH1 0x20 DUP3 ADD SWAP1 POP DUP2 DUP2 SUB PUSH1 0x0 DUP4 ADD MSTORE PUSH2 0x17DC DUP2 PUSH2 0x17A0 JUMP JUMPDEST SWAP1 POP SWAP2 SWAP1 POP JUMP JUMPDEST PUSH32 0x796F752063616E6E6F7420756E706C65646765206D6F7265207468616E20796F PUSH1 0x0 DUP3 ADD MSTORE PUSH32 0x7520706C65646765642E00000000000000000000000000000000000000000000 PUSH1 0x20 DUP3 ADD MSTORE POP JUMP JUMPDEST PUSH1 0x0 PUSH2 0x183F PUSH1 0x2A DUP4 PUSH2 0x12AC JUMP JUMPDEST SWAP2 POP PUSH2 0x184A DUP3 PUSH2 0x17E3 JUMP JUMPDEST PUSH1 0x40 DUP3 ADD SWAP1 POP SWAP2 SWAP1 POP JUMP JUMPDEST PUSH1 0x0 PUSH1 0x20 DUP3 ADD SWAP1 POP DUP2 DUP2 SUB PUSH1 0x0 DUP4 ADD MSTORE PUSH2 0x186E DUP2 PUSH2 0x1832 JUMP JUMPDEST SWAP1 POP SWAP2 SWAP1 POP JUMP JUMPDEST PUSH32 0x53746172742054696D65206D75737420626520696E206675747572652E000000 PUSH1 0x0 DUP3 ADD MSTORE POP JUMP JUMPDEST PUSH1 0x0 PUSH2 0x18AB PUSH1 0x1D DUP4 PUSH2 0x12AC JUMP JUMPDEST SWAP2 POP PUSH2 0x18B6 DUP3 PUSH2 0x1875 JUMP JUMPDEST PUSH1 0x20 DUP3 ADD SWAP1 POP SWAP2 SWAP1 POP JUMP JUMPDEST PUSH1 0x0 PUSH1 0x20 DUP3 ADD SWAP1 POP DUP2 DUP2 SUB PUSH1 0x0 DUP4 ADD MSTORE PUSH2 0x18DA DUP2 PUSH2 0x189E JUMP JUMPDEST SWAP1 POP SWAP2 SWAP1 POP JUMP JUMPDEST PUSH32 0x456E642074696D65206D7573742062652061667465722073746172742074696D PUSH1 0x0 DUP3 ADD MSTORE PUSH32 0x652E000000000000000000000000000000000000000000000000000000000000 PUSH1 0x20 DUP3 ADD MSTORE POP JUMP JUMPDEST PUSH1 0x0 PUSH2 0x193D PUSH1 0x22 DUP4 PUSH2 0x12AC JUMP JUMPDEST SWAP2 POP PUSH2 0x1948 DUP3 PUSH2 0x18E1 JUMP JUMPDEST PUSH1 0x40 DUP3 ADD SWAP1 POP SWAP2 SWAP1 POP JUMP JUMPDEST PUSH1 0x0 PUSH1 0x20 DUP3 ADD SWAP1 POP DUP2 DUP2 SUB PUSH1 0x0 DUP4 ADD MSTORE PUSH2 0x196C DUP2 PUSH2 0x1930 JUMP JUMPDEST SWAP1 POP SWAP2 SWAP1 POP JUMP JUMPDEST PUSH1 0x0 PUSH2 0x197E DUP3 PUSH2 0xFE4 JUMP JUMPDEST SWAP2 POP PUSH32 0xFFFFFFFFFFFFFFFFFFFFFFFFFFFFFFFFFFFFFFFFFFFFFFFFFFFFFFFFFFFFFFFF DUP3 SUB PUSH2 0x19B0 JUMPI PUSH2 0x19AF PUSH2 0x143D JUMP JUMPDEST JUMPDEST PUSH1 0x1 DUP3 ADD SWAP1 POP SWAP2 SWAP1 POP JUMP JUMPDEST PUSH1 0x0 PUSH1 0x80 DUP3 ADD SWAP1 POP PUSH2 0x19D0 PUSH1 0x0 DUP4 ADD DUP8 PUSH2 0xFEE JUMP JUMPDEST PUSH2 0x19DD PUSH1 0x20 DUP4 ADD DUP7 PUSH2 0xFEE JUMP JUMPDEST PUSH2 0x19EA PUSH1 0x40 DUP4 ADD DUP6 PUSH2 0xFEE JUMP JUMPDEST PUSH2 0x19F7 PUSH1 0x60 DUP4 ADD DUP5 PUSH2 0xFEE JUMP JUMPDEST SWAP6 SWAP5 POP POP POP POP POP JUMP JUMPDEST PUSH32 0x63616E6E6F7420626520706C6564676564206265666F72652073746172746564 PUSH1 0x0 DUP3 ADD MSTORE PUSH32 0x2E00000000000000000000000000000000000000000000000000000000000000 PUSH1 0x20 DUP3 ADD MSTORE POP JUMP JUMPDEST PUSH1 0x0 PUSH2 0x1A5C PUSH1 0x21 DUP4 PUSH2 0x12AC JUMP JUMPDEST SWAP2 POP PUSH2 0x1A67 DUP3 PUSH2 0x1A00 JUMP JUMPDEST PUSH1 0x40 DUP3 ADD SWAP1 POP SWAP2 SWAP1 POP JUMP JUMPDEST PUSH1 0x0 PUSH1 0x20 DUP3 ADD SWAP1 POP DUP2 DUP2 SUB PUSH1 0x0 DUP4 ADD MSTORE PUSH2 0x1A8B DUP2 PUSH2 0x1A4F JUMP JUMPDEST SWAP1 POP SWAP2 SWAP1 POP JUMP JUMPDEST PUSH32 0x63616E6E6F7420626520706C656467656420616674657220656E6465642E0000 PUSH1 0x0 DUP3 ADD MSTORE POP JUMP JUMPDEST PUSH1 0x0 PUSH2 0x1AC8 PUSH1 0x1E DUP4 PUSH2 0x12AC JUMP JUMPDEST SWAP2 POP PUSH2 0x1AD3 DUP3 PUSH2 0x1A92 JUMP JUMPDEST PUSH1 0x20 DUP3 ADD SWAP1 POP SWAP2 SWAP1 POP JUMP JUMPDEST PUSH1 0x0 PUSH1 0x20 DUP3 ADD SWAP1 POP DUP2 DUP2 SUB PUSH1 0x0 DUP4 ADD MSTORE PUSH2 0x1AF7 DUP2 PUSH2 0x1ABB JUMP JUMPDEST SWAP1 POP SWAP2 SWAP1 POP JUMP JUMPDEST PUSH1 0x0 PUSH1 0x60 DUP3 ADD SWAP1 POP PUSH2 0x1B13 PUSH1 0x0 DUP4 ADD DUP7 PUSH2 0x10A8 JUMP JUMPDEST PUSH2 0x1B20 PUSH1 0x20 DUP4 ADD DUP6 PUSH2 0x10A8 JUMP JUMPDEST PUSH2 0x1B2D PUSH1 0x40 DUP4 ADD DUP5 PUSH2 0xFEE JUMP JUMPDEST SWAP5 SWAP4 POP POP POP POP JUMP JUMPDEST PUSH1 0x0 PUSH2 0x1B40 DUP3 PUSH2 0xFE4 JUMP JUMPDEST SWAP2 POP PUSH2 0x1B4B DUP4 PUSH2 0xFE4 JUMP JUMPDEST SWAP3 POP DUP3 PUSH32 0xFFFFFFFFFFFFFFFFFFFFFFFFFFFFFFFFFFFFFFFFFFFFFFFFFFFFFFFFFFFFFFFF SUB DUP3 GT ISZERO PUSH2 0x1B80 JUMPI PUSH2 0x1B7F PUSH2 0x143D JUMP JUMPDEST JUMPDEST DUP3 DUP3 ADD SWAP1 POP SWAP3 SWAP2 POP POP JUMP INVALID LOG2 PUSH5 0x6970667358 0x22 SLT KECCAK256 SWAP16 PUSH14 0x9ED031D28105E8CF4F6ECAE7D43E 0xB1 LOG3 0x22 0xE5 SGT 0x4A 0xCD 0xFB PUSH7 0x54106EBEA7F764 PUSH5 0x736F6C6343 STOP ADDMOD 0xD STOP CALLER "
				},
				"gasEstimates": {
					"creation": {
						"codeDepositCost": "1421000",
						"executionCost": "infinite",
						"totalCost": "infinite"
					},
					"external": {
						"campaigns(uint256)": "infinite",
						"cancel(uint256)": "infinite",
						"claim(uint256)": "infinite",
						"count()": "2430",
						"launch(uint256,uint256,uint256)": "infinite",
						"pledge(uint256,uint256)": "infinite",
						"pledgedAmount(uint256,address)": "infinite",
						"refund(uint256)": "infinite",
						"token()": "infinite",
						"unpledge(uint256,uint256)": "infinite"
					}
				},
				"methodIdentifiers": {
					"campaigns(uint256)": "141961bc",
					"cancel(uint256)": "40e58ee5",
					"claim(uint256)": "379607f5",
					"count()": "06661abd",
					"launch(uint256,uint256,uint256)": "8736c179",
					"pledge(uint256,uint256)": "fde327be",
					"pledgedAmount(uint256,address)": "aa4fb63a",
					"refund(uint256)": "278ecde1",
					"token()": "fc0c546a",
					"unpledge(uint256,uint256)": "711853ab"
				}
			},
			"storageLayout": {
				"storage": [
					{
						"astId": 64,
						"contract": "CrowdFund.sol:CrowdFund",
						"label": "count",
						"offset": 0,
						"slot": "0",
						"type": "t_uint256"
					},
					{
						"astId": 69,
						"contract": "CrowdFund.sol:CrowdFund",
						"label": "campaigns",
						"offset": 0,
						"slot": "1",
						"type": "t_mapping(t_uint256,t_struct(Campaign)59_storage)"
					},
					{
						"astId": 75,
						"contract": "CrowdFund.sol:CrowdFund",
						"label": "pledgedAmount",
						"offset": 0,
						"slot": "2",
						"type": "t_mapping(t_uint256,t_mapping(t_address,t_uint256))"
					}
				],
				"types": {
					"t_address": {
						"encoding": "inplace",
						"label": "address",
						"numberOfBytes": "20"
					},
					"t_bool": {
						"encoding": "inplace",
						"label": "bool",
						"numberOfBytes": "1"
					},
					"t_mapping(t_address,t_uint256)": {
						"encoding": "mapping",
						"key": "t_address",
						"label": "mapping(address => uint256)",
						"numberOfBytes": "32",
						"value": "t_uint256"
					},
					"t_mapping(t_uint256,t_mapping(t_address,t_uint256))": {
						"encoding": "mapping",
						"key": "t_uint256",
						"label": "mapping(uint256 => mapping(address => uint256))",
						"numberOfBytes": "32",
						"value": "t_mapping(t_address,t_uint256)"
					},
					"t_mapping(t_uint256,t_struct(Campaign)59_storage)": {
						"encoding": "mapping",
						"key": "t_uint256",
						"label": "mapping(uint256 => struct CrowdFund.Campaign)",
						"numberOfBytes": "32",
						"value": "t_struct(Campaign)59_storage"
					},
					"t_struct(Campaign)59_storage": {
						"encoding": "inplace",
						"label": "struct CrowdFund.Campaign",
						"members": [
							{
								"astId": 48,
								"contract": "CrowdFund.sol:CrowdFund",
								"label": "creator",
								"offset": 0,
								"slot": "0",
								"type": "t_address"
							},
							{
								"astId": 50,
								"contract": "CrowdFund.sol:CrowdFund",
								"label": "goal",
								"offset": 0,
								"slot": "1",
								"type": "t_uint256"
							},
							{
								"astId": 52,
								"contract": "CrowdFund.sol:CrowdFund",
								"label": "pledged",
								"offset": 0,
								"slot": "2",
								"type": "t_uint256"
							},
							{
								"astId": 54,
								"contract": "CrowdFund.sol:CrowdFund",
								"label": "startTime",
								"offset": 0,
								"slot": "3",
								"type": "t_uint256"
							},
							{
								"astId": 56,
								"contract": "CrowdFund.sol:CrowdFund",
								"label": "endTime",
								"offset": 0,
								"slot": "4",
								"type": "t_uint256"
							},
							{
								"astId": 58,
								"contract": "CrowdFund.sol:CrowdFund",
								"label": "claimed",
								"offset": 0,
								"slot": "5",
								"type": "t_bool"
							}
						],
						"numberOfBytes": "192"
					},
					"t_uint256": {
						"encoding": "inplace",
						"label": "uint256",
						"numberOfBytes": "32"
					}
				}
			},
			"userdoc": {
				"kind": "user",
				"methods": {},
				"version": 1
			}
		}
	}
}