{
	"ReceiveSendEth..sol": {
		"ReceiveSendEth": {
			"abi": [
				{
					"inputs": [],
					"stateMutability": "nonpayable",
					"type": "constructor"
				},
				{
					"inputs": [],
					"name": "aa",
					"outputs": [],
					"stateMutability": "nonpayable",
					"type": "function"
				},
				{
					"inputs": [],
					"name": "balance",
					"outputs": [
						{
							"internalType": "uint256",
							"name": "",
							"type": "uint256"
						}
					],
					"stateMutability": "view",
					"type": "function"
				},
				{
					"inputs": [],
					"name": "owner",
					"outputs": [
						{
							"internalType": "address",
							"name": "",
							"type": "address"
						}
					],
					"stateMutability": "view",
					"type": "function"
				},
				{
					"inputs": [
						{
							"internalType": "address payable",
							"name": "addr",
							"type": "address"
						},
						{
							"internalType": "uint256",
							"name": "amount",
							"type": "uint256"
						}
					],
					"name": "withdraw",
					"outputs": [],
					"stateMutability": "nonpayable",
					"type": "function"
				},
				{
					"stateMutability": "payable",
					"type": "receive"
				}
			],
			"devdoc": {
				"kind": "dev",
				"methods": {},
				"version": 1
			},
			"evm": {
				"assembly": "    /* \"ReceiveSendEth..sol\":59:511  contract ReceiveSendEth{... */\n  mstore(0x40, 0x80)\n    /* \"ReceiveSendEth..sol\":136:145  msg.value */\n  callvalue\n    /* \"ReceiveSendEth..sol\":116:145  uint public balance=msg.value */\n  0x01\n  sstore\n    /* \"ReceiveSendEth..sol\":154:202  constructor(){... */\n  callvalue\n  dup1\n  iszero\n  tag_1\n  jumpi\n  0x00\n  dup1\n  revert\ntag_1:\n  pop\n    /* \"ReceiveSendEth..sol\":184:194  msg.sender */\n  caller\n    /* \"ReceiveSendEth..sol\":178:183  owner */\n  0x00\n  dup1\n    /* \"ReceiveSendEth..sol\":178:194  owner=msg.sender */\n  0x0100\n  exp\n  dup2\n  sload\n  dup2\n  0xffffffffffffffffffffffffffffffffffffffff\n  mul\n  not\n  and\n  swap1\n  dup4\n  0xffffffffffffffffffffffffffffffffffffffff\n  and\n  mul\n  or\n  swap1\n  sstore\n  pop\n    /* \"ReceiveSendEth..sol\":59:511  contract ReceiveSendEth{... */\n  dataSize(sub_0)\n  dup1\n  dataOffset(sub_0)\n  0x00\n  codecopy\n  0x00\n  return\nstop\n\nsub_0: assembly {\n        /* \"ReceiveSendEth..sol\":59:511  contract ReceiveSendEth{... */\n      mstore(0x40, 0x80)\n      jumpi(tag_1, lt(calldatasize, 0x04))\n      shr(0xe0, calldataload(0x00))\n      dup1\n      0x8466c3e6\n      eq\n      tag_3\n      jumpi\n      dup1\n      0x8da5cb5b\n      eq\n      tag_4\n      jumpi\n      dup1\n      0xb69ef8a8\n      eq\n      tag_5\n      jumpi\n      dup1\n      0xf3fef3a3\n      eq\n      tag_6\n      jumpi\n      jump(tag_2)\n    tag_1:\n      jumpi(tag_2, calldatasize)\n        /* \"ReceiveSendEth..sol\":256:265  msg.value */\n      callvalue\n        /* \"ReceiveSendEth..sol\":247:254  balance */\n      0x01\n      0x00\n        /* \"ReceiveSendEth..sol\":247:265  balance+=msg.value */\n      dup3\n      dup3\n      sload\n      tag_9\n      swap2\n      swap1\n      tag_10\n      jump\t// in\n    tag_9:\n      swap3\n      pop\n      pop\n      dup2\n      swap1\n      sstore\n      stop\n        /* \"ReceiveSendEth..sol\":59:511  contract ReceiveSendEth{... */\n    tag_2:\n      0x00\n      dup1\n      revert\n        /* \"ReceiveSendEth..sol\":459:508  function aa() external {... */\n    tag_3:\n      callvalue\n      dup1\n      iszero\n      tag_11\n      jumpi\n      0x00\n      dup1\n      revert\n    tag_11:\n      pop\n      tag_12\n      tag_13\n      jump\t// in\n    tag_12:\n      stop\n        /* \"ReceiveSendEth..sol\":89:109  address public owner */\n    tag_4:\n      callvalue\n      dup1\n      iszero\n      tag_14\n      jumpi\n      0x00\n      dup1\n      revert\n    tag_14:\n      pop\n      tag_15\n      tag_16\n      jump\t// in\n    tag_15:\n      mload(0x40)\n      tag_17\n      swap2\n      swap1\n      tag_18\n      jump\t// in\n    tag_17:\n      mload(0x40)\n      dup1\n      swap2\n      sub\n      swap1\n      return\n        /* \"ReceiveSendEth..sol\":116:145  uint public balance=msg.value */\n    tag_5:\n      callvalue\n      dup1\n      iszero\n      tag_19\n      jumpi\n      0x00\n      dup1\n      revert\n    tag_19:\n      pop\n      tag_20\n      tag_21\n      jump\t// in\n    tag_20:\n      mload(0x40)\n      tag_22\n      swap2\n      swap1\n      tag_23\n      jump\t// in\n    tag_22:\n      mload(0x40)\n      dup1\n      swap2\n      sub\n      swap1\n      return\n        /* \"ReceiveSendEth..sol\":281:380  function withdraw(address payable addr, uint amount) public{... */\n    tag_6:\n      callvalue\n      dup1\n      iszero\n      tag_24\n      jumpi\n      0x00\n      dup1\n      revert\n    tag_24:\n      pop\n      tag_25\n      0x04\n      dup1\n      calldatasize\n      sub\n      dup2\n      add\n      swap1\n      tag_26\n      swap2\n      swap1\n      tag_27\n      jump\t// in\n    tag_26:\n      tag_28\n      jump\t// in\n    tag_25:\n      stop\n        /* \"ReceiveSendEth..sol\":459:508  function aa() external {... */\n    tag_13:\n        /* \"ReceiveSendEth..sol\":493:500  inc(22) */\n      tag_30\n        /* \"ReceiveSendEth..sol\":497:499  22 */\n      0x16\n        /* \"ReceiveSendEth..sol\":493:496  inc */\n      tag_31\n        /* \"ReceiveSendEth..sol\":493:500  inc(22) */\n      jump\t// in\n    tag_30:\n        /* \"ReceiveSendEth..sol\":459:508  function aa() external {... */\n      jump\t// out\n        /* \"ReceiveSendEth..sol\":89:109  address public owner */\n    tag_16:\n      0x00\n      dup1\n      sload\n      swap1\n      0x0100\n      exp\n      swap1\n      div\n      0xffffffffffffffffffffffffffffffffffffffff\n      and\n      dup2\n      jump\t// out\n        /* \"ReceiveSendEth..sol\":116:145  uint public balance=msg.value */\n    tag_21:\n      sload(0x01)\n      dup2\n      jump\t// out\n        /* \"ReceiveSendEth..sol\":281:380  function withdraw(address payable addr, uint amount) public{... */\n    tag_28:\n        /* \"ReceiveSendEth..sol\":351:355  addr */\n      dup2\n        /* \"ReceiveSendEth..sol\":351:364  addr.transfer */\n      0xffffffffffffffffffffffffffffffffffffffff\n      and\n        /* \"ReceiveSendEth..sol\":351:372  addr.transfer(amount) */\n      0x08fc\n        /* \"ReceiveSendEth..sol\":365:371  amount */\n      dup3\n        /* \"ReceiveSendEth..sol\":351:372  addr.transfer(amount) */\n      swap1\n      dup2\n      iszero\n      mul\n      swap1\n      mload(0x40)\n      0x00\n      mload(0x40)\n      dup1\n      dup4\n      sub\n      dup2\n      dup6\n      dup9\n      dup9\n      call\n      swap4\n      pop\n      pop\n      pop\n      pop\n      iszero\n      dup1\n      iszero\n      tag_34\n      jumpi\n      returndatasize\n      0x00\n      dup1\n      returndatacopy\n      revert(0x00, returndatasize)\n    tag_34:\n      pop\n        /* \"ReceiveSendEth..sol\":281:380  function withdraw(address payable addr, uint amount) public{... */\n      pop\n      pop\n      jump\t// out\n        /* \"ReceiveSendEth..sol\":388:451  function inc(uint val) internal {... */\n    tag_31:\n        /* \"ReceiveSendEth..sol\":440:443  val */\n      dup1\n        /* \"ReceiveSendEth..sol\":431:438  balance */\n      0x01\n      0x00\n        /* \"ReceiveSendEth..sol\":431:443  balance+=val */\n      dup3\n      dup3\n      sload\n      tag_36\n      swap2\n      swap1\n      tag_10\n      jump\t// in\n    tag_36:\n      swap3\n      pop\n      pop\n      dup2\n      swap1\n      sstore\n      pop\n        /* \"ReceiveSendEth..sol\":388:451  function inc(uint val) internal {... */\n      pop\n      jump\t// out\n        /* \"#utility.yul\":7:84   */\n    tag_37:\n        /* \"#utility.yul\":44:51   */\n      0x00\n        /* \"#utility.yul\":73:78   */\n      dup2\n        /* \"#utility.yul\":62:78   */\n      swap1\n      pop\n        /* \"#utility.yul\":7:84   */\n      swap2\n      swap1\n      pop\n      jump\t// out\n        /* \"#utility.yul\":90:270   */\n    tag_38:\n        /* \"#utility.yul\":138:215   */\n      0x4e487b7100000000000000000000000000000000000000000000000000000000\n        /* \"#utility.yul\":135:136   */\n      0x00\n        /* \"#utility.yul\":128:216   */\n      mstore\n        /* \"#utility.yul\":235:239   */\n      0x11\n        /* \"#utility.yul\":232:233   */\n      0x04\n        /* \"#utility.yul\":225:240   */\n      mstore\n        /* \"#utility.yul\":259:263   */\n      0x24\n        /* \"#utility.yul\":256:257   */\n      0x00\n        /* \"#utility.yul\":249:264   */\n      revert\n        /* \"#utility.yul\":276:467   */\n    tag_10:\n        /* \"#utility.yul\":316:319   */\n      0x00\n        /* \"#utility.yul\":335:355   */\n      tag_55\n        /* \"#utility.yul\":353:354   */\n      dup3\n        /* \"#utility.yul\":335:355   */\n      tag_37\n      jump\t// in\n    tag_55:\n        /* \"#utility.yul\":330:355   */\n      swap2\n      pop\n        /* \"#utility.yul\":369:389   */\n      tag_56\n        /* \"#utility.yul\":387:388   */\n      dup4\n        /* \"#utility.yul\":369:389   */\n      tag_37\n      jump\t// in\n    tag_56:\n        /* \"#utility.yul\":364:389   */\n      swap3\n      pop\n        /* \"#utility.yul\":412:413   */\n      dup3\n        /* \"#utility.yul\":409:410   */\n      dup3\n        /* \"#utility.yul\":405:414   */\n      add\n        /* \"#utility.yul\":398:414   */\n      swap1\n      pop\n        /* \"#utility.yul\":433:436   */\n      dup1\n        /* \"#utility.yul\":430:431   */\n      dup3\n        /* \"#utility.yul\":427:437   */\n      gt\n        /* \"#utility.yul\":424:460   */\n      iszero\n      tag_57\n      jumpi\n        /* \"#utility.yul\":440:458   */\n      tag_58\n      tag_38\n      jump\t// in\n    tag_58:\n        /* \"#utility.yul\":424:460   */\n    tag_57:\n        /* \"#utility.yul\":276:467   */\n      swap3\n      swap2\n      pop\n      pop\n      jump\t// out\n        /* \"#utility.yul\":473:599   */\n    tag_39:\n        /* \"#utility.yul\":510:517   */\n      0x00\n        /* \"#utility.yul\":550:592   */\n      0xffffffffffffffffffffffffffffffffffffffff\n        /* \"#utility.yul\":543:548   */\n      dup3\n        /* \"#utility.yul\":539:593   */\n      and\n        /* \"#utility.yul\":528:593   */\n      swap1\n      pop\n        /* \"#utility.yul\":473:599   */\n      swap2\n      swap1\n      pop\n      jump\t// out\n        /* \"#utility.yul\":605:701   */\n    tag_40:\n        /* \"#utility.yul\":642:649   */\n      0x00\n        /* \"#utility.yul\":671:695   */\n      tag_61\n        /* \"#utility.yul\":689:694   */\n      dup3\n        /* \"#utility.yul\":671:695   */\n      tag_39\n      jump\t// in\n    tag_61:\n        /* \"#utility.yul\":660:695   */\n      swap1\n      pop\n        /* \"#utility.yul\":605:701   */\n      swap2\n      swap1\n      pop\n      jump\t// out\n        /* \"#utility.yul\":707:825   */\n    tag_41:\n        /* \"#utility.yul\":794:818   */\n      tag_63\n        /* \"#utility.yul\":812:817   */\n      dup2\n        /* \"#utility.yul\":794:818   */\n      tag_40\n      jump\t// in\n    tag_63:\n        /* \"#utility.yul\":789:792   */\n      dup3\n        /* \"#utility.yul\":782:819   */\n      mstore\n        /* \"#utility.yul\":707:825   */\n      pop\n      pop\n      jump\t// out\n        /* \"#utility.yul\":831:1053   */\n    tag_18:\n        /* \"#utility.yul\":924:928   */\n      0x00\n        /* \"#utility.yul\":962:964   */\n      0x20\n        /* \"#utility.yul\":951:960   */\n      dup3\n        /* \"#utility.yul\":947:965   */\n      add\n        /* \"#utility.yul\":939:965   */\n      swap1\n      pop\n        /* \"#utility.yul\":975:1046   */\n      tag_65\n        /* \"#utility.yul\":1043:1044   */\n      0x00\n        /* \"#utility.yul\":1032:1041   */\n      dup4\n        /* \"#utility.yul\":1028:1045   */\n      add\n        /* \"#utility.yul\":1019:1025   */\n      dup5\n        /* \"#utility.yul\":975:1046   */\n      tag_41\n      jump\t// in\n    tag_65:\n        /* \"#utility.yul\":831:1053   */\n      swap3\n      swap2\n      pop\n      pop\n      jump\t// out\n        /* \"#utility.yul\":1059:1177   */\n    tag_42:\n        /* \"#utility.yul\":1146:1170   */\n      tag_67\n        /* \"#utility.yul\":1164:1169   */\n      dup2\n        /* \"#utility.yul\":1146:1170   */\n      tag_37\n      jump\t// in\n    tag_67:\n        /* \"#utility.yul\":1141:1144   */\n      dup3\n        /* \"#utility.yul\":1134:1171   */\n      mstore\n        /* \"#utility.yul\":1059:1177   */\n      pop\n      pop\n      jump\t// out\n        /* \"#utility.yul\":1183:1405   */\n    tag_23:\n        /* \"#utility.yul\":1276:1280   */\n      0x00\n        /* \"#utility.yul\":1314:1316   */\n      0x20\n        /* \"#utility.yul\":1303:1312   */\n      dup3\n        /* \"#utility.yul\":1299:1317   */\n      add\n        /* \"#utility.yul\":1291:1317   */\n      swap1\n      pop\n        /* \"#utility.yul\":1327:1398   */\n      tag_69\n        /* \"#utility.yul\":1395:1396   */\n      0x00\n        /* \"#utility.yul\":1384:1393   */\n      dup4\n        /* \"#utility.yul\":1380:1397   */\n      add\n        /* \"#utility.yul\":1371:1377   */\n      dup5\n        /* \"#utility.yul\":1327:1398   */\n      tag_42\n      jump\t// in\n    tag_69:\n        /* \"#utility.yul\":1183:1405   */\n      swap3\n      swap2\n      pop\n      pop\n      jump\t// out\n        /* \"#utility.yul\":1492:1609   */\n    tag_44:\n        /* \"#utility.yul\":1601:1602   */\n      0x00\n        /* \"#utility.yul\":1598:1599   */\n      dup1\n        /* \"#utility.yul\":1591:1603   */\n      revert\n        /* \"#utility.yul\":1738:1842   */\n    tag_46:\n        /* \"#utility.yul\":1783:1790   */\n      0x00\n        /* \"#utility.yul\":1812:1836   */\n      tag_74\n        /* \"#utility.yul\":1830:1835   */\n      dup3\n        /* \"#utility.yul\":1812:1836   */\n      tag_39\n      jump\t// in\n    tag_74:\n        /* \"#utility.yul\":1801:1836   */\n      swap1\n      pop\n        /* \"#utility.yul\":1738:1842   */\n      swap2\n      swap1\n      pop\n      jump\t// out\n        /* \"#utility.yul\":1848:1986   */\n    tag_47:\n        /* \"#utility.yul\":1929:1961   */\n      tag_76\n        /* \"#utility.yul\":1955:1960   */\n      dup2\n        /* \"#utility.yul\":1929:1961   */\n      tag_46\n      jump\t// in\n    tag_76:\n        /* \"#utility.yul\":1922:1927   */\n      dup2\n        /* \"#utility.yul\":1919:1962   */\n      eq\n        /* \"#utility.yul\":1909:1980   */\n      tag_77\n      jumpi\n        /* \"#utility.yul\":1976:1977   */\n      0x00\n        /* \"#utility.yul\":1973:1974   */\n      dup1\n        /* \"#utility.yul\":1966:1978   */\n      revert\n        /* \"#utility.yul\":1909:1980   */\n    tag_77:\n        /* \"#utility.yul\":1848:1986   */\n      pop\n      jump\t// out\n        /* \"#utility.yul\":1992:2147   */\n    tag_48:\n        /* \"#utility.yul\":2046:2051   */\n      0x00\n        /* \"#utility.yul\":2084:2090   */\n      dup2\n        /* \"#utility.yul\":2071:2091   */\n      calldataload\n        /* \"#utility.yul\":2062:2091   */\n      swap1\n      pop\n        /* \"#utility.yul\":2100:2141   */\n      tag_79\n        /* \"#utility.yul\":2135:2140   */\n      dup2\n        /* \"#utility.yul\":2100:2141   */\n      tag_47\n      jump\t// in\n    tag_79:\n        /* \"#utility.yul\":1992:2147   */\n      swap3\n      swap2\n      pop\n      pop\n      jump\t// out\n        /* \"#utility.yul\":2153:2275   */\n    tag_49:\n        /* \"#utility.yul\":2226:2250   */\n      tag_81\n        /* \"#utility.yul\":2244:2249   */\n      dup2\n        /* \"#utility.yul\":2226:2250   */\n      tag_37\n      jump\t// in\n    tag_81:\n        /* \"#utility.yul\":2219:2224   */\n      dup2\n        /* \"#utility.yul\":2216:2251   */\n      eq\n        /* \"#utility.yul\":2206:2269   */\n      tag_82\n      jumpi\n        /* \"#utility.yul\":2265:2266   */\n      0x00\n        /* \"#utility.yul\":2262:2263   */\n      dup1\n        /* \"#utility.yul\":2255:2267   */\n      revert\n        /* \"#utility.yul\":2206:2269   */\n    tag_82:\n        /* \"#utility.yul\":2153:2275   */\n      pop\n      jump\t// out\n        /* \"#utility.yul\":2281:2420   */\n    tag_50:\n        /* \"#utility.yul\":2327:2332   */\n      0x00\n        /* \"#utility.yul\":2365:2371   */\n      dup2\n        /* \"#utility.yul\":2352:2372   */\n      calldataload\n        /* \"#utility.yul\":2343:2372   */\n      swap1\n      pop\n        /* \"#utility.yul\":2381:2414   */\n      tag_84\n        /* \"#utility.yul\":2408:2413   */\n      dup2\n        /* \"#utility.yul\":2381:2414   */\n      tag_49\n      jump\t// in\n    tag_84:\n        /* \"#utility.yul\":2281:2420   */\n      swap3\n      swap2\n      pop\n      pop\n      jump\t// out\n        /* \"#utility.yul\":2426:2916   */\n    tag_27:\n        /* \"#utility.yul\":2502:2508   */\n      0x00\n        /* \"#utility.yul\":2510:2516   */\n      dup1\n        /* \"#utility.yul\":2559:2561   */\n      0x40\n        /* \"#utility.yul\":2547:2556   */\n      dup4\n        /* \"#utility.yul\":2538:2545   */\n      dup6\n        /* \"#utility.yul\":2534:2557   */\n      sub\n        /* \"#utility.yul\":2530:2562   */\n      slt\n        /* \"#utility.yul\":2527:2646   */\n      iszero\n      tag_86\n      jumpi\n        /* \"#utility.yul\":2565:2644   */\n      tag_87\n      tag_44\n      jump\t// in\n    tag_87:\n        /* \"#utility.yul\":2527:2646   */\n    tag_86:\n        /* \"#utility.yul\":2685:2686   */\n      0x00\n        /* \"#utility.yul\":2710:2771   */\n      tag_88\n        /* \"#utility.yul\":2763:2770   */\n      dup6\n        /* \"#utility.yul\":2754:2760   */\n      dup3\n        /* \"#utility.yul\":2743:2752   */\n      dup7\n        /* \"#utility.yul\":2739:2761   */\n      add\n        /* \"#utility.yul\":2710:2771   */\n      tag_48\n      jump\t// in\n    tag_88:\n        /* \"#utility.yul\":2700:2771   */\n      swap3\n      pop\n        /* \"#utility.yul\":2656:2781   */\n      pop\n        /* \"#utility.yul\":2820:2822   */\n      0x20\n        /* \"#utility.yul\":2846:2899   */\n      tag_89\n        /* \"#utility.yul\":2891:2898   */\n      dup6\n        /* \"#utility.yul\":2882:2888   */\n      dup3\n        /* \"#utility.yul\":2871:2880   */\n      dup7\n        /* \"#utility.yul\":2867:2889   */\n      add\n        /* \"#utility.yul\":2846:2899   */\n      tag_50\n      jump\t// in\n    tag_89:\n        /* \"#utility.yul\":2836:2899   */\n      swap2\n      pop\n        /* \"#utility.yul\":2791:2909   */\n      pop\n        /* \"#utility.yul\":2426:2916   */\n      swap3\n      pop\n      swap3\n      swap1\n      pop\n      jump\t// out\n\n    auxdata: 0xa2646970667358221220478a1ff4943d7e5293b39ea5b1cc7099d2a7b5885ffd61407c4dc2144dc259b164736f6c63430008110033\n}\n",
				"bytecode": {
					"linkReferences": {},
					"object": "60806040523460015534801561001457600080fd5b50336000806101000a81548173ffffffffffffffffffffffffffffffffffffffff021916908373ffffffffffffffffffffffffffffffffffffffff160217905550610372806100646000396000f3fe6080604052600436106100435760003560e01c80638466c3e6146100675780638da5cb5b1461007e578063b69ef8a8146100a9578063f3fef3a3146100d457610062565b3661006257346001600082825461005a91906101d3565b925050819055005b600080fd5b34801561007357600080fd5b5061007c6100fd565b005b34801561008a57600080fd5b50610093610109565b6040516100a09190610248565b60405180910390f35b3480156100b557600080fd5b506100be61012d565b6040516100cb9190610272565b60405180910390f35b3480156100e057600080fd5b506100fb60048036038101906100f691906102fc565b610133565b005b610107601661017e565b565b60008054906101000a900473ffffffffffffffffffffffffffffffffffffffff1681565b60015481565b8173ffffffffffffffffffffffffffffffffffffffff166108fc829081150290604051600060405180830381858888f19350505050158015610179573d6000803e3d6000fd5b505050565b806001600082825461019091906101d3565b9250508190555050565b6000819050919050565b7f4e487b7100000000000000000000000000000000000000000000000000000000600052601160045260246000fd5b60006101de8261019a565b91506101e98361019a565b9250828201905080821115610201576102006101a4565b5b92915050565b600073ffffffffffffffffffffffffffffffffffffffff82169050919050565b600061023282610207565b9050919050565b61024281610227565b82525050565b600060208201905061025d6000830184610239565b92915050565b61026c8161019a565b82525050565b60006020820190506102876000830184610263565b92915050565b600080fd5b600061029d82610207565b9050919050565b6102ad81610292565b81146102b857600080fd5b50565b6000813590506102ca816102a4565b92915050565b6102d98161019a565b81146102e457600080fd5b50565b6000813590506102f6816102d0565b92915050565b600080604083850312156103135761031261028d565b5b6000610321858286016102bb565b9250506020610332858286016102e7565b915050925092905056fea2646970667358221220478a1ff4943d7e5293b39ea5b1cc7099d2a7b5885ffd61407c4dc2144dc259b164736f6c63430008110033",
					"opcodes": "PUSH1 0x80 PUSH1 0x40 MSTORE CALLVALUE PUSH1 0x1 SSTORE CALLVALUE DUP1 ISZERO PUSH2 0x14 JUMPI PUSH1 0x0 DUP1 REVERT JUMPDEST POP CALLER PUSH1 0x0 DUP1 PUSH2 0x100 EXP DUP2 SLOAD DUP2 PUSH20 0xFFFFFFFFFFFFFFFFFFFFFFFFFFFFFFFFFFFFFFFF MUL NOT AND SWAP1 DUP4 PUSH20 0xFFFFFFFFFFFFFFFFFFFFFFFFFFFFFFFFFFFFFFFF AND MUL OR SWAP1 SSTORE POP PUSH2 0x372 DUP1 PUSH2 0x64 PUSH1 0x0 CODECOPY PUSH1 0x0 RETURN INVALID PUSH1 0x80 PUSH1 0x40 MSTORE PUSH1 0x4 CALLDATASIZE LT PUSH2 0x43 JUMPI PUSH1 0x0 CALLDATALOAD PUSH1 0xE0 SHR DUP1 PUSH4 0x8466C3E6 EQ PUSH2 0x67 JUMPI DUP1 PUSH4 0x8DA5CB5B EQ PUSH2 0x7E JUMPI DUP1 PUSH4 0xB69EF8A8 EQ PUSH2 0xA9 JUMPI DUP1 PUSH4 0xF3FEF3A3 EQ PUSH2 0xD4 JUMPI PUSH2 0x62 JUMP JUMPDEST CALLDATASIZE PUSH2 0x62 JUMPI CALLVALUE PUSH1 0x1 PUSH1 0x0 DUP3 DUP3 SLOAD PUSH2 0x5A SWAP2 SWAP1 PUSH2 0x1D3 JUMP JUMPDEST SWAP3 POP POP DUP2 SWAP1 SSTORE STOP JUMPDEST PUSH1 0x0 DUP1 REVERT JUMPDEST CALLVALUE DUP1 ISZERO PUSH2 0x73 JUMPI PUSH1 0x0 DUP1 REVERT JUMPDEST POP PUSH2 0x7C PUSH2 0xFD JUMP JUMPDEST STOP JUMPDEST CALLVALUE DUP1 ISZERO PUSH2 0x8A JUMPI PUSH1 0x0 DUP1 REVERT JUMPDEST POP PUSH2 0x93 PUSH2 0x109 JUMP JUMPDEST PUSH1 0x40 MLOAD PUSH2 0xA0 SWAP2 SWAP1 PUSH2 0x248 JUMP JUMPDEST PUSH1 0x40 MLOAD DUP1 SWAP2 SUB SWAP1 RETURN JUMPDEST CALLVALUE DUP1 ISZERO PUSH2 0xB5 JUMPI PUSH1 0x0 DUP1 REVERT JUMPDEST POP PUSH2 0xBE PUSH2 0x12D JUMP JUMPDEST PUSH1 0x40 MLOAD PUSH2 0xCB SWAP2 SWAP1 PUSH2 0x272 JUMP JUMPDEST PUSH1 0x40 MLOAD DUP1 SWAP2 SUB SWAP1 RETURN JUMPDEST CALLVALUE DUP1 ISZERO PUSH2 0xE0 JUMPI PUSH1 0x0 DUP1 REVERT JUMPDEST POP PUSH2 0xFB PUSH1 0x4 DUP1 CALLDATASIZE SUB DUP2 ADD SWAP1 PUSH2 0xF6 SWAP2 SWAP1 PUSH2 0x2FC JUMP JUMPDEST PUSH2 0x133 JUMP JUMPDEST STOP JUMPDEST PUSH2 0x107 PUSH1 0x16 PUSH2 0x17E JUMP JUMPDEST JUMP JUMPDEST PUSH1 0x0 DUP1 SLOAD SWAP1 PUSH2 0x100 EXP SWAP1 DIV PUSH20 0xFFFFFFFFFFFFFFFFFFFFFFFFFFFFFFFFFFFFFFFF AND DUP2 JUMP JUMPDEST PUSH1 0x1 SLOAD DUP2 JUMP JUMPDEST DUP2 PUSH20 0xFFFFFFFFFFFFFFFFFFFFFFFFFFFFFFFFFFFFFFFF AND PUSH2 0x8FC DUP3 SWAP1 DUP2 ISZERO MUL SWAP1 PUSH1 0x40 MLOAD PUSH1 0x0 PUSH1 0x40 MLOAD DUP1 DUP4 SUB DUP2 DUP6 DUP9 DUP9 CALL SWAP4 POP POP POP POP ISZERO DUP1 ISZERO PUSH2 0x179 JUMPI RETURNDATASIZE PUSH1 0x0 DUP1 RETURNDATACOPY RETURNDATASIZE PUSH1 0x0 REVERT JUMPDEST POP POP POP JUMP JUMPDEST DUP1 PUSH1 0x1 PUSH1 0x0 DUP3 DUP3 SLOAD PUSH2 0x190 SWAP2 SWAP1 PUSH2 0x1D3 JUMP JUMPDEST SWAP3 POP POP DUP2 SWAP1 SSTORE POP POP JUMP JUMPDEST PUSH1 0x0 DUP2 SWAP1 POP SWAP2 SWAP1 POP JUMP JUMPDEST PUSH32 0x4E487B7100000000000000000000000000000000000000000000000000000000 PUSH1 0x0 MSTORE PUSH1 0x11 PUSH1 0x4 MSTORE PUSH1 0x24 PUSH1 0x0 REVERT JUMPDEST PUSH1 0x0 PUSH2 0x1DE DUP3 PUSH2 0x19A JUMP JUMPDEST SWAP2 POP PUSH2 0x1E9 DUP4 PUSH2 0x19A JUMP JUMPDEST SWAP3 POP DUP3 DUP3 ADD SWAP1 POP DUP1 DUP3 GT ISZERO PUSH2 0x201 JUMPI PUSH2 0x200 PUSH2 0x1A4 JUMP JUMPDEST JUMPDEST SWAP3 SWAP2 POP POP JUMP JUMPDEST PUSH1 0x0 PUSH20 0xFFFFFFFFFFFFFFFFFFFFFFFFFFFFFFFFFFFFFFFF DUP3 AND SWAP1 POP SWAP2 SWAP1 POP JUMP JUMPDEST PUSH1 0x0 PUSH2 0x232 DUP3 PUSH2 0x207 JUMP JUMPDEST SWAP1 POP SWAP2 SWAP1 POP JUMP JUMPDEST PUSH2 0x242 DUP2 PUSH2 0x227 JUMP JUMPDEST DUP3 MSTORE POP POP JUMP JUMPDEST PUSH1 0x0 PUSH1 0x20 DUP3 ADD SWAP1 POP PUSH2 0x25D PUSH1 0x0 DUP4 ADD DUP5 PUSH2 0x239 JUMP JUMPDEST SWAP3 SWAP2 POP POP JUMP JUMPDEST PUSH2 0x26C DUP2 PUSH2 0x19A JUMP JUMPDEST DUP3 MSTORE POP POP JUMP JUMPDEST PUSH1 0x0 PUSH1 0x20 DUP3 ADD SWAP1 POP PUSH2 0x287 PUSH1 0x0 DUP4 ADD DUP5 PUSH2 0x263 JUMP JUMPDEST SWAP3 SWAP2 POP POP JUMP JUMPDEST PUSH1 0x0 DUP1 REVERT JUMPDEST PUSH1 0x0 PUSH2 0x29D DUP3 PUSH2 0x207 JUMP JUMPDEST SWAP1 POP SWAP2 SWAP1 POP JUMP JUMPDEST PUSH2 0x2AD DUP2 PUSH2 0x292 JUMP JUMPDEST DUP2 EQ PUSH2 0x2B8 JUMPI PUSH1 0x0 DUP1 REVERT JUMPDEST POP JUMP JUMPDEST PUSH1 0x0 DUP2 CALLDATALOAD SWAP1 POP PUSH2 0x2CA DUP2 PUSH2 0x2A4 JUMP JUMPDEST SWAP3 SWAP2 POP POP JUMP JUMPDEST PUSH2 0x2D9 DUP2 PUSH2 0x19A JUMP JUMPDEST DUP2 EQ PUSH2 0x2E4 JUMPI PUSH1 0x0 DUP1 REVERT JUMPDEST POP JUMP JUMPDEST PUSH1 0x0 DUP2 CALLDATALOAD SWAP1 POP PUSH2 0x2F6 DUP2 PUSH2 0x2D0 JUMP JUMPDEST SWAP3 SWAP2 POP POP JUMP JUMPDEST PUSH1 0x0 DUP1 PUSH1 0x40 DUP4 DUP6 SUB SLT ISZERO PUSH2 0x313 JUMPI PUSH2 0x312 PUSH2 0x28D JUMP JUMPDEST JUMPDEST PUSH1 0x0 PUSH2 0x321 DUP6 DUP3 DUP7 ADD PUSH2 0x2BB JUMP JUMPDEST SWAP3 POP POP PUSH1 0x20 PUSH2 0x332 DUP6 DUP3 DUP7 ADD PUSH2 0x2E7 JUMP JUMPDEST SWAP2 POP POP SWAP3 POP SWAP3 SWAP1 POP JUMP INVALID LOG2 PUSH5 0x6970667358 0x22 SLT KECCAK256 SELFBALANCE DUP11 0x1F DELEGATECALL SWAP5 RETURNDATASIZE PUSH31 0x5293B39EA5B1CC7099D2A7B5885FFD61407C4DC2144DC259B164736F6C6343 STOP ADDMOD GT STOP CALLER "
				},
				"gasEstimates": {
					"creation": {
						"codeDepositCost": "176400",
						"executionCost": "46591",
						"totalCost": "222991"
					},
					"external": {
						"aa()": "infinite",
						"balance()": "2451",
						"owner()": "2511",
						"withdraw(address,uint256)": "infinite"
					},
					"internal": {
						"inc(uint256)": "infinite"
					}
				},
				"methodIdentifiers": {
					"aa()": "8466c3e6",
					"balance()": "b69ef8a8",
					"owner()": "8da5cb5b",
					"withdraw(address,uint256)": "f3fef3a3"
				}
			},
			"storageLayout": {
				"storage": [
					{
						"astId": 3,
						"contract": "ReceiveSendEth..sol:ReceiveSendEth",
						"label": "owner",
						"offset": 0,
						"slot": "0",
						"type": "t_address"
					},
					{
						"astId": 7,
						"contract": "ReceiveSendEth..sol:ReceiveSendEth",
						"label": "balance",
						"offset": 0,
						"slot": "1",
						"type": "t_uint256"
					}
				],
				"types": {
					"t_address": {
						"encoding": "inplace",
						"label": "address",
						"numberOfBytes": "20"
					},
					"t_uint256": {
						"encoding": "inplace",
						"label": "uint256",
						"numberOfBytes": "32"
					}
				}
			},
			"userdoc": {
				"kind": "user",
				"methods": {},
				"version": 1
			}
		}
	}
}