{
	"ReceiveSendEth..sol": {
		"ReceiveSendEth": {
			"abi": [
				{
					"inputs": [],
					"stateMutability": "nonpayable",
					"type": "constructor"
				},
				{
					"inputs": [],
					"name": "aa",
					"outputs": [],
					"stateMutability": "nonpayable",
					"type": "function"
				},
				{
					"inputs": [],
					"name": "balance",
					"outputs": [
						{
							"internalType": "uint256",
							"name": "",
							"type": "uint256"
						}
					],
					"stateMutability": "view",
					"type": "function"
				},
				{
					"inputs": [],
					"name": "owner",
					"outputs": [
						{
							"internalType": "address",
							"name": "",
							"type": "address"
						}
					],
					"stateMutability": "view",
					"type": "function"
				},
				{
					"inputs": [
						{
							"internalType": "address payable",
							"name": "addr",
							"type": "address"
						},
						{
							"internalType": "uint256",
							"name": "amount",
							"type": "uint256"
						}
					],
					"name": "withdraw",
					"outputs": [],
					"stateMutability": "nonpayable",
					"type": "function"
				},
				{
					"stateMutability": "payable",
					"type": "receive"
				}
			],
			"devdoc": {
				"kind": "dev",
				"methods": {},
				"version": 1
			},
			"evm": {
				"assembly": "    /* \"ReceiveSendEth..sol\":59:528  contract ReceiveSendEth{... */\n  mstore(0x40, 0x80)\n    /* \"ReceiveSendEth..sol\":144:192  constructor(){... */\n  callvalue\n  dup1\n  iszero\n  tag_1\n  jumpi\n  0x00\n  dup1\n  revert\ntag_1:\n  pop\n    /* \"ReceiveSendEth..sol\":174:184  msg.sender */\n  caller\n    /* \"ReceiveSendEth..sol\":168:173  owner */\n  0x00\n  dup1\n    /* \"ReceiveSendEth..sol\":168:184  owner=msg.sender */\n  0x0100\n  exp\n  dup2\n  sload\n  dup2\n  0xffffffffffffffffffffffffffffffffffffffff\n  mul\n  not\n  and\n  swap1\n  dup4\n  0xffffffffffffffffffffffffffffffffffffffff\n  and\n  mul\n  or\n  swap1\n  sstore\n  pop\n    /* \"ReceiveSendEth..sol\":59:528  contract ReceiveSendEth{... */\n  dataSize(sub_0)\n  dup1\n  dataOffset(sub_0)\n  0x00\n  codecopy\n  0x00\n  return\nstop\n\nsub_0: assembly {\n        /* \"ReceiveSendEth..sol\":59:528  contract ReceiveSendEth{... */\n      mstore(0x40, 0x80)\n      jumpi(tag_1, lt(calldatasize, 0x04))\n      shr(0xe0, calldataload(0x00))\n      dup1\n      0x8466c3e6\n      eq\n      tag_3\n      jumpi\n      dup1\n      0x8da5cb5b\n      eq\n      tag_4\n      jumpi\n      dup1\n      0xb69ef8a8\n      eq\n      tag_5\n      jumpi\n      dup1\n      0xf3fef3a3\n      eq\n      tag_6\n      jumpi\n      jump(tag_2)\n    tag_1:\n      jumpi(tag_2, calldatasize)\n        /* \"ReceiveSendEth..sol\":246:255  msg.value */\n      callvalue\n        /* \"ReceiveSendEth..sol\":237:244  balance */\n      0x01\n      0x00\n        /* \"ReceiveSendEth..sol\":237:255  balance+=msg.value */\n      dup3\n      dup3\n      sload\n      tag_9\n      swap2\n      swap1\n      tag_10\n      jump\t// in\n    tag_9:\n      swap3\n      pop\n      pop\n      dup2\n      swap1\n      sstore\n      stop\n        /* \"ReceiveSendEth..sol\":59:528  contract ReceiveSendEth{... */\n    tag_2:\n      0x00\n      dup1\n      revert\n        /* \"ReceiveSendEth..sol\":476:525  function aa() external {... */\n    tag_3:\n      callvalue\n      dup1\n      iszero\n      tag_11\n      jumpi\n      0x00\n      dup1\n      revert\n    tag_11:\n      pop\n      tag_12\n      tag_13\n      jump\t// in\n    tag_12:\n      stop\n        /* \"ReceiveSendEth..sol\":89:109  address public owner */\n    tag_4:\n      callvalue\n      dup1\n      iszero\n      tag_14\n      jumpi\n      0x00\n      dup1\n      revert\n    tag_14:\n      pop\n      tag_15\n      tag_16\n      jump\t// in\n    tag_15:\n      mload(0x40)\n      tag_17\n      swap2\n      swap1\n      tag_18\n      jump\t// in\n    tag_17:\n      mload(0x40)\n      dup1\n      swap2\n      sub\n      swap1\n      return\n        /* \"ReceiveSendEth..sol\":116:135  uint public balance */\n    tag_5:\n      callvalue\n      dup1\n      iszero\n      tag_19\n      jumpi\n      0x00\n      dup1\n      revert\n    tag_19:\n      pop\n      tag_20\n      tag_21\n      jump\t// in\n    tag_20:\n      mload(0x40)\n      tag_22\n      swap2\n      swap1\n      tag_23\n      jump\t// in\n    tag_22:\n      mload(0x40)\n      dup1\n      swap2\n      sub\n      swap1\n      return\n        /* \"ReceiveSendEth..sol\":271:397  function withdraw(address payable addr, uint amount) public {... */\n    tag_6:\n      callvalue\n      dup1\n      iszero\n      tag_24\n      jumpi\n      0x00\n      dup1\n      revert\n    tag_24:\n      pop\n      tag_25\n      0x04\n      dup1\n      calldatasize\n      sub\n      dup2\n      add\n      swap1\n      tag_26\n      swap2\n      swap1\n      tag_27\n      jump\t// in\n    tag_26:\n      tag_28\n      jump\t// in\n    tag_25:\n      stop\n        /* \"ReceiveSendEth..sol\":476:525  function aa() external {... */\n    tag_13:\n        /* \"ReceiveSendEth..sol\":510:517  inc(22) */\n      tag_30\n        /* \"ReceiveSendEth..sol\":514:516  22 */\n      0x16\n        /* \"ReceiveSendEth..sol\":510:513  inc */\n      tag_31\n        /* \"ReceiveSendEth..sol\":510:517  inc(22) */\n      jump\t// in\n    tag_30:\n        /* \"ReceiveSendEth..sol\":476:525  function aa() external {... */\n      jump\t// out\n        /* \"ReceiveSendEth..sol\":89:109  address public owner */\n    tag_16:\n      0x00\n      dup1\n      sload\n      swap1\n      0x0100\n      exp\n      swap1\n      div\n      0xffffffffffffffffffffffffffffffffffffffff\n      and\n      dup2\n      jump\t// out\n        /* \"ReceiveSendEth..sol\":116:135  uint public balance */\n    tag_21:\n      sload(0x01)\n      dup2\n      jump\t// out\n        /* \"ReceiveSendEth..sol\":271:397  function withdraw(address payable addr, uint amount) public {... */\n    tag_28:\n        /* \"ReceiveSendEth..sol\":342:346  addr */\n      dup2\n        /* \"ReceiveSendEth..sol\":342:355  addr.transfer */\n      0xffffffffffffffffffffffffffffffffffffffff\n      and\n        /* \"ReceiveSendEth..sol\":342:363  addr.transfer(amount) */\n      0x08fc\n        /* \"ReceiveSendEth..sol\":356:362  amount */\n      dup3\n        /* \"ReceiveSendEth..sol\":342:363  addr.transfer(amount) */\n      swap1\n      dup2\n      iszero\n      mul\n      swap1\n      mload(0x40)\n      0x00\n      mload(0x40)\n      dup1\n      dup4\n      sub\n      dup2\n      dup6\n      dup9\n      dup9\n      call\n      swap4\n      pop\n      pop\n      pop\n      pop\n      iszero\n      dup1\n      iszero\n      tag_34\n      jumpi\n      returndatasize\n      0x00\n      dup1\n      returndatacopy\n      revert(0x00, returndatasize)\n    tag_34:\n      pop\n        /* \"ReceiveSendEth..sol\":383:389  amount */\n      dup1\n        /* \"ReceiveSendEth..sol\":374:381  balance */\n      0x01\n      0x00\n        /* \"ReceiveSendEth..sol\":374:389  balance-=amount */\n      dup3\n      dup3\n      sload\n      tag_35\n      swap2\n      swap1\n      tag_36\n      jump\t// in\n    tag_35:\n      swap3\n      pop\n      pop\n      dup2\n      swap1\n      sstore\n      pop\n        /* \"ReceiveSendEth..sol\":271:397  function withdraw(address payable addr, uint amount) public {... */\n      pop\n      pop\n      jump\t// out\n        /* \"ReceiveSendEth..sol\":405:468  function inc(uint val) internal {... */\n    tag_31:\n        /* \"ReceiveSendEth..sol\":457:460  val */\n      dup1\n        /* \"ReceiveSendEth..sol\":448:455  balance */\n      0x01\n      0x00\n        /* \"ReceiveSendEth..sol\":448:460  balance+=val */\n      dup3\n      dup3\n      sload\n      tag_38\n      swap2\n      swap1\n      tag_10\n      jump\t// in\n    tag_38:\n      swap3\n      pop\n      pop\n      dup2\n      swap1\n      sstore\n      pop\n        /* \"ReceiveSendEth..sol\":405:468  function inc(uint val) internal {... */\n      pop\n      jump\t// out\n        /* \"#utility.yul\":7:84   */\n    tag_39:\n        /* \"#utility.yul\":44:51   */\n      0x00\n        /* \"#utility.yul\":73:78   */\n      dup2\n        /* \"#utility.yul\":62:78   */\n      swap1\n      pop\n        /* \"#utility.yul\":7:84   */\n      swap2\n      swap1\n      pop\n      jump\t// out\n        /* \"#utility.yul\":90:270   */\n    tag_40:\n        /* \"#utility.yul\":138:215   */\n      0x4e487b7100000000000000000000000000000000000000000000000000000000\n        /* \"#utility.yul\":135:136   */\n      0x00\n        /* \"#utility.yul\":128:216   */\n      mstore\n        /* \"#utility.yul\":235:239   */\n      0x11\n        /* \"#utility.yul\":232:233   */\n      0x04\n        /* \"#utility.yul\":225:240   */\n      mstore\n        /* \"#utility.yul\":259:263   */\n      0x24\n        /* \"#utility.yul\":256:257   */\n      0x00\n        /* \"#utility.yul\":249:264   */\n      revert\n        /* \"#utility.yul\":276:467   */\n    tag_10:\n        /* \"#utility.yul\":316:319   */\n      0x00\n        /* \"#utility.yul\":335:355   */\n      tag_57\n        /* \"#utility.yul\":353:354   */\n      dup3\n        /* \"#utility.yul\":335:355   */\n      tag_39\n      jump\t// in\n    tag_57:\n        /* \"#utility.yul\":330:355   */\n      swap2\n      pop\n        /* \"#utility.yul\":369:389   */\n      tag_58\n        /* \"#utility.yul\":387:388   */\n      dup4\n        /* \"#utility.yul\":369:389   */\n      tag_39\n      jump\t// in\n    tag_58:\n        /* \"#utility.yul\":364:389   */\n      swap3\n      pop\n        /* \"#utility.yul\":412:413   */\n      dup3\n        /* \"#utility.yul\":409:410   */\n      dup3\n        /* \"#utility.yul\":405:414   */\n      add\n        /* \"#utility.yul\":398:414   */\n      swap1\n      pop\n        /* \"#utility.yul\":433:436   */\n      dup1\n        /* \"#utility.yul\":430:431   */\n      dup3\n        /* \"#utility.yul\":427:437   */\n      gt\n        /* \"#utility.yul\":424:460   */\n      iszero\n      tag_59\n      jumpi\n        /* \"#utility.yul\":440:458   */\n      tag_60\n      tag_40\n      jump\t// in\n    tag_60:\n        /* \"#utility.yul\":424:460   */\n    tag_59:\n        /* \"#utility.yul\":276:467   */\n      swap3\n      swap2\n      pop\n      pop\n      jump\t// out\n        /* \"#utility.yul\":473:599   */\n    tag_41:\n        /* \"#utility.yul\":510:517   */\n      0x00\n        /* \"#utility.yul\":550:592   */\n      0xffffffffffffffffffffffffffffffffffffffff\n        /* \"#utility.yul\":543:548   */\n      dup3\n        /* \"#utility.yul\":539:593   */\n      and\n        /* \"#utility.yul\":528:593   */\n      swap1\n      pop\n        /* \"#utility.yul\":473:599   */\n      swap2\n      swap1\n      pop\n      jump\t// out\n        /* \"#utility.yul\":605:701   */\n    tag_42:\n        /* \"#utility.yul\":642:649   */\n      0x00\n        /* \"#utility.yul\":671:695   */\n      tag_63\n        /* \"#utility.yul\":689:694   */\n      dup3\n        /* \"#utility.yul\":671:695   */\n      tag_41\n      jump\t// in\n    tag_63:\n        /* \"#utility.yul\":660:695   */\n      swap1\n      pop\n        /* \"#utility.yul\":605:701   */\n      swap2\n      swap1\n      pop\n      jump\t// out\n        /* \"#utility.yul\":707:825   */\n    tag_43:\n        /* \"#utility.yul\":794:818   */\n      tag_65\n        /* \"#utility.yul\":812:817   */\n      dup2\n        /* \"#utility.yul\":794:818   */\n      tag_42\n      jump\t// in\n    tag_65:\n        /* \"#utility.yul\":789:792   */\n      dup3\n        /* \"#utility.yul\":782:819   */\n      mstore\n        /* \"#utility.yul\":707:825   */\n      pop\n      pop\n      jump\t// out\n        /* \"#utility.yul\":831:1053   */\n    tag_18:\n        /* \"#utility.yul\":924:928   */\n      0x00\n        /* \"#utility.yul\":962:964   */\n      0x20\n        /* \"#utility.yul\":951:960   */\n      dup3\n        /* \"#utility.yul\":947:965   */\n      add\n        /* \"#utility.yul\":939:965   */\n      swap1\n      pop\n        /* \"#utility.yul\":975:1046   */\n      tag_67\n        /* \"#utility.yul\":1043:1044   */\n      0x00\n        /* \"#utility.yul\":1032:1041   */\n      dup4\n        /* \"#utility.yul\":1028:1045   */\n      add\n        /* \"#utility.yul\":1019:1025   */\n      dup5\n        /* \"#utility.yul\":975:1046   */\n      tag_43\n      jump\t// in\n    tag_67:\n        /* \"#utility.yul\":831:1053   */\n      swap3\n      swap2\n      pop\n      pop\n      jump\t// out\n        /* \"#utility.yul\":1059:1177   */\n    tag_44:\n        /* \"#utility.yul\":1146:1170   */\n      tag_69\n        /* \"#utility.yul\":1164:1169   */\n      dup2\n        /* \"#utility.yul\":1146:1170   */\n      tag_39\n      jump\t// in\n    tag_69:\n        /* \"#utility.yul\":1141:1144   */\n      dup3\n        /* \"#utility.yul\":1134:1171   */\n      mstore\n        /* \"#utility.yul\":1059:1177   */\n      pop\n      pop\n      jump\t// out\n        /* \"#utility.yul\":1183:1405   */\n    tag_23:\n        /* \"#utility.yul\":1276:1280   */\n      0x00\n        /* \"#utility.yul\":1314:1316   */\n      0x20\n        /* \"#utility.yul\":1303:1312   */\n      dup3\n        /* \"#utility.yul\":1299:1317   */\n      add\n        /* \"#utility.yul\":1291:1317   */\n      swap1\n      pop\n        /* \"#utility.yul\":1327:1398   */\n      tag_71\n        /* \"#utility.yul\":1395:1396   */\n      0x00\n        /* \"#utility.yul\":1384:1393   */\n      dup4\n        /* \"#utility.yul\":1380:1397   */\n      add\n        /* \"#utility.yul\":1371:1377   */\n      dup5\n        /* \"#utility.yul\":1327:1398   */\n      tag_44\n      jump\t// in\n    tag_71:\n        /* \"#utility.yul\":1183:1405   */\n      swap3\n      swap2\n      pop\n      pop\n      jump\t// out\n        /* \"#utility.yul\":1492:1609   */\n    tag_46:\n        /* \"#utility.yul\":1601:1602   */\n      0x00\n        /* \"#utility.yul\":1598:1599   */\n      dup1\n        /* \"#utility.yul\":1591:1603   */\n      revert\n        /* \"#utility.yul\":1738:1842   */\n    tag_48:\n        /* \"#utility.yul\":1783:1790   */\n      0x00\n        /* \"#utility.yul\":1812:1836   */\n      tag_76\n        /* \"#utility.yul\":1830:1835   */\n      dup3\n        /* \"#utility.yul\":1812:1836   */\n      tag_41\n      jump\t// in\n    tag_76:\n        /* \"#utility.yul\":1801:1836   */\n      swap1\n      pop\n        /* \"#utility.yul\":1738:1842   */\n      swap2\n      swap1\n      pop\n      jump\t// out\n        /* \"#utility.yul\":1848:1986   */\n    tag_49:\n        /* \"#utility.yul\":1929:1961   */\n      tag_78\n        /* \"#utility.yul\":1955:1960   */\n      dup2\n        /* \"#utility.yul\":1929:1961   */\n      tag_48\n      jump\t// in\n    tag_78:\n        /* \"#utility.yul\":1922:1927   */\n      dup2\n        /* \"#utility.yul\":1919:1962   */\n      eq\n        /* \"#utility.yul\":1909:1980   */\n      tag_79\n      jumpi\n        /* \"#utility.yul\":1976:1977   */\n      0x00\n        /* \"#utility.yul\":1973:1974   */\n      dup1\n        /* \"#utility.yul\":1966:1978   */\n      revert\n        /* \"#utility.yul\":1909:1980   */\n    tag_79:\n        /* \"#utility.yul\":1848:1986   */\n      pop\n      jump\t// out\n        /* \"#utility.yul\":1992:2147   */\n    tag_50:\n        /* \"#utility.yul\":2046:2051   */\n      0x00\n        /* \"#utility.yul\":2084:2090   */\n      dup2\n        /* \"#utility.yul\":2071:2091   */\n      calldataload\n        /* \"#utility.yul\":2062:2091   */\n      swap1\n      pop\n        /* \"#utility.yul\":2100:2141   */\n      tag_81\n        /* \"#utility.yul\":2135:2140   */\n      dup2\n        /* \"#utility.yul\":2100:2141   */\n      tag_49\n      jump\t// in\n    tag_81:\n        /* \"#utility.yul\":1992:2147   */\n      swap3\n      swap2\n      pop\n      pop\n      jump\t// out\n        /* \"#utility.yul\":2153:2275   */\n    tag_51:\n        /* \"#utility.yul\":2226:2250   */\n      tag_83\n        /* \"#utility.yul\":2244:2249   */\n      dup2\n        /* \"#utility.yul\":2226:2250   */\n      tag_39\n      jump\t// in\n    tag_83:\n        /* \"#utility.yul\":2219:2224   */\n      dup2\n        /* \"#utility.yul\":2216:2251   */\n      eq\n        /* \"#utility.yul\":2206:2269   */\n      tag_84\n      jumpi\n        /* \"#utility.yul\":2265:2266   */\n      0x00\n        /* \"#utility.yul\":2262:2263   */\n      dup1\n        /* \"#utility.yul\":2255:2267   */\n      revert\n        /* \"#utility.yul\":2206:2269   */\n    tag_84:\n        /* \"#utility.yul\":2153:2275   */\n      pop\n      jump\t// out\n        /* \"#utility.yul\":2281:2420   */\n    tag_52:\n        /* \"#utility.yul\":2327:2332   */\n      0x00\n        /* \"#utility.yul\":2365:2371   */\n      dup2\n        /* \"#utility.yul\":2352:2372   */\n      calldataload\n        /* \"#utility.yul\":2343:2372   */\n      swap1\n      pop\n        /* \"#utility.yul\":2381:2414   */\n      tag_86\n        /* \"#utility.yul\":2408:2413   */\n      dup2\n        /* \"#utility.yul\":2381:2414   */\n      tag_51\n      jump\t// in\n    tag_86:\n        /* \"#utility.yul\":2281:2420   */\n      swap3\n      swap2\n      pop\n      pop\n      jump\t// out\n        /* \"#utility.yul\":2426:2916   */\n    tag_27:\n        /* \"#utility.yul\":2502:2508   */\n      0x00\n        /* \"#utility.yul\":2510:2516   */\n      dup1\n        /* \"#utility.yul\":2559:2561   */\n      0x40\n        /* \"#utility.yul\":2547:2556   */\n      dup4\n        /* \"#utility.yul\":2538:2545   */\n      dup6\n        /* \"#utility.yul\":2534:2557   */\n      sub\n        /* \"#utility.yul\":2530:2562   */\n      slt\n        /* \"#utility.yul\":2527:2646   */\n      iszero\n      tag_88\n      jumpi\n        /* \"#utility.yul\":2565:2644   */\n      tag_89\n      tag_46\n      jump\t// in\n    tag_89:\n        /* \"#utility.yul\":2527:2646   */\n    tag_88:\n        /* \"#utility.yul\":2685:2686   */\n      0x00\n        /* \"#utility.yul\":2710:2771   */\n      tag_90\n        /* \"#utility.yul\":2763:2770   */\n      dup6\n        /* \"#utility.yul\":2754:2760   */\n      dup3\n        /* \"#utility.yul\":2743:2752   */\n      dup7\n        /* \"#utility.yul\":2739:2761   */\n      add\n        /* \"#utility.yul\":2710:2771   */\n      tag_50\n      jump\t// in\n    tag_90:\n        /* \"#utility.yul\":2700:2771   */\n      swap3\n      pop\n        /* \"#utility.yul\":2656:2781   */\n      pop\n        /* \"#utility.yul\":2820:2822   */\n      0x20\n        /* \"#utility.yul\":2846:2899   */\n      tag_91\n        /* \"#utility.yul\":2891:2898   */\n      dup6\n        /* \"#utility.yul\":2882:2888   */\n      dup3\n        /* \"#utility.yul\":2871:2880   */\n      dup7\n        /* \"#utility.yul\":2867:2889   */\n      add\n        /* \"#utility.yul\":2846:2899   */\n      tag_52\n      jump\t// in\n    tag_91:\n        /* \"#utility.yul\":2836:2899   */\n      swap2\n      pop\n        /* \"#utility.yul\":2791:2909   */\n      pop\n        /* \"#utility.yul\":2426:2916   */\n      swap3\n      pop\n      swap3\n      swap1\n      pop\n      jump\t// out\n        /* \"#utility.yul\":2922:3116   */\n    tag_36:\n        /* \"#utility.yul\":2962:2966   */\n      0x00\n        /* \"#utility.yul\":2982:3002   */\n      tag_93\n        /* \"#utility.yul\":3000:3001   */\n      dup3\n        /* \"#utility.yul\":2982:3002   */\n      tag_39\n      jump\t// in\n    tag_93:\n        /* \"#utility.yul\":2977:3002   */\n      swap2\n      pop\n        /* \"#utility.yul\":3016:3036   */\n      tag_94\n        /* \"#utility.yul\":3034:3035   */\n      dup4\n        /* \"#utility.yul\":3016:3036   */\n      tag_39\n      jump\t// in\n    tag_94:\n        /* \"#utility.yul\":3011:3036   */\n      swap3\n      pop\n        /* \"#utility.yul\":3060:3061   */\n      dup3\n        /* \"#utility.yul\":3057:3058   */\n      dup3\n        /* \"#utility.yul\":3053:3062   */\n      sub\n        /* \"#utility.yul\":3045:3062   */\n      swap1\n      pop\n        /* \"#utility.yul\":3084:3085   */\n      dup2\n        /* \"#utility.yul\":3078:3082   */\n      dup2\n        /* \"#utility.yul\":3075:3086   */\n      gt\n        /* \"#utility.yul\":3072:3109   */\n      iszero\n      tag_95\n      jumpi\n        /* \"#utility.yul\":3089:3107   */\n      tag_96\n      tag_40\n      jump\t// in\n    tag_96:\n        /* \"#utility.yul\":3072:3109   */\n    tag_95:\n        /* \"#utility.yul\":2922:3116   */\n      swap3\n      swap2\n      pop\n      pop\n      jump\t// out\n\n    auxdata: 0xa2646970667358221220b0ff33c7cee574b98ddf61aff4aa61aaf72e520b0e175b0689e804db19c1064964736f6c63430008110033\n}\n",
				"bytecode": {
					"linkReferences": {},
					"object": "608060405234801561001057600080fd5b50336000806101000a81548173ffffffffffffffffffffffffffffffffffffffff021916908373ffffffffffffffffffffffffffffffffffffffff1602179055506103bf806100606000396000f3fe6080604052600436106100435760003560e01c80638466c3e6146100675780638da5cb5b1461007e578063b69ef8a8146100a9578063f3fef3a3146100d457610062565b3661006257346001600082825461005a91906101ec565b925050819055005b600080fd5b34801561007357600080fd5b5061007c6100fd565b005b34801561008a57600080fd5b50610093610109565b6040516100a09190610261565b60405180910390f35b3480156100b557600080fd5b506100be61012d565b6040516100cb919061028b565b60405180910390f35b3480156100e057600080fd5b506100fb60048036038101906100f69190610315565b610133565b005b6101076016610197565b565b60008054906101000a900473ffffffffffffffffffffffffffffffffffffffff1681565b60015481565b8173ffffffffffffffffffffffffffffffffffffffff166108fc829081150290604051600060405180830381858888f19350505050158015610179573d6000803e3d6000fd5b50806001600082825461018c9190610355565b925050819055505050565b80600160008282546101a991906101ec565b9250508190555050565b6000819050919050565b7f4e487b7100000000000000000000000000000000000000000000000000000000600052601160045260246000fd5b60006101f7826101b3565b9150610202836101b3565b925082820190508082111561021a576102196101bd565b5b92915050565b600073ffffffffffffffffffffffffffffffffffffffff82169050919050565b600061024b82610220565b9050919050565b61025b81610240565b82525050565b60006020820190506102766000830184610252565b92915050565b610285816101b3565b82525050565b60006020820190506102a0600083018461027c565b92915050565b600080fd5b60006102b682610220565b9050919050565b6102c6816102ab565b81146102d157600080fd5b50565b6000813590506102e3816102bd565b92915050565b6102f2816101b3565b81146102fd57600080fd5b50565b60008135905061030f816102e9565b92915050565b6000806040838503121561032c5761032b6102a6565b5b600061033a858286016102d4565b925050602061034b85828601610300565b9150509250929050565b6000610360826101b3565b915061036b836101b3565b9250828203905081811115610383576103826101bd565b5b9291505056fea2646970667358221220b0ff33c7cee574b98ddf61aff4aa61aaf72e520b0e175b0689e804db19c1064964736f6c63430008110033",
					"opcodes": "PUSH1 0x80 PUSH1 0x40 MSTORE CALLVALUE DUP1 ISZERO PUSH2 0x10 JUMPI PUSH1 0x0 DUP1 REVERT JUMPDEST POP CALLER PUSH1 0x0 DUP1 PUSH2 0x100 EXP DUP2 SLOAD DUP2 PUSH20 0xFFFFFFFFFFFFFFFFFFFFFFFFFFFFFFFFFFFFFFFF MUL NOT AND SWAP1 DUP4 PUSH20 0xFFFFFFFFFFFFFFFFFFFFFFFFFFFFFFFFFFFFFFFF AND MUL OR SWAP1 SSTORE POP PUSH2 0x3BF DUP1 PUSH2 0x60 PUSH1 0x0 CODECOPY PUSH1 0x0 RETURN INVALID PUSH1 0x80 PUSH1 0x40 MSTORE PUSH1 0x4 CALLDATASIZE LT PUSH2 0x43 JUMPI PUSH1 0x0 CALLDATALOAD PUSH1 0xE0 SHR DUP1 PUSH4 0x8466C3E6 EQ PUSH2 0x67 JUMPI DUP1 PUSH4 0x8DA5CB5B EQ PUSH2 0x7E JUMPI DUP1 PUSH4 0xB69EF8A8 EQ PUSH2 0xA9 JUMPI DUP1 PUSH4 0xF3FEF3A3 EQ PUSH2 0xD4 JUMPI PUSH2 0x62 JUMP JUMPDEST CALLDATASIZE PUSH2 0x62 JUMPI CALLVALUE PUSH1 0x1 PUSH1 0x0 DUP3 DUP3 SLOAD PUSH2 0x5A SWAP2 SWAP1 PUSH2 0x1EC JUMP JUMPDEST SWAP3 POP POP DUP2 SWAP1 SSTORE STOP JUMPDEST PUSH1 0x0 DUP1 REVERT JUMPDEST CALLVALUE DUP1 ISZERO PUSH2 0x73 JUMPI PUSH1 0x0 DUP1 REVERT JUMPDEST POP PUSH2 0x7C PUSH2 0xFD JUMP JUMPDEST STOP JUMPDEST CALLVALUE DUP1 ISZERO PUSH2 0x8A JUMPI PUSH1 0x0 DUP1 REVERT JUMPDEST POP PUSH2 0x93 PUSH2 0x109 JUMP JUMPDEST PUSH1 0x40 MLOAD PUSH2 0xA0 SWAP2 SWAP1 PUSH2 0x261 JUMP JUMPDEST PUSH1 0x40 MLOAD DUP1 SWAP2 SUB SWAP1 RETURN JUMPDEST CALLVALUE DUP1 ISZERO PUSH2 0xB5 JUMPI PUSH1 0x0 DUP1 REVERT JUMPDEST POP PUSH2 0xBE PUSH2 0x12D JUMP JUMPDEST PUSH1 0x40 MLOAD PUSH2 0xCB SWAP2 SWAP1 PUSH2 0x28B JUMP JUMPDEST PUSH1 0x40 MLOAD DUP1 SWAP2 SUB SWAP1 RETURN JUMPDEST CALLVALUE DUP1 ISZERO PUSH2 0xE0 JUMPI PUSH1 0x0 DUP1 REVERT JUMPDEST POP PUSH2 0xFB PUSH1 0x4 DUP1 CALLDATASIZE SUB DUP2 ADD SWAP1 PUSH2 0xF6 SWAP2 SWAP1 PUSH2 0x315 JUMP JUMPDEST PUSH2 0x133 JUMP JUMPDEST STOP JUMPDEST PUSH2 0x107 PUSH1 0x16 PUSH2 0x197 JUMP JUMPDEST JUMP JUMPDEST PUSH1 0x0 DUP1 SLOAD SWAP1 PUSH2 0x100 EXP SWAP1 DIV PUSH20 0xFFFFFFFFFFFFFFFFFFFFFFFFFFFFFFFFFFFFFFFF AND DUP2 JUMP JUMPDEST PUSH1 0x1 SLOAD DUP2 JUMP JUMPDEST DUP2 PUSH20 0xFFFFFFFFFFFFFFFFFFFFFFFFFFFFFFFFFFFFFFFF AND PUSH2 0x8FC DUP3 SWAP1 DUP2 ISZERO MUL SWAP1 PUSH1 0x40 MLOAD PUSH1 0x0 PUSH1 0x40 MLOAD DUP1 DUP4 SUB DUP2 DUP6 DUP9 DUP9 CALL SWAP4 POP POP POP POP ISZERO DUP1 ISZERO PUSH2 0x179 JUMPI RETURNDATASIZE PUSH1 0x0 DUP1 RETURNDATACOPY RETURNDATASIZE PUSH1 0x0 REVERT JUMPDEST POP DUP1 PUSH1 0x1 PUSH1 0x0 DUP3 DUP3 SLOAD PUSH2 0x18C SWAP2 SWAP1 PUSH2 0x355 JUMP JUMPDEST SWAP3 POP POP DUP2 SWAP1 SSTORE POP POP POP JUMP JUMPDEST DUP1 PUSH1 0x1 PUSH1 0x0 DUP3 DUP3 SLOAD PUSH2 0x1A9 SWAP2 SWAP1 PUSH2 0x1EC JUMP JUMPDEST SWAP3 POP POP DUP2 SWAP1 SSTORE POP POP JUMP JUMPDEST PUSH1 0x0 DUP2 SWAP1 POP SWAP2 SWAP1 POP JUMP JUMPDEST PUSH32 0x4E487B7100000000000000000000000000000000000000000000000000000000 PUSH1 0x0 MSTORE PUSH1 0x11 PUSH1 0x4 MSTORE PUSH1 0x24 PUSH1 0x0 REVERT JUMPDEST PUSH1 0x0 PUSH2 0x1F7 DUP3 PUSH2 0x1B3 JUMP JUMPDEST SWAP2 POP PUSH2 0x202 DUP4 PUSH2 0x1B3 JUMP JUMPDEST SWAP3 POP DUP3 DUP3 ADD SWAP1 POP DUP1 DUP3 GT ISZERO PUSH2 0x21A JUMPI PUSH2 0x219 PUSH2 0x1BD JUMP JUMPDEST JUMPDEST SWAP3 SWAP2 POP POP JUMP JUMPDEST PUSH1 0x0 PUSH20 0xFFFFFFFFFFFFFFFFFFFFFFFFFFFFFFFFFFFFFFFF DUP3 AND SWAP1 POP SWAP2 SWAP1 POP JUMP JUMPDEST PUSH1 0x0 PUSH2 0x24B DUP3 PUSH2 0x220 JUMP JUMPDEST SWAP1 POP SWAP2 SWAP1 POP JUMP JUMPDEST PUSH2 0x25B DUP2 PUSH2 0x240 JUMP JUMPDEST DUP3 MSTORE POP POP JUMP JUMPDEST PUSH1 0x0 PUSH1 0x20 DUP3 ADD SWAP1 POP PUSH2 0x276 PUSH1 0x0 DUP4 ADD DUP5 PUSH2 0x252 JUMP JUMPDEST SWAP3 SWAP2 POP POP JUMP JUMPDEST PUSH2 0x285 DUP2 PUSH2 0x1B3 JUMP JUMPDEST DUP3 MSTORE POP POP JUMP JUMPDEST PUSH1 0x0 PUSH1 0x20 DUP3 ADD SWAP1 POP PUSH2 0x2A0 PUSH1 0x0 DUP4 ADD DUP5 PUSH2 0x27C JUMP JUMPDEST SWAP3 SWAP2 POP POP JUMP JUMPDEST PUSH1 0x0 DUP1 REVERT JUMPDEST PUSH1 0x0 PUSH2 0x2B6 DUP3 PUSH2 0x220 JUMP JUMPDEST SWAP1 POP SWAP2 SWAP1 POP JUMP JUMPDEST PUSH2 0x2C6 DUP2 PUSH2 0x2AB JUMP JUMPDEST DUP2 EQ PUSH2 0x2D1 JUMPI PUSH1 0x0 DUP1 REVERT JUMPDEST POP JUMP JUMPDEST PUSH1 0x0 DUP2 CALLDATALOAD SWAP1 POP PUSH2 0x2E3 DUP2 PUSH2 0x2BD JUMP JUMPDEST SWAP3 SWAP2 POP POP JUMP JUMPDEST PUSH2 0x2F2 DUP2 PUSH2 0x1B3 JUMP JUMPDEST DUP2 EQ PUSH2 0x2FD JUMPI PUSH1 0x0 DUP1 REVERT JUMPDEST POP JUMP JUMPDEST PUSH1 0x0 DUP2 CALLDATALOAD SWAP1 POP PUSH2 0x30F DUP2 PUSH2 0x2E9 JUMP JUMPDEST SWAP3 SWAP2 POP POP JUMP JUMPDEST PUSH1 0x0 DUP1 PUSH1 0x40 DUP4 DUP6 SUB SLT ISZERO PUSH2 0x32C JUMPI PUSH2 0x32B PUSH2 0x2A6 JUMP JUMPDEST JUMPDEST PUSH1 0x0 PUSH2 0x33A DUP6 DUP3 DUP7 ADD PUSH2 0x2D4 JUMP JUMPDEST SWAP3 POP POP PUSH1 0x20 PUSH2 0x34B DUP6 DUP3 DUP7 ADD PUSH2 0x300 JUMP JUMPDEST SWAP2 POP POP SWAP3 POP SWAP3 SWAP1 POP JUMP JUMPDEST PUSH1 0x0 PUSH2 0x360 DUP3 PUSH2 0x1B3 JUMP JUMPDEST SWAP2 POP PUSH2 0x36B DUP4 PUSH2 0x1B3 JUMP JUMPDEST SWAP3 POP DUP3 DUP3 SUB SWAP1 POP DUP2 DUP2 GT ISZERO PUSH2 0x383 JUMPI PUSH2 0x382 PUSH2 0x1BD JUMP JUMPDEST JUMPDEST SWAP3 SWAP2 POP POP JUMP INVALID LOG2 PUSH5 0x6970667358 0x22 SLT KECCAK256 0xB0 SELFDESTRUCT CALLER 0xC7 0xCE 0xE5 PUSH21 0xB98DDF61AFF4AA61AAF72E520B0E175B0689E804DB NOT 0xC1 MOD 0x49 PUSH5 0x736F6C6343 STOP ADDMOD GT STOP CALLER "
				},
				"gasEstimates": {
					"creation": {
						"codeDepositCost": "191800",
						"executionCost": "24498",
						"totalCost": "216298"
					},
					"external": {
						"aa()": "infinite",
						"balance()": "2451",
						"owner()": "2511",
						"withdraw(address,uint256)": "infinite"
					},
					"internal": {
						"inc(uint256)": "infinite"
					}
				},
				"methodIdentifiers": {
					"aa()": "8466c3e6",
					"balance()": "b69ef8a8",
					"owner()": "8da5cb5b",
					"withdraw(address,uint256)": "f3fef3a3"
				}
			},
			"storageLayout": {
				"storage": [
					{
						"astId": 3,
						"contract": "ReceiveSendEth..sol:ReceiveSendEth",
						"label": "owner",
						"offset": 0,
						"slot": "0",
						"type": "t_address"
					},
					{
						"astId": 5,
						"contract": "ReceiveSendEth..sol:ReceiveSendEth",
						"label": "balance",
						"offset": 0,
						"slot": "1",
						"type": "t_uint256"
					}
				],
				"types": {
					"t_address": {
						"encoding": "inplace",
						"label": "address",
						"numberOfBytes": "20"
					},
					"t_uint256": {
						"encoding": "inplace",
						"label": "uint256",
						"numberOfBytes": "32"
					}
				}
			},
			"userdoc": {
				"kind": "user",
				"methods": {},
				"version": 1
			}
		}
	}
}